:020000040800F2
:2000000000200020790400089104000891040008910400089104000891040008910400086D
:200020009104000891040008910400089104000891040008910400089104000891040008D8
:2000400010B500F005F800F02BF8002010BDC0464EF600538022CEF20003120510B59A6016
:2000600000F0F2FA00F0C4FB00F032FC00F084FC00F0C2FB00F064FA43F6982000F0DAFCB5
:20008000431C00D010BD00F0C5FC012804D00120404200F0CFFCF5E700F088FBF7E7C04625
:2000A000F0B55746DE464E464546E0B58BB000236A46537002226A44137092466A46002157
:2000C000D71C03A81C22019302933B7001F0F2F940F2080340F20042C2F200039C18002256
:2000E00004C3A342FCD16B46D81D42F68073C0F6000301226221013B00E0995C815401323E
:200100000D2AFAD12D236A46137543F2002343F20C22C0F60003C0F600024CF615656846BF
:200120001978CFF2FF754019C15401339342F4D143F200082123C0F600086B4403259B46C6
:2001400046466B460020591C00F0D4FD0028F8D06B465B78022B2BD020D8EBB3752301221F
:200160003900002040F205083B7000F0E3FC2B004546984653460422002001A900F01CFD47
:20018000431C3AD11F23012239000020013D3B7000F0D0FC002DEDD14546D2E7032BD0D194
:2001A00001230122390000203B7000F0C3FCC8E700F030FC012801D01F23F2E775230122AA
:2001C000390000203B7000F0B5FC40F2E83000F00FFA00F0EBFAB4E700F01CFC1523002265
:2001E0006B4401284BD01A7001339B45FBD11922002002A900F09EFCA3E7019B4546984683
:2002000075230122390000203B7000F093FC40F20801534640F200420020C2F2000100F093
:20022000CBFC03008146013304D1C5E76B1E012D1AD91D0040F208014A463000C2F2000101
:2002400000F008FA0128F1D143464A469B1A0325984693B140F2080300224E44C2F2000301
:2002600004C3A342FCD1CBE723B343464A4601259B1A98466D42002BECD1202391E743F224
:20028000002343F20C21AC46C0F60003C0F600014CF6156568461A78CFF2FF754019C254D7
:2002A00001338B42F4D11922002002A9654600F041FC46E721330122390000203B700025CD
:2002C00000F038FC3DE7C046F0B54546DE4657464E460023E0B5137001334B80023B0B8049
:2002E000057883B00192E5B12A4A002740F2FF0C00240026904640F2000B40F2010A9946D4
:200300002B00213BDBB22F2B0FD842469B00D3589F46AC460134E4B2055D2600002DEFD123
:20032000FDB2019B00201D7004E000230120019A4042137003B03CBC90469946A246AB46C4
:20034000F0BD86197378303D303BDBB2EDB2092B18D96346FF2BE8D0413B1B01BE005D19E6
:2003600001377552BFB2D5E75246BB00CB185A804A4640F2FF0C1A80CCE75A46BB00CB18E9
:200380005A80C7E7AE00AD196D00ED180134EDB2E4B2DEE75C150008F0B5C64600B50023BE
:2003A00084B06A4602AC0293A3800B7813704B7853708A7801AB1A70CA785A700A799A7096
:2003C0004A79DA706B46019E1B889C46731E03334FD80B1A9846884248D041F21C6700238F
:2003E000C0F6000705002D781A0A6A4052001D02BB5A01306B409BB28842F3D11A0A520015
:20040000BA5A200041F21C670E24C0F600076C4404E005781A0A6A405200BA5A1B0253400E
:2004200001309BB2A042F4D1454606350631AE421FD3721BAE4210D041F21C678D18C0F64A
:200440000007080000781A0A424052001802BB5A013143409BB2A942F3D16246D31A581E32
:200460008341584204B004BC9046F0BD00220023C7E701204042F5E772B642F2000340F224
:200480009542C2F20003C0F600029D4610477047FEE7C046012170B50023802440F280106A
:2004A00049424EF20015CEF20005AC469A0062441151BFF34F8F01331150102BF1D14EF2A1
:2004C000001000230021CEF200001A00C0329200013311507C2BF8D14EF210030422CEF22C
:2004E00000031A60BFF34F8F4EF60053A022CEF2000312055A60D9611962BFF34F8FBFF30B
:200500006F8F62B640F2000040F2080242F6A071C2F20000C2F20002121AC0F6000100F0D1
:2005200077FF40F6100240F20800C2F20002C2F200000021121A00F0BDFFFFF781FDFEE707
:200540004EF21003CEF200031A680E490A4004211A601A688A431A601A6802398A431A60F6
:20056000094A00215A6040F60C02C2F20002116040F60802C2F2000211601A6801318A43FA
:200580001A607047FFFFFEFFFFFFFF004EF21003CEF200039B68154A10B5D21A40F60C03C4
:2005A000C2F200031968090E0906196019681143196040F60801C2F200010868904205D902
:2005C00080246404A4461868604418600A6040F20402C2F2000210681B68C008B3FBF0F2DE
:2005E0005001801A80008018C00010BDFFFFFF004EF21003CEF200031A68114910B50A406D
:2006000001211A601A6804000A431A600D4A9A6040F60C030022C2F200031A6040F60803C7
:20062000C2F200031A60FFF7B1FF001BFBD44EF210030121CEF200031A688A431A6010BD2B
:20064000FFFFFEFFFFFFFF0010B5022000F05AFC10BDC046F0B5DE4657464E464546E0B588
:20066000930883B004009B468A46009000F02AFCF82212062300944640F2001563449E0591
:20068000360EAD1BADB29F0A5D4501D35B469DB2F8221206944640F20842C2F200029046CC
:2006A000BB025B42634498440123C0F202039C466744BF023C4B4246FC1823001968D1504C
:2006C0000433BB42FAD19046002D66D040F20843C2F200039C46B60066443200002304E033
:2006E00001339BB204329D423BD011680131F7D0200000F023FC002845D10022002351469E
:20070000885801339BB2B05004329D42F8D146468A462000315900F04DFCA0BB0434BC42CA
:20072000F7D1B0460195204B019A9C46E04440F2004C6744934533D093009A44009BAD009C
:200740009C46AC44634600935B469B1A9B461D0040F200139B4501D940F200150026ADB26C
:20076000A8E75346009A2E009B1AA946019514001D0002E0013E04346EB12000295900F014
:2007800019FC0028F6D0002003B03CBC90469946A246AB46F0BD4D46C5E700230193C2E7B1
:2007A00000F0A6FB0120EFE700FCFFFF43F20003012130B50022802440F2801083B0C0F607
:2007C0000003019349424EF20015CEF20005AC4693006344013219511950082AF3D1019B19
:2007E0005B68019A126882F30888984703B030BD10B500F097FA10BDF0B5DE4657464E4690
:200800004546E0B5A5B004AE80220021300000F051FE02AB41F61C00DF1D00233A003100F5
:20082000C0F600003B70FFF74FFD019000284AD13B780024002B3ED041F6280A40F20F0B7C
:20084000C0F6000A06E000F037FC01343B78E4B2A34230D9A500735B1A096F2BF5D85946C7
:200860000B40012199409300984653464246985A894600F055FC41F640034246C0F60003E3
:20088000D3580121984600224B46404600F0C6FB75194B4600214046012200F0EBFB6B8891
:2008A00049464046002BCED000F004FC01343B78E4B2A342CED8019825B03CBC9046994646
:2008C000A246AB46F0BD01235B420193F3E7C04610B5902440F21150E40500F021FC40F229
:2008E0000E6000F01DFC200040F20022012100F0E5FB200040F20042012100F0DFFB20007B
:2009000040F200230122022100F088FB200040F200230122002100F0ADFB200040F20043E3
:200920000122022100F07AFB200043F6000440F200430122C4F20104002100F09BFB200095
:20094000002100F029FD2000002100F017FD2000002100F02FFDE1212000490200F0DEFC87
:200960002000042100F042FD0821200000F036FD200000F02DFD10BD10B5902440F2115084
:20098000E40500F0CDFB40F2117000F0C9FB20000422012100F092FB20000822012100F00E
:2009A0008DFB200004230122022100F037FB200004230122002100F05DFB200008230122BF
:2009C000022100F02BFB200044F2004408230122C4F20004002100F04DFB2000002100F0B2
:2009E000DBFC2000002100F0C9FC2000002100F0E1FCE1212000490200F090FC20000421EE
:200A000000F0F4FC0821200000F0E8FC200000F0DFFC10BD43F20C2143F2000010B5C0F60F
:200A20000001C0F60000FFF7B7FC43425841C0B210BDC046F8B50500431C18D04EF21003A7
:200A4000CEF200031A6839490A4001211A601A680A431A60364A9A6040F60C030022C2F20B
:200A600000031A6040F60803C2F200031A6043F61C0643F624072024C4F20106C4F2010709
:200A80006B1C03D0FFF782FDA8424CD833681C4203D03B68DBB2752B32D044F21C43C4F290
:200AA00000031B681C42EBD044F22443C4F200031B68DBB2752BE3D143F60003012140F24D
:200AC000000444F20040C4F201031A68C2F200048A431A60C4F20000216041F62005C0F618
:200AE000000500E0E85840F2077100F087FC23689B000028F6D075220020EB589A62F8BDF5
:200B000044F200430121C4F200031A6840F200048A431A6043F600000023C2F200042360EB
:200B2000C4F20100D9E701204042E8E7FFFFFEFFFFFFFF00F8B540F2000541F62004474608
:200B4000CE46C2F200052B68C0F600049B0080B58946904600270026E05802E02B689B0071
:200B6000E05840F2077100F049FC0028F6D04B46DA5D2B6801379B00E0589619BBB2F6B246
:200B800082629845EDD840F2077100F037FC40B92B6840F207719B00E05800F02FFC0028B6
:200BA000F6D0FF239E1B2B689B00E3589E620CBC90469946F8BDC046F0B557464546DE4602
:200BC0004E4640F2000A41F62009E0B5C2F2000A85B003935346C0F6000990464A461B6886
:200BE0004EF210079B00D058002340F2000B0025002402910193CEF2000740F2057100F0AC
:200C0000FDFB060070B353464A461B689B00D05821235B42C361436ADBB2444530D30193E5
:200C20003B68324A0134134001223B603B68A4B213433B602E4B0022BB6040F60C03C2F2B6
:200C400000031A6040F60803C2F200031A60A0452CD340F2057100F0D1FB40F2010B060019
:200C60000028D0D1FFF792FC40F2F413984201D95B4653B953464A461B689B00D058BCE77B
:200C8000029AED181355EDB2CAE753464A461B689B00D35821225242DA61012C1ED9029BB6
:200CA0001B19013B1B78ED1A0193EDB2FF235D1B019BAB4217D1039A1370444508D3013C2B
:200CC000A0B205B03CBC90469946A246AB46F0BD029B1919002301390B70F0E70120029B9E
:200CE00040421E70EDE701204042EAE7FFFFFEFFFFFFFF0010B582B06B4600220C0069461F
:200D000003338A801A7001A90132FFF755FF0023012803D16B461B7923700123180002B0FC
:200D200010BDC04641F20002012110B5C4F20202136882B00B431360013113681942FCD0C8
:200D400041F204038021C4F202031A680A431A6000230193019B7F2B05D8019B0133019376
:200D6000019B7F2BF9D941F204039021C4F202031A680A431A6000230193019B7F2B05D892
:200D8000019B01330193019B7F2BF9D941F204030321C4F202031A684FF6FF708A4341F288
:200DA00000011A60C4F202010A68CFF6F26002400C200A601A68C0F6FF0002404FF6FF7071
:200DC0001A601A68C7F2C27002401A6041F22C030F20C4F202031A68012482431A6041F20B
:200DE0003003C4F202031A68344802401A601A68334802401A601A68520052081A6041F2B7
:200E00003402C4F20202106841F20803A04310600022C4F202031A600B68022023430B601C
:200E200040F2005301E0013B13B10A681042FAD041F200030221C4F202031A6811423CD0C9
:200E400042F200000724C4F202000268A2430A43026041F204024FF6FF70C4F2020211685D
:200E6000CFF2C2701160116811601168116011680140116000211068C0F604010143116006
:200E80008022196852040A4380211A6089041A680A42FCD041F204020321C4F202021368B8
:200EA0008B431360136801390B4313600A3113680B40082BFBD102B010BDFEE7FCFEFFFF1F
:200EC000FFFFFEFF42F21003C4F202031B681B060DD542F2040340F22312C4F20203C4F27C
:200EE00067521A6048F6AB12CCF6EF521A60704742F210038021C4F202031A680A431A60A4
:200F00007047C04642F200020721C4F2020213688B4303431360704742F20C03C4F2020345
:200F20001A680120D20706D41A68D20604D418684007C00F400070470420FCE770B5F0245C
:200F40000500240301E0013C3CB3FFF7E5FF0128F9D008BB42F210030221C4F202031A6822
:200F6000F0240A431A6042F21402C4F2020215601A683E310A431A60240301E0013C74B1FB
:200F8000FFF7CAFF0128F9D042F210030221C4F202031A688A431A6070BD0430FCE742F23A
:200FA00010030221C4F202031A6804308A431A60F2E7C04670B5F02406000D00240301E010
:200FC000013CFCB1FFF7A8FF0128F9D0C8B942F210030121F024C4F202031A6824030A43E9
:200FE0001A60356001E0013C74B1FFF795FF0128F9D042F210030121C4F202031A688A43B0
:201000001A6070BD0430FCE742F210030121C4F202031A6804308A431A60F2E7F0B54546E8
:20102000DE4657464E468C46904683461A000024012140F20309E0B50768C5680E00A64027
:2010400032420AD04E46604663009E409840B743074340469840B54305430134102CEDD1DE
:201060005B461F60DD603CBC90469946A246AB46F0BDC046F0B5012917D0416899434160FE
:201080000021012640F2030C846835008D402B4206D067464D00AF40BC431700AF403C4329
:2010A00001311029F1D18460F0BD416819434160E6E7C0468161704781627047F0B5474694
:2010C000CE46002380B58946012740F20F08066A456A3C009C40224206D041469C00A140EF
:2010E0008E434946A1400E430133082BF1D1012740F20F0C3C009C40224207D061469C002A
:20110000203CA1408D434946A1400D430133102BF0D1066245620CBC90469946F0BDC04693
:2011200041F200031F21C4F202039C46012382090840834010B5624414682343136010BD55
:2011400041F67003F0B589B0C0F6000304A91C0002000800E0CCE0C0246804606C46180075
:2011600025001030C0C8C0C510332800C0CBC0C541F20406C4F2020633681B079B0F022BF3
:2011800035D041F20025C0F27A0541F204062F00C4F2020633681B061B0FCB5C0721DF4043
:2011A00033681B0A0B40E45C3368DB0A1940435C3800D840052A00D9ABE0574B92009B5862
:2011C0009F4641F204030321C4F202031B6812689B0B0B40D20F022B00D18EE0032B64D173
:2011E000C00812B10920B7FBF0F009B0F0BD35683368AD022D0F1B0119D40F2D5DD0AB1CE7
:2012000041F20405C4F202052D68ED0318D541F22C05C4F202052E680F25354041F20026AA
:201220000135C0F27A06B6FBF5F55D43ADE72B0041F20405C4F202052D681133ED03E6D4D0
:201240005E01F61AB501AD1BED00ED182D029CE741F230020323C4F2020211680B42C4D05E
:201260001168194001292AD12800BEE741F23002C4F202021368DB05A3D4802310685B0241
:2012800018404342584146F280034042CFF62A73184043F60073C0F2AB139C466044A4E7B4
:2012A0003800A2E73800E0409FE7012B1DD04008002A9AD0B7FBF1F097E71023A0E7116856
:2012C000194002291ED0106818400338431E98414EF600634042CFF68573184041F20023C3
:2012E000C0F27A039C4660447FE78008002A00D17BE70520B7FBF0F077E732B90623B0FB1A
:20130000F3F072E748F200006FE70720B7FBF0F06BE7002069E7C0465818000844F200438F
:20132000C4F2000370B504000D00984222D043F60003C4F2010300209C4202D10530FFF700
:20134000FFFE23681B0408D469080918B1FBF5F14FF6FF752940E16070BD4000690841184C
:20136000B1FBF5F14FF6F0700B075B0F01401943E160F1E70220FFF7E3FEE2E701230268B4
:201380009A4302600268034B1A40026003680B4303607047FFF9FFFF012302689A43026004
:2013A0000268034B1A40026003680B4303607047FFEFFFFF012302689A4302604268034B35
:2013C0001A40426043680B4343607047FFCFFFFF01220368134303607047C0460823026859
:2013E0009A43026003680B4303607047042302689A43026003680B43036070478B091B1871
:2014000018681F23194003000120CB4018407047F0B5C64600B50F2A42D90B00032603433F
:201420001E400C000300002E3FD11500103D2D09AC462D01A846804400E03B006768256820
:201440005F60E7681D60DF601F00A56810379D6010344345F1D165460F230C2401352D0153
:20146000491913404519144222D08C59AC5104369C1B032CF9D80324043B9B0801339B0066
:201480002240ED18C918561E3AB1002300E02300CA5C5C1CEA549E42F9D104BC9046F0BDB6
:2014A0000500561E002AF0D1F7E7561E0500ECE71A00F6E7F0B583074BD0541E002A43D0AE
:2014C000CEB20300032501E0013C3DD301335A1E16702B42F8D1032C2FD9FF220A40150212
:2014E00015432A0415430F2C36D92700103F3F093E01B4461E001A0010366644156055607B
:201500009560D5601032B242F8D10F260C2201373F012640DB193700224216D03E1FB608D1
:20152000B400A4461A001C1D644420C2A242FCD103240136B6009B193C402CB1C9B21C19AE
:20154000197001339C42FBD1F0BD3400002CF5D1FAE714000300BEE72700DFE77A03000842
:201560002A0300082A0300082A0300082A0300082A0300082A0300082A0300082A030008C3
:201580002A0300082A030008680300082A0300082A0300082A030008420300084203000835
:2015A0004203000842030008420300084203000842030008420300084203000842030008C3
:2015C0002A0300082A0300082A0300082A0300082A0300082A0300082A030008120300087B
:2015E000120300081203000812030008120300081203000812030008120300081203000803
:201600001203000812030008120300081203000812030008120300081403000800002110CC
:20162000422063308440A550C660E770088129914AA16BB18CC1ADD1CEE1EFF13112100286
:2016400073325222B5529442F772D662399318837BB35AA3BDD39CC3FFF3DEE362244334C2
:2016600020040114E664C774A44485546AA54BB528850995EEE5CFF5ACC58DD55336722606
:2016800011163006D776F6669556B4465BB77AA719973887DFF7FEE79DD7BCC7C448E558C2
:2016A0008668A7784008611802282338CCC9EDD98EE9AFF9488969990AA92BB9F55AD44A86
:2016C000B77A966A711A500A333A122AFDDBDCCBBFFB9EEB799B588B3BBB1AABA66C877CC2
:2016E000E44CC55C222C033C600C411CAEED8FFDECCDCDDD2AAD0BBD688D499D977EB66E06
:20170000D55EF44E133E322E511E700E9FFFBEEFDDDFFCCF1BBF3AAF599F788F8891A981DF
:20172000CAB1EBA10CD12DC14EF16FE18010A100C230E3200450254046706760B983989385
:20174000FBA3DAB33DC31CD37FE35EF3B1029012F322D2323542145277625672EAB5CBA5C1
:20176000A89589856EF54FE52CD50DC5E234C324A01481046674476424540544DBA7FAB705
:201780009987B8975FE77EF71DC73CD7D326F2369106B01657667676154634564CD96DC9C1
:2017A0000EF92FE9C899E9898AB9ABA94458654806782768C018E1088238A3287DCB5CDB85
:2017C0003FEB1EFBF98BD89BBBAB9ABB754A545A376A167AF10AD01AB32A923A2EFD0FEDC1
:2017E0006CDD4DCDAABD8BADE89DC98D267C076C645C454CA23C832CE01CC10C1FEF3EFF05
:201800005DCF7CDF9BAFBABFD98FF89F176E367E554E745E932EB23ED10EF01E0000000033
:2018200000380140004400401105000012050000130500000000000000000000160500004B
:2018400000000048000400480008004800000000000000000014004868120008A01200080C
:20186000A4120008EA1100086C12000850120008000000000000000001020304060708098F
:2018800000000000010203040000000000000000000000000000000000000000000000003E
:2018A000000000000000000000000000000000000000000000000000000000000000000028
:2018C000000000000000000000000000000000000000000000000000000000000000000008
:2018E0000000000000000000000000000000000000000000000000000000000000000000E8
:201900000000000000000000000000000000000000000000000000000000000000000000C7
:202F8000626564305F3130305F4732310000000000000000000000000000000000000000DD
:082FA000FF00000000A24A043A
:20300000002000204534000841340008413400084134000841340008413400084134000801
:203020004134000841340008413400084134000841340008413400084134000841340008A8
:20304000413400084134000841340008413400084134000841340008413400084134000888
:20306000413400084134000841340008413400084134000841340008413400084134000868
:20308000B141000841340008413400084134000841340008413400084134000841340008CB
:2030A00041340008413400084134000821320008000000000000000000000000000000003E
:2030C0000000000000000000000000000000000000000000000000000000000000000000F0
:2030E0000000000000000000000000000000000000000000000000000000000000000000D0
:203100000000000000000000000000000000000000000000000000000000000000000000AF
:2031200000000000000000000000000000000000000000000000000000000000000000008F
:2031400000000000000000000000000000000000000000000000000000000000000000006F
:2031600000000000000000000000000000000000000000000000000000000000000000004F
:2031800000000000000000000000000000000000000000000000000000000000000000002F
:2031A00000000000000000000000000000000000000000000000000000000000000000000F
:2031C0000000000000000000000000000000000000000000000000000000000000000000EF
:2031E0000000000000000000000000000000000000000000000000000000000000000000CF
:20320000626564305F3030345F303030CD3278A60000000000000000000000000000000054
:2032200043F61C03C4F201031B689B0608D443F61C03C4F201031A688023134220D1704748
:2032400043F62403C4F201031A6840F2FF1313407E2B36D040F2E852C2F200021178BF29F9
:20326000E5D8481C107040F22852C2F20002535443F61C03C4F201031A6880231342DED06A
:2032800040F2F97240F2F871C2F20002C2F200011078097881420CD9431C137040F29873BB
:2032A000C2F200031A5C43F62803C4F201031A60C5E743F60002C4F20102116899431160E3
:2032C000BDE740F200020021C2F200021172C1E742F20043C4F201031A6810B5D20608D5E7
:2032E00040F2A05C1868204B8007C0171840604410BD42F234411F22C4F201010B68C4B203
:203300009343E032104003430B60092C1CD9122C0ED843001818072342F20C421E3883403E
:20332000C4F2010211689943012383400B43136042F208438022C4F201031968D2030A4359
:2033400040F2A0501A60D3E742001018072242F210418240C4F201010B6893431A000123FE
:20336000834013430B60E3E760FAFFFF40F28C7248F20001C2F20002136859181160802287
:20338000520294466344836001207047EFF3108172B60F220123024093404CF2C42200096B
:2033A0008000C0F600028258D36281F3108870470423C0F600031B6807211A00023B093ADE
:2033C0008B439A420DD0BFF34F8F4EF600530422CEF20003C0F2FA52DA60BFF34F8FC04688
:2033E000FDE746F243131068C4F26E239842EAD146F66F735268C2F274139A42E3D18023C1
:203400001B051A6853188B439A42DCD172B642F23D404EF64541CAF6A810C7F606311060C9
:203420005160BFF34F8F4EF600530422CEF20003C0F2FA52DA60BFF34F8FC046FDE7C04613
:20344000FEE7C04672B642F2000343F26542C2F20003C0F600029D4610477047202010B5E1
:2034600003F080F9012130B50023802440F2801083B049424EF20015CEF20005AC469A00EC
:2034800062441151BFF34F8F01331150102BF1D14EF2001000230021CEF200001A00C032A2
:2034A0009200013311507C2BF8D14EF210030422CEF200031A60BFF34F8F4EF60053A022D6
:2034C000CEF2000312055A60D9611962BFF34F8FBFF36F8F62B640F2000040F264024DF242
:2034E0001461C2F20000C2F20002121AC0F6000108F0CCFC40F62C3240F26800C2F2000266
:20350000C2F200000021121A08F06EFD41F200030121C4F202031A680A431A600222196846
:203520000A42FCD041F204038021C4F202031A680A431A6000230193019B7F2B05D8019B1E
:2035400001330193019B7F2BF9D941F204039021C4F202031A680A431A6000230193019B49
:203560007F2B05D8019B01330193019B7F2BF9D941F204020321C4F2020213684FF6FF7002
:203580008B43136041F20003C4F202031968CFF6F26001400C2019601168C0F6FF0001400C
:2035A0004FF6FF7011601168C7F2C2700140116041F22C020F20C4F20202116881431160D8
:2035C00041F23002C4F20202116840480140116011683F4801401160116801204900490833
:2035E000116041F23402C4F2020211688143116041F208020021C4F20202116080221968DD
:2036000052020A4380211A6089024FF6FF7201E0013A12B118680842FAD041F20002C4F24F
:20362000020213689B034FD542F200030720C4F2020319688143080002210143196041F2D0
:2036400004034FF6FF70C4F202031968C7F2C27019601968196019681960196801401960E0
:20366000E8211868490301431960802311685B040B43136080239B0411681942FCD041F267
:2036800004030321C4F202031A688A431A60022219680A430C211A601A680A40082AFBD118
:2036A00043F200034EF60052C0F60003CEF20002936041F214038022C4F202031968920212
:2036C0000A431A6005F074FAFEE7C046FCFEFFFFFFFFFEFF43F2957170B5C0F600010400C7
:2036E000007803F029F96568C37EE9B2CB18C37672B6827C8A4205D800238374FE330377E4
:2037000062B670BD521AD2B262B1FF242C4005000023133413350419E15CE9540133D9B2C5
:203720008A42F9D88274EBE744F6315170B50400C0F60001007803F0FFF86368A268E16808
:203740001C0408D4058A9C18AC4204D81233C01808F09CFB70BD242003F004F844F6C95100
:2037600010B50400C0F60001007803F0E5F8237A032B0CD806210A00037C1A40194206D196
:2037800002604260826004221343037410BDFFF765FEC04610B50479082C0FD8220043F270
:2037A00095712032C0F60001007803F029FB43F63D73C0F600038477436010BD282002F024
:2037C000D1FFC04643F2C57170B54C220500C0F60001007803F014FB43F6A52344F6C9518A
:2037E000C0F6000304004360C0F60001287903F0A3F8206170BDC04670B5067A0400032EF5
:2038000017D843F2F9712022C0F60001007803F0F7FA43F6C12344F6C951C0F60003050096
:203820004360C0F60001207903F086F8AE77A86170BD222002F096FF44F6C951F8B50400FB
:20384000C0F60001007903F077F8A66843F63901F7B23A00050008322078C0F6000103F0F1
:20386000CFFAFF22077105603240E168053008F00DFBF8BD44F6C95110B514220078C0F65F
:20388000000103F0BDFA10BDF0B544F67151C646050000B50078C0F6000103F04DF80223BD
:2038A0001A00467C040032409046334202D004BC9046F0BD6B68A968DFB22D7B0A2F3ED8EA
:2038C0000A2D3CD8FF2220301A4008F0DFFA4346A37431230222334013436374ED00FB0061
:2038E0002375E5742FB12023E25C1F3313402A2B1FD0A369E36144F27953C0F600036360BF
:2039000072B640F28C73C2F20003196840F224434FF6FF7243F6400CC4F200031B680A40BC
:203920004B409B1863442000A36005F067FC62B6BDE744F2F543C0F600036360E0E7232077
:2039400002F010FF70B540F228040123C2F20004236046F24533C0F60003A36040F28C73E7
:20396000C2F200031E6840F2244345F24041C4F20003C4F68941A0691D6805F063FE05F0A3
:20398000DBFC4FF6FF7375403340ED184519201DE56005F033FC70BD43F2957170B5C0F625
:2039A00000010500007802F0C7FF040005F0F8FB6B68A360AA68E2602B7C63742374002383
:2039C000A374E376FE332377EB6863771B0604D412B1200005F012FC70BD262002F0C2FE7B
:2039E00044F6554170B5C0F600010500007802F0A3FF040005F0D4FB6B682000A360AA683A
:203A0000E260EA686361226105F0F8FB70BDC04643F2F97170B5C0F600010500007802F0C6
:203A20008BFF040005F0BCFB6B68A360AB68E36053B1EB68200023612B6963616B6923775F
:203A40000023637705F0DAFB70BDC04643F6554170B50500C0F60001007802F06DFF0122C3
:203A60006B680400C361037D1343037505F098FB72B640F28C73C2F20003196840F224434B
:203A80004FF6FF72C4F200031B680A404B409B182269200094466344A36005F0AFFB62B6C6
:203AA00070BDC046042210B5037E1343037640F26800C2F2000005F069FB002010BDC046FE
:203AC00010B5040040F28870C2F2000005F05EFB0122E37F01201343E268E3779446A3686C
:203AE0006344A36010BDC04610B50400006AFFF7EFFB28B1A3689C466044A060012010BDDE
:203B000042F200430221C4F201031A688A431A601A680E318A431A60262242F24C43A15C78
:203B2000C4F2010301321B68A05C9BB2263A814204D2228B01319B189BB2CAB2262123838B
:203B40006254904215D8628B9A4218D8A28B9A4215D324230022E25440F26C00C2F2000055
:203B600005F014FBE2686369944663446361A360C4E72269A36894466344A360BEE7242233
:203B8000A35C0133DBB2A3540132A25C9A42E3D840F20003C2F200035B7A002BD9D11F20D1
:203BA00002F0E0FD10B5040040F2FC10C2F2000005F0ECFA226901209446A3686344A36065
:203BC000237D184010BDC04630B504002500437E828A4CF22C1083B01A35C0F600000095F8
:203BE00003F004FA00236376A38A0133A38203B030BDC04610B5436984B00178039303698C
:203C000004000293C368019383680093436802684CF20410C0F6000003F0E8F943F6F5317E
:203C200084222078C0F6000103F0EAF800222368C3606368826703614267042B06D844F2E6
:203C40001163C0F60003436004B010BD1E2002F089FDC04643F6554130B5040034220078D1
:203C600083B0C0F6000103F0CBF82368C36063688361042B17D84DF6D053C0F206030361A4
:203C800043F6A5330025C0F60003057543604CF2EC000ACC01950A000095C0F6000003F03A
:203CA000A5F903B030BD1C2002F05CFD70B540F208244268C2F200041500A44640F2D8232E
:203CC0009435AD006544AD688CB0E35821780B9515007335AD006544AD684CF2CC100A951F
:203CE00015005235AD006544AD68C0F60000099515003135AD006544AD680895150011358B
:203D0000AD0065446D68079515009335AD006544AD68069515007235AD006544AD68059538
:203D200015005135AD006544AD68049515003035AD006544AD68039515001035AD006544B7
:203D40006D68029540F204356559019540F2E225645D009403F04AF90CB070BD30B540F274
:203D6000F0554268C2F200051400AC4640F2F0511D34A4006444646889B0C2F200010B6E52
:203D80000978079414001C34A400644464684CF2EC10069414001B34A40064446468C0F686
:203DA0000000059414001A34A40064446468049414003D34A4006444A468039414003C3460
:203DC000A4006444A468029414003B34A4006444A468019414003A34A4006444A468009417
:203DE00003F004F909B030BD0F230121034099404CF2C4230009C0F600038000F0B5C65893
:203E00000124736803258B4373600023B06822009A40114203D02F005A009740384301336D
:203E2000102BF4D1B060F0BDEFF3108172B642F200430222C4F20103186802420BD01868B6
:203E40009043186010201A6882431A6042F24C43C4F201031B6881F31088704744F6C9312F
:203E600070B5C0F600010500007802F065FD040005F096F9FFF7D8FF27226B686361A3605D
:203E8000AB6823612B7BA354591C013AA1542A69E2606A69E9696283AA69A2832522A154F6
:203EA00013B1200005F0AAF970BDC0462023C4F60003F0B51D6824230121C4F60003814042
:203EC000012418680F27002322009A40114206D03E009A009640B543260096403543013371
:203EE000082BF1D101240F2722009A40114207D03E009A00203A9640B043260096403043E2
:203F00000133102BF0D11033C4F600031D602423C4F600031860F0BD4CF2C422C3B2190910
:203F20008900C0F600028A5810690F221A40012393401840431E9841C0B27047F8B5877FF5
:203F400006007FB10027012500243319D87FFFF7E3FF00B12F430134B37F6D00E4B2EDB213
:203F6000A342F2D8327CBA4207D0737C11007B40DB437940DBB2194211D11C23F356347F7A
:203F80007774002B04DB013CE4B2FF2C1CD03477F268B368944663440120B360F8BD9A43DB
:203FA0003B401343B27C3374072AE6D840F2F010511CB218B174C2F20000D37405F0E6F810
:203FC000FF2377743377E3E740F2F010C2F2000005F0DCF8DBE7C04670B5012583690400AE
:203FE0001D4021238668C05CFFF796FF854203D0A369E6610133A36163699B1B06D4E268C0
:20400000A368944663440120A36070BD20220121A35C40F2F4100B43A3542369C2F20000A5
:204020009C466644666105F0B1F8E8E740F2F053C2F2000370B51D8840F28073C2F20003EE
:2040400004001879FFF768FF02004CF2F4102900C0F6000002F0CAFF200003F001F970BD56
:204060000F23020918400E3B834039B94CF2C4219200C0F600015258936270474CF2C421C8
:204080009200C0F6000152589361F6E7F0B543F6F531C646050000B50078C0F6000102F071
:2040A0004BFCEB68040023B90133436704BC9046F0BD002343676B6898460369CBB10700F8
:2040C00000261437A31954331878FFF725FF4346386502CFC91A4B1E994133000C339B0058
:2040E000E3185868C9B2FFF7BBFF23690136B342E8D8A86807F08CFC48F280430022C4F2FE
:204100002E1306F0BDF942F688230022C4F2911306F0F4FD05F028F940082066EB685B00DA
:20412000A365E36540F28C73C2F20003196840F224434FF6FF72C4F200031B680A404B4066
:204140009B18226E200094466344A36005F056F8ACE7C04640F2807310B50400C2F20003F7
:2041600001791868FFF77CFF200003F079F840F208234CF2DC10C2F200031988C0F60000BB
:2041800002F034FF10BDC0460F220123024093404CF2C42200098000C0F600028258D36249
:2041A0007047C046000000000000000000000000F8B5022240F21043DE4657464E4645460C
:2041C000C4F200035242E0B51A6072B640F2907640F2000540F28C7740F224484EF2C06AAF
:2041E000C2F2000633684FF6FF7B9946C2F20005C2F20007C4F20008CFF6FE7A10E03968CC
:204200004246584612684A4001405218991A902960DC4846801A4BD462B6002929DC72B66C
:204220002C686368002B3DD1206AFFF7ADFF63695A1E012B28D0E168A36862611020225E8B
:20424000CB185218A360E26021688A6894469A1AD5D46A6829609068181A00D50A001000A6
:2042600012689168591AFAD52260634604606C60C5E739684246584612684A40014052180C
:204280009A1A002ACBDDF4E7200002F035FAA3680028D9D12268696893682A608C42AED172
:2042A0006A60ACE720009847A3680028CCD1F1E751451BDB287A7F2805D948F6A04991444B
:2042C0004A463260A8E741F62043D318336013006933FF3340F22C42C4F20002136062B651
:2042E0003CBC90469946A246AB46F8BD687A0028E0D12C3002F036FAF0B5DE4657464E4650
:20430000454644F63151E0B5036887B0D8B2C0F6000140F28C75039302F00EFBC2F2000561
:2043200007008168C2682E6840F224404FF6FF74C4F200000368344073401B194FF6FF7649
:204340005B1A9A4207D92C680368634034401B195B1A9A42F7D8398A3B682A689946049156
:2043600040F224464FF6FF7440F2120CC4F200063368144053401C197B68BC440293634605
:2043800005930193002900D183E0BB463700019B40F208081B784FF6FF769A468023524616
:2043A000009413423ED02A683B68534032409B181B1B592BF7D972B62B683C6848465C4006
:2043C0003340E418FFF7E0FE62B6009B029AE31A9A426CD953465B009A462A683B68534091
:2043E00032409B181B1B2D2BF7D972B64846FFF7CBFE62B62B683A685A403340D2182968F0
:204400003B684B4031405B189B1A0D2BF7D901235B429C46E044434683B380235246009478
:204420001342C0D12A683B68534032409B181B1B592BF7D972B62B683C6848465C40334023
:20444000E418FFF7A1FE2A683B68534032409B181B1B0D2BF7D94846FFF796FE62B6009BD5
:20446000029AE31A9A4222D953465B009A4601235B429C46E0444346002BCED10499019AA6
:204480008C46059B013263440192934200D07EE75F46296840F224434FF6FF72C4F20003F5
:2044A0001B680A404B409B18BB60012211E000214846FFF7D5FD5F46296840F224434FF637
:2044C000FF72C4F200031B680A404B409B180022BB60FF214CF23C10039BC0F60000194013
:2044E00002F084FD07B03CBC90469946A246AB46F0BDC04670B50400C068FFF745FE40F29D
:204500008C73C2F20003196840F224434FF6FF72C4F200031B680A404B4001219A18637C51
:204520004B406374A37C0133DBB2A374012B1FD0042B06D8A168A3699C466144A16001203C
:2045400070BD0321A068E369C318D31A9A1CD51729408918A2698910944644F2795261441E
:20456000C318E161C0F6000259186260A160E6E7A168521AE261DEE7F8B5CE464746040096
:2045800080B5C068FFF700FE01230121607C257D5840A37C60740133DBB2E6690840AB4236
:2045A00034D20727DA08A218203212781F403A411140884223D1310040F2070C40F20109B4
:2045C0000AE06746DA08A218203212781F403A414F463A40904213D10133DBB28919AB42DD
:2045E000EFD345F2D913C0F600036360A3689C466144A16001200CBC90469946F8BD310043
:20460000A374A3689C466144A160F3E73100E8E770B5040040F2F810C2F2000004F0B6FD58
:2046200023695BB100252B0010339B00E3185868FFF7AAFD23690135AB42F4D8A26D531E61
:20464000A365E3B1DB0717D5E36D9A4246D040F28C73C2F20003196840F224434FF6FF72F6
:20466000C4F200031B680A404B409B18226E012094466344A36070BD636F012BE4D1200041
:2046800004F08EFD40F28C73C2F20003196840F224434FF6FF72C4F200031B680A404B40D2
:2046A0009B188022A350A36D5B08E3670123A36723697BB1260000256436AB00F15C2B0007
:2046C0000C339B00E3185868FFF7CAFC23690135AB42F2D8002300206367CCE740F28C731F
:2046E000C2F20003186840F224424FF6FF71C4F20002126801404240521880216250A26D75
:204700005208E2670122A267A5E7C046F0B540F2F054C646C2F20004238C002500B57BB1A4
:2047200040F2F0522B00C2F20002944612339B0063445868FFF728FD238C01359D42EFDB5A
:2047400040F278156359226E013B6351002A00D1BBE043B1DA0700D5D0E040F27213E35A7A
:20476000012B00D0BDE040F2EC0843461F25E75840F22801FB17DB0EFE182E40F61A40F252
:20478000F053C2F200039C4648F60003C2F20001002208694969C4F2C303B600664406F030
:2047A000ADFA04F0E1FDF023F0504346A26E0137D117C90EE75053182B405B1A40F2F051A8
:2047C000C2F200018C465A35FF3560599B00C10F091863444910D96640F288130132A26603
:2047E000E25A012A5ED10022E252143BE35800210020635101F04AFF40F27013E05A012103
:204800004342584101F042FF40F28C71C2F20001086840F224434FF6FF72C4F200031B6869
:20482000024043409B1840F27C12A2589B18E360635940F2741240F28010A2582058D21ABC
:20484000824200DAB5E0984200DCA1E01B0293FBF0F340F20012D31AFF2B00DDDFE00E68F3
:2048600040F27C11DF4360580831655A4CF2DC21FF173B40C0F600015B005B5A40F2E831C9
:2048800045436B4340F2244293FBF1F3C4F2000212684FF6FF7172403140521812189B1887
:2048A000E3600EE0201D04F07BFC0021002001F0EDFE64230822E25200236B32FF32A35237
:2048C0006351012004BC9046F0BD40F28073C2F200031879FFF720FB012800D18DE063591F
:2048E00037E740F28073C2F200031879FFF714FB012800D137E740F27813E35840F286124E
:20490000A25A520093FBF2F14A4393423BD140F2EC0843461F25E75840F22801FB17DB0EE2
:20492000FE182E40F61A40F2F053C2F200039C4648F60003C2F20001002208694969C4F2E4
:20494000C303B600664406F0D9F904F00DFDF023F05043460137E750A36EDA17D20E99188D
:204960000D40AD1A40F2F05240F27811C2F2000294466058AD00C20F121865445210EA66A9
:204980000133A366635840F28C71C2F2000150E7096840F224434FF6FF72C4F200031B6808
:2049A0000A404B409B1840F27C12A2589B18E36087E7120292FBF0F240F200139A1AFF2AAC
:2049C0002FDC0E6840F22443C4F20003196840F27C13D743E0580833E55A4CF2DC23FF17A3
:2049E0003A405200C0F60003D35A40F2E83245436B4393FBF2F30A004BE740F2280148F63B
:204A00000003C2F20001C4F2C30300220869496906F074F904F0A8FC6359206699E6FF233F
:204A20001DE7FF22CDE7C0460123F0B5DE4693460F228C461900024091404E4645465746E6
:204A40000A004CF2AC2441F20001E0B51F2500098000C0F60004C4F2020106598846354093
:204A6000AB40B4094444276840F203083B4323604CF2C423C0F60003C35801271D689946B4
:204A8000D86800233C009C4022420AD0444661465E00B440B140A5430D435946B140A0433E
:204AA00008430133102BEDD14B461D60D8603CBC90469946A246AB46F0BDC0464CF2D002EF
:204AC000030010B500200024C0F6000200E0A05C984205D001340A2CF9D12D2001F042FED4
:204AE00041F2180340F20021C4F202031A680A431A60FE285BD142F208438022C4F20103E4
:204B000012041A6041F20402C4F2020213682A494FF6FF600B40136041F23003C4F20203A1
:204B20001968C7F6FE70014048F20000196011680143116040F200111A6820480A431A60B3
:204B400042F20843C4F201031A681D490A401A6042F22C42C4F20102116801401160116871
:204B600011601A6817490A401A60E022196812030A431A608022196852030A4301211A605E
:204B80001A680A431A601A6807310A431A601A681142FCD104211A680A431A6042F20842BD
:204BA000C4F2010213681942FCD1200010BD00220321FFF739FFA5E7FF3FFFFFFFFF0FFF64
:204BC000FFF7FFFFFFFFF1FF70B504000079FFF775FF44F6C931050028222078C0F6000115
:204BE00002F00EF943F6E923C0F600034360012226230562C25470BD70B504005F280CD871
:204C00004A424A410132EFF3108572B60021FFF70BFF85F31088201C70BD2A2001F0A2FD37
:204C200043F2957170B5C0F600010400007801F083FE6368817FDAB2914208D9FF251D40E3
:204C40004519217B207AFFF7D7FFE87770BD272001F088FD44F6554170B524220400C0F6B6
:204C60000001007802F0CCF8217A05002079FFF7C3FF2123E85443F6D973C0F600036B608B
:204C800070BDC04640F2F0530268C2F2000370B51A80426804001A84C06805F023F845F2D1
:204CA000000140F22805C4F2C37104F0BFFBC2F200050121A861207A40F28075FFF79CFFC6
:204CC000C2F200052871200002F0CAFA70BDC0460F23F0B5C6460125034004000F009D403D
:204CE00000B50609EFF3108872B600220121FFF79BFE2000FFF778F84CF2C423B600C0F664
:204D00000003F3582FB99D6288F3108804BC9046F0BD9D61F8E7C04610B504005F2803D8FA
:204D2000FFF7D6FF200010BD2B2001F01BFDC04670B5040000210079FFF7EEFFA3680500AB
:204D40009EB21B0410D4320044F631511432207892B2C0F6000102F053F80560E3680682C4
:204D600043602369C36070BD252001F0FBFCC046F0B544F67151C64604002C2200B5C0F617
:204D80000001007802F03CF86368267A9846731E9E4143460500F1B2D8B2E768FFF72CFF90
:204DA00001212874F8B2FFF7B7FFE86023697642AB61102333400133B84501D12022134306
:204DC0006B7404BC9046F0BD44F6C95170B506001422C0F60001007802F012F8B4680500B0
:204DE000614261413079C9B2FFF796FF631E9C4110220823E8606442AA561C40013414432E
:204E00002C7470BDF8B5077C0400032F24D844F6C9510078C0F6000101F08EFD060010202E
:204E200001F0BCFF012105002079FFF7E5FE00212870207AFFF770FF68600021207BFFF7FB
:204E40006BFF0622A8602F73337C1A4206D10222134335603374F8BDFEF700FBFEF7FEFAEC
:204E6000F0B5C64643F6F53100B50768456884B00400C0F60001F8B201F05EFD40F2FF0833
:204E8000060041464CF2041063693A000393236939400293E368C0F600000193A3680093CA
:204EA0002B0002F0A3F8EBB2032B24D843462B4022691D009B00F3185A61626900215A62CE
:204EC000207AFFF799FE7719543738702F000021207AFFF721FF0C37BF00F7197860217D60
:204EE000207BFFF719FF1035AD007519686004B004BC9046F0BD1D2001F034FC43F655419D
:204F0000F0B5C0F60001040083B0007801F014FD267983690500B3421DD937000021207A17
:204F2000FFF7FAFE0837BF00E8510021207BFFF763FEAD19303528704CF2EC00E268216879
:204F40000192A26863680092C0F600000A0002F04DF803B0F0BD1B2001F004FC40F2082377
:204F600070B5C2F200035B8B040083B14368007A9D1D40F20823C2F200039C46AD0065440C
:204F8000FFF79CFD6860200002F06AF970BD40F20823C2F200039C46456800210A35007A9B
:204FA000AD006544FFF7B8FE40F20822C2F20002944668606368002163441D00207BFFF7FA
:204FC0001BFE3C352870DEE740F208230268C2F2000370B51A80426804005A8382680069CF
:204FE0001A8304F07FFE45F2000140F22805C4F2C37104F01BFAC2F20005A8610021207B9B
:2050000040F28075FFF788FEC2F2000500212860FFF726F8200002F023F970BD40F2F052A8
:20502000C2F200029446436870B5634404000021007A1D00FFF7E0FD40F2F053C2F20003AE
:205040009C465C352870656800210E35207AAD006544FFF761FE40F2F053C2F200039C46C1
:2050600068606568217D1235207BAD006544FFF753FE40F2F05168606368C2F200011A00A9
:205080008C461432216952006244183351805B006269634420005A8002F0E2F870BDC04694
:2050A00010B5A1B1020041184FF6FF70137801324340DCB224016340DBB21C02000A044337
:2050C0001809DB00584060409142EFD110BD4FF6FF70FBE710B50B780C0001219B0608D5B2
:2050E000FFF7F6FD30232278134001221343237010BDFEF7B5FFF5E770B50400007CFEF78F
:205100000BFF07220125A37C1A409540DA08A21811002031097880B129432032C9B211707E
:205120000133E27CDBB29A420FD9E26901209446A374A3686344A36070BD2032A94311708E
:205140000133E27CDBB29A42EFD82100E0681131FFF7C0FF082240F29470637CC2F200003A
:205160001343637404F012F80020E5E710B50400007CFEF7D1FE637C70B1042213436374BC
:20518000A37C5A1CA2743F2B12D8E26901209446A3686344A36010BD5B07F1D545F2F903ED
:2051A000C0F60003A07463602000FFF7A5FFF2E700232100E068E3741131FFF78BFF0822FD
:2051C00040F29470637CC2F200001343637403F0DDFF0020DFE7C04670B5C37C040003B300
:2051E000437C9A060ED40023A37445F26D13A26801209446C0F600036360E3699B0063446E
:20520000A36070BD10221A4053425A41007C0132EFF3108572B60021FFF706FC85F310882B
:20522000E1E70100C0681131FFF754FF082240F29470637CC2F200001343637403F0A6FF3A
:205240000020DEE770B50400080082B01D0006AB19781600130002004CF21C100095C0F6C7
:20526000000001F0C3FE15B92369B34211D9637F227F0133DBB263779A4201D902B070BD90
:2052800040F20003C2F200035B7A6BB100236377F4E76369B342F9D2637F227F0133DBB289
:2052A00063779A42EAD8EBE7212001F05BFAC046F0B557464E464546DE46E0B585B0019136
:2052C0001F00037C14009846062342468146134263D002214346114266D003681A7B986809
:2052E0001140FEF7BDFE012143460B400393434619426CD14B461E68002C4ED03B190293B6
:2053000040F2080A002440F2010B3D781AE0B068FEF73CF87F23290070689943FEF7A0FEE5
:20532000B068FEF733F83078FEF7F6FD01235B429C46E24453466400E4B26D000443EDB2F6
:20534000E4B2FBB15A46337B1A42E0D17F23290070689943FEF784FEB068FEF717F83078F6
:20536000FEF7DAFD6400E4B20443B068FEF70EF801235B429C46E24453466D00EDB2E4B209
:20538000002BDFD1019B03B13C706B4601371B7AFAB29A42B4D1039B23BB05B03CBC9046AC
:2053A0009946A246AB46F0BDDB07F6D50824144021004B1E9941C068C9B2FEF751FE61426D
:2053C00061414B46C9B2D868FEF74AFEE5E7DB0819404B46D868FEF743FE4B461E68002C50
:2053E00000D08BE7082443461C40E8E7F0B5CE46474643F2C57180B5060087B00078C0F63A
:20540000000140F28C7801F097FAB9236A46C2F200089382434605001B6840F22449C4F210
:2054200000094A464FF6FF77146801215C403B4002220069E41805ABFFF73AFF43461A68F0
:205440004B461B6817405340EA8A4CF2241003926A46527DDB1902926A7E31680192AA8A84
:205460001B1B0092C0F60000220001F0BFFD07B00CBC90469946F0BDF0B5D6464F4646461C
:20548000C0B584B001AD4CF2C4032A000400C0F600038A4603CB03C21B78012113702069A5
:2054A0002B000922FFF704FF617EA8780B000F2207001A339743E318DFB1F02F19D0FF2280
:2054C00061181A71DA709A705A708A76637E0533DBB263762D2B03D951462000FEF774FBDC
:2054E000237E9B0747D404B01CBC90469946A246F0BD2F790F223E009643CEBBAA79904606
:205500000F22464696430EB1F02ED8D1EA79902AD5D12A7A9446802266469643B146202EC2
:20552000CDD86A7861188A76EA7860215A706A791F259A70424628405201104342469200DD
:205540000A403D402A43D8701A71637E0533DBB263762D2B2FD84B461E2B31D9E38A0133E1
:20556000E38240F26800C2F2000003F00FFEBAE7F02EA4D1C2E7200003F012FE0422237EB1
:205580009343237672B640F28C73C2F20003196840F224434FF6FF72C4F200031B680A4036
:2055A0004B409B18E268200094466344A36003F025FE62B697E751462000FEF705FBCAE7B6
:2055C0004F46023F1E2FCCD98AE7C046F0B54E46DE465746454643F2C571E0B50368050097
:2055E000DFB2380089B0C0F60001994601F0A4F9AE6804009EB103F0D3FD6B682000A36063
:20560000AB68E360002363610133238303F0F6FD09B03CBC90469946A246AB46F0BD40F26F
:205620008C7A03F0BDFD2D2307ADC2F2000A2B80534626761B6840F2244BC4F2000B5A4690
:2056400012684FF6FF765A409046334002220021206998442B00FFF72BFE53461A685B4683
:205660001B68164053409B1940F2B90B212640F2800A059301E0013EA6B15B4602222B8092
:2056800001212B002069FFF713FE52466B78934343B1202BEFD839002000013EFFF7ECFE5E
:2056A000002EEAD1627EA2B94146059B48465B1AFF210140E08A03906878019202904CF2FB
:2056C0002410A28AC0F600000092424601F08EFC9EE739002000FEF777FA627EE4E7C0462A
:2056E00044F6C95110B50400C0F60001007801F023F90021A3682279FFF7DAFD10BDC046EA
:2057000044F6C95170B504000668C0F60001F0B201F012F96568A468EAB223000121FFF799
:20572000C7FD2A00FF214CF214100A4023003140C0F6000001F05AFC70BDC04610B540F2F4
:205740002804C2F20004201D03F02AFD0023236010BDC046F0B5C64600B5060001F080FDBB
:2057600040F28073C2F2000318680021FEF778FC3369002B00D179E040F22807C2F2000736
:205780003B68002B00D16EE040F208257368C2F200055A4253412C001E225B4293434434A2
:2057A0001F330021623220002B6406F01DFC3869796948F600030022C4F2C30305F09EFA35
:2057C00003F0D2FD2A00C43201C4A242FCD12B8BB3B12F00002440F21E08C437736838009E
:2057E0005A42534142465B4293431F3308C08022002106F0F9FB2B8B013484379C42EDDB6B
:2058000040F2E42372687069EA52F2680833EA5232690C33EA5204F065FA0021C4F27A4194
:2058200003F004FE40F2F023E850B06904F05AFA0021C4F27A4103F0F9FD40F2F423F26976
:20584000E8500833EA50326A0433EA50002340F2D822AB50043AAB5040F2EE23B268EA5272
:2058600004BC9046F0BDFEF76DF88DE740F2082240F2EE21C2F20002535240F22803C2F20E
:2058800000031B68012BEBD1FFF758FFE8E7C046F8B583680500002B2CD040F22806C2F2A0
:2058A0000006326812B37769366940F2082440F2DC226968C2F20004A1520432A35240F29D
:2058C000DE2300223000E2523900A268E3682661676105F099FC0022002303F005FD08B9DF
:2058E000A660E760280001F0BBFCF8BDFEF72AF8AB68D8E740F2082240F2E021C2F20002A8
:20590000535240F22803C2F200031B68012BECD1FFF714FFE9E7C046F8B583680600002BBA
:2059200000D195E040F22807C2F200073B68002B00D18AE040F2F055C2F200052C0000237D
:20594000EC22F034AB5000216C3A2000AB6606F04BFB2800802200216C3006F045FB386988
:20596000796948F600030022C4F2C30305F0C6F903F0FAFC2A007132FF3201C49442FCD163
:205980007068012100F082FE40F27013726840F27C17EA52B2680B3BFF3BEA5240F274127F
:2059A000F3685B00AB500432AB50306906F030F848F280430022C4F22E1304F061FD42F6AE
:2059C00088230022C4F2911305F098F903F0CCFC40F280124008E851736900215B00AB50C7
:2059E000642340F284102966E952B369F2692B5240F28613EA52326A0233EA5244F20D73D2
:205A0000C0F60003AB6040F28C73C2F200031B689C4640F224432C5A6046C4F200031A6875
:205A2000EB5901346343424064464FF6FF70204012189B18EB6040F27213281DE95203F0B5
:205A4000DDFB300001F00CFCF8BDFDF77BFF71E740F2F05340F272120121C2F200039952DB
:205A600001F0FEFB40F22803C2F200031B68012BEAD1FFF763FEE7E7F0B5DE4657464E469F
:205A80004546E0B540F2700585B0C2F200050400802202908B462800002106F0A5FA40F238
:205AA000F00040F200120021C2F2000006F09CFA6201904640F208222300C2F20002944609
:205AC000434418009B006344C433196840F208232F00AA46A9462C001F26C2F20003803723
:205AE0000093CA17D20E8B1833409B1A40F20822C2F200029446C31830339B0063449B6818
:205B0000013108C4BC42ECD14B461868DB6F83425BDA009B41F20004598B40F27003C2F268
:205B2000000300E01868424201B1221A04C3BB42F8D14B4618685B4600294BD0002B00D012
:205B400038E140F2F008C2F2000843465E1C4446D04DFF3600E001CD05F028FF03C4A642EE
:205B6000F9D140F2F423009AD458201C05F078FF0600FE200F008005211C03F083FE05F046
:205B80006FFFF8234344994600900191434630009A68DB68390005F0B1F8434604001A6810
:205BA0005B680D000098019905F0A8F80B0002002900200004F0D2F840F2080C4346E04447
:205BC0009860D960C145E1D1E9E0009B598B5B460029B3D1002B00D0B9E053462F00029355
:205BE00000E0386805F0E2FE0400804678684D008A4605F0DBFE6D084B0083460E00020022
:205C00005B0820002900994603F06EFB18B9D8464D465C46B246BE68300005F0C7FE4B0026
:205C200099462B004D464246690803F071FB20B12000514605F088FE0600974B40C7BB4280
:205C4000CFD1029B4FF684109A4640F2F023009EC3F62260F15803F0E9FB05F001FF40F2E9
:205C6000EE230400F05A0D0003F0F6FF011C0020C4F27A4003F0DAFB011CFE20800503F0A8
:205C8000D5FB05F0EDFE22002B0004F067F80B0002002900200004F0F3FB804B06009846CD
:205CA000F02343440F009B46C1460024002502E040F2080CE14452465346586808CAC01A20
:205CC000924605F073FE22002B0004F047F83B00320005F013F84B4604000D001C605D60BE
:205CE000CB45E5D140F2F423009A0025D458201C05F0B6FE00900191FE20211C800503F0D0
:205D0000C1FD05F0ADFE00240290039102E040F2080CE0444346009801991A685B6804F09B
:205D2000EDFF22002B0006000F000298039904F0E5FF0B0002003900300004F00FF843460D
:205D400004000D001C605D60C845E0D127E0029B4344990040F20823C2F200039C46C83188
:205D60000023614405E040F27002C2F200029A181068C8500433802BF5D140F2082202993B
:205D8000C2F200020B009446002243449B006344C4331A60009B1B8B013B8B4252D040F26E
:205DA000F000C2F2000005B03CBC90469946A246AB46F0BD029B00224344990040F208231B
:205DC000C2F20003CB18C4331A6040F20823C2F200039C46C8310023614405E040F2700278
:205DE000C2F200029A181068C8500433802BF5D1009B029A1B8B013B9342D0D11F2054469B
:205E0000009B196CCA17D20E8B1803409B1A40F20822C2F2000294469B0063445B6C0131DF
:205E200008C4BC42EED10023009A1D49136440F27002C2F200029A181268CA500433802BBD
:205E4000F5D1ACE740F204331F205446009A116CD150CA17D20E8B1803409B1A40F20822B7
:205E6000C2F2000294469B0063445B6C013108C4BC42EED100230A4940F27002C2F20002FE
:205E80009A181268CA500433802BF5D10023009A136484E774000020E8000020F8000020C1
:205EA0004C020020F0B5DE4657464E46454640F20824E0B583B00190C2F20004638B002B67
:205EC00000D0E8E0238B002B00D138E10027002640F20823C2F20003F3183C331878FEF707
:205EE0001BF8B040238B013607439E42F0DB40F2280940F200289A46C2F20009C2F20008AF
:205F0000CFB1434649461A685B680869496905F07BF949F69A1249F69913C9F69912C3F61F
:205F2000997303F0FFF930B903B03CBC90469946A246AB46F0BD53460026002B00D106E1F9
:205F400040F208223300C2F2000294460A339B00634458680021FEF783F8238B01369E428D
:205F6000EEDB019A18279246002B00D1EFE0002540F208222B00C2F2000294460A339B00C7
:205F8000634401215868FEF76BF8228B01359542EEDB002A00D1DAE05346920052441968A6
:205FA000490002C39342FAD1002540F208222B00C2F2000294460A339B0063445868002197
:205FC000FEF74EF8238B01359D42EEDBA3B15646002540F20823C2F20003EB183C331878CF
:205FE000FDF79AFF431E9841336801359C46604401C6238B9D42ECDB013F002FB4D100264E
:20600000002B00D1A3E040F208223300C2F2000294460A339B00634401215868FEF720F874
:20602000228B01369642EEDB002A00D18FE08020FF26019992000B000004511836061A684A
:20604000024200D0324304C38B42F8D1002640F208223300C2F2000294460A339B00634496
:2060600000215868FDF7FCFF228B01369642EEDB41464B465C691B690B604C604AB13849D7
:2060800001989200C359CC591B1BC3510437BA42F8D1012048E7238B002BFAD0019B40F289
:2060A000280998462300C2F2000942F2004B4C4640F2000A9946C4F2010B5346266967690B
:2060C0009D1D40F20823C2F200039C46AD00654410E03200206961693B0005F095F84AF648
:2060E000FC1246F24D23CDF2F122C3F6607303F0FBF820B16868FDF7EBF80028E9D15B46AB
:2061000002221B6840F2010C93435A4613601368102293435A46136042F24C43C4F201039D
:20612000196853469A004FF6FF730B4041468B504B461B8BE2445345BFDC0120F4E640F28A
:20614000280940F20028C2F20009C2F2000842464B4601205C691B6913605460E4E6C046C1
:2061600014050020F0B5DE4657464E464546E0B589B0040001F074F840F22803C2F200031E
:2061800003931B6802930BB9FDF7DCFB6A4B6B4D9846180010220021454405F025FF6B8B74
:2061A000002B00D09FE06368002B00D19BE02A8BA2B1634B002643449946230000274C4605
:2061C000994620008022002180C005F00DFF2B8B01368434B342F4DC4C4663682024202B66
:2061E00000DCA0E040F2000AA146D3461022002104A805F0F9FE04A8FFF754FE0028FAD036
:206200002C8B04B32800002104AFC43002681F26D317DB0E9A46D318334056469B1B40F2DC
:2062200008269A46C2F20006B4464B015B185344303340CF9B006344013201319E600260CD
:206240008430A142E2DB40F2010CE344D945CDD123004C469946002B45D0A3009C464B46DE
:206260005B014B44029363462E005B429B4640F2000A6246C83666445B4600279446F01813
:206280000300BC4208DD026819688A4201D901601A600433B342F6D101370430BC42EFD18F
:2062A000624640F2210C029BE24484369A45E3D14B4628009B0094469946C0306044C14421
:2062C00040F2100C46464F46043CE3445B4632681B1802CB52188342FBD192FBF4F204C675
:2062E0008430BE42F2D1039B1B68012B21D040F2183040F2103340F20C322858EB58AA58C5
:206300002988019040F21430285800904CF2D410C0F6000000F06AFE09B03CBC904699461F
:20632000A246AB46F0BD1C00082B00DB5AE7082458E7FFF703FADAE714050020F4FCFFFF26
:20634000B8FDFFFF40F28C73C2F2000370B51B6840F2244240F228054FF6FF7045F2404197
:20636000C4F200021468C2F20005AE6918405C40C4F689412418301C03F064F902F0DCFFFC
:206380002418EC60301C05F06BFB02000B002869696903F0E3FC28616961012070BDC046E5
:2063A0007047C04610B5016844688268EFF3108072B6FF230B40012B06D0022B07D0D2B2CB
:2063C000227080F3108810BD92B22280F9E72260F7E7C04670B540F6982240F69C2603789F
:2063E000C2F20002C2F2000601331578DCB23268E400121907E0160008321400083C24681A
:206400008C4205D00133DBB29D42F4D8002070BD03707068FBE7C04640F68C23C2F2000351
:206420001A68186040F62433C2F2000302601A68013A1A607047C04670B50400C0690E0068
:2064400050B10025026843683100E261056045609847E0690028F5D140F62030C2F2000033
:2064600002F094FE70BDC046202210B50C38835CD9070AD522212124415C01551C3CA343C3
:20648000042423438354FFF7D7FF002010BDC04610B50400007BFDF73FFD2023E25C1F3B89
:2064A00070B193437BB92222A35C013BDBB2BBB1A354626901209446A3686344A36010BDFA
:2064C0001340002BEFD046F20953C0F600036360A3690120A3602123E25C0133E254EEE77E
:2064E000E069023A835CD9070CD52321615C212401551C3CA343042423438354FFF79CFFA7
:206500000020DCE70020DAE710B50400007BFDF703FD2169A3688C4663441A002023E15CD7
:206520001F3B20B18B432BB10120A26010BD0B40002BF9D146F29143C0F600032000A2616E
:206540006360FFF7A5FFF1E72022042110B5835C04000B43835440F62030C2F2000002F0A6
:2065600015FEA269A368944663440120A36010BD826983689446634410B50400836040F647
:206580000C00C2F2000002F001FE0120637F184010BDC04610B5040002F002FE20000C3005
:2065A00002F0FEFDE36933B100211A001B6851601160002BF9D100230022E3612384223364
:2065C000E25410BD70B50500343D0400280002F0E7FD0023AB60AB613C33E95CAA6ACB0648
:2065E0001FD56B69D21AD3179A1A5A400023AA6208223C266B6114330B4013430021686A4D
:20660000AB55FDF72DFDA95DCB060ED5083C206830B103682360FFF7FFFE20680028F8D19B
:2066200070BD6B695B08D21ADDE70423286A1940FDF716FDEAE7C04610B501790078FEF7AA
:206640006BFB10BD10B504008069FDF79DFD2C220121A35C4B40A354A268D90707D5E168C7
:206660008C4662445B0707D40120A26010BD21698C4662445B07F7D56369D11AF4D446F28E
:20668000F572C0F6000262601A00EDE7F0B540F2F056C646C2F20006338C80460F0000B5FF
:2066A000B3B135000024012F15D0698CC9B240F2F0522300C2F2000294460E339B006344EE
:2066C0005868FDF7CDFC338C01340235A342EADC04BC9046F0BD40F2F053C2F20003E318FD
:2066E0005C331878FDF718FC4346698D6884C91A4B1E9941C9B2DAE710B5C46A14B9446141
:20670000002010BD2368C3620822A35E626803829B18C3603C23C35CDB0611D583689C467A
:206720006244826063894361227BD20713D4826A9446634483622000FFF76EFE0120E0E728
:2067400083699C4662448261826063895A004261227BD207EBD5826A9B1A8362406AFDF7BD
:2067600013FDE8E7010010B572B640F6B020C2F2000005F099FCC04670B50400006AFDF77B
:2067800003FD40F28C73C2F200031A6840F22443C4F200031D684FF6FF7355401340ED1814
:2067A000E3699C4663696544013B6361DA0702D50120A56070BD63B1E168A3691020225E12
:2067C000CB185218E260A3615A1BF1D40120A360F0E72000FFF790FF0028EBD0A3685B1BE8
:2067E000E8D54EF2C062CFF6FE729342E0DA1920FFF7B8FFF8B5476A0400002F00D17AE014
:20680000BE683B68350043626B1E9D41EDB280692900FDF725FC3800FFF7FEFDA6B1226A9C
:20682000B24211D9E369002B55D12C2002331D43636A215C002B64D16361102319400D43B2
:206840002554A368F11820E02C230122E15C704270410B095A4001231340984220D0E3695E
:20686000F3B10422A1681543626A5B18002A39D12C2010226361275C71183A402A432254CF
:20688000AA071AD5CA1A18D5226A46F24563E660C0F60003961B01206360A160266116E009
:2068A000636A002063B15B6804221543102211400D431C326361A55450B90120A36006E0A5
:2068C00063611023002019400D431C33E554F8BDA268B118D6E70622A1681543626A5B1863
:2068E000002AC5D052689B1A08D42C230220E15C28401300D8E71620FFF734FF1420FFF71D
:2069000031FF0220CFE7C0460D2010B5FFF72AFF40F2000310B5C2F200035A7A22B1022AD4
:2069200001D000225A7210BD0220FFF71BFFC046072010B5FFF716FF40F6982310B5C2F232
:2069400000031B7883420BD940F69C23C2F200031B68C000181803688B4201D1406810BD5A
:206960000B20FFF7FFFEC04646F6456170B5C0F6000105000078FFF7DFFF040072B6202375
:20698000C35CDB0701D462B670BD06000C36300002F006FC6B683000636102F02FFCF2E7B3
:2069A00046F6456170B5C0F6000105000078FFF7C3FF040072B6FFF7EDFD20230122E2543C
:2069C0006B68A360AB68A36123B92223EA68E25462B670BD200002F011FCF6E746F66D61D6
:2069E00070B5C0F6000105000078FFF7A5FF040002F0D6FB21226B68A360AB6863612B7B47
:206A0000A354EBB12A6946F64561226146F20952C0F6000262602222A3546B69C0F6000118
:206A20005A1E934120220233A354287EFFF784FF2323EA69E0612000E25402F0DFFB70BD54
:206A4000013AE361A354FAE746F6916170B5C0F6000105000078FFF76FFF46F6456104000E
:206A6000C0F600012879FFF767FF21003431EFF3108272B6A36B53B946F2C553C0F600031D
:206A8000A363C3696363C16182F3108870BD1A20FFF768FE46F6916110B50400C0F600015E
:206AA0000078FFF749FF636872B6426942B93C22082183608361835C8B43835462B610BDD0
:206AC0001720FFF74FFEC04646F6916110B50400C0F600010078FFF72FFF63685A1E9341D5
:206AE0005B0072B63C210224425CA2431343435462B610BDF0B546F61971C646C0F600010D
:206B000000B505000078FFF717FF040002F048FB636A002B43D140F22C082D7943462E002F
:206B2000E75C731E9E41F6B23100A069FDF798FA6B425D4101233A09534001221A409542A1
:206B400001D0E3693BB910233B401E432C23E65404BC9046F0BD40F28C73C2F200031968E0
:206B600040F224434FF6FF72C4F200031B680A404B409B18E2692000944663446361A3604F
:206B800046F2F573C0F60003636010233B4004271E4343463E43E65402F030FBD8E713204C
:206BA000FFF7E0FD46F6197110B5C0F6000104000078FFF7C1FE72B6436A1BB963680362B6
:206BC00062B610BD1520FFF7CDFDC04646F6817170B5C0F6000105000078FFF7ADFE0400A9
:206BE00002F0DEFA6B685B00DBB26377EBB13E2219009143C9B901221343637740F28C7347
:206C0000C2F20003196840F224434FF6FF7248F6A04CC4F200031B680A404B409B18634458
:206C20002000A36002F0EAFA70BD1120FFF79AFD10B5EFF3108172B640F68C23C2F2000374
:206C4000186898B102681A6040F62432C2F2000213680133136040F62832C2F20002146861
:206C6000A34200D9136081F3108810BD0E30FFF779FDC04646F6916170B5C0F6000105004B
:206C80000078FFF759FE0400FFF7D2FF6B6843602B894381002B3DD0EB68038100230373CE
:206CA00072B6012215003C33E35C01215E081D403240954204D0027B4B400A43DBB202736D
:206CC0006269BAB90822110019401A4203D0FFF7A3FB62B670BD3C22A354E36A01609BB18B
:206CE000236B186020632000FFF706FD200002F085FAEEE73C22A35400230360E36A33B180
:206D0000236B18602063E4E72063E062EBE72063E062DEE71820FFF725FDC04646F61971E2
:206D200070B5C0F6000105000078FFF705FE0400FFF77EFF6E684660AB68836072B60023CD
:206D40000360636A23B1A36A1860A06262B670BD2C23A0626062E35C5A0718D404222C2151
:206D60001A43666162549B070DD4200002F018FA46F2F573C0F600032000A660636002F05E
:206D80003DFA62B6E3E7A3689B1BFAD4EDE76269921BE3D51420FFF7E5FCC04640F60001FF
:206DA00041F60063C2F2000110B50C680200C2F20003201898420AD80320D31C8343E318CB
:206DC0000B602000002105F00FF9200010BD1020FFF7C8FC70B540F69C24C2F200042368D5
:206DE0005BB905680078C000FFF7D8FF40F69823C2F200031D70206070BD0920FFF7B2FC5E
:206E000010B540F69824C2F200040300100022789A4213D940F69C22C2F200021468DB008D
:206E2000E418236853B940F68823C2F200031B8823B92160FFF7B2FF606010BD0A20FFF7D3
:206E400091FCC04646F6456110B524220078C0F60001FFF7D5FF46F24953C0F60003436089
:206E600046F26943C0F60003036110BD46F66D6170B524220400C0F600010078FFF7C0FFE7
:206E8000217A05002079FDF7B7FE287370BDC04646F6916170B505004022C0F60001007859
:206EA000FFF7AEFF3C23EE680400F117891BC90F8900C1542879FDF72FFF20620021287A4C
:206EC000FDF72AFFC0231B06A362002360622A692363E36240F68823C2F200031B88E261CB
:206EE000BBB940F69023C2F2000319780F2901D8102119703AB9002E05DA10213C32A35C84
:206F00000B43A35404E046F27973C0F60003636070BDFFF7F9FCC046816870B54B1E994139
:206F20000400C9B20079FDF7F7FE46F6197130220500C0F600012078FFF762FF8561A368BC
:206F40005A1E9341E2685BB20AB1102213432C2283542369C36100238362436240F68823E8
:206F6000C2F200031B884BB940F69023C2F200031A780B2A01D80C221A7070BDFFF7C4FCD8
:206F800046F68171F8B520220500C0F600010078FFF736FF46F271536A68C0F600030600E8
:206FA0004360052A1FD8012401238AB1DB00EA185168E85C4A1E9141C9B2FDF71DFE6A6814
:206FC00037190134E4B201322300F8729442EDD345F2E473B3610023B38340F61003C2F248
:206FE00000037361F8BD1220FFF7BCFB0FB4F0B55746DE464E464546E0B540F67C27C2F2BC
:2070000000073B7885B0DBB24BB105B03CBC90469946A246AB46F0BC08BC04B0184740F208
:20702000F9780122C2F200083A70424612780FAC0394D2B240F2F87AC2F2000A51460D78F0
:20704000EDB2AB46AA4205D30B70424640F2000B137000220E9B5D785B46EB182E00602B1C
:207060002CD99A1A602A02D900233B70CDE7002553461D7043461978C9B25B465B1A9B4699
:2070800040F29873C2F200039C4640F298705A466144C2F2000004F04BFF43461D705B46F2
:2070A000DBB25246137043F600038021C4F201031A680A431A600E9B5D782E0040F298735F
:2070C000C2F200035B440193052D77D91E009C460E990E9A486892780978033D654403339B
:2070E000B170002A66D09D4200D2B5E080464244013A0092B946220004003FE0110004C98E
:20710000100020307F282ED941F2000043F6FF761018B04200D899E08020802600031018A4
:20712000B603B04213D380208026C00410187605B04200D28CE08020170F404238435E1CA4
:2071400018708020570D40423843731C30708020970B404238435E1C18708020D709404234
:207160003843731C30707F2002401A700A0001330099A1421DD001349D426DD32178052938
:2071800047D0BBD90639012966D81168EE1A8E4200D90E0040F208085F1C1E70516890448D
:2071A0003800320004F072FE00994246BB19A142E1D14F46019A9E1A0336F5B240F2987372
:2071C0005A46C2F200039D5440F25403019AC2F2000390461B78F41E537021001000FDF729
:2071E0005FFF4246030A46441355B31E18707E23013E5D443370EDB253461D7043F600032C
:207200008021C4F201031A680A431A6000233B70FBE6110040C9581C327872B1854202D81F
:2072200018E085420DD00130471E01363A703278002AF6D1C21A013AD2B21A700A0003006E
:2072400096E7EA1A013A2800D2B2F6E71E0084E71E0076E70022F0E70520FFF783FAC0464E
:207260000200036801784CF2E40010B5546986B004941469C0F600000394D468029494681E
:2072800001945268009240F23312FFF7AFFE06B010BDC04646F6456170B50668050082B0BE
:2072A000F0B2C0F60001FFF747FB040072B62022835CD9070AD52120297921541C388343BF
:2072C00004200343A3542000FFF7B6F8200001F067FF20000C3001F063FF00222023E254C8
:2072E0000133E35C62B6FF214CF2B41031400092C0F60000FFF77AFE02B070BD46F66D61D1
:2073000070B5066882B0C0F60001F0B2FFF714FB72B620238569C45C62B6007BFCF7FCFD52
:20732000FF2103004CF2AC10A2070093D20F2B003140C0F60000FFF759FE02B070BDC0468F
:2073400046F6916110B50468C0F60001E0B2FFF7F3FA72B63C22825C836AD20612D54269E7
:207360009A1AD317D2185A4062B6C0231B069C46FF214CF2A41062442140C0F60000FFF728
:2073800035FE10BD426952089A1AEAE7426801784CF28C1010B5C0F60000FFF727FE10BD03
:2073A00010B502684168EFF3108072B6FF231340012B0CD0022B0DD00978C9B280F31088CD
:2073C0004CF29410C0F60000FFF710FE10BD098889B2F3E70968F1E740F6AC3301680022B5
:2073E00010B54068994209D8FF32024050180133984203D953225242521AD2B24CF2EC4339
:207400004CF2DC00C0F60003CB18C0F60000FFF7EDFD10BD40F28C73C2F2000310B5196825
:2074200040F22443C4F200031A684FF6FF734A400B40D21840F60C33C2F20003196840F61F
:2074400010338A4289414CF27410C2F200031B684942C918C0F60000FFF7C8FD10BDC046A7
:2074600040F28C73C2F2000310B51A6840F22443C4F2000319684FF6FF734CF27C105140F8
:207480001340C918C0F60000FFF7B0FD10BDC04640F68823C2F2000310B51C8840F2000356
:2074A0002100C2F200035B7A481E81415A1E934140F604024CF2841082B00A3CC2F200026F
:2074C0001268C0F600000094FFF790FD02B010BD40F68823C2F200031B8870B56BB3581EF2
:2074E000012B2BD040F69423C2F200031D6840F69023C2F200031C7800222B00190001326F
:207500001B190B608242F9D3604328180023036040F68C23C2F200031D6040F62833C2F275
:2075200000031A6840F2FC734CF2E440C2F200031968C0F60000FFF759FD70BD40F694236F
:20754000C2F200031D682800E0E7C046F8B540F68825C2F200052B880600002B3FD140F687
:207560009022C2F200021378032B2DD91A0040F60003C2F20003186841F60061030000249B
:2075800041F20007C2F200019C469B188B421FD80134BC42F8D141F20007181AFFF7FEFB4C
:2075A00040F2FC73C2F200031C6040F69423C2F200032F801860FFF78BFF40F604033268D5
:2075C000C2F200031A60F8BD042313700422CEE714B16346A7B2E0E70F20FFF7C3F80C20A6
:2075E000FFF7C0F8F0B55746DE464E46454640F28C73E0B5C5B0C2F200030CAF3B6419688B
:2076000040F22443C4F200031A684FF6FF734A400B40D3187B6340F20003C2F20003BB6337
:2076200040F29073C2F200037B6040F2E853C2F20003FB6240F61C33C2F200033B6340F2F6
:207640002853C2F20003FB6140F25403C2F200033B610823B96BCB56002B01D100F03BFD2B
:207660003B6C1B6840F22442C4F2000212685A40BA614FF6FF721A407A6172B60823CB5602
:20768000002B01D000F0B2FD62B63B6C196840F224434FF6FF72C4F200031B680A404B40AF
:2076A0009B18BA699B1A7A699B1A7A6B94469C446346BB620123BA6B40F60C0013726022B0
:2076C0000023BA18C2F20000137001F057FD002800D1FFE06022FF23BA18137058220823C3
:2076E00046F68171BA18C0F60001D018FEF772FE0500002800D1EDE02B7F772B1ED8002653
:20770000002440F201086B7F21000134234140460022184209D1297F6B695B189A557C36FA
:20772000052CF0D101312977D8E76918087BFCF7F3FB0200501E8241D2B2ECE701226B7F4A
:20774000012693433B656B776B6940F201081C00FB637D633B6D4246334141461A40194261
:2077600037D10136A2677C34062EF3D1FC6B60212000F423F130FF30806F79187D6BA26F31
:20778000E3580978029020007530FF30806F053E01902000F830806F00904CF29C10C0F67D
:2077A0000000FFF723FC012000216A696C7F78321300783B197001339A42FBD133008340E9
:2077C000013011609C437C320628F1D16C77297784E70123227802E00133782B78D0E15CA0
:2077E00058B29142F8D0772872D07722A25C8C46924699467622514602E0013A002AB0D0ED
:20780000A35C55B28B42F8D06146D2B29C464B46012D5DD0E55CA946654501D100F06EFCCE
:20782000DD1C954254DAD31A01339D10EDB2AB4682424ADB40F2000A7A6432009C464E4641
:2078400000255346914601E00E00215C4D19EDB2B14201D00133DBB201307A6C40B28242D0
:20786000F2DA9A464E466346AB4531D85A00D3189B10DBB20022AB4200D272E753460133A2
:207880005B10DBB2B5FBF3F0AB4200D969E745F2E473584304F08AF800230022C4F210039A
:2078A00003F02CFA0B0042F688210200C4F29111002002F0E5FD00230022C4F24E0303F036
:2078C0001DFA01F051FD02004BE70020002DDED0002246E740F62030C2F2000001F04EFC5F
:2078E000E0B36022FF23042540F20408BA1813702024582246F645610823BA18C0F6000141
:20790000D018FEF767FD48B3035D1D42F1D03B6C1B689C4640F22443C4F200031E6872B69F
:207920002123015DC35C0A00994643469A43025562B660230122FB1860460A404FF6FF7467
:207940001978634670401C40001900904CF2B4104B46C0F60000FFF749FBC9E740F2FC10C7
:20796000C2F2000001F00AFC002800D125E15F23FB189B46FF235A4613703B6C40F20109BF
:207980009A4643F655415846C0F60001FEF722FD0400002800D110E14A46237D1A4200D184
:2079A0000BE1E369002B00DC07E1582008233818C0181022002104F017FBA36940F2000836
:2079C0006BB10026A31930331878FCF7A5FA4346B04003439846A3690136B342F2D85346EC
:2079E000196840F22443C4F200031A684FF6FF734A400B40D318BB640023FB6440F6802341
:207A0000C2F20003186859683865796511B9BA6C904208D9BD6CFE6C0121002249426D1869
:207A20005641BD64FE644246002AAAD19946A369002B7BD000252B0008339B0018590021E6
:207A4000FCF70EFBA3690135AB42F4D840F2180A002B6BD000252B0008339B0001211859BC
:207A6000FCF7FEFAA2690135AA42F4D8002A5DD058230821FB185B18920099181A6852008A
:207A800004C39942FAD100252B0008339B0018590021FCF7E5FAA3690135AB42F4D89BB1A8
:207AA000582208230025BA18D618631930331878FCF732FA431E9841336801359C46A369B5
:207AC000604401C6AB42F0D8012252429446E2445246002ABCD1002543B32B0008339B0064
:207AE00001211859FCF7BCFAA2690135AA42F4D8E2B1582308218020FF25FB185B1892003E
:207B0000991800042D061A68024200D02A4304C39942F8D145462B0008339B0018590021F1
:207B2000FCF79EFAA3690135AB42F4D83B6C1A6840F22443B86CF96C4FF6FF75C4F2000302
:207B40001B6853402A409B184A461360002353603A6D7B6D801A994101F044FC0021C4F20E
:207B60007A4101F06FFD45F24041C4F6894101F05DFC01F017FCC3B24CF2F400FA6E217BB8
:207B80000592BA6EC0F6000004927A6E03923A6E3A650292BA6C0192E26915400095002272
:207BA000FFF724FAE369013BE361002B00D0E4E60122237D93432375DFE640F2F810C2F23C
:207BC000000001F0DBFA10B36022FF23BA18802513700FE0A36FD3B14FF6FF724CF2FC0009
:207BE000E36F217B1A40C0F600006359FFF7FEF90023A3675822082343F6F531BA18C0F625
:207C00000001D018FEF7E6FB04000028E2D140F26C00C2F2000001F0B1FAE0B16022FF23A3
:207C20002624BA1813702725582244F6C9310823BA18C0F60001D018FEF7CCFB58B1025DEB
:207C4000435D9A42F0D172B6035D415D994200D145E262B6E7E740F28870C2F2000001F039
:207C60008DFA002870D05F23FB189B46FF235A4640F2010940F2010A5E46137043F2F9719E
:207C80003000C0F60001FEF7A5FB040000285BD04A46E37F1A42F1D072B60122A3689846CE
:207CA000E37F9343E37762B6A37F022B00D14CE22CD8002B00D132E2337858229B460C2383
:207CC000BA183B66043BD2181300A06904220121FDF7EEFA3A6E0F2315BA602240F2580C07
:207CE000BA181380BC44073BA069634402220121FDF7DEFA61235946FB182A021B78200006
:207D00000091120A4146FDF79DFAB7E7032BB5D16022002340F2580CBA181380BC44083377
:207D2000A0696344022201213578FDF7C1FA60230621FB181B8820005BBA9AB200950B4030
:207D40004146FDF77FFA99E740F26800C2F2000001F014FA002844D05F23FB189B46FF238E
:207D60005A4604255E46137043F2C5713000C0F60001FEF72FFB040098B3237E1D42F3D090
:207D8000DB0729D5200001F00BFA02236022237640F62D03BA1840F2580C13800823BC4421
:207DA0000222002120696344FDF782FA72B63B6C196840F224434FF6FF72C4F200031B6803
:207DC0000A404B409B18E268200094466344A36001F014FA62B6C7E720003178FDF74CFB64
:207DE000C2E740F29470C2F2000001F0C7F930B36022FF2308240825BA181370582244F656
:207E000071510823BA18C0F60001D018FEF7E2FAA8B1437C1C42F1D072B6437CAB43437470
:207E200062B660210300C27C4CF23410791809782033D208C0F60000FFF7D8F8DEE740F234
:207E4000F410C2F2000001F099F948B36022FF2301250126BA1813702024582244F6554118
:207E60000823BA18C0F60001D018FEF7B3FAB8B1035D1D42F1D072B6C16982688C46015D6F
:207E80008369B143015562B6602160467918097800904CF24410C0F60000FFF7A7F8DBE72C
:207EA00040F2F010C2F2000001F068F930B36022FF23BA181370582243F295710823BA18FC
:207EC000C0F60001D018FEF785FAB8B1037FFF2BF1D172B6837C002B00D166E1427F027714
:207EE00062B66021C27E79181330097800904CF24C10C0F60000FFF779F8DCE743F2000312
:207F00004AF6AA22C4F200031A603B6C196840F224434FF6FF72C4F200031B680A404B409A
:207F20009B1872B679680A683A65D21A00D50B6062B6FB6A1D78EBB29846002B69D03B6BB1
:207F40001C78E3071FD44346042B62D9FA6913789A46053B3B2B0ED856780F253300AB4340
:207F6000102B08D1D04554D35346501EC35C7E2B01D100F03EFD53467E2B00D131E101239C
:207F80001C433B6B1C7040F2285042467E21C2F2000003F039FF002801D100F006FD01238F
:207FA0009C433B6B1C70FB69C01A431C9A46A30701D500F0F6FC02231C433B6B1C704DF2DC
:207FC000CC400124C0F60000FFF710F86442FB6A00201D7840F20008EDB25346EE1A5545E8
