:020000040800F2
:200000000020002089030008A1030008A1030008A1030008A1030008A1030008A103000804
:20002000A1030008A1030008A1030008A1030008A1030008A1030008A1030008A103000860
:2000400010B500F005F800F02BF8002010BDC0464EF600538022CEF20003120510B59A6016
:2000600000F07AFA00F04CFB00F0BAFB00F00CFC00F04AFB00F0ECF943F6982000F064FCFD
:20008000431C00D010BD00F04DFC012804D00120404200F059FCF5E700F010FBF7E7C0468B
:2000A000F0B5DE464F464646C0B58AB000236A46537002226A44137093466A460021D370CF
:2000C00003A81C220193029301F07EF940F2080340F20042C2F200039C18002204C3A342BC
:2000E000FCD102AB99466B46D81D42F68073C0F6000301226221013B00E0995C815401325E
:200100000D2AFAD12D234A46137343F2002343F20C22C0F60003C0F600024CF615656846E1
:200120001978CFF2FF754019C15401339342F4D143F200070325C0F600076B460020591C56
:2001400000F062FD0028F8D06B465B78022B00D181E05BD8002B65D06B467522D91CDA7063
:200160000020743A00F070FC5B460422002001A9052600F0ABFC431C12D16B461F220020AE
:20018000DA70D91C1E3A013E00F05EFC002ED4D05B460422002001A900F098FC431CECD03D
:2001A000019B98466B467522D91CDA700020743A00F04AFC40F208015B4640F200420020CA
:2001C000C2F2000100F082FC0600431C04D146E06B1E012D4CD91D0040F2080132003800FE
:2001E000C2F2000100F0BEF90128F1D143469B1B03259846002B43D040F208030022BF19FE
:20020000C2F2000304C39C42FCD1CBE7032B94D101236A46D3706B4601220020D91C00F080
:2002200013FC8AE743F2002343F20C21C0F60003C0F600014CF6156668461A78CFF2FF76E1
:200240008019C25401338B42F4D119224946002000F0FAFB71E700F065FB012812D06B46F6
:200260001F220020DA70D91C1E3A00F0EDFB64E7BBB1434601259B1B98466D42002BBBD14E
:200280002023C6E76B467522D91CDA700020743A00F0DAFB40F2E83000F032F900F00EFAF7
:2002A0004BE76A462133D3706B4601220020D91C00F0CAFB002540E7F0B54546DE465746EA
:2002C0004E460023E0B5137001334B80023B0B80057883B00192E5B12A4A002740F2FF0CD7
:2002E00000240026904640F2000B40F2010A99462B00213BDBB22F2B0FD842469B00D358E2
:200300009F46AC460134E4B2055D2600002DEFD1FDB2019B00201D7004E000230120019A0B
:200320004042137003B03CBC90469946A246AB46F0BD86197378303D303BDBB2EDB2092B10
:2003400018D96346FF2BE8D0413B1B01BE005D1901377552BFB2D5E75246BB00CB185A8019
:200360004A4640F2FF0C1A80CCE75A46BB00CB185A80C7E7AE00AD196D00ED180134EDB2E3
:20038000E4B2DEE77014000872B642F2000340F2A532C2F20003C0F600029D4610477047AE
:2003A000FEE7C046012170B50023802440F2801049424EF20015CEF20005AC469A006244AB
:2003C0001151BFF34F8F01331150102BF1D14EF2001000230021CEF200001A00C0329200A7
:2003E000013311507C2BF8D14EF210030422CEF200031A60BFF34F8F4EF60053A022CEF299
:20040000000312055A60D9611962BFF34F8FBFF36F8F62B640F2000040F2080242F6A07144
:20042000C2F20000C2F20002121AC0F6000100F079FF40F6100240F20800C2F20002C2F21B
:2004400000000021121A00F0BFFFFFF7F9FDFEE74EF21003CEF200031A680E490A40042172
:200460001A601A688A431A601A6802398A431A60094A00215A6040F60C02C2F2000211609C
:2004800040F60802C2F2000211601A6801318A431A607047FFFFFEFFFFFFFF004EF21003F8
:2004A000CEF200039B68154A10B5D21A40F60C03C2F200031968090E090619601968114375
:2004C000196040F60801C2F200010868904205D980246404A4461868604418600A6040F261
:2004E0000402C2F2000210681B68C008B3FBF0F25001801A80008018C00010BDFFFFFF0060
:200500004EF21003CEF200031A68114910B50A4001211A601A6804000A431A600D4A9A60A0
:2005200040F60C030022C2F200031A6040F60803C2F200031A60FFF7B1FF001BFBD44EF2E1
:2005400010030121CEF200031A688A431A6010BDFFFFFEFFFFFFFF0010B5022000F05CFCE6
:2005600010BDC046F0B5DE4657464E464546E0B5930883B004009B468A46009000F02CFC63
:20058000F82212062300944640F2001563449E05360EAD1BADB29F0A5D4501D35B469DB221
:2005A000F8221206944640F20842C2F200029046BB025B42634498440123C0F202039C468D
:2005C0006744BF023C4B4246FC1823001968D1500433BB42FAD19046002D66D040F2084312
:2005E000C2F200039C46B60066443200002304E001339BB204329D423BD011680131F7D0B6
:20060000200000F025FC002845D1002200235146885801339BB2B05004329D42F8D14646C4
:200620008A462000315900F04FFCA0BB0434BC42F7D1B0460195204B019A9C46E04440F2E2
:20064000004C6744934533D093009A44009BAD009C46AC44634600935B469B1A9B461D00AD
:2006600040F200139B4501D940F200150026ADB2A8E75346009A2E009B1AA9460195140071
:200680001D0002E0013E04346EB12000295900F01BFC0028F6D0002003B03CBC90469946AE
:2006A000A246AB46F0BD4D46C5E700230193C2E700F0A8FB0120EFE700FCFFFF43F2000359
:2006C000012130B50022802440F2801083B0C0F60003019349424EF20015CEF20005AC4674
:2006E00093006344013219511950082AF3D1019B5B68019A126882F30888984703B030BDCC
:2007000010B500F099FA10BDF0B5DE4657464E464546E0B5A5B004AE80220021300000F0C0
:2007200053FE02AB41F23050DF1D00233A003100C0F600003B70FFF7BFFD019000284AD197
:200740003B780024002B3ED041F23C5A40F20F0BC0F6000A06E000F039FC01343B78E4B22B
:20076000A34230D9A500735B1A096F2BF5D859460B40012199409300984653464246985A25
:20078000894600F057FC41F254534246C0F60003D3580121984600224B46404600F0C8FB15
:2007A00075194B4600214046012200F0EDFB6B8849464046002BCED000F006FC01343B78CD
:2007C000E4B2A342CED8019825B03CBC90469946A246AB46F0BD01235B420193F3E7C04622
:2007E00010B5902440F21150E40500F023FC40F20E6000F01FFC200040F20022012100F0C4
:20080000E7FB200040F20042012100F0E1FB200040F200230122022100F08AFB200040F2F2
:2008200000230122002100F0AFFB200040F200430122022100F07CFB200043F6000440F2E6
:2008400000430122C4F20104002100F09DFB2000002100F02BFD2000002100F019FD20000E
:20086000002100F031FDE1212000490200F0E0FC2000042100F044FD0821200000F038FD1C
:20088000200000F02FFD10BD10B5902440F21150E40500F0CFFB40F2117000F0CBFB200017
:2008A0000422012100F094FB20000822012100F08FFB200004230122022100F039FB2000BA
:2008C00004230122002100F05FFB200008230122022100F02DFB200044F2004408230122D2
:2008E000C4F20004002100F04FFB2000002100F0DDFC2000002100F0CBFC2000002100F0B0
:20090000E3FCE1212000490200F092FC2000042100F0F6FC0821200000F0EAFC200000F0B7
:20092000E1FC10BD43F20423C0F600031B7800205F2B08D143F20823C0F6000318785F38A2
:2009400043425841C0B27047F8B50500431C18D04EF21003CEF200031A6839490A400121D1
:200960001A601A680A431A60364A9A6040F60C030022C2F200031A6040F60803C2F20003AA
:200980001A6043F61C0643F624072024C4F20106C4F201076B1C03D0FFF780FDA8424CD884
:2009A00033681C4203D03B68DBB2752B32D044F21C43C4F200031B681C42EBD044F2244312
:2009C000C4F200031B68DBB2752BE3D143F60003012140F2000444F20040C4F201031A68B4
:2009E000C2F200048A431A60C4F20000216041F23455C0F6000500E0E85840F2077100F090
:200A000087FC23689B000028F6D075220020EB589A62F8BD44F200430121C4F200031A68BE
:200A200040F200048A431A6043F600000023C2F200042360C4F20100D9E701204042E8E7B9
:200A4000FFFFFEFFFFFFFF00F8B540F2000541F234544746CE46C2F200052B68C0F6000458
:200A60009B0080B58946904600270026E05802E02B689B00E05840F2077100F049FC00282D
:200A8000F6D04B46DA5D2B6801379B00E0589619BBB2F6B282629845EDD840F2077100F046
:200AA00037FC40B92B6840F207719B00E05800F02FFC0028F6D0FF239E1B2B689B00E358AD
:200AC0009E620CBC90469946F8BDC046F0B557464546DE464E4640F2000A41F23459E0B5C8
:200AE000C2F2000A85B003935346C0F6000990464A461B684EF210079B00D058002340F2BD
:200B0000000B0025002402910193CEF2000740F2057100F0FDFB060070B353464A461B682E
:200B20009B00D05821235B42C361436ADBB2444530D301933B68324A0134134001223B602E
:200B40003B68A4B213433B602E4B0022BB6040F60C03C2F200031A6040F60803C2F2000387
:200B60001A60A0452CD340F2057100F0D1FB40F2010B06000028D0D1FFF790FC40F2F413EB
:200B8000984201D95B4653B953464A461B689B00D058BCE7029AED181355EDB2CAE75346F0
:200BA0004A461B689B00D35821225242DA61012C1ED9029B1B19013B1B78ED1A0193EDB24C
:200BC000FF235D1B019BAB4217D1039A1370444508D3013CA0B205B03CBC90469946A246AD
:200BE000AB46F0BD029B1919002301390B70F0E70120029B40421E70EDE701204042EAE7C3
:200C0000FFFFFEFFFFFFFF0010B582B06B4600220C00694603338A801A7001A90132FFF7BA
:200C200055FF0023012803D16B461B7923700123180002B010BDC04641F20002012110B58B
:200C4000C4F20202136882B00B431360013113681942FCD041F204038021C4F202031A6880
:200C60000A431A6000230193019B7F2B05D8019B01330193019B7F2BF9D941F2040390216C
:200C8000C4F202031A680A431A6000230193019B7F2B05D8019B01330193019B7F2BF9D9FA
:200CA00041F204030321C4F202031A684FF6FF708A4341F200011A60C4F202010A68CFF67A
:200CC000F26002400C200A601A68C0F6FF0002404FF6FF701A601A68C7F2C27002401A601A
:200CE00041F22C030F20C4F202031A68012482431A6041F23003C4F202031A683448024061
:200D00001A601A68334802401A601A68520052081A6041F23402C4F20202106841F208031F
:200D2000A04310600022C4F202031A600B68022023430B6040F2005301E0013B13B10A68CB
:200D40001042FAD041F200030221C4F202031A6811423CD042F200000724C4F20200026801
:200D6000A2430A43026041F204024FF6FF70C4F202021168CFF2C2701160116811601168F8
:200D8000116011680140116000211068C0F60401014311608022196852040A4380211A60CD
:200DA00089041A680A42FCD041F204020321C4F2020213688B431360136801390B431360C3
:200DC0000A3113680B40082BFBD102B010BDFEE7FCFEFFFFFFFFFEFF42F21003C4F20203BA
:200DE0001B681B060DD542F2040340F22312C4F20203C4F267521A6048F6AB12CCF6EF5229
:200E00001A60704742F210038021C4F202031A680A431A607047C04642F200020721C4F2E4
:200E2000020213688B4303431360704742F20C03C4F202031A680120D20706D41A68D20647
:200E400004D418684007C00F400070470420FCE770B5F0240500240301E0013C3CB3FFF7BE
:200E6000E5FF0128F9D008BB42F210030221C4F202031A68F0240A431A6042F21402C4F257
:200E8000020215601A683E310A431A60240301E0013C74B1FFF7CAFF0128F9D042F21003BF
:200EA0000221C4F202031A688A431A6070BD0430FCE742F210030221C4F202031A6804306C
:200EC0008A431A60F2E7C04670B5F02406000D00240301E0013CFCB1FFF7A8FF0128F9D01F
:200EE000C8B942F210030121F024C4F202031A6824030A431A60356001E0013C74B1FFF7FB
:200F000095FF0128F9D042F210030121C4F202031A688A431A6070BD0430FCE742F21003D3
:200F20000121C4F202031A6804308A431A60F2E7F0B54546DE4657464E468C469046834608
:200F40001A000024012140F20309E0B50768C5680E00A64032420AD04E46604663009E4005
:200F60009840B743074340469840B54305430134102CEDD15B461F60DD603CBC904699467E
:200F8000A246AB46F0BDC046F0B5012917D04168994341600021012640F2030C846835003F
:200FA0008D402B4206D067464D00AF40BC431700AF403C4301311029F1D18460F0BD41684D
:200FC00019434160E6E7C0468161704781627047F0B54746CE46002380B58946012740F247
:200FE0000F08066A456A3C009C40224206D041469C00A1408E434946A1400E430133082B6C
:20100000F1D1012740F20F0C3C009C40224207D061469C00203CA1408D434946A1400D4336
:201020000133102BF0D1066245620CBC90469946F0BDC04641F200031F21C4F202039C462E
:20104000012382090840834010B5624414682343136010BD41F28453F0B589B0C0F60003A8
:2010600004A91C0002000800E0CCE0C0246804606C46180025001030C0C8C0C510332800BA
:20108000C0CBC0C541F20406C4F2020633681B079B0F022B35D041F20025C0F27A0541F2F0
:2010A00004062F00C4F2020633681B061B0FCB5C0721DF4033681B0A0B40E45C3368DB0A1A
:2010C0001940435C3800D840052A00D9ABE0574B92009B589F4641F204030321C4F2020310
:2010E0001B6812689B0B0B40D20F022B00D18EE0032B64D1C00812B10920B7FBF0F009B053
:20110000F0BD35683368AD022D0F1B0119D40F2D5DD0AB1C41F20405C4F202052D68ED0348
:2011200018D541F22C05C4F202052E680F25354041F200260135C0F27A06B6FBF5F55D4366
:20114000ADE72B0041F20405C4F202052D681133ED03E6D45E01F61AB501AD1BED00ED1875
:201160002D029CE741F230020323C4F2020211680B42C4D01168194001292AD12800BEE75A
:2011800041F23002C4F202021368DB05A3D4802310685B0218404342584146F28003404233
:2011A000CFF62A73184043F60073C0F2AB139C466044A4E73800A2E73800E0409FE7012B7D
:2011C0001DD04008002A9AD0B7FBF1F097E71023A0E71168194002291ED010681840033885
:2011E000431E98414EF600634042CFF68573184041F20023C0F27A039C4660447FE780087E
:20120000002A00D17BE70520B7FBF0F077E732B90623B0FBF3F072E748F200006FE70720AA
:20122000B7FBF0F06BE7002069E7C0466C15000844F20043C4F2000370B504000D00984289
:2012400022D043F60003C4F2010300209C4202D10530FFF7FFFE23681B0408D46908091895
:20126000B1FBF5F14FF6FF752940E16070BD400069084118B1FBF5F14FF6F0700B075B0F8F
:2012800001401943E160F1E70220FFF7E3FEE2E7012302689A4302600268034B1A40026095
:2012A00003680B4303607047FFF9FFFF012302689A4302600268034B1A40026003680B436B
:2012C00003607047FFEFFFFF012302689A4302604268034B1A40426043680B4343607047F4
:2012E000FFCFFFFF01220368134303607047C046082302689A43026003680B430360704777
:20130000042302689A43026003680B43036070478B091B1818681F23194003000120CB4019
:2013200018407047F0B5C64600B50F2A42D90B00032603431E400C000300002E3FD11500AA
:20134000103D2D09AC462D01A846804400E03B00676825685F60E7681D60DF601F00A568CB
:2013600010379D6010344345F1D165460F230C2401352D01491913404519144222D08C59EA
:20138000AC5104369C1B032CF9D80324043B9B0801339B002240ED18C918561E3AB10023BD
:2013A00000E02300CA5C5C1CEA549E42F9D104BC9046F0BD0500561E002AF0D1F7E7561EAB
:2013C0000500ECE71A00F6E7F0B583074BD0541E002A43D0CEB20300032501E0013C3DD36C
:2013E00001335A1E16702B42F8D1032C2FD9FF220A40150215432A0415430F2C36D927007D
:20140000103F3F093E01B4461E001A0010366644156055609560D5601032B242F8D10F264C
:201420000C2201373F012640DB193700224216D03E1FB608B400A4461A001C1D644420C295
:20144000A242FCD103240136B6009B193C402CB1C9B21C19197001339C42FBD1F0BD3400C2
:20146000002CF5D1FAE714000300BEE72700DFE76A0300081A0300081A0300081A0300080C
:201480001A0300081A0300081A0300081A0300081A0300081A0300081A03000858030008E6
:2014A0001A0300081A0300081A03000832030008320300083203000832030008320300088C
:2014C00032030008320300083203000832030008320300081A0300081A0300081A0300086C
:2014E0001A0300081A0300081A0300081A0300080203000802030008020300080203000824
:20150000020300080203000802030008020300080203000802030008020300080203000863
:20152000020300080203000802030008040300080000000000380140004400401105000062
:2015400012050000130500000000000000000000160500000000004800040048000800485D
:201560000000000000000000001400487C110008B4110008B8110008FE100008801100082D
:2015800064110008000000000000000001020304060708090000000001020304000000009C
:2015A00000000000000000000000000000000000000000000000000000000000000000002B
:2015C00000000000000000000000000000000000000000000000000000000000000000000B
:2015E0000000000000000000000000000000000000000000000000000000000000000000EB
:201600000000000000000000000000000000000000000000000000000000000000000000CA
:202F8000626564305F3131305F4732310000000000000000000000000000000000000000DC
:082FA000FF00000000A24A043A
:2030000000200020A9330008A5330008A5330008A5330008A5330008A5330008A53300084C
:20302000A5330008A5330008A5330008A5330008A5330008A5330008A5330008A533000890
:20304000A5330008A5330008A5330008A5330008A5330008A5330008A5330008A533000870
:20306000A5330008A5330008A5330008A5330008A5330008A5330008A5330008A533000850
:20308000E1480008A5330008A5330008A5330008A5330008A5330008A5330008A5330008DF
:2030A000A5330008A5330008A5330008213200080000000000000000000000000000000015
:2030C0000000000000000000000000000000000000000000000000000000000000000000F0
:2030E0000000000000000000000000000000000000000000000000000000000000000000D0
:203100000000000000000000000000000000000000000000000000000000000000000000AF
:2031200000000000000000000000000000000000000000000000000000000000000000008F
:2031400000000000000000000000000000000000000000000000000000000000000000006F
:2031600000000000000000000000000000000000000000000000000000000000000000004F
:2031800000000000000000000000000000000000000000000000000000000000000000002F
:2031A00000000000000000000000000000000000000000000000000000000000000000000F
:2031C0000000000000000000000000000000000000000000000000000000000000000000EF
:2031E0000000000000000000000000000000000000000000000000000000000000000000CF
:20320000626564305F3030315F303030000000000000000000000000000000000000000074
:2032200043F61C03C4F201031B689B0608D443F61C03C4F201031A688023134220D1704748
:2032400043F62403C4F201031A6840F2FF1313407E2B36D040F21C12C2F200021178BF2905
:20326000E5D8481C107040F25C02C2F20002535443F61C03C4F201031A6880231342DED086
:2032800040F2911240F29011C2F20002C2F200011078097881420CD9431C137040F2301313
:2032A000C2F200031A5C43F62803C4F201031A60C5E743F60002C4F20102116899431160E3
:2032C000BDE740F200020021C2F200021172C1E740F2241248F20001C2F2000213685918CF
:2032E00011608022520294466344836001207047EFF3108172B60F2201230240934049F6E7
:20330000D47200098000C0F600028258D36281F3108870470423C0F600031B6807211A00AF
:20332000023B093A8B439A420DD0BFF34F8F4EF600530422CEF20003C0F2FA52DA60BFF38C
:203340004F8FC046FDE746F243131068C4F26E239842EAD146F66F735268C2F274139A42D4
:20336000E3D180231B051A6853188B439A42DCD172B642F23D404EF64541CAF6A810C7F6BA
:20338000063110605160BFF34F8F4EF600530422CEF20003C0F2FA52DA60BFF34F8FC046F7
:2033A000FDE7C046FEE7C04672B642F2000343F2C932C2F20003C0F600029D461047704749
:2033C000202010B502F0ACFA012130B50023802440F2801083B049424EF20015CEF20005E8
:2033E000AC469A0062441151BFF34F8F01331150102BF1D14EF2001000230021CEF20000C3
:203400001A00C0329200013311507C2BF8D14EF210030422CEF200031A60BFF34F8F4EF67F
:203420000053A022CEF2000312055A60D9611962BFF34F8FBFF36F8F62B640F2000040F272
:2034400040024AF6D061C2F20000C2F20002121AC0F6000106F0E2FB40F2B04240F2400003
:20346000C2F20002C2F200000021121A06F084FC41F200030121C4F202031A680A431A60C3
:20348000022219680A42FCD041F204038021C4F202031A680A431A6000230193019B7F2B93
:2034A00005D8019B01330193019B7F2BF9D941F204039021C4F202031A680A431A600023A1
:2034C0000193019B7F2B05D8019B01330193019B7F2BF9D941F204020321C4F20202136827
:2034E0004FF6FF708B43136041F20003C4F202031968CFF6F26001400C2019601168C0F639
:20350000FF0001404FF6FF7011601168C7F2C2700140116041F22C020F20C4F2020211686D
:203520008143116041F23002C4F20202116840480140116011683F48014011601168012038
:2035400049004908116041F23402C4F2020211688143116041F208020021C4F20202116006
:203560008022196852020A4380211A6089024FF6FF7201E0013A12B118680842FAD041F285
:203580000002C4F2020213689B034FD542F200030720C4F202031968814308000221014365
:2035A000196041F204034FF6FF70C4F202031968C7F2C2701960196819601968196019688F
:2035C00001401960E8211868490301431960802311685B040B43136080239B04116819424D
:2035E000FCD041F204030321C4F202031A688A431A60022219680A430C211A601A680A40B8
:20360000082AFBD143F200034EF60052C0F60003CEF20002936041F214038022C4F20203C9
:20362000196892020A431A6003F0BCFDFEE7C046FCFEFFFFFFFFFEFF43F2A57170B5C0F6FE
:2036400000010400007802F017FA6568C37EE9B2CB18C37672B6827C8A4205D8002383743C
:20366000FE33037762B670BD521AD2B262B1FF242C4005000023133413350419E15CE9547A
:203680000133D9B28A42F9D88274EBE744F6F14170B50400C0F60001007802F0EDF963689F
:2036A000A268E1681C0408D4058A9C18AC4204D81233C01806F0B2FA70BD242002F030F963
:2036C00044F6895110B50400C0F60001007802F0D3F9237A032B0CD806210A00037C1A4067
:2036E000194206D102604260826004221343037410BDFFF765FEC04644F61D7170B5C0F6F0
:2037000000010500007802F0B7F943F699010400C0F60001287902F0AFF921003431EFF358
:20372000108272B6A36B53B944F21933C0F60003A363C3696363C16182F3108870BD1A20EC
:2037400002F0EEF844F61D7110B50400C0F60001007802F091F9636872B6426942B93C225E
:20376000082183608361835C8B43835462B610BD172002F0D5F8C04644F61D7110B5040063
:20378000C0F60001007802F077F963685A1E93415B0072B63C210224425CA243134343540B
:2037A00062B610BD10B50479082C0FD8220043F2A5712032C0F60001007802F0DDF944F2DB
:2037C0003903C0F600038477436010BD282002F0A7F8C04643F2D57170B54C220500C0F6E1
:2037E0000001007802F0C8F943F62D3344F68951C0F6000304004360C0F60001287902F046
:203800003BF9206170BDC04670B5067A0400032E17D843F609012022C0F60001007802F051
:20382000ABF943F6493344F68951C0F6000305004360C0F60001207902F01EF9AE77A86133
:2038400070BD222002F06CF844F68951F8B50400C0F60001007902F00FF9A66843F6490123
:20386000F7B23A00050008322078C0F6000102F083F9FF22077105603240E168053006F085
:20388000CDF9F8BD44F6895110B514220078C0F6000102F071F910BD43F6990110B5242268
:2038A0000078C0F6000102F067F943F62553C0F60003436043F6FD43C0F60003036110BD17
:2038C000F0B544F63151C646050000B50078C0F6000102F0D1F802231A00467C0400324060
:2038E0009046334202D004BC9046F0BD6B68A968DFB22D7B0A2F3ED80A2D3CD8FF22203040
:203900001A4006F08BF94346A37431230222334013436374ED00FB002375E5742FB120231F
:20392000E25C1F3313402A2B1FD0A369E36144F2D963C0F60003636072B640F22413C2F2DD
:203940000003196840F224434FF6FF7243F6400CC4F200031B680A404B409B186344200084
:20396000A36002F049FC62B6BDE744F25563C0F600036360E0E7232001F0D2FF43F2A571D0
:2039800070B5C0F600010500007802F075F8040002F004FC6B68A360AA68E2602B7C6374D1
:2039A00023740023A374E376FE332377EB6863771B0604D412B1200002F01EFC70BD26208A
:2039C00001F0AEFF44F63D4170B5C0F600010500007802F051F8040002F0E0FB6B68200039
:2039E000A360AA68E260EA686361226102F004FC70BDC04643F6090170B5C0F6000105008E
:203A0000007802F039F8040002F0C8FB6B68A360AB68E36053B1EB68200023612B696361D3
:203A20006B6923770023637702F0E6FB70BDC04643F6D95170B50500C0F60001007802F067
:203A40001BF801226B680400C361037D1343037502F0A4FB72B640F22413C2F2000319688D
:203A600040F224434FF6FF72C4F200031B680A404B409B182269200094466344A36002F012
:203A8000BBFB62B670BDC04643F6990170B5C0F600010500007801F0EFFF040072B62023AB
:203AA000C35CDB0701D462B670BD06000C36300002F074FB6B683000636102F09DFBF2E7E8
:203AC00044F66D4170B5C0F600010500007801F0D3FF040002F062FB21226B68A360AB6863
:203AE00063612B7BA354EBB12A6943F69901226144F2E512C0F6000262602222A3546B692A
:203B0000C0F600015A1E934120220233A354287E01F0B2FF2323EA69E0612000E25402F0CA
:203B20006BFB70BD013AE361A354FAE7042210B5037E1343037640F24000C2F2000002F048
:203B400011FB002010BDC04610B5040040F22010C2F2000002F006FB0122E37F0120134398
:203B6000E268E3779446A3686344A36010BDC04642F200431022C4F20103196870B5040032
:203B80000A4236D00220196808425CD019688143196019689143196042F24C431632A15C26
:203BA000C4F2010301321B68A05C9BB2263A814204D2228B01319B189BB2CAB2262123830B
:203BC0006254824256D3628B9A4259D8A28B9A4256D324230022E25440F24400C2F200004D
:203BE00002F0C0FAE2686369944663446361A3602EE042F234411F22036AC4F20101D8B214
:203C00000B68256A9343E0322A4013430B60092820D912280ED853009A18072342F20C4195
:203C20001E3A9340C4F20101086898430123934003430B6042F208438022C4F20103196852
:203C4000D2030A431A6040F2A05CA3686344A360012070BD51008A18072142F21040914027
:203C6000C4F2010003688B431900012393400B430360DFE72269A36894466344A360E7E7E5
:203C80002422A35C0133DBB2A3540132A25C9A42A2D840F20003C2F200035B7A002B98D14B
:203CA0001F2001F03DFEC04610B5040040F25400C2F2000002F056FA226901209446A368BD
:203CC0006344A360237D184010BDC04670B50400C0690E0050B10025026843683100E26160
:203CE000056045609847E0690028F5D140F29410C2F2000002F036FA70BDC046202210B5BE
:203D00000C38835CD9070AD522212124415C01551C3CA343042423438354FFF7D7FF0020B7
:203D200010BDC0462022042110B5835C04000B43835440F29410C2F2000002F013FAA269E8
:203D4000A368944663440120A36010BD30B504002500437E828A49F61C7083B01A35C0F608
:203D60000000009501F094FF00236376A38A0133A38203B030BDC04610B5436984B00178E4
:203D80000393036904000293C3680193836800934368026849F6F460C0F6000001F078FF85
:203DA00043F6795184222078C0F6000101F0E4FE00222368C3606368826703614267042B78
:203DC00006D844F27173C0F60003436004B010BD1E2001F0A5FDC04643F6D95130B50400EB
:203DE0003422007883B0C0F6000101F0C5FE2368C36063688361042B17D84DF6D053C0F2C4
:203E00000603036143F6A9430025C0F600030575436049F6DC600ACC01950A000095C0F6D9
:203E2000000001F035FF03B030BD1C2001F078FD43F6990170B50668050082B0F0B2C0F626
:203E4000000101F019FE040072B62022835CD9070AD52120297921541C3883430420034371
:203E6000A3542000FFF732FF200002F097F920000C3002F093F900222023E2540133E35C7A
:203E800062B6FF2149F6D46031400092C0F6000001F0FEFE02B070BD44F61D7110B50468F9
:203EA000C0F60001E0B201F0E7FD72B63C22825C836AD20612D542699A1AD317D2185A4007
:203EC00062B6C0231B069C46FF2149F6C46062442140C0F6000001F0DBFE10BD4269520808
:203EE0009A1AEAE70F2301210340994049F6D4730009C0F600038000F0B5C6580124736842
:203F000003258B4373600023B06822009A40114203D02F005A00974038430133102BF4D16C
:203F2000B060F0BDEFF3108172B642F200430222C4F20103186802420BD01868904318606A
:203F400010201A6882431A6042F24C43C4F201031B6881F31088704744F6B17170B5C0F676
:203F600000010500007801F087FD040002F016F9FFF7D8FF27226B686361A360AB68236102
:203F80002B7BA354591C013AA1542A69E2606A69E9696283AA69A2832522A15413B12000A8
:203FA00002F02AF970BDC0462023C4F60003F0B51D6824230121C4F6000381400124186803
:203FC0000F27002322009A40114206D03E009A009640B5432600964035430133082BF1D120
:203FE00001240F2722009A40114207D03E009A00203A9640B0432600964030430133102B67
:20400000F0D11033C4F600031D602423C4F600031860F0BD49F6D472C3B219098900C0F6DE
:2040200000028A5810690F221A40012393401840431E9841C0B27047F8B5877F06007FB1FD
:204040000027012500243319D87FFFF7E3FF00B12F430134B37F6D00E4B2EDB2A342F2D899
:20406000327CBA4207D0737C11007B40DB437940DBB2194211D11C23F356347F7774002B12
:2040800004DB013CE4B2FF2C1CD03477F268B368944663440120B360F8BD9A433B4013431F
:2040A000B27C3374072AE6D840F24800511CB218B174C2F20000D37402F054F8FF23777420
:2040C0003377E3E740F24800C2F2000002F04AF8DBE7C04670B50125836904001D40212366
:2040E0008668C05CFFF796FF854203D0A369E6610133A36163699B1B06D4E268A36894467B
:2041000063440120A36070BD20220121A35C40F24C000B43A3542369C2F200009C466644B5
:20412000666102F01FF8E8E744F66D4170B5066882B0C0F60001F0B201F09EFC72B62023E4
:204140008569C45C62B6007BFFF764FFFF21030049F6CC60A2070093D20F2B003140C0F668
:20416000000001F095FD02B070BDC04610B50400007BFFF74FFF2023E25C1F3B70B193437D
:204180007BB92222A35C013BDBB2BBB1A354626901209446A3686344A36010BD1340002BB6
:2041A000EFD044F2E513C0F600036360A3690120A3602123E25C0133E254EEE7E069023A20
:2041C000835CD9070CD52321615C212401551C3CA343042423438354FFF778FD0020DCE7B2
:2041E0000020DAE710B50400007BFFF713FF2169A3688C4663441A002023E15C1F3B20B1BF
:204200008B432BB10120A26010BD0B40002BF9D144F26D13C0F600032000A2616360FFF779
:20422000A5FFF1E70F23020918400E3B834039B949F6D4719200C0F600015258936270474C
:2042400049F6D4719200C0F6000152589361F6E7F0B543F67951C646050000B50078C0F67A
:20426000000101F009FCEB68040023B90133436704BC9046F0BD002343676B689846036909
:20428000CBB1070000261437A31954331878FFF7C1FE4346386502CFC91A4B1E9941330052
:2042A0000C339B00E3185868C9B2FFF7BBFF23690136B342E8D8A86805F004FA48F28043C6
:2042C0000022C4F22E1304F04FF842F688230022C4F2911304F06CFB03F026FA40082066EF
:2042E000EB685B00A365E36540F22413C2F20003196840F224434FF6FF72C4F200031B6894
:204300000A404B409B18226E200094466344A36001F072FFACE7C04670B50500343D040047
:20432000280001F03BFF0023AB60AB613C33E95CAA6ACB061FD56B69D21AD3179A1A5A406B
:204340000023AA6208223C266B6114330B4013430021686AAB55FFF765FFA95DCB060ED5E7
:20436000083C206830B10368236001F0C9FA20680028F8D170BD6B695B08D21ADDE704233A
:20438000286A1940FFF74EFFEAE7C046F0B545F6BD31C646C0F6000100B50500007801F064
:2043A0006BFB040001F0FAFE636A002B43D140F22C082D7943462E00E75C731E9E41F6B280
:2043C0003100A069FFF72EFF6B425D4101233A09534001221A40954201D0E3693BB91023A3
:2043E0003B401E432C23E65404BC9046F0BD40F22413C2F20003196840F224434FF6FF7225
:20440000C4F200031B680A404B409B18E2692000944663446361A36045F63513C0F60003E9
:20442000636010233B4004271E4343463E43E65401F0E2FED8E7132001F072FA0F220123C6
:204440000240934049F6D47200098000C0F600028258D3627047C046F0B5DE4657464E46BB
:20446000454644F6F141E0B5036887B0D8B2C0F6000140F22415039301F0FEFAC2F200052A
:2044800007008168C2682E6840F224404FF6FF74C4F200000368344073401B194FF6FF76E8
:2044A0005B1A9A4207D92C680368634034401B195B1A9A42F7D8398A3B682A6899460491F5
:2044C00040F224464FF6FF7440F2120CC4F200063368144053401C197B68BC4402936346A4
:2044E00005930193002900D183E0BB463700019B40F208081B784FF6FF769A4680235246B5
:20450000009413423ED02A683B68534032409B181B1B592BF7D972B62B683C6848465C40A4
:204520003340E418FFF78AFF62B6009B029AE31A9A426CD953465B009A462A683B68534084
:2045400032409B181B1B2D2BF7D972B64846FFF775FF62B62B683A685A403340D2182968E3
:204560003B684B4031405B189B1A0D2BF7D901235B429C46E044434683B380235246009417
:204580001342C0D12A683B68534032409B181B1B592BF7D972B62B683C6848465C403340C2
:2045A000E418FFF74BFF2A683B68534032409B181B1B0D2BF7D94846FFF740FF62B6009B1E
:2045C000029AE31A9A4222D953465B009A4601235B429C46E0444346002BCED10499019A45
:2045E0008C46059B013263440192934200D07EE75F46296840F224434FF6FF72C4F2000394
:204600001B680A404B409B18BB60012211E000214846FFF707FE5F46296840F224434FF6A2
:20462000FF72C4F200031B680A404B409B180022BB60FF2149F62C70039BC0F60000194060
:2046400001F026FB07B03CBC90469946A246AB46F0BDC04670B50400C068FFF7EFFE40F2F2
:204660002413C2F20003196840F224434FF6FF72C4F200031B680A404B4001219A18637CB8
:204680004B406374A37C0133DBB2A374012B1FD0042B06D8A168A3699C466144A1600120DB
:2046A00070BD0321A068E369C318D31A9A1CD51729408918A2698910944644F2D96261444D
:2046C000C318E161C0F6000259186260A160E6E7A168521AE261DEE7F8B5CE464746040035
:2046E00080B5C068FFF7AAFE01230121607C257D5840A37C60740133DBB2E6690840AB422B
:2047000034D20727DA08A218203212781F403A411140884223D1310040F2070C40F2010952
:204720000AE06746DA08A218203212781F403A414F463A40904213D10133DBB28919AB427B
:20474000EFD345F22123C0F600036360A3689C466144A16001200CBC90469946F8BD310089
:20476000A374A3689C466144A160F3E73100E8E770B5040040F25000C2F2000001F0F2FC77
:2047800023695BB100252B0010339B00E3185868FFF754FE23690135AB42F4D8A26D531E55
:2047A000A365E3B1DB0717D5E36D9A4246D040F22413C2F20003196840F224434FF6FF725D
:2047C000C4F200031B680A404B409B18226E012094466344A36070BD636F012BE4D12000E0
:2047E00001F0DCFC40F22413C2F20003196840F224434FF6FF72C4F200031B680A404B40EF
:204800009B188022A350A36D5B08E3670123A36723697BB1260000256436AB00F15C2B00A5
:204820000C339B00E3185868FFF7FCFC23690135AB42F2D8002300206367CCE740F2241353
:20484000C2F20003186840F224424FF6FF71C4F20002126801404240521880216250A26D13
:204860005208E2670122A267A5E7C04610B5C46A14B94461002010BD2368C3620822A35EAA
:20488000626803829B18C3603C23C35CDB0611D583689C466244826063894361227BD20753
:2048A00013D4826A944663448362200001F028F80120E0E783699C46624482618260638981
:2048C0005A004261227BD207EBD5826A9B1A8362406AFFF7B3FDE8E7000000000000000000
:2048E000F8B5022240F21043DE4657464E464546C4F200035242E0B51A6072B640F228168E
:2049000040F2000540F2241740F224484EF2C06AC2F2000633684FF6FF7B9946C2F200053F
:20492000C2F20007C4F20008CFF6FE7A10E039684246584612684A4001405218991A9029EF
:2049400060DC4846801A4BD462B6002929DC72B62C686368002B3DD1206AFFF76FFD636916
:204960005A1E012B28D0E168A36862611020225ECB185218A360E26021688A6894469A1A39
:20498000D5D46A6829609068181A00D50A00100012689168591AFAD52260634604606C60EA
:2049A000C5E739684246584612684A40014052189A1A002ACBDDF4E72000FFF757FFA368FD
:2049C0000028D9D12268696893682A608C42AED16A60ACE720009847A3680028CCD1F1E7D4
:2049E00051451BDB287A7F2805D948F6A04991444A463260A8E741F62043D318336013002C
:204A00006933FF3340F22C42C4F20002136062B63CBC90469946A246AB46F8BD687A0028A0
:204A2000E0D12C3000F07CFF44F61D7170B5C0F600010500007801F01FF8040001F048F8A0
:204A40006B6843602B894381002B3DD0EB6803810023037372B6012215003C33E35C012190
:204A60005E081D403240954204D0027B4B400A43DBB202736269BAB90822110019401A42D1
:204A800003D000F03DFF62B670BD3C22A354E36A01609BB1236B186020632000FFF7E6FE00
:204AA000200001F0A9FBEEE73C22A35400230360E36A33B1236B18602063E4E72063E06247
:204AC000EBE72063E062DEE7182000F029FFC04670B50400006AFFF7B1FC40F22413C2F2D1
:204AE00000031A6840F22443C4F200031D684FF6FF7355401340ED18E3699C466369654413
:204B0000013B6361DA0702D50120A56070BD63B1E168A3691020225ECB185218E260A361DE
:204B20005A1BF1D40120A360F0E72000FFF79EFE0028EBD0A3685B1BE8D54EF2C062CFF646
:204B4000FE729342E0DA192000F0EAFE0123F0B5DE4693460F228C461900024091404E46BC
:204B6000454657460A0049F6BC7441F20001E0B51F2500098000C0F60004C4F2020106592C
:204B800088463540AB40B4094444276840F203083B43236049F6D473C0F60003C358012753
:204BA0001D689946D86800233C009C4022420AD0444661465E00B440B140A5430D4359468D
:204BC000B140A04308430133102BEDD14B461D60D8603CBC90469946A246AB46F0BDC0460A
:204BE00070B504005F280CD84A424A410132EFF3108572B60021FFF7A9FF85F31088201C2D
:204C000070BD2A2000F08CFE43F2A57170B5C0F600010400007800F02FFF6368817FDAB28B
:204C2000914208D9FF251D404519217B207AFFF7D7FFE87770BD272000F072FE44F63D41F4
:204C400070B524220400C0F60001007800F094FF217A05002079FFF7C3FF2123E85444F28C
:204C6000D503C0F600036B6070BDC04644F66D4170B524220400C0F60001007800F07CFFB4
:204C8000217A05002079FFF7ABFF287370BDC0460F23F0B5C6460125034004000F009D4031
:204CA00000B50609EFF3108872B600220121FFF74DFF2000FFF716F949F6D473B600C0F6F1
:204CC0000003F3582FB99D6288F3108804BC9046F0BD9D61F8E7C04610B504005F2803D83B
:204CE000FFF7D6FF200010BD2B2000F019FEC04670B5040000210079FFF7EEFFA3680500EE
:204D00009EB21B0410D4320044F6F1411432207892B2C0F6000100F02FFF0560E368068273
:204D200043602369C36070BD252000F0F9FDC046F0B544F63151C64604002C2200B5C0F699
:204D40000001007800F018FF6368267A9846731E9E4143460500F1B2D8B2E768FFF740FFDB
:204D600001212874F8B2FFF7B7FFE86023697642AB61102333400133B84501D12022134346
:204D80006B7404BC9046F0BD44F6895170B506001422C0F60001007800F0EEFEB468050050
:204DA000614261413079C9B2FFF796FF631E9C4110220823E8606442AA561C40013414436E
:204DC0002C7470BDF8B5077C0400032F24D844F689510078C0F6000100F04EFE06001020EF
:204DE00000F098FE012105002079FFF7F9FE00212870207AFFF770FF68600021207BFFF74E
:204E00006BFF0622A8602F73337C1A4206D10222134335603374F8BDFEF7D2FAFEF7D0FA89
:204E2000F0B5C64643F6795100B50768456884B00400C0F60001F8B200F01EFE40F2FF080F
:204E40000600414649F6F46063693A000393236939400293E368C0F600000193A3680093C9
:204E60002B0000F015FFEBB2032B24D843462B4022691D009B00F3185A61626900215A6297
:204E8000207AFFF7ADFE7719543738702F000021207AFFF721FF0C37BF00F7197860217D8C
:204EA000207BFFF719FF1035AD007519686004B004BC9046F0BD1D2000F032FD43F6D9514B
:204EC000F0B5C0F60001040083B0007800F0D4FD267983690500B3421DD937000021207A99
:204EE000FFF7FAFE0837BF00E8510021207BFFF777FEAD193035287049F6DC60E268216855
:204F00000192A26863680092C0F600000A0000F0BFFE03B0F0BD1B2000F002FD44F61D71D8
:204F200070B505004022C0F60001007800F024FE3C23EE680400F117891BC90F8900C154C9
:204F40002879FFF7C9FE20620021287AFFF7C4FEC0231B06A362002360622A692363E362AA
:204F600040F25603C2F200031B88E261BBB940F25803C2F2000319780F2901D810211970F5
:204F80003AB9002E05DA10213C32A35C0B43A35404E044F6D123C0F60003636070BD00F083
:204FA00053FDC04610B501790078FFF795FE10BD49F6606370B50500406800220024C1B201
:204FC000C0F6000300E0E25C914205D001340A2CF9D12D2000F0A4FC41F2180340F200269A
:204FE000C4F202031A6832431A60FE2900D06BE042F208438022C4F2010312041A6041F2A5
:205000000402C4F20202136833494FF6FF600B40136041F23003C4F202031968C7F6FE70AA
:20502000014048F20000196011680143116040F200111A6829480A431A6042F20843C4F21C
:2050400001031A6826490A401A6042F22C42C4F20102116801401160116811601A6821493B
:205060000A401A60E022196812030A431A608022196852030A4301211A601A680A431A6063
:205080001A6807310A431A601A681142FCD104211A680A431A6042F20842C4F201021368CD
:2050A0001942FCD144F6B17128782822C0F6000100F062FD43F67133C0F600034360012220
:2050C00026230462C25470BDFF23002203211840FFF73CFD93E7C046FF3FFFFFFFFF0FFF27
:2050E000FFF7FFFFFFFFF1FF10B5A1B1020041184FF6FF70137801324340DCB22401634011
:20510000DBB21C02000A04431809DB00584060409142EFD110BD4FF6FF70FBE710B50B7821
:205120000C0001219B0608D5FFF7B2FD30232278134001221343237010BDFFF773F8F5E7C8
:2051400070B50400007CFEF765FF07220125A37C1A409540DA08A21811002031097880B104
:2051600029432032C9B211700133E27CDBB29A420FD9E26901209446A374A3686344A36080
:2051800070BD2032A94311700133E27CDBB29A42EFD82100E0681131FFF7C0FF082240F2A5
:2051A0002C10637CC2F200001343637400F0DAFF0020E5E710B50400007CFEF72BFF637CFB
:2051C00070B1042213436374A37C5A1CA2743F2B12D8E26901209446A3686344A36010BD94
:2051E0005B07F1D545F24113C0F60003A07463602000FFF7A5FFF2E700232100E068E374F6
:205200001131FFF78BFF082240F22C10637CC2F200001343637400F0A5FF0020DFE7C046F4
:2052200070B5C37C040003B3437C9A060ED40023A37445F2B513A26801209446C0F6000318
:205240006360E3699B006344A36070BD10221A4053425A41007C0132EFF3108572B60021A2
:20526000FFF774FC85F31088E1E70100C0681131FFF754FF082240F22C10637CC2F2000011
:205280001343637400F06EFF0020DEE770B50400080082B01D0006AB1978160013000200B2
:2052A00049F60C700095C0F6000000F0F1FC15B92369B34211D9637F227F0133DBB26377B4
:2052C0009A4201D902B070BD40F20003C2F200035B7A6BB100236377F4E76369B342F9D2F8
:2052E000637F227F0133DBB263779A42EAD8EBE7212000F015FBC046F0B557464E46454678
:20530000DE46E0B585B001911F00037C14009846062342468146134263D00221434611427E
:2053200066D003681A7B98681140FEF77BFF012143460B400393434619426CD14B461E68B3
:20534000002C4ED03B19029340F2080A002440F2010B3D781AE0B068FDF7CAFF7F23290025
:2053600070689943FEF75EFFB068FDF7C1FF3078FEF750FE01235B429C46E24453466400AA
:20538000E4B26D000443EDB2E4B2FBB15A46337B1A42E0D17F23290070689943FEF742FFD2
:2053A000B068FDF7A5FF3078FEF734FE6400E4B20443B068FDF79CFF01235B429C46E244BD
:2053C00053466D00EDB2E4B2002BDFD1019B03B13C706B4601371B7AFAB29A42B4D1039B92
:2053E00023BB05B03CBC90469946A246AB46F0BDDB07F6D50824144021004B1E9941C0682E
:20540000C9B2FEF70FFF614261414B46C9B2D868FEF708FFE5E7DB0819404B46D868FEF7B3
:2054200001FF4B461E68002C00D08BE7082443461C40E8E7F0B5CE46474643F2D57180B511
:20544000060087B00078C0F6000140F2241800F013FBB9236A46C2F2000893824346050089
:205460001B6840F22449C4F200094A464FF6FF77146801215C403B4002220069E41805AB12
:20548000FFF73AFF43461A684B461B6817405340EA8A49F6147003926A46527DDB19029201
:2054A0006A7E31680192AA8A1B1B0092C0F60000220000F0EDFB07B00CBC90469946F0BD4B
:2054C000F0B5D6464F464646C0B584B001AD49F654632A000400C0F600038A4603CB03C253
:2054E0001B780121137020692B000922FFF704FF617EA8780B000F2207001A339743E31838
:20550000DFB1F02F19D0FF2261181A71DA709A705A708A76637E0533DBB263762D2B03D9FD
:2055200051462000FEF712FC237E9B0747D404B01CBC90469946A246F0BD2F790F223E0066
:205540009643CEBBAA7990460F22464696430EB1F02ED8D1EA79902AD5D12A7A94468022F1
:2055600066469643B146202ECDD86A7861188A76EA7860215A706A791F259A704246284093
:2055800052011043424692000A403D402A43D8701A71637E0533DBB263762D2B2FD84B46D5
:2055A0001E2B31D9E38A0133E38240F24000C2F2000000F0D7FDBAE7F02EA4D1C2E72000AB
:2055C00000F0ECFD0422237E9343237672B640F22413C2F20003196840F224434FF6FF72A4
:2055E000C4F200031B680A404B409B18E268200094466344A36000F0FFFD62B697E75146E0
:205600002000FEF7A3FBCAE74F46023F1E2FCCD98AE7C046F0B54E46DE465746454643F22D
:20562000D571E0B503680500DFB2380089B0C0F60001994600F020FAAE6804009EB100F024
:20564000ADFD6B682000A360AB68E360002363610133238300F0D0FD09B03CBC9046994670
:20566000A246AB46F0BD40F2241A00F097FD2D2307ADC2F2000A2B80534626761B6840F259
:20568000244BC4F2000B5A4612684FF6FF765A409046334002220021206998442B00FFF758
:2056A0002BFE53461A685B461B68164053409B1940F2B90B212640F2800A059301E0013E34
:2056C000A6B15B4602222B8001212B002069FFF713FE52466B78934343B1202BEFD8390096
:2056E0002000013EFFF7ECFE002EEAD1627EA2B94146059B48465B1AFF210140E08A0390BF
:2057000068780192029049F61470A28AC0F600000092424600F0BCFA9EE739002000FEF74C
:2057200015FB627EE4E7C04644F6895110B50400C0F60001007800F09FF90021A36822794D
:20574000FFF7DAFD10BDC04644F6895170B504000668C0F60001F0B200F08EF96568A46855
:20576000EAB223000121FFF7C7FD2A00FF2149F604700A4023003140C0F6000000F088FA8B
:2057800070BDC04610B5040000F008FD20000C3000F004FDE36933B100211A001B6851602C
:2057A0001160002BF9D100230022E36123842233E25410BD43F6990170B5C0F60001050047
:2057C000007800F059F9040072B6FFF7DBFF20230122E2546B68A360AB68A36123B9222369
:2057E000EA68E25462B670BD200000F005FDF6E77047C04610B5016844688268EFF31080FA
:2058000072B6FF230B40012B06D0022B07D0D2B2227080F3108810BD92B22280F9E72260B7
:20582000F7E7C04670B540F2304240F234460378C2F20002C2F2000601331578DCB232683B
:20584000E400121907E0160008321400083C24688C4205D00133DBB29D42F4D8002070BDC2
:2058600003707068FBE7C04602000078C0B210B100230120137070470020704740F20003BE
:205880000022C2F200031A7240F20C024DF60051C2F200029368C0F26D01591891604DF659
:2058A0000051C8F26D018C4640F218026344C2F2000201209360704710B504008069FEF782
:2058C000BDFD2C220121A35C4B40A354A268D90707D5E1688C4662445B0707D40120A26036
:2058E00010BD21698C4662445B07F7D56369D11AF4D445F63512C0F6000262601A00EDE742
:2059000040F22843C2F200031A68186040F2A843C2F2000302601A68013A1A607047C0460F
:20592000010010B572B640F23840C2F2000004F083FAC046F8B5476A0400002F00D17AE0E8
:20594000BE683B68350043626B1E9D41EDB280692900FEF767FC3800FFF7D2FFA6B1226A52
:20596000B24211D9E369002B55D12C2002331D43636A215C002B64D16361102319400D4381
:205980002554A368F11820E02C230122E15C704270410B095A4001231340984220D0E3692D
:2059A000F3B10422A1681543626A5B18002A39D12C2010226361275C71183A402A4322549E
:2059C000AA071AD5CA1A18D5226A45F6B903E660C0F60003961B01206360A160266116E0C1
:2059E000636A002063B15B6804221543102211400D431C326361A55450B90120A36006E074
:205A000063611023002019400D431C33E554F8BDA268B118D6E70622A1681543626A5B1831
:205A2000002AC5D052689B1A08D42C230220E15C28401300D8E71620FFF772FF1420FFF7AD
:205A40006FFF0220CFE7C0460D2010B5FFF768FF40F2000310B5C2F200035A7A22B1022A27
:205A600001D000225A7210BD0220FFF759FFC046072010B5FFF754FF40F2304310B5C2F2D1
:205A800000031B7883420BD940F23443C2F200031B68C000181803688B4201D1406810BD75
:205AA0000B20FFF73DFFC04645F6BD3110B5C0F6000104000078FFF7DFFF72B6436A1BB9E5
:205AC0006368036262B610BD1520FFF729FFC04610B5EFF3108172B640F22843C2F20003A4
:205AE000186898B102681A6040F2A842C2F2000213680133136040F2AC42C2F200021468B3
:205B0000A34200D9136081F3108810BD0E30FFF707FFC04640F29C1141F60063C2F200010D
:205B200010B50C680200C2F20003201898420AD80320D31C8343E3180B602000002104F00C
:205B40001BF9200010BD1020FFF7EAFE70B540F23444C2F2000423685BB905680078C0006B
:205B6000FFF7D8FF40F23043C2F200031D70206070BD0920FFF7D4FE10B540F23044C2F2B2
:205B800000040300100022789A4213D940F23442C2F200021468DB00E418236853B940F212
:205BA0005603C2F200031B8823B92160FFF7B2FF606010BD0A20FFF7B3FEC046816870B5BC
:205BC0004B1E99410400C9B20079FFF785F845F6BD3130220500C0F600012078FFF7CCFF87
:205BE0008561A3685A1E9341E2685BB20AB1102213432C2283542369C3610023836243624C
:205C000040F25603C2F200031B884BB940F25803C2F200031A780B2A01D80C221A7070BDD2
:205C2000FFF712FF45F62541F8B520220500C0F600010078FFF7A0FF46F279136A68C0F6B8
:205C4000000306004360052A1FD8012401238AB1DB00EA185168E85C4A1E9141C9B2FEF76A
:205C6000BFFF6A6837190134E4B201322300F8729442EDD345F2E473B3610023B38340F2F6
:205C8000AC13C2F200037361F8BD1220FFF748FE0FB4F0B55746DE464E464546E0B540F288
:205CA0001847C2F200073B7885B0DBB24BB105B03CBC90469946A246AB46F0BC08BC04B0FA
:205CC000184740F291180122C2F200083A70424612780FAC0394D2B240F2901AC2F2000A7F
:205CE00051460D78EDB2AB46AA4205D30B70424640F2000B137000220E9B5D785B46EB182D
:205D00002E00602B2CD99A1A602A02D900233B70CDE7002553461D7043461978C9B25B46A9
:205D20005B1A9B4640F23013C2F200039C4640F230105A466144C2F2000003F0C1FF434658
:205D40001D705B46DBB25246137043F600038021C4F201031A680A431A600E9B5D782E00E1
:205D600040F23013C2F200035B440193052D77D91E009C460E990E9A486892780978033D78
:205D800065440333B170002A66D09D4200D2B5E080464244013A0092B946220004003FE000
:205DA000110004C9100020307F282ED941F2000043F6FF761018B04200D899E08020802665
:205DC00000031018B603B04213D380208026C00410187605B04200D28CE08020170F4042E2
:205DE00038435E1C18708020570D40423843731C30708020970B404238435E1C1870802015
:205E0000D70940423843731C30707F2002401A700A0001330099A1421DD001349D426DD310
:205E20002178052947D0BBD90639012966D81168EE1A8E4200D90E0040F208085F1C1E70C6
:205E4000516890443800320003F0E8FE00994246BB19A142E1D14F46019A9E1A0336F5B220
:205E600040F230135A46C2F200039D5440F23003019AC2F2000390461B78F41E537021004F
:205E80001000FFF731F94246030A46441355B31E18707E23013E5D443370EDB253461D7009
:205EA00043F600038021C4F201031A680A431A6000233B70FBE6110040C9581C327872B1F8
:205EC000854202D818E085420DD00130471E01363A703278002AF6D1C21A013AD2B21A704E
:205EE0000A00030096E7EA1A013A2800D2B2F6E71E0084E71E0076E70022F0E70520FFF738
:205F00000FFDC0464268017849F6AC6010B5C0F60000FFF7BDFE10BD10B502684168EFF34E
:205F2000108072B6FF231340012B0CD0022B0DD00978C9B280F3108849F6B460C0F6000012
:205F4000FFF7A6FE10BD098889B2F3E70968F1E740F604230168002210B54068994208D8DB
:205F6000FF32024050180133984202D90522521AD2B249F6FC7349F66C60C0F60003CB18F1
:205F8000C0F60000FFF784FE10BDC04640F22413C2F2000310B5196840F22443C4F2000348
:205FA0001A684FF6FF734A400B40D21840F29443C2F20003196840F298438A42894149F6C6
:205FC0009460C2F200031B684942C918C0F60000FFF75EFE10BDC04640F22413C2F200032C
:205FE00010B51A6840F22443C4F2000319684FF6FF7349F69C6051401340C918C0F600001A
:20600000FFF746FE10BDC04640F25603C2F2000310B51C8840F200032100C2F200035B7AE6
:20602000481E81415A1E934140F2A01249F6A46082B00A3CC2F200021268C0F600000094D3
:20604000FFF726FE02B010BD40F25603C2F200031B8870B56BB3581E012B2BD040F22C4341
:20606000C2F200031D6840F25803C2F200031C7800222B00190001321B190B608242F9D344
:20608000604328180023036040F22843C2F200031D6040F2AC43C2F200031A6840F298138F
:2060A00049F6F470C2F200031968C0F60000FFF7EFFD70BD40F22C43C2F200031D6828003B
:2060C000E0E7C046F8B540F25605C2F200052B880600002B3FD140F25802C2F2000213783F
:2060E000032B2DD91A0040F29C13C2F20003186841F600610300002441F20007C2F200018C
:206100009C469B188B421FD80134BC42F8D141F20007181AFFF7FEFC40F29813C2F200033A
:206120001C6040F22C43C2F200032F801860FFF78BFF40F2A0133268C2F200031A60F8BD7F
:20614000042313700422CEE714B16346A7B2E0E70F20FFF7E5FB0C20FFF7E2FB032010B540
:20616000FFF7DEFB40F200030022C2F200031A72012303707047C04682698368944663440B
:2061800010B50400836040F2A810C2F20000FFF7E9FF0120637F184010BDC04610B5EFF302
:2061A000108472B640F20001C2F200010B68834202D116E0834209D01A001B68002BF9D10A
:2061C0004B68834207D084F3108810BD036813604B688342F7D140F20C03C2F200034B60D3
:2061E000F1E740F224038268C2F200039A6002680B601A60E4E7C046F8B5CE46474681687C
:2062000080B5EFF3108572B640F20002C2F2000213689C680C1B0CD41C001B689A688A1AF5
:20622000FAD50360206085F310880CBC90469946F8BD40F22417C2F200073E6840F2244CFA
:20624000C4F2000C64464FF6FF7824687440A1464446264034004C4400260C1B1FD440F2C9
:206260002404C2F20004A34224D0036040F22443146040F22C42A160C4F200031B68C4F262
:20628000000232332060136085F31088002ECCD049F6EC70C0F60000FFF7FAFCC5E73E683B
:2062A00061460C684146744031406118903101268160D4E71B68D8E745F6BD3170B5C0F6D4
:2062C000000105000078FFF7D7FB0400FFF700FC6E684660AB68836072B600230360636A95
:2062E00023B1A36A1860A06262B670BD2C23A0626062E35C5A0718D404222C211A436661C8
:2063000062549B070DD42000FFF748FF45F63513C0F600032000A6606360FFF76DFF62B648
:20632000E3E7A3689B1BFAD4EDE76269921BE3D51420FFF7F5FAC04645F6254170B5C0F665
:20634000000105000078FFF797FB0400FFF726FF6B685B00DBB26377EBB13E22190091439A
:20636000C9B901221343637740F22413C2F20003196840F224434FF6FF7248F6A04CC4F278
:2063800000031B680A404B409B1863442000A360FFF732FF70BD1120FFF7C2FAF0B55746AC
:2063A000DE464E46454640F22413E0B59FB0C2F2000306AF7B63196840F22443C4F2000330
:2063C0001A684FF6FF734A4092460B409A4440F20003C2F200033B6340F22813C2F200034B
:2063E0007B6040F21C13C2F200037B6240F2A443C2F20003BB6240F25C03C2F200037B61BC
:2064000040F230035546C2F20003BB600823386BC356002B01D100F02DFD7B6B196840F213
:206420002443C4F200031A684FF6FF734A40194072B60823C356002B01D000F0ACFD62B607
:206440007B6B1C6840F224434FF6FF70C4F200031B68204063401B189B1A5B1A5B19FB6119
:2064600001233A6B40F2A810137250220023BA18C2F200001370FFF7F7F9002800D1FFE088
:206480005022FF23BA1813704822082345F62541BA18C0F60001D018FFF7C4F9050000288C
:2064A00000D1EDE02B7F772B1ED80026002440F201086B7F210001342341404600221842D1
:2064C00009D1297F6B695B189A557C36052CF0D101312977D8E76918087BFDF79BFD02003D
:2064E000501E8241D2B2ECE701226B7F012693433B646B776B6940F201081C003B62BD61A3
:206500003B6C4246334141461A40194238D10136A2677C34062EF3D13C6A50212000F4235D
:20652000F130FF30806F7918BD69A26FE3580978029020007530FF30806F053E019020002F
:20654000F830806F009049F6BC60C0F60000FFF79FFB012000216A696C7F78321300783B83
:20656000197001339342FBD132008240196001307C3394431A000628F0D16C77297783E7A3
:206580000123227802E00133782B77D0E15C58B29142F8D0772871D07722A25C8C4692463A
:2065A00099467622514602E0013A002AAFD0A35C55B28B42F8D06146D2B29C464B46012DA0
:2065C0005CD0E55CA946654501D100F065FCDD1C954253DAD31A01339D10EDB2AB46824273
:2065E00001DA00F0CCFC40F2000AFA6232009C464E4600255346914601E00E00215C4D1961
:20660000EDB2B14201D00133DBB20130FA6A40B28242F2DA9A464E466346AB452ED85A00D2
:20662000D3189B10DBB20022AB4200D26FE7534601335B10DBB2B5FBF3F09D4200D266E7AA
:2066400045F2E473584303F00BF800230022C4F2100302F0ADF90B0042F688210200C4F2D1
:206660009111002001F080FE00230022C4F24E0302F09EF901F058F8020048E7002246E753
:2066800040F29410C2F20000FFF7EEF8E0B35022FF23042540F20408BA1813702024482203
:2066A00043F699010823BA18C0F60001D018FFF7B9F848B3035D1D42F1D07B6B1B689C46FE
:2066C00040F22443C4F200031E6872B62123015DC35C0A00994643469A43025562B65023C8
:2066E0000122FB1860460A404FF6FF741978634670401C400019009049F6D4604B46C0F613
:206700000000FFF7C5FAC9E740F25400C2F20000FFF7AAF8002800D125E14F23FB189B46DD
:20672000FF235A4613707B6B40F201099A4643F6D9515846C0F60001FFF774F804000028CC
:2067400000D110E14A46237D1A4200D10BE1E369002B00DC07E1482008233818C018102206
:20676000002103F009FBA36940F200086BB10026A31930331878FDF74DFC4346B0400343CE
:206780009846A3690136B342F2D85346196840F22443C4F200031A684FF6FF734A400B409F
:2067A000D318BB630023FB6340F22043C2F20003186859683864796411B9BA6B904208D9A7
:2067C000BD6BFE6B0121002249426D185641BD63FE634246002AAAD19946A369002B7BD02E
:2067E00000252B0008339B0018590021FDF71AFDA3690135AB42F4D840F2180A002B6BD021
:2068000000252B0008339B0001211859FDF70AFDA2690135AA42F4D8002A5DD048230821E0
:20682000FB185B18920099181A68520004C39942FAD100252B0008339B0018590021FDF7A2
:20684000F1FCA3690135AB42F4D89BB1482208230025BA18D618631930331878FDF7DAFB52
:20686000431E9841336801359C46A369604401C6AB42F0D8012252429446E2445246002A86
:20688000BCD1002543B32B0008339B0001211859FDF7C8FCA2690135AA42F4D8E2B148230D
:2068A00008218020FF25FB185B189200991800042D061A68024200D02A4304C39942F8D17D
:2068C00045462B0008339B0018590021FDF7AAFCA3690135AB42F4D87B6B1A6840F2244304
:2068E000B86BF96B4FF6FF75C4F200031B6853402A409B184A461360002353603A6C7B6C06
:20690000801A994100F04EFF0021C4F27A4101F079F845F24041C4F6894100F067FF00F050
:2069200021FFC3B249F6E460FA6D217B0592BA6DC0F6000004927A6D03923A6D3A640292DD
:20694000BA6B0192E269154000950022FFF7A0F9E369013BE361002B00D0E4E60122237D45
:2069600093432375DFE640F25000C2F20000FEF77BFF10B35022FF23BA18802513700FE0FF
:20698000A36FD3B14FF6FF7249F6EC60E36F217B1A40C0F600006359FFF77AF90023A367D0
:2069A0004822082343F67951BA18C0F60001D018FEF738FF04000028E2D140F24400C2F299
:2069C0000000FEF751FFE0B15022FF232624BA1813702725482244F6B1710823BA18C0F6E9
:2069E0000001D018FEF71EFF58B1025D435D9A42F0D172B6035D415D994200D13DE262B6EE
:206A0000E7E740F22010C2F20000FEF72DFF002870D04F23FB189B46FF235A4640F20109A5
:206A200040F2010A5E46137043F609013000C0F60001FEF7F7FE040000285BD04A46E37F95
:206A40001A42F1D072B60122A3689846E37F9343E37762B6A37F022B00D144E22CD8002BC6
:206A600000D12AE2337848229B460C23BA183B65043BD2181300A06904220121FEF73CFCE8
:206A80003A6D0F2315BA502240F2480CBA181380BC44073BA069634402220121FEF72CFC9C
:206AA00051235946FB182A021B7820000091120A4146FEF7EBFBB7E7032BB5D150220023DB
:206AC00040F2480CBA181380BC440833A0696344022201213578FEF70FFC50230621FB1840
:206AE0001B8820005BBA9AB200950B404146FEF7CDFB99E740F24000C2F20000FEF7B4FE01
:206B0000002844D04F23FB189B46FF235A4604255E46137043F2D5713000C0F60001FEF76A
:206B200081FE040098B3237E1D42F3D0DB0729D52000FFF733FB02235022237640F62D030A
:206B4000BA1840F2480C13800823BC440222002120696344FEF7D0FB72B67B6B196840F229
:206B600024434FF6FF72C4F200031B680A404B409B18E268200094466344A360FFF73CFB19
:206B800062B6C7E720003178FEF79AFCC2E740F22C10C2F20000FEF767FE30B35022FF233F
:206BA00008240825BA181370482244F631510823BA18C0F60001D018FEF734FEA8B1437C26
:206BC0001C42F1D072B6437CAB43437462B650210300C27C49F62470791809782033D2082E
:206BE000C0F60000FFF754F8DEE740F24C00C2F20000FEF739FE48B35022FF23012501269E
:206C0000BA1813702024482244F63D410823BA18C0F60001D018FEF705FEB8B1035D1D42FD
:206C2000F1D072B6C16982688C46015D8369B143015562B65021604679180978009049F6E1
:206C40003470C0F60000FFF723F8DBE740F24800C2F20000FEF708FE30B35022FF23BA1895
:206C60001370482243F2A5710823BA18C0F60001D018FEF7D7FDB8B1037FFF2BF1D172B678
:206C8000837C002B00D15EE1427F027762B65021C27E791813300978009049F63C70C0F631
:206CA0000000FEF7F5FFDCE743F200034AF6AA22C4F200031A607B6B196840F224434FF66C
:206CC000FF72C4F200031B680A404B409B1872B679680A683A64D21A00D50B6062B67B6A3D
:206CE0001D78EBB29846002B64D0BB6A1C78E3071ED44346042B5DD97A6913789A46053B14
:206D00003B2B0DD856780F253300AB43102B07D1D0454FD35346501EC35C7E2B00D166E1D4
:206D200053467E2B00D131E101231C43BB6A1C7040F25C0042467E21C2F2000002F02CFF74
:206D4000002800D151E101239C43BB6A1C707B69C01A431C9A46A30700D543E102231C4330
:206D6000BB6A1C704AF688500124C0F60000FEF78FFF64427B6A00201D7840F20008EDB2D3
:206D80005346EE1A554500D01CE1EFF3108272B67B6A1B78DBB29D4200D009E17B6A1E703E
:206DA00082F31088012C05D14AF68850C0F60000FEF76EFF7B6B1B6840F2244240F2A41AA2
:206DC000C4F20002C2F2000A15685246126840F29C49511C5246C2F2000911604A464FF68F
:206DE000FF7012685D4094460340ED18FB694C46EB1A9C4462462260834200D9A5E040F291
:206E0000A0445B43C2F200042068FF331B0A1B18834201D201235B4240F294464DF2006220
:206E2000C2F200063068CEF68A228046281A2360D04201D5FFF7EAFA49F68C606246C0F6BA
:206E40000000FEF725FFA84506D940F29843C2F200031A6801321A6000234A46136052469C
:206E6000236013600823386B3560C356002B01D0FFF7D3FAFD61FFF7F3FA0131038B426935
:206E8000015562B6502149F6FC6079180978C0F60000FEF7FDFE9CE59A466346551E944669
:206EA0001A00EDB2635D93425ED1013D6BB2002BF8DC62465346FFF78AFB40F2480C3B6519
:206EC0000823BC44A0696344042201213578FEF713FA3B6D41461ABA0723200013400095AB
:206EE000FEF7D4F9A0E5337848229B4653463B650823BA18D2181300A06903220121FEF7DD
:206F0000FBF93A6D072315BA502240F2480CBA181380BC440133A069634402220121FEF761
:206F2000EBF951230322FB181B782D02934352462D0C2A4013435A464146009220002A0095
:206F4000FEF7A4F970E562B68BE68020400383420ED21E0040F2A044FF36360A7343C2F226
:206F6000000420681B1853E75346EAB2FFF72FFB012340F2A0445B42C2F200044CE7002DD4
:206F800001D0FFF77BFB0020FFF75AFB012440F2010A6442EEE6FF23386B037262B6C04615
:206FA00072B63B6B1B7A5BB2002BF7D1FFF747FA82F310887B6A1D78EDB25346EE1A5545D6
:206FC00000D1E2E6C11840F25C03C2F200039C46321A6144604402F073FE42463B6B3000BF
:206FE0001A72D2E601246442C4E6C246B3E65346D91E40F25C03C2F200039C468C44634604
:207000001000FB62FEF770F85246644BF96A9B5C0A7812021343834200D081E60223B868D8
:207020009C43BB6A1C700378B34200D09AE6102201332B405A4E134303707035B14200D84E
:2070400098E05346B0463B6043465C1C1B78EA463B62013B3F2B00D99DE0396A8C464B0071
:20706000BB6163449A004AF60423C0F600039C46694662445378D6789B000733DB08DB00B0
:20708000CB1A9D4606A95068F960002E00D180E0FB6AA3427AD3B21E3A6420225242944654
:2070A00052469A46037840F260093A610130042B28D80B1D9846631C9B462A0023784C468A
:2070C0001A401C40602C01D1644622435BB25C46002B09DA2E000134631E1B78D2011E4028
:2070E0005BB23243002BF5DB3B6C0A60013318D054454BD83B6C4146013B3B640378013075
:20710000042BD6D9072B41D12278631C9C18A2453CD340F208084B603B6C0A60884401338C
:20712000E8D13B69A0469A463B6B5B7A6BB13A6ABB6994464AF60422C0F600026344944654
:207140009B0063449B78DB0716D53A6ABB6994464AF60422C0F60002634494469B0063448A
:207160009B68F8689847D546FB6A9C4200D26BE73B689A460124FDE549F67C603B6BC0F64A
:207180000000997AFEF784FDD546EDE70620FEF7C7FBA046C8E70420FEF7C2FB5A000020B5
:2071A0005E00002040F2B043032140F29C12F0B5CE464746C2F2000303338B43C2F2000271
:2071C00080B5136041F22403C4F202031A6802390A431A604FF6FF7285B0C0F20F0201318E
:2071E00001E0013A12B118680142FAD041F22403C4F202031B689B0700D491E243F200036A
:2072000045F25552C4F200031A6043F20C020123C4F20002116801200B404FF6FE71C0F2F3
:207220000F013BB11368013903400029F9D1002B00D075E243F204030122C4F200031A6083
:2072400043F20C020223C4F20002116802200B404FF6FE71C0F20F013BB1136801390340CE
:207260000029F9D1002B00D05AE243F2080340F6C412C4F200031A6043F200034AF6AA2221
:20728000C4F200031A604CF6CC421A60EFF3108672B641F21C030221C4F202031A6840F26D
:2072A00000440A4340F224411A6000237022C4F200010B60C4F20004236801259343236091
:2072C0002368DE4A2360236840F21030236040F22843C4F200031D602368FF27134023609E
:2072E0002368236040F21443C4F200031A682A431A6040F20C43C4F200031A682A431A6032
:207300004EF20012CEF200021358BB437F3F3B43135080235B02136040F22C4240F23400D8
:207320000B68C4F2000232331360C2F20000FEF763FF23682B43236086F310880A20FCF795
:2073400033FE012202210A20FDF700FC0A20FCF7C9FD0920FCF728FE012202210920FDF714
:20736000F5FB0920FCF7BEFD41F2180344F20001C4F202031A68B2480A431A6043F6000387
:20738000C4F201031A68AF49AA431A601A680A401A601A681A6043F60402C4F2010211689F
:2073A00001401160116811601A68A7490A401A601A681A601B681B043ED443F60C0340F2D1
:2073C0003912C4F201031A6043F600030420C4F201031968814319601A6802431A60196894
:2073E00004308143196001211A6802431A601A6840F218300A434EF200111A60CEF20001E4
:207400000A581202120A0A50802212050A60202149F674601A68C0F600000A431A60FEF715
:2074200037FC72B640F23840C2F2000002F0F8FC50B962B6FEF7B2FF43F60C0340F27022DA
:20744000C4F201031A60BFE772B640F22413C2F200031A6840F224434FF6FF75C4F200037D
:207460001B68154053405D1940F20003C2F200035A7A02B9987240F200010223C2F2000199
:207480004B7240F20C0340F22402C2F200039868C2F2000213600A60906040F21802C2F25C
:2074A00000021A604B6040F2244340F22C42C4F200031B68C4F200023233136040F2184313
:2074C0000022C2F200031A70FEF7BEFD6B4645F62547DE1DFF23C0F60007390030000024DA
:2074E0003370FEF79FF9C0B1426940F2E42C13000477846178336244190078390C700131C2
:207500008B42FBD11C607C339342F5D1447739003000FEF787F90028E6D1FF2345F6BD3842
:2075200002AF2C263B70C0F6000811E040F210094B46A15DA0691940FCF774FE4B4649462D
:20754000A25D1340114200D01123A3550023636241463800FEF766F904000028E6D1FF238A
:2075600044F61D7609346C4400272370C0F6000604E0C76239003430FCF7CEFE3100200021
:20758000FEF750F90028F4D10A24FF2343F699066C442370C0F6000601E0FEF7F3F83100A7
:2075A0002000FEF73FF90028F7D10B24FF2343F6D9566C4400272370C0F6000604E00122A8
:2075C000037DC7619343037531002000FEF72AF90028F4D1FF2343F6795603AC00272370CC
:2075E000C0F6000600E0876731002000FEF71AF90028F8D10D23FF2244F6B1766B44272708
:207600001A70C0F6000605E0FCF78CFCE35D002B00D078E00D236B4431001800FEF702F919
:2076200004000028F0D1FF2344F689560E346C4401272370C0F600060CE0C046FFFCFFFFCE
:20764000FFCFFFFFFFEFFFFFFFF9FFFF0121037C194251D131002000FEF7E4F80028F5D14E
:20766000FF23237043F64904C0F6000405E00279431D00210068FDF73FFE0E236B4421009A
:207680001800FEF7CFF80028F1D10F24FF2344F631566C442370C0F6000604E00100C0680A
:2076A0001131FDF73BFD31002000FEF7BBF80028F4D1EFF30383DB0508D0802307225B042B
:2076C000524208B401A102B41FB5104740F23400C2F20000FEF790FD40F200030122C2F22F
:2076E00000035A7262B649F6846029009A7AC0F60000FEF7CDFA9CE6DB087B40C068194030
:20770000FCF790FDA6E726220133A354E26863699446634420006361A360FEF76DFD79E7AC
:207720002920FEF7FDF8C046002370B50022C4F2E01304000D0002F0EDF820B920002900F3
:2077400001F05CFF70BD00230022C4F2E0132000290001F0B3FB01F051FF80231B069C46F3
:207760006044EFE770B501F0D5FF00230022C3F6F0530D00040001F01BF9FFF7D5FF06007E
:2077800001F0A0FF00230022C4F2F01301F010F902000B002000290001F090FBFFF7C4FFD6
:2077A000310070BD8023D0B59B0304000800994201D3630513D101F085FF00230022C4F22E
:2077C000F01301F0F5F806000F00200001F07AFF32003B0000F036FA01F0E0FFD0BD40F609
:2077E0000003E40AE4021C43E5E7C046F0B54F464646D646C0B5470045023F0E0C1C6D0AB0
:20780000C60F002F66D0FF2F6BD0EA00802540F2000940F2000AED0415437F3F60026100F5
:20782000430A090E9846E40F002948D0FF2910D08022D800D2040243904600207F394A46F7
:2078400033007F1A02436C4992008A586340DBB29746002B6BD10220FF3F32E040F20008CE
:207860002600454682465346022B00D17DE0032B00D192E0012B17D038007F3000285DDDCE
:207880006B0704D00F232B40042B00D004352B0103D53800594B80301D40FE2865DCAD01CB
:2078A0006D0AC0B202E01E0000200025C0052843F60730431CBC90469946A246F0BD53BBCA
:2078C00001204A4633004E49024392008A586340DBB2974695B940F20409002740F2010A76
:2078E0009CE72DB940F20809FF2740F2020A95E740F20C09FF2740F2030A8FE7280002F0C0
:2079000013F87627431F7F429D4040F2000940F2000A3F1A82E7180002F006F84246431F94
:2079200076219A404942091A9046002087E7FF21032084E71E00FF200025B7E701231B1ABD
:207940001B2BB1DC9E372900BD40D9406A1E95410D436B0704D00F232B40042B00D0043577
:207960006B0144D501200025A0E7FF2000259DE780250026FF20ED0398E740F200088020BA
:20798000C003054209D04346034206D1454605436D022600FF206D0A88E78020C003054347
:2079A0006D02FF206D0A81E741466A014801824219D21B210025013F012614006D005200D5
:2079C000002C01DB904201D8121A354301390029F3D1501E824138007F301E001543002873
:2079E00000DD4DE7AAE71A210125121AE4E7AD0100206D0A5AE7C04690AD0008FFFFFFF7C8
:207A0000D0AD0008F8B557464E464546DE46E0B5450044022D0E0F1C640AC60F002D49D045
:207A2000FF2D4FD0802040F2000A40F2000BE400C00404437F3D7802430A99467A00FB0F0D
:207A4000120E98464B46002A44D0FF2A11D0D8008023DB040343994600207F3AAD184746A5
:207A600053467740691C0F2B3FD8744A9B00D3589F46FF35002B00D07BE0524602231A43D3
:207A800092460220EBE747464C4683465B46022B28D0032B00D1C9E0012B51D10020002432
:207AA000C005FF07204338433CBC90469946A246AB46F8BD002C73D140F2040A002540F2DB
:207AC000010BB8E7002C65D140F2080AFF2540F2020BB0E7002B52D1524601331A4392460C
:207AE0000120BCE7FF200024DAE74B464FF6FF70260C044018401A0C030070436343544392
:207B00009C4624181B0C1B195643984203D9802252029046464460464FF6FF741A04044087
:207B200012199401601E84411B0C920E9B1914439B011C431B0173D50120630804401C43E2
:207B400008007F3000283DDD630704D00F232340042B00D00434230103D580310800384BEA
:207B60001C40FE28BEDCA401640AC0B298E737008CE7524603231A43924603206FE7484641
:207B800001F0D2FE4A46431F9A402D1A91460020763D64E740F20C0AFF2540F2030B4AE73F
:207BA000200001F0C1FE7625431F6D429C4040F2000A40F2000B2D1A3DE780240027FF209F
:207BC000E4036DE701231B1A1B2B00DD66E79E3120008C40D840631E9C410443630704D0EB
:207BE0000F232340042B00D0043463011AD50120002455E78020C003044209D04B4603428D
:207C000006D14C46044364024746FF20640A47E78020C003044364023700FF20640A3FE70C
:207C200029008DE7A4010020640A39E78020C00304436402FF20640A32E7C04610AE0008D2
:207C4000FFFFFFF7F0B54F46D64646460D0001001800C0B517002A03520A4B0F6E00EC0F50
:207C600013430503CA009246790F42006D0A2943760D520D8946B11A8C46C00FFF00844275
:207C800000D1A1E0002900DC85E0002A00D1C1E040F2FF72964200D1A6E180224946120472
:207CA000114389466246382A00DD91E11F2A00DD0CE2614620226046521A4D463900954098
:207CC0009740C1400D4339004F1EB9414F46C7402943DB1B5246551AAA45894149425B1A1E
:207CE000984643461B0200D4DCE043465B025B0A98464346002B00D15DE1404601F014FEFB
:207D000001000839202228004346521A8B40D0408D4003438E4200DD48E18E1B721C1F2A7E
:207D200000DDC3E1202118002E00891A8D408840D640D340691E8D413043984600260543C6
:207D40006B0709D00F232B40042B05D02B1DAB42AD416D42A8441D0043461B0200D4A4E05E
:207D600040F2FF720136964200D1C3E04146CE4BED0819400B0049075B0229431B0B324033
:207D800012051343E4072343080019001CBC90469946A246F0BD00294DD0911B8C46002EF0
:207DA00000D054E151461943002900D1EFE1614664460139012C00D132E240F2FF74A445D6
:207DC00000D1A7E28C464AE1002900DCBFE0002A4AD040F2FF72964200D105E18022494601
:207DE0001204114389466246382A6FDC1F2A00DC9EE14D46203AD5406246202A05D06146E1
:207E00004022521A494691400F4339004F1EB9410D4360E04A463A43002A00D1DEE00A00E2
:207E2000013A012900D1C8E140F2FF718C4500D1BDE1944636E740F2FE71721C114200D038
:207E4000F1E052461A43002E00D0A7E1002A00D1F2E14A463A43002A00D0F8E151465A0730
:207E6000C9081143DB082AE04A463A43002A00D1B4E00A00013A012906D040F2FF718C459C
:207E800000D194E19446AEE73D005544554589414B44984649428844434602261B0200D58C
:207EA000F5E0013E6B0700D04CE74346B4465A07E9081143DB0840F2FF7294453AD040F275
:207EC000FF7260461B031B0B024059E74A463A4315006F1EBD4155445545894149428846C2
:207EE000984443461B02DDD540F2FF7301369E4200D0CCE040F2FF720023002140E74A4679
:207F00003A43002A70D052465807D108DA0880231B0308431A4207D04946CD081D4203D1F2
:207F20002A00FF0848073843430FC1005B07C908194313000A001A43002A00D10DE280229E
:207F4000120313431B0340F2FF721B0B18E7002950D0911B8C46002E00D1D7E040F2FF71B1
:207F60008A4200D189E1802109040B436146382900DD34E11F2900DDD4E1604620211D0026
:207F8000091A664650468D40F0400543504688400100F340481E814199440D43ED19BD424B
:207FA000894149424944884616009AE73E4A761A13409846C4E6280001F0B6FC0100183172
:207FC0001F2900DC9EE62B00083883400025A1E64A463A4311004F1EB9417BE65246D108C8
:207FE0005A071143DB0866E751465A07C9081143DB089FE740F2FE72701C024200D0A8E04C
:2080000052461A43002E00D000E1002A00D168E14A463A43002A00D06AE15246D1085A0724
:208020001143DB084BE75246D51BAA4589414A4649429A1A521A9046120200D59CE0414699
:208040002943002900D054E60023002437E740F2FF718A4200D1BBE0802109040B4361469F
:20806000382944DC1F2900DDBFE020241D00641A66465146A540F1400D435146A140F34088
:208080004C1EA1414C46E31A9946294334E04246054B01211A4013006A080D401543D90748
:2080A0005B0898460D434BE6FFFF7FFF18001F3EF040202A03D040218A1A93401D43691E01
:2080C0008D4140F2000800260543EBE64D46203AD5406246202A05D061464022521A49468C
:2080E00091400F4339004F1EB9412943F2E551460B4319004B1E99417D1AAF4289414B4656
:2081000049425B1A984604001600EAE551461943002900D1B7E0614660460139012800D193
:2081200012E140F2FF70844500D1A6E08C461DE7614620226046521A4D4639009540C14018
:2081400097400D43791E8F413D434F46C740DB19C1E640F2FF72904200D1CBE63900514415
:20816000514592414B4452429B18DD0749085B08984606000D4395E65246BD1AAF4289414F
:208180004A464942D31A5B1A98460400B1E54B46F9085A0704001143DB088CE6002A78D1D7
:2081A00049463943A1B9802300241B03C7E65246D1085A071143DB08BCE65246D51BAA45A6
:2081C00089414A4649429B1A5B1A9846012688E54B46F9085A0704001143DB08AAE65146C9
:2081E0000B431D006B1E9D41D8E61D002039CD406146202905D04024641AA34051461943EF
:208200008A4651464B1E9941294375E7002A00D075E64B46F9085B0719434B46DB0889E664
:208220005246BD1AAF4289414A464942D31A5B1A98460400012654E54946394300294CD005
:208240004B46F9085A0704001143DB0837E65246D51BAA4589414A4649429A1A521A904681
:20826000120235D55246BD1AAF4289414A464942D31A5B1A9846040062E54B46F9085A071D
:208280001143DB0856E64B46F9085A071143DB0811E64A463A43002A00D1A5E65246D10846
:2082A0005A071143DA0880231B031A4209D04D46ED081D4205D14B4604002A00F9085B0752
:2082C00019434B0FC9005B07C9081943130031E641462943002900D0E4E500238C46002498
