:020000040800F2
:200000000000012091030008A5030008A5030008A5030008A5030008A5030008A503000803
:20002000A5030008A5030008A5030008A5030008A5030008A5030008A5030008A503000840
:2000400008B500F005F800F02BF8002008BD00BF08B5124B4FF000629A6000F067FA00F049
:2000600019FB00F075FB00F0AFFB00F015FB00F0EBF943F6982000F0F3FB013000D008BD09
:2000800000F0DCFB012805D0BDE808404FF0FF3000F0E6BB00F0E2FAF6E700BF00ED00E07A
:2000A0002DE9F04F00238DB07C4A0693CDE90333CDE90733CDE909338DF809308DF80A30E1
:2000C0008DF80B3005930B9302F5006442F8043FA242FBD1724904AB6D2201E011F8012F8F
:2000E00003F8012B07AA9A42F8D1DFF8BC912D2304AA8DF81C30A9EB020902F1180A07AB2A
:2001000019F8032003F8012F9A45F9D1654FDFF89C8103260DF10901002000F0D9FC0028F1
:20012000F8D09DF80930032BF4D8DFE803F00229190F07AB19F8032003F8012F9A45F9D168
:20014000192204A9002000F0F3FBE3E7022301220DF10B0100208DF80B3000F0E9FBD9E729
:2001600000F06CFB0128024679D04FF01F0301220DF10B0100208DF80B3000F0D9FBC9E78C
:20018000752301220DF10B0100208DF80B3000F0CFFB05250DF10A03042203A9002000F0E9
:2001A00005FC034601334FF001020DF10B014FF0000008D14FF01F038DF80B3000F0B8FB99
:2001C000013DE7D1A6E775238DF80B30039B0193002500F0ADFBDDF804B0CDF804900DF175
:2001E0000A034FF400624146002000F0DFFBB0F1FF3F814603D14DE0012E1ED906464A4633
:200200004146384600F096F9012806F1FF30F3D1BBEB090B4FF0030615D0204B4F4443F827
:20022000045FA342FBD1752301220DF10B0100208DF80B3000F07CFBD1E7F8B1BBEB090B83
:200240004FF0FF36E9D12023584601220DF10B01DDF804908DF80B3000F06AFB5AE775230B
:200260000DF10B0100208DF80B3000F061FB4FF47A7000F037F900F0F1F94BE72123012288
:200280000DF10B01DDF804908DF80B30064600F04FFB3FE7DDF8049067E700BF04000020E5
:2002A000802F000800300008F4310008080000202DE9F04700264FF001084FF6FF7E1670F7
:2002C000A1F80280A1F800E0047854B333463746B1464FF0FF0CA4F121052F2D25D8DFE8F5
:2002E00005F04924242424242424242424402424242A2A2A2A2A2A2A2A2A2A242424242454
:20030000242418181818181818181818181818181819A4460133DBB21F46C45C002CDAD10D
:20032000F4B214700020BDE8F087002313704FF0FF30BDE8F0870744303C7D78303DEDB26F
:20034000092DACF14107E4B206F1010A17D9BCF1FF0F04EB0714E8D021F826401FFA8AF665
:20036000D8E701EB86044FF0FF0CA4F8028021F826E0CFE701EB8604A4F80290CAE704EBC7
:20038000840405EB4404013304F0FF04DBB2DEE772B6024B024A9D4610477047000001204D
:2003A000A9030008FEE700BF08B500224FF0FF31930003F1604303F56143C3F88010BFF3D4
:2003C0004F8F0132082AC3F88011F1D1002316481946C2180133F02B82F80013F9D1134B0E
:2003E00004221A60BFF34F8F114A4FF02061002351601946D01801330C2B0176FAD1BFF338
:200400004F8FBFF36F8F62B60A480B4A0B49121A00F0EAFE0A480B4A0021121A00F07EFFD6
:20042000FFF70EFEFEE700BF00E100E010E000E000ED00E00000002008000020A02F000899
:2004400008000020101000200D4B0E481A6822F4803230B41A601A680B4C22F004021A6073
:200460001A686FF07F4522F0020200211A605D60216001601A6822F0010230BC1A607047D3
:2004800010E000E0081000200C100020114A124B12489B68116801F07F4110B4116011682B
:2004A0000468C3F1FF1303F57F4319439C42116003D9116801F180711160094903600968D6
:2004C000126810BC4FF47A70CB08B2FBF3F300FB03F070470C10002010E000E0081000205A
:2004E000040000200E4B0F491A6822F4803270B51A601A680C4D42F001021A606FF07F4690
:2005000000229E6004462A600A60FFF7BFFF001B0028FADB024A136823F00103136070BD33
:2005200010E000E0081000200C100020022000F095BB00BF2DE9F04F044683B04FEA520AEF
:20054000CDE9001000F094FB04F17843C3F34904C4F580691FFA89F9DD0A3D4BD14505F5E7
:20056000803528BF1FFA8AF9C3EBC52503F2FE774FF6FF76374B9A1C50195A19528823F87E
:20058000022FBB42F9D1B9F1000F2BD0304B09F1FF381FFA88F804EB080103EB4404023307
:2005A00003EB4101234601E08B4233D033F8022BB242F9D000F0BEFB00283FD1009B03EB72
:2005C0004808023B33F8022F24F8022B4345F9D11F4C601934F8021B00F042FC70BB1E4BA8
:2005E000A342F6D1CA4505F500652BD0009A02EB4902AAEB090A0092019ABAF5806F534608
:2006000002EB490228BF4FF48063019200241FFA83F9AFE7019B03F10208009B4C46A8EB59
:200620000308A3F1020B01E0013CDBD008EB0B003BF8021F00F014FC0028F5D0002003B033
:20064000BDE8F08F00F03AFB012003B0BDE8F08F08080020060800200810002082B00C4B3A
:20066000019300224FF0FF31930003F1604303F561430132082AC3F88010C3F88011F3D1CF
:20068000019B5B68019A126882F3088802B018470030000800F032BA2DE9F04FA3B0802272
:2006A000002102A800F03AFE002326488DF8073002A90DF10702FFF7FBFD00283ED19DF88E
:2006C00007108046B1B3DFF880A0DFF8809006460346012707E000F08FFC9DF807100136F9
:2006E000F3B2994226D922AA02EB830434F8802C02F00F057F2A07FA05F54FEA121BEED88D
:200700003AF82B0000F07AFC59F82BB02B4658461021012200F01EFC34F87E3C294658468A
:20072000002BD8D000F066FC01369DF80710F3B29942D8D8404623B0BDE8F08F4FF0FF388E
:20074000F8E700BFBC130008CC130008E813000838B540F202601A4D1A4C00F04FFC40F27F
:200760000E6000F04BFC28464FF400730322182100F0F0FB4FF4806303222846042100F0A9
:20078000E9FB2046002100F0FDFC2046002100F0F1FC2046002100F0FDFC20464FF4E13176
:2007A00000F0BEFC2046042100F00CFD2046082100F0FEFC2046BDE8384000F0F3BC00BFB1
:2007C000000801400038014038B540F20260194D194C00F013FC40F2117000F00FFC2846F0
:2007E00004230322182100F0B5FB082303222846042100F0AFFB2046002100F0C3FC2046BB
:20080000002100F0B7FC2046002100F0C3FC20464FF4E13100F084FC2046042100F0D2FC6A
:200820002046082100F0C4FC2046BDE8384000F0B9BC00BF0008014000440040064B1B7821
:200840005F2B01D000207047044B1878A0F15F00B0FA80F0400970470432000808320008FD
:20086000F8B50646013010D0264B27481A68274922F480321A601A6842F001021A606FF0CA
:200880007F4400229C6002600A60214F214C224D711C03D0FFF7FAFDB04230D83B689A06D5
:2008A00003D52368DBB2752B1FD01C4802689306EED52A68D2B2752AEAD11949194C0A68E6
:2008C000012522F400520A602560174D01E055F82300072100F080FC23680028F7D055F88B
:2008E000233075225A600020F8BD104A0D4C1368074823F40053002113602160E5E74FF078
:20090000FF30F8BD10E000E00C1000200810002000380140043801400444004000440040AD
:200920000C38014000000020C41300080C4400402DE9F843DFF870901A4CD9F800300026EE
:2009400054F823004F1E9046354603E0D9F8003054F82300072100F03FFC0028F6D0D9F805
:20096000002017F8013F54F822000135ADB21E4445454360F6B2EDD3072100F02DFCD9F8FC
:20098000003040B954F82300072100F025FCD9F800300028F6D054F82330C6F1FF065E607E
:2009A000BDE8F883C4130008000000202DE9F04FDFF81481414FD8F80000414C57F82000FB
:2009C000DFF808B185B04FF00009019116460393CDF800904D46CA46052100F0FDFB6FF021
:2009E00020030246002836D0D8F8002057F8220003604368B245DBB227D300932368314AD8
:200A000023F48033236023684FF0010943EA0903CA4423601FFA8AFA6FF07F43A36056458F
:200A20004FF00003CBF800301360D5D2009BC5F1FF05AB423ED1039AB24513702DD30AF104
:200A4000FF3080B205B0BDE8F08F019A1D4402F80A30EDB2D2E70292FFF718FDB0F5FA7F17
:200A600003D9029AB9F1000F04D1D8F8003057F82300B1E7D8F8001057F821106FF0200087
:200A8000BAF1010F08600ED9019B03EB0A0212F8013C0093ED1AEDB2C8E7019B5344002232
:200AA00003F8012CCBE7019B4FF0FF301A7005B0BDE8F08F4FF0FF30C4E700BFC413000838
:200AC00010E000E008100020000000200C10002030B583B000240DF103030D46012201A952
:200AE0008DF80340ADF80440FFF760FF012806BF9DF804302B70204603B030BD30B4504A1A
:200B0000136843F0010382B0136013689907FCD54C4A1368002143F0800313600191019B09
:200B20004F2B05D8019B01330193019B4F2BF9D9444A1368002143F0900313600191019B81
:200B40004F2B05D8019B01330193019B4F2BF9D93C4A3B4913683C483C4C23F003031360D5
:200B60000B6823F0847323F480334FF41F050B6005600B68002023F480230B60106020604F
:200B80000B6843F480330B604FF6FF7301E0013B02D00A689203FAD5294A13689D034ED560
:200BA0002B4C2C482168274B41F080512160016841F44041016019681960196819601968D7
:200BC00041F480611960196821F440311960196841F440311960196821F0904121F470116D
:200BE0001960196841F0036141F480211960136843F08073136013689C01FCD51549164A5C
:200C00000B6843F480330B601368D803FCD51149114A0B6843F400330B6013689903FCD500
:200C2000084A136823F003031360136843F00203136013681B07FCD502B030BC7047FEE78D
:200C40000010024004100240081002402C1002401C1002400070004004700040034A13687A
:200C600023F0070303431360704700BF002002400B4B1B681A0604D50A4B0B490B4A19607D
:200C80001A600B4B1B88B3F5007F08D9094B1B681B0604D5084B0449044A19601A60704770
:200CA000102002400420024023016745AB89EFCDE0F7FF1F5020024044200240074A0849AD
:200CC0001368098843F08003B1F5007F136003D9136C43F080031364704700BF102002404A
:200CE000E0F7FF1F084B1A68D10709D41A68D20608D41B6813F0040F0CBF002002207047E2
:200D000001207047032070470C200240084B1A68D10709D41A68D20608D41B6813F0040F5A
:200D20000CBF00200220704701207047032070474C20024038B5424B1B88B3F5007F054600
:200D40004FD9404B404C984225D2FFF7CBFF012805D1013C68D0FFF7C5FF0128F9D0B8B932
:200D60003A4B3B491A68384C42F002021A600D601A6842F040021A6001E0013C56D0FFF79D
:200D8000B1FF0128F9D0314A136823F00203136038BD013C48D0FFF7B9FF0128F9D000281E
:200DA000F6D12C4A2C4813682C49274C43F00203136005600B68274A9B0744BF244B1D609A
:200DC000136843F04003136001E0013C35D0FFF79DFF0128F9D01F4A136823F00203136099
:200DE00038BD194C01E0013C1ED0FFF77BFF0128F9D00028CCD1154B15491A68124C42F096
:200E000002021A600D601A6842F040021A6001E0013C0BD0FFF766FF0128F9D00B4A136861
:200E200023F002031360B3E7042038BD074A136823F0020304201360AAE70420CBE700BFD3
:200E4000E0F7FF1FFFFF07080000FF0F102002401420024050200240542002401C200240B4
:200E6000374B1B88B3F5007F70B505460E463ED9344B354C984220D2FFF734FF012805D157
:200E8000013C52D0FFF72EFF0128F9D090B92F4A2D4C136843F0010313602E8001E0013CB2
:200EA00045D0FFF71FFF0128F9D0284A136823F00103136070BD013C37D0FFF727FF0128EA
:200EC000F9D00028F6D1224A1F4C136843F0010313602E8001E0013C30D0FFF717FF01285D
:200EE000F9D01B4A136823F00103136070BD164C01E0013C19D0FFF7F5FE0128F9D0002826
:200F0000D8D1124A104C136843F0010313602E8001E0013C0BD0FFF7E5FE0128F9D00B4A84
:200F2000136823F001031360C4E7042070BD074A136823F0010304201360BBE70420D0E7B9
:200F4000E0F7FF1FFFFF07080000FF0F10200240502002402DE9F041CC0601F00F0602D567
:200F6000042A40D0164300224FF0010E4FF00F0C06E0482908BF046105600132082A11D0E2
:200F80000EFA02F495001C400CFA05F806FA05F5F3D00768282927EA080745EA0705E8D1CE
:200FA0004461E9E74FF0010C0F2706E0482908BF056144600132102A13D094000CFA02F531
:200FC000203C1D4007FA04F806FA04F4F2D0D0F804E028292EEA080E44EA0E04E6D14561D9
:200FE000E7E7BDE8F081C26B1A4346F00306C263B9E700BF0161704741617047830903F1CE
:20100000804303F5043300F01F001968012202FA00F008431860704770B43B4C3B4D064646
:2010200094E80F0089B010340DF1200C0CE90F0094E803006B4683E8030002AB83E80300C1
:201040002B68C3F38103022B34462AD030482F4B19681A681B6808ADC1F303112944C2F30B
:201060000222C3F3C22311F8101C2A442B4412F8202C13F8183C20FA01F1032C41D8DFE8CF
:2010800004F0040C070221FA03F009B070BC704721FA02F009B070BC7047084609B070BCBD
:2010A00070472B68DB0311D41A4A184B186819681B680D01C0F3834015D559001ED540F0EE
:2010C00030003F2813D102FB00F0C0E7124B104819682B68114A11F0804F08BF02469E035D
:2010E000E3D55208E1E75B0003D540F020000130E9E70F2818BF0230E5D1F8E740F010007D
:20110000F5E70020C1E700BF041400080410024000127A0000093D002C100240006CDC025C
:2011200038B5124B984204460D4619D010D9104B984215D003F56843984215D10320FFF786
:201140006BFF00EB5503B3FBF5F189B2A16038BDA3F50063984203D003F58063984203D1EC
:201160000220FFF759FFECE70020EAE7004C004000500040C26822F4C062C260C3680B4322
:20118000C3607047C26822F48052C260C3680B43C3607047026922F44052026103690B43BE
:2011A00003617047C36843F40053C360704700BFC36823F00803C360C36801F008011943D9
:2011C000C1607047C36823F00403C360C36801F004011943C16070478B0901F01F01185865
:2011E000C84000F001007047844641EA000313F003036DD1403A41D351F8043B40F8043B73
:2012000051F8043B40F8043B51F8043B40F8043B51F8043B40F8043B51F8043B40F8043BD2
:2012200051F8043B40F8043B51F8043B40F8043B51F8043B40F8043B51F8043B40F8043BB2
:2012400051F8043B40F8043B51F8043B40F8043B51F8043B40F8043B51F8043B40F8043B92
:2012600051F8043B40F8043B51F8043B40F8043B51F8043B40F8043B403ABDD2303211D322
:2012800051F8043B40F8043B51F8043B40F8043B51F8043B40F8043B51F8043B40F8043B52
:2012A000103AEDD20C3205D351F8043B40F8043B043AF9D2043208D0D2071CBF11F8013B00
:2012C00000F8013B01D30B8803806046704700BF082A13D38B078DD010F003038AD0C3F1B9
:2012E0000403D21ADB071CBF11F8013B00F8013B80D331F8023B20F8023B7BE7043AD9D36B
:20130000013A11F8013B00F8013BF9D20B7803704B7843708B78837060467047F0B486075E
:2013200046D0541E002A3CD0CAB2034602E014F1FF3436D303F8012B9D07F8D1032C29D942
:20134000CDB245EA05250F2C45EA054533D9A4F11006360903F1200707EB061703F11002DB
:2013600042E9045542E902551032BA42F8D1721C14F00C0F03EB021204F00F0613D0331F73
:2013800023F003030433134442F8045B9342FBD106F003042CB1C9B21C4403F8011B9C42C2
:2013A000FBD1F0BC704734461346002CF3D1F8E714460346C2E71A462646E0E75043372C87
:2013C00050423000003801400044004002060000030600000406000005060000060600001C
:2013E000070600000806000000080140000C0140001001400014014000180140001C0140E0
:20140000002001400000000000000000010203040607080900000000010203040000000039
:201420000000000000000000000000000000000000000000000000000000000000000000AC
:2014400000000000000000000000000000000000000000000000000000000000000000008C
:2014600000000000000000000000000000000000000000000000000000000000000000006C
:2014800000000000000000000000000000000000000000000000000000000000000000004C
:202F80006D6375305F3131305F4733320000000000000000000000000000000000000000C0
:082FA000FF000000000E2707EE
:2030000000000120693300086533000865330008653300086533000865330008653300082B
:203020006533000865330008653300086533000865330008653300086533000841450008A2
:20304000653300086533000865330008653300086533000865330008653300086533000870
:20306000653300086533000865330008653300086533000865330008653300086533000850
:20308000653300086533000865330008653300086533000865330008653300086533000830
:2030A000653300086533000865330008653300086533000865330008653300086533000810
:2030C0006533000865330008653300086533000865330008653300082132000800000000D5
:2030E0000000000000000000000000000000000000000000000000000000000000000000D0
:203100000000000000000000000000000000000000000000000000000000000000000000AF
:2031200000000000000000000000000000000000000000000000000000000000000000008F
:2031400000000000000000000000000000000000000000000000000000000000000000006F
:2031600000000000000000000000000000000000000000000000000000000000000000004F
:2031800000000000000000000000000000000000000000000000000000000000000000002F
:2031A00000000000000000000000000000000000000000000000000000000000000000000F
:2031C0000000000000000000000000000000000000000000000000000000000000000000EF
:2031E0000000000000000000000000000000000000000000000000000000000000000000CF
:203200006D6375305F3030315F30303000000000000000000000000000000000000000005A
:203220001A4B1B689A0610B405D4184B1B681B0613D410BC7047164B1B68C3F308037E2BAA
:2032400020D014490A78BF2AEFD8134C501CA3540E4B08701B681B06EBD5104A10491378BA
:203260000978994207D90F480949C05C0133137010BC086070470C4A10BC136823F0800378
:2032800013607047094A00211172DAE70044004004440040140100205400002085010020F1
:2032A00084010020240100200C4400400000002010B4EFF3108172B6084B020900F00F00B8
:2032C00053F822200123D46803FA00F0204214BF5061106181F3108810BC70476C7F00083B
:2032E000BFF34F8F0549064BCA6802F4E0621343CB60BFF34F8F00BFFDE700BF00ED00E0F5
:203300000400FA050000000008B5154B1B689A1E22F00702093B934201D0FFF7E1FF0CA1CA
:20332000D1E90001D3E900238B4208BF8242F4D14FF000631A68D31D23F007039A42ECD10C
:2033400072B605A1D1E90001C2E90001FFF7C8FF43616E426F6F74213D24A8A945EC067B50
:2033600004000008FEE700BF72B6024B024A9D4610477047000001208533000808B520200D
:2033800002F06CF800B5002283B04FF0FF31930003F1604303F56143C3F88010BFF34F8FBD
:2033A0000132082AC3F88011F1D1002366481946C2180133F02B82F80013F9D1634B042216
:2033C0001A60BFF34F8F624A4FF02061002351601946D01801330C2B0176FAD1BFF34F8F1F
:2033E000BFF36F8F62B65B485B4A5C49121A04F097FB5B485B4A0021121A04F093FC5A4BA9
:203400001A6842F001021A601A689007FCD5574A1368002143F0800313600191019B4F2B83
:2034200005D8019B01330193019B4F2BF9D94F4A1368002143F0900313600191019B4F2B4D
:2034400005D8019B01330193019B4F2BF9D94749454B0A684648474C22F003020A601A688D
:2034600022F0847222F480324FF41F051A6005601A68002022F480221A60086020601A68F8
:2034800042F480321A604FF6FF7201E0013A02D019688903FAD5344A13689B0352D5364C0A
:2034A00036482168314B41F080512160016841F44041016019681960196841F4005119600C
:2034C000196841F480611960196821F440311960196841F440311960196821F0904121F444
:2034E00070111960196841F0036141F480211960136843F08073136013689D01FCD51F4A06
:203500001F49136843F4803313600B68DC03FCD51A4A1B49136843F4003313600B6898031A
:20352000FCD5124B1A6822F003021A601A6842F002021A601A681207FCD5054B114A9A6007
:2035400003F02CFAFEE700BF00E100E010E000E000ED00E00000002034000020448D000803
:2035600038000020A00400200010024004100240081002402C1002401C1002400070004091
:20358000047000400030000838B514490446007802F00CF82379C27E1A44C27672B6827CA5
:2035A0009A4205D80022FE238274037762B638BDD21A12F0FF050ED000F1140212336C1EEC
:2035C00052FA84F4034400F1130213F8011F02F8011BA242F9D1857462B638BDF1360008B6
:2035E00038B50B490446007801F0E0FFD4E90132E1681C0409D4048A9D18A54205D8123376
:203600001844BDE8384004F08BBA242001F026FF7549000810B504460949007801F0C6FF49
:20362000237A032B0AD8037C13F0060206D143F004030374C0E90022826010BDFFF79EFEBF
:20364000054A000838B50E490546007801F0AEFF0C490446287901F0A9FFEFF3108272B6F9
:20366000A36B4BB9C369084D04F13401C4E90D35C16182F3108838BD1A2001F0EFFE00BFA3
:20368000854B0008CD370008F940000810B504460A49007801F08AFF626872B643694BB90F
:2036A00090F83C30826023F00803826180F83C3062B610BD172001F0D1FE00BF854B0008DC
:2036C00010B504460949007801F070FF6368002B14BF0223002372B690F83C2022F002027E
:2036E000134380F83C3062B610BD00BF854B000810B50479082C09D80078064904F12002DF
:2037000001F0C8FF044B8477436010BD282001F0A5FE00BFF1360008313E000838B50749B9
:2037200005464C22007801F0B5FF0446044B28790449636001F03AFF206138BD1D3700086D
:203740001D3A0008054A000870B5067A032E0FD8094904462022007801F09CFF0546074B77
:20376000207907496B6001F021FFAE77A86170BD222001F073FE00BF49370008393A0008C3
:20378000054A000870B50B490446007901F00EFF267A0949054606F10802207801F07AFF58
:2037A00006710560E16832460530BDE8704004F0B7B900BF054A00088537000800780249E1
:2037C000142201F067BF00BF054A000808B524220078044901F05EFF034A044B42600361CE
:2037E00008BD00BFCD370008E93B0008C93B00082DE9F0411F490546007801F0D7FE467C07
:2038000016F0020801D0BDE8F0812F79A9682D7B0A2F2CD80A2D2AD804463A46203006F0CA
:20382000310604F07DF946F00206ED00FB006674E57484F8128023752FB194F8203003F039
:203840003F032A2B10D0A2690B4BE261636072B60A4B5B6803F5BB434033A360204602F086
:20386000EDF962B6BDE8F081054B6360EFE7232001F0F4FDB1490008A5430008001000E044
:203880003D43000838B511490546007801F08EFE044602F0ABF96B68A360A968E1602A7C6B
:2038A00062740023FE2022742077A374E376EB6863771B0606D401B938BD2046BDE83840FA
:2038C00002F0BCB9262001F0C9FD00BFF136000838B50A490546007801F068FE044602F000
:2038E00085F96B68A360AA68E260EA682046C4E90423BDE8384002F0A1B900BFD548000847
:2039000038B50D490446007801F050FE054602F06DF96368AB60A368EB6003B938BDE36898
:203920002B6123696B6163692B7700236B772846BDE8384002F082B94937000838B50C49AE
:203940000546007801F032FE037D6A68C26143F001030375044602F049F972B6054A2369DE
:2039600052681344A360204602F068F962B638BD913C0008001000E070B50C49054600786B
:2039800001F014FE72B690F82030DB0701D462B670BD00F10C060446304602F027F96B6880
:2039A0006361304602F04AF962B670BDCD37000838B517490546007801F0F8FD044602F015
:2039C00015F96B68A360AB6863612B7B84F82130CBB12A69226184F822306B690D4A62606C
:2039E000002B14BF0323022384F82030287E0A4901F0DCFDEB6984F82330E0612046BDE880
:203A0000384002F01BB984F82030E36138BD00BF01490008E93F0008CD37000808B5034610
:203A200004481A7E42F004021A7602F0C7F8002008BD00BF3800002010B50446064802F0DE
:203A4000BDF8D4E90231E27F42F001020B44E277A360012010BD00BF1801002038B53E4B24
:203A60001A68D10604462CD51A68920748D51A683A4922F002021A601A6822F010021A60B5
:203A80000B6890F8262090F827108A429BB23DD301228A42238384F8262041D3628B9A42C9
:203AA00048D8A28B9A4245D3002384F824302C4802F084F86369E26813446361A36001209B
:203AC00038BD284990F820300A6822F01F021A43092B0A602AD9122B0DD803EB4303224D40
:203AE0001E3B296807209840012221EA000102FA03F30B432B601D4A136843F480031360D4
:203B0000A36803F51663A360012038BD008B0132D2B203449BB28A42238384F82620BDD277
:203B2000A36822691344A360012038BD104D03EB4303D6E794F8243094F825200133DBB2BF
:203B40009A4284F82430B2D80A4B5B7A002BABD11F2001F083FC00BF002401404C240140DA
:203B60003C000020342401400C24014008240140102401400000002010B50446054802F08F
:203B80001DF8A3682269207D1344A36000F0010010BD00BF4C00002070B50446C06958B1F9
:203BA0000E460025D0E900233146E261C0E900559847E0690028F5D1BDE87040014801F053
:203BC000FDBF00BF8801002008B5037DDA0709D523F00503817D417543F0040303750C3800
:203BE000FFF7DAFF002008BD10B50446074894F8203043F0040384F8203001F0DFFFA368F7
:203C0000A2691344A360012010BD00BF8801002010B582B000F11A0304460093437E828A3A
:203C2000044801F0BFFDA38A002201336276A38202B010BDB07E000810B50446D4E9043155
:203C400084B022680391E1680293A3680093019163680C48D1B201F0A5FD842220780A493E
:203C600001F018FD2368C360636803610022042BC0E91D2203D8054B436004B010BD1E209B
:203C800001F0ECFB887E0008393C00082944000830B51049044683B00078342201F0FAFCDC
:203CA0002368C36063688361042B0FD800250A4B057503612268094963684160CDE90055E6
:203CC0000748114601F06EFD03B030BD1C2001F0C5FB00BF913C0008B0710B00793B0008D9
:203CE000707E000870B50678154982B00546304601F05CFC044672B690F82030DA070AD587
:203D000023F00503297980F8211043F0040380F82030FFF741FF204601F068FF04F10C0046
:203D200001F064FF002294F8213084F8202062B604480092314601F035FD02B070BD00BF46
:203D4000CD370008687E000810B504780D49204601F02CFC72B690F83C30826A13F0100F29
:203D6000436914BFD21AA2EB5302002AB8BF524262B60548214602F14042BDE8104001F09A
:203D800011BD00BF854B0008587E0008EFF3108272B6084B1968890709D51968064821F022
:203DA00002011960196821F010011960036882F310887047002401404C24014038B51249DE
:203DC0000546007801F0F2FB044601F00FFFFFF7DDFF6B686361A360AB6823612B7B84F8D4
:203DE00027305A1C84F826202A69E260D5E90501EA6984F825206083A18303B938BD204669
:203E0000BDE8384001F01ABF0D4C0008C0F30312064B53F8223000F00F009A68012303FA82
:203E200000F0104214BF1846002070476C7F0008F8B5877F044687B100210F460B46012523
:203E400023440131D87FFFF7E1FF6E00CBB200B12F43A27F9A42F5B2F2D8227CBA4207D0AF
:203E6000637C7B40DB43DBB282EA07010B4210D194F91C30257F6774002B04DB013DEDB21C
:203E8000FF2D1ED02577D4E902321344A3600120F8BDA17C22EA03023B4013430729237485
:203EA000E6D862180131A1740848D37401F086FEFF232377D4E9023267741344A360012074
:203EC000F8BD024801F07AFEDCE700BF4000002038B58369044690F82100A56803F00101CA
:203EE000FFF794FF814203D0A369E5610133A36163695B1B002B05DBD4E902321344A36081
:203F0000012038BD94F82020236907481D4442F0010284F82020656101F050FED4E902329C
:203F20001344A360012038BD4400002030B504780B4983B0204601F039FB72B690F820105A
:203F4000856962B6007BFFF761FF2B46C1F3400200902146034801F025FC03B030BD00BF70
:203F600001490008607E0008014610B5007BFFF74DFF91F8204088B1E44304F001048CB9B9
:203F800091F82230013B13F0FF0315D08A68486981F8223002448A60012010BD04F001049B
:203FA000002CEDD00F488A6991F8213081F82230C1E90102012010BDC86990F82030DA07A4
:203FC0000DD523F0050391F8231080F8211043F0040380F82030FFF7DFFD204610BD204612
:203FE00010BD00BFE93F0008014608B5007BFFF70DFF8B680A691A4491F8203030B1DB43E8
:2040000003F0010333B18A60012008BD03F00103002BF8D1034B4B608A61BDE808400846EB
:20402000FFF7A2BF693F000800F00F02012300099340044A52F8202009B9536170471361FF
:20404000704700BF6C7F00082DE9F04128490646007801F0ABFAF36804461BB9012343679E
:20406000BDE8F081002503694567D6F80480BBB100F114076319043793F85400FFF7C6FED3
:2040800057F8041CF86404EB8503B1EB0801586B18BF0121FFF7C8FF23690135AB42E9D850
:2040A000B06802F0C3FF0EA3D3E9002303F062F90DA3D3E9002303F033F803F043FA400831
:2040C0002066F3680B4A5B00C4E9163353681844A0602046BDE8F04101F0B0BDAFF3008086
:2040E0000000000080842E4100000000389C9C41393C0008001000E038B50446A0F134052E
:20410000284601F073FD237A54F80C2C002144F82C1C44F81C1C54F8201CD8064CBF521AB9
:20412000A2EB5102002A03F0140343F00803C8BF52420021237244F8201C686A44F80C2C9E
:20414000FFF772FF217ACB0605D409E0036844F8083C01F073F954F8080C0028F6D138BD3E
:20416000286A01F00401FFF75FFFF4E770B51D490546007801F01AFA044601F037FD636AF9
:2041800063BB2E7994F82C50A069311E18BF0121FFF74AFFB6FA86F385F010025B09C2F3F9
:2041A0000012934201D0E3692BB905F010050D4384F82C5070BD0C480C4A4068626005F08F
:2041C00010020A4342F00402034484F82C206361A3602046BDE8704001F030BD132001F0B5
:2041E0003DF900BFD9560008001000E06D540008074B020900F00F0053F822200123D16894
:2042000003FA00F0014214BF50611061704700BF6C7F00082DE9F04F90F800A0444985B0D1
:20422000504601F0C3F9434B81685A680446C068521A904203D95A68521A9042FBD8D4E9E6
:2042400000823C4B218AD3F80490019204F11207002959D09B467B18039317F8016B0823A8
:20426000029333064D462BD5DBF80410A1EB09019529F9D972B64046DBF80490FFF7B8FF0E
:2042800062B6019BA9EB0505AB4242D97600DBF80410A1EB09014D29F9D972B64046FFF7E5
:2042A000A7FF62B6DBF80450DBF80410491B1729FAD9029B013B029323D033064D46D3D4E7
:2042C000DBF80410A1EB09019529F9D972B64046DBF80490FFF78CFFDBF80410A1EB0901BE
:2042E0001729F9D94046FFF783FF62B6019BA9EB0505AB420DD9029B013B4FEA4606029396
:20430000DBD1039B9F42A8D10A4B5B68A360012207E040460021FFF787FE064B5B68A3609B
:2043200000220548514605B0BDE8F04F01F03ABA75490008001000E0C07E000838B50446C6
:20434000C068FFF755FFA37C627C14490133DBB282F00102012B49686274A37419D0042B79
:2043600005D8A268A3691344A360012038BDA368E2690B4D65601A44891A881CA26948BFB0
:20438000481D02EBA00219441144A160E261012038BDA268891AE161E4E700BF001000E0B4
:2043A000A5430008F8B50446C068FFF721FFA37C657C267DE7690133DBB285F00105B342B4
:2043C00065742CD204EBD30103F0070291F8201041FA02F205F0010502F001029542394619
:2043E00007D016E092F82020024102F0010295420FD10133DBB2B34204EBD30203F00700C3
:204400003944EFD3A368074A62601944A1600120F8BDA268A3741144A1600120F8BD39463F
:20442000F0E700BF3D4E000870B50446254801F0C5FB23694BB1002504EB85030135586CA8
:20444000FFF7D6FE23699D42F6D3A26D531EA36573B1D90709D5E16D8A4229D01A4A236EEC
:2044600052681344A360012070BD616F0129F2D1204601F0BBFB1449A36D49682269C4F8AB
:2044800080105B080121C4E91E1372B104F16406002504EB850356F8041B586BC9B2FFF76A
:2044A000C3FD236901359D42F3D30020606770BD054A5268C4F880205B080122C4E91E23E8
:2044C000CCE700BF48000020001000E038B5C46A034614B94461204638BDB4F90810626852
:2044E00090F83C002568DD6219828D18C106DD6010D598686189596102449A60227B12F080
:20450000010F9A6A12D111449962204600F096FF012038BD61899869024448009A619A60E5
:204520005861227B12F0010F9A6AECD0891A586A9962FFF75DFEE8E70000000000000000D3
:204540002DE9F04772B6424F424D3E68DFF80C81DFF80CA14EF660290BE0D8F804105A1A28
:20456000F02A37DC701A00285BDB62B6002A39DC72B62C686368002B4DD1206AFFF738FE49
:204580006369013B39D0D4E90210B4F91020636102444318C4E902322068D0F808C0A3EB72
:2045A0000C02002AD9DB696828608A689A1A31EA220128BF0146084609688A689A1A002A15
:2045C000F9DA2160D8F80410046063465A1AF02A6C60C7DD204B00215A609960596062B688
:2045E000BDE8F087D8F804209A1A002AC0DDD8F804209A1A002ABBDDF4E72046FFF766FF2A
:20460000A3680028C8D16A682168296094428B68A3D16960A1E720469847A3680028BBD158
:20462000F1E7524507DB95F90800002809DA01EB09063E6099E7687A0028F4D12D2000F063
:204640000DFF01F53B51203139604FF41672C1E71C0100200000002010E000E0001000E052
:20466000402BFEFF38B527490446007800F09EFF054600F0C3FF6368436023894381002B20
:204680003DD0E36803810023037372B695F83C3003F00101C3F34002914205D0027B42F040
:2046A000010283F0010302736A69B2B913F0080203D000F0C3FE62B638BDE96A85F83C30F3
:2046C0000260A9B12B6B186028632846FFF7FEFE284601F0B3FA62B638BDEA6A85F83C30CF
:2046E000002303603AB12B6B1860286362B638BDC5E90B00E9E7C5E90B0062B638BD18201C
:2047000000F0ACFE854B000838B50446006AFFF76FFD144A63695568E269013B1544DA077C
:20472000636102D5A560012038BD6BB1E168A369B4F910200B440A44591B0029A361E260F5
:20474000F0DBA360012038BD2046FFF7BFFE0028EAD0A3685B1BE7D5034A9342E2DA192026
:2047600000F07CFE001000E0402BFEFFF0B5414B414D0409012653F8243055F824409D098E
:2047800005F1804505F5043503F01F032F6806FA03F300F00F003B432B6006FA00F0002968
:2047A0004ED1B2420BBF032507251026142600230F274FF0010C09E0482E03D10CFA03F186
:2047C0000140216122600133082B14D020FA03F19A00C90707FA02FE05FA02F2F3D521688C
:2047E000282E21EA0E0142EA0102E5D10CFA03F101406161E6E70F274FF0010C09E0482EB9
:2048000003D10CFA03F10140216162600133102B15D09A0020FA03F1203AC90707FA02FE1E
:2048200005FA02F2F2D56168282E21EA0E0142EA0102E4D10CFA03F101406161E5E7F0BD2B
:20484000012908D002290CD0002A0BBF0F250B251C261826ABE73AB1012A08D004252E465A
:20486000A5E700252E46A2E7082528269FE7082548269CE7507F00086C7F00086F2838B51D
:204880000CD804460A46EFF3108572B6012152B2FFF76CFF85F31088204638BD2A2000F0CF
:2048A000DDFD00BF10B50A490446007800F07EFE2279817F914207D90346217B207A9C1898
:2048C000FFF7DCFFE07710BD272000F0C7FD00BFF136000810B5084904462422007800F0EC
:2048E000D9FE217A034620791C46FFF7C7FF034B84F82100636010BDD5480008D13E00088F
:2049000010B5074904462422007800F0C3FE217A034620791C46FFF7B1FF207310BD00BF25
:2049200001490008F8B5012200F00F050E46040902FA05F5EFF3108772B60021FFF716FF2D
:20494000054B53F824301EB95D6187F31088F8BD1D6187F31088F8BD6C7F00086F2810B578
:2049600004D80446FFF7DEFF204610BD2B2000F075FD00BF70B5044600210079FFF7EEFFB3
:20498000A3681A040FD49EB206F1140205460749207892B200F07EFE0560E36843602369EC
:2049A000C360068270BD252000F058FD754900082DE9F04104462C221149007800F06AFEC6
:2049C00094F808806768E668B8F10001054618BF0121F8B2FFF752FF01212874F0B2FFF771
:2049E000BDFFE8602369AB61B8F1000F0CBF01231123B74208BF43F020036B74BDE8F08135
:204A0000B149000870B5054614220B49007800F041FEAE68B6FA86F1044649092879FFF783
:204A20009DFF94F91030E060002E14BF092201221343237470BD00BF054A0008F8B5077C1E
:204A4000032F22D804461349007800F0AFFD0646102000F0F1FD012105462079FFF70EFF0D
:204A600000212870207AFFF779FF6860207B0021FFF774FF2F73A860337C13F0060F06D140
:204A800043F0020333743560F8BDFEF777FCFEF775FC00BF054A00082DE9F041D0E90068A1
:204AA000F7B284B004461E49384600F07FFDD4E904230393E36802920546A06800900193AE
:204AC00039461848324643465FFA88F700F06AFE032F21D805EB870322695A6162695A6254
:204AE000207A0021FFF7CAFEEB19002183F85400207AFFF733FF07F10C0605EB860607F109
:204B000010037060217D207B05EB8305FFF726FF686004B0BDE8F0811D2000F09FFC00BFCD
:204B2000393C0008887E000870B51449044682B0007800F03BFD26798369B3421BD905468D
:204B40000021207AFFF70AFF06F10803002145F82300207BFFF792FE2E44D4E90235226807
:204B600086F83000CDE9003505486368114600F019FE02B070BD1B2000F070FC913C0008DB
:204B8000707E000870B505461A490078402200F081FDEE68002ECCBF0421002180F83C10EB
:204BA00004462879FFF7DAFE20620021287AFFF7D5FE114B60624FF040421988A2622A6917
:204BC000E2610023C4E90B3391B90C4B19780F299CBF1021197042B9002E06DA94F83C3004
:204BE00043F0100384F83C3070BD054B636070BD00F0C6FC854B00084E00002050000020B2
:204C00000947000801790078FFF7A8BE002370B5334A05461C46007901E012F8013F9842FE
:204C200005D00134112CF8D12E2000F017FC2D4A1368FE2843F4007313604BD12A4B4FF40A
:204C400000021A60294B2A4E1A681A603268294822F08052016822F44042043342F4004251
:204C600021F00051326001601968234A21F400611960116821F470011160116811601A6826
:204C800022F460221A601A6842F460221A601A6842F480121A601A6842F001021A601A68D7
:204CA00042F008021A601A681207FCD41A680E4942F004021A600B685B07FCD428222878B9
:204CC0000E4900F0E7FC01230D4A80F826300462426070BD00220221FFF748FDB2E700BF54
:204CE000EC7D0008181002400824014004240140041002402C1002402C2401400D4C00083D
:204D00005D3A0008B1B110B4014404464FF6FF7014F8013B434083EA0313DBB2000ADA00CC
:204D200040EA03208C4282EA131380EA0300EFD110BC70474FF6FF70704700BF10B50B78A4
:204D40009B060C464FF0010108D5FFF7EBFD237803F0300343F00103237010BDFFF764F9B9
:204D6000237803F0300343F00103237010BD00BF70B50446007CFFF749F8A37C04EBD30514
:204D800003F00706012195F82020B14078B10A43D2B285F82020E27C0133DBB29A4209D99F
:204DA000A268E169A3740A44A260012070BD22EA0102EEE7E06804F11101FFF7BFFF637C24
:204DC000034843F00803637400F0F8FE002070BD2001002038B50446007CFFF717F8637C68
:204DE00068B143F004036374A37C5A1C3F2BA2740FD8A368E2691344A360012038BD5B0765
:204E0000F2D50C4BA07463602046BDE83840FFF7AFBF0025E068E57404F11101FFF78EFF66
:204E2000637C054843F00803637400F0C7FE284638BD00BF714D00082001002038B5C57C25
:204E40000446CDB1427C93060AD4E269A3681149616003EB82030022A274A360012038BD20
:204E6000007CEFF3108572B6012102F01002FFF77DFC85F31088E8E700F11101C068FFF782
:204E80005DFF637C044843F00803637400F096FE284638BDD54D00082001002070B582B0CD
:204EA00016461D460A46009304469DF818100F48334600F077FC15B92369B3420FD9637FFD
:204EC000227F0133DBB29A42637701D902B070BD074B5B7A3BB10023637702B070BD636946
:204EE000B342F8D2EBE7212000F0B8FAA07E0008000000202DE9F04F077C17F0060F83B0D1
:204F000064D00646B80764D5994633688846197B986801F002011446FFF786F817F0010370
:204F2000019368D104F1FF3A35685FFA8AFA002C4CD009EB0A03009309F1FF3B1BF8014F89
:204F40004FF008094FF0000A19E0A868FEF7B0F904F080016868FFF767F8A868FEF7A8F9D1
:204F60004FEA4A022878D1B2FEF750FF640041EA0002B9F10109E4B25FFA82FA1CD0287B06
:204F8000C20704F08001E0D46868FFF74DF8A868FEF78EF94FEA4A022878D1B2FEF736FFB6
:204FA00041EA0002A86864005FFA82FAFEF780F9B9F10109E4B2E2D1B8F1000F01D08BF804
:204FC00000A0009B9B45B9D1019B03BB03B0BDE8F08FFB07FAD5C7F3C001F06807F0080751
:204FE000FFF722F8B7FA87F1F068490903B0BDE8F04FFFF719B8F068C7F3C00104F1FF3A6F
:20500000FFF712F85FFA8AFA3568002C91D107F00807E7E7F0B51249124F87B00546007859
:2050200000F0C4FAB9230446ADF8143000697E6805AB02220121FFF75DFFE18A9DF81520E7
:205040007B680948CDE90221627E0192A28A296800929B1B324600F0A5FB07B0F0BD00BFA0
:205060001D370008001000E0A87E0008F0B5474B04460D4693E8070085B001AB03C3206930
:205080001A70012101AB0922FFF734FF627E9DF8061002F11A0311F0F000234417D0F02872
:2050A00015D0A118FF221A71DA709A705A708A76637E0533DBB22D2B637603D92946204600
:2050C000FEF7A6FD237E9B0743D405B0F0BD9DF8080010F0F00639D19DF80A7017F0F006D3
:2050E00001D0F02EDDD19DF80B60902ED9D19DF80C6026F08006202ED3D84FEA870C2244E3
:205100000CF0600C00F01F004CEA000001F01F019DF805C082F81AC041EA47119DF80920E2
:205120009DF807701871D9705F709A70637E0533DBB22D2B63761FD81E2E22D9E38A013302
:20514000E382134800F03AFD05B0F0BDF02EA8D1C2E7204600F04AFD237E23F004032376D5
:2051600072B60C4AE36852681344A360204600F065FD62B605B0F0BD29462046FEF748FD11
:20518000DAE7023E1E2EDCD99CE700BFE07D000838000020001000E02DE9F04307782F49DE
:2051A000054687B0384600F001FAAE6804467EB100F01CFD6B68A360AB68E36000220123FA
:2051C00062612383204600F039FD07B0BDE8F08300F00CFD224D26762D23ADF81430314657
:2051E0002069D5F8048005AB0222FFF783FEB926D5F80490212501E0013D14D005AB2069C8
:20520000ADF8146002220121FFF774FE9DF8153033F0800307D0202BEED839462046FFF784
:2052200025FF013DEAD1637E8BB99DF81520E18A0391CDE90132A38A00930A48A9EB0803C9
:205240004246394600F0AEFA07B0BDE8F08339462046FEF7DDFC637EE7E700BF1D37000863
:20526000001000E0A87E000810B504460549007800F09CF9A36822790021BDE81040FFF704
:2052800039BE00BF054A000870B5057809490446284600F08BF9A668247933462246012133
:2052A000FFF728FE3346224629460348BDE8704000F078BA054A0008987E000810B504463C
:2052C00000F094FC04F10C0000F090FCE36933B100211A461B68C2E90011002BF9D10023C9
:2052E000238484F82230E36110BD00BF38B50F490546007800F05AF9044672B6FFF7DEFFD9
:20530000012384F820306B68A360AB68A36123B9EB6884F8223062B638BD204600F08EFCC6
:20532000EB6884F8223062B638BD00BFCD370008704700BF10B48268D0E90034EFF31081F0
:2053400072B6DBB2012B07D0022B0BD0D2B2227081F3108810BC704792B2228081F31088F6
:2053600010BC7047226081F3108810BC704700BF70B40D4A03780D4C126825780133DCB2B2
:2053800002EBC40204E052F8084B8C4207D00133DBB29D421646F6D8002070BC70470370F4
:2053A000706870BC704700BF240400202004002003780246D8B210B100231370012070475B
:2053C000002070470849094B886830B400F53702074D084C034402F5D85200202072AB6082
:2053E000012030BC8A6070470C000020001BB780180000200000002010B504468069FEF73C
:20540000F7FE94F82C30A26883F00103D9074CBFE168216984F82C305B070A4402D4A26010
:20542000012010BD6369D11A0029F8DB024A62601A46A260012010BD6D540008054A064906
:20544000136810B4013B0C680460086010BC1360704700BF980400201804002008B50146E0
:2054600072B6014802F0B4FC28040020F8B5476A002F7AD0BE683B684362351E18BF012538
:20548000044629468069FEF7CFFD3846FFF7D6FFAEB1216AB14212D9E269002A54D1606A34
:2054A00094F82C3045F00205002864D1A268606103F010032B4384F82C30B31832E094F8EB
:2054C0002C30B6FA86F183F01002C2F300124909914214D0E26992B1A368616A45F0040552
:2054E0001A44002937D194F82C10626101F01001294384F82C10A90723D533440EE0606A95
:20550000C0B100214268626145F0040503F010032B4384F82C30A1B1A3683344991A002952
:205520000FDA216A154A6260891BC4E9023621610120F8BD03F010032B4384F82C306061E8
:20554000F8BDA2600120F8BDA368616A45F006051A440029C7D04968521A002A08DB0A4610
:2055600094F82C3005F00201CDE71620FFF776FF1420FFF773FF0221C4E700BFF953000879
:2055800008B50D20FFF76AFF08B5054A537A23B1022B1CBF0023537208BD0220FFF75EFFEB
:2055A0000000002008B50720FFF758FF08B5084B1B78834209D9074B1B6853F830208A4214
:2055C00003EBC00001D1406808BD0B20FFF746FF200400202404002010B507490446007815
:2055E000FFF7E4FF72B6436A1BB96368036262B610BD1520FFF732FFD9560008F8B5EFF3F2
:20560000108572B6094A106868B10949094C0B682668076817600133B34288BF23600B60FD
:2056200085F31088F8BD0E20FFF718FF18040020980400209C04002038B50A4D0A4B2C6885
:20564000211899420BD8C31C23F0030302462344002120462B6002F065FB204638BD1020BD
:20566000FFF7FCFE9001002000FE002038B5074C236843B90568E8B2C000FFF7DDFF044BBC
:2056800020601D7038BD0920FFF7E8FE240400202004002070B50D4B1C788442034611D96D
:2056A00010460B4A1DB2126852F8356002EBC30446B9084B1B882BB942F83510FFF7BCFF5A
:2056C000606070BD0A20FFF7C9FE00BF20040020240400204E0000208168003938B518BF57
:2056E000012104460079FFF739F93022054610492078FFF7CFFF8561D4E90232003B18BF62
:20570000012312B143F010035BB20A4A80F82C3023691288C3610023C0E9093332B9064B99
:205720001A780B2A9CBF0C221A7038BDFFF728FFD95600084E0000205000002070B50546F8
:20574000202200781449FFF7A5FF6B68134A4260052B1ED80646A3B10124224605EBC203BE
:2057600015F832005968003918BF0121FFF786F86B6832190134E4B201339C42D0722246DE
:20578000ECD30022064BB28349F27C21B161736170BD1220FFF762FE3D570008CD5B000863
:2057A000A00100200FB42DE9F04FDFF80C8285B098F80030DDF838A0DBB223B105B0BDE84E
:2057C000F04F04B07047DFF8F4B1012288F800209BF800100FACC9B20394DFF8E49199F893
:2057E0000060F6B2B14205D389F800301E468BF8003019469AF80150AB19602B2F4640F2D6
:20580000CC80591A602907D9002388F8003005B0BDE8F04F04B07047002789F800709BF8DE
:205820000010C9B261480090761A3246014402F011FA8BF80070F3B25D4A89F800301368EF
:2058400043F0800313609AF801502F46009B052D03EB060B65D99AF802109AF80030DAF885
:2058600004708BF80230033D5D440BF10303002953D09D42C0F096807A180196924630E01A
:2058800054F8041B01F120027F2A22D901F58052B2F5804F18D301F50022B2F5001F0ED3FD
:2058A00001F18062B2F1805F04D30A0F62F07F0203F8012B4A0D62F07F0203F8012B8A0BC2
:2058C00062F07F0203F8012BCA0962F07F0203F8012B01F07F0103F8011B57451CD09D4212
:2058E00060D317F8012B052A3CD0C9D9063A012A58D8A446E91A5CF8086B8E4228BF0E4603
:2059000003F8016B324661681846644602F008F9574503463344E2D1019EA3EB0B03DF1C9F
:20592000FDB2244B009A1B789555FC1E8BF8013021465846FFF7E6F95F442E44020A7E23C8
:205940000BF80420F6B207F8020C07F8013C184A89F80060136843F080031360002388F8A5
:20596000003054E754F8040B0278591C6AB18D4202D815E08D420BD001F8012B10F8012FB2
:20598000002AF7D1CA1A013AD2B21A700B46A4E7EA1A013AD2B22946F7E7044B009355E7DE
:2059A0000022F2E70520FFF759FD00BF240100200C440040300000200C04002085010020C1
:2059C00084010020034602485A681978FFF7EABE407E0008D0E90031EFF3108272B6DBB2C5
:2059E000012B08D0022B0DD00978C9B282F310880748FFF7D7BE098889B282F31088044891
:205A0000FFF7D0BE096882F310880148FFF7CABE487E0008D0E9001240F61C2399420DD8EF
:205A2000D2B2501840F61D23984202D9C1F11D02D2B2054B05480B44FFF7B4BE024B03480E
:205A400000220B44FFF7AEBE987F0008007E0008064A0749074B526809681B68064891420D
:205A600094BF1946591CFFF79DBE00BF001000E08404002088040020287E0008024B034865
:205A80005968FFF78FBE00BF001000E0307E000810B50A4A0A4B11885B7A0A4A0A481268A1
:205AA00082B0A1F10A04003918BF0121003B009418BF0123FFF776FE02B010BD4E000020C1
:205AC0000000002094010020387E0008124B1888E0B1013830B41AD0104A114B15681C78D7
:205AE00000222B4619460132234482420B60F9D102FB04540B4B0C4A0C491D6000232360A8
:205B0000126809680A4830BCFFF74CBE7047034B1D682C46EEE700BF4E0000201C0400201E
:205B200050000020180400209C0400208C010020907F0008F8B5184E338853BB174A13786D
:205B4000032B9CBF042313701A46154B19680546144800240B461F461344834212D8013415
:205B6000B4F5805FF7D12746581AFFF765FD0E4A0E4B10601C603780FFF7A8FF0C4B2A68C4
:205B80001A60F8BD14B13B46A7B2EDE70F20FFF765FC0C20FFF762FC4E000020500000207F
:205BA0009001002000FE00201C0400208C0100209401002008B50320FFF750FC024B0022E3
:205BC0001A7201230370704700000020014608B58A698B68044813448B60FFF7EFFF487FA8
:205BE00000F0010008BD00BF9C01002030B4EFF3108472B60E490B68834202D111E08342D9
:205C00000CD01A461B68002BF9D14B68834204BF084B4B6084F3108830BC70470368136007
:205C2000F3E7054B026885689D601A600B60ECE7000000200C00002024000020F0B4816811
:205C4000EFF3108572B61B4C23689A688A1A002A0BDB1C461B689A688A1A002AF9DA036012
:205C6000206085F31088F0BC7047134E72688A1A002A1ADB0027114A114EDFF84CC093429A
:205C800008BF1B680360106000234FF08060226091607360B360CCF8040085F31088002F45
:205CA000E1D0F0BC0748FFF77DBD7168F03181600127E0E700000020001000E024000020EA
:205CC00010E000E0887F000800ED00E070B51C4905460078FFF76AFC0446FFF78FFC6E68CE
:205CE0004660AB68836072B6636A0022026023B1A36A1860A06262B670BD94F82C305A07A6
:205D0000C4E9090015D443F004029B07666184F82C2009D42046FFF769FF0A4BC4E90136A0
:205D2000FFF78CFF62B670BDA3689B1B002BF9DBF0E76269921B002AE5DA1420FFF78EFBF2
:205D4000D95600086D54000838B50F4905460078FFF72CFCFFF74AFF6B685B00DBB2437769
:205D60007BB113F0C00F0CD143F00103074A4377536803F56A4360338360BDE83840FFF71D
:205D80005DBF1120FFF76AFB3D570008001000E02DE98048B84B91B0D3F804A006AF5446EF
:205DA000B64991F90830002B00F05384B24B5A6872B691F90830002B40F0158562B6AE4B81
:205DC0005B689B1A2344BB60AC49AD48012200230A723B76FFF7ECFA40B3FF233B7607F1D2
:205DE0001809A8494846FFF7C3FA0446F0B1237F772B00F25B8100263546637F2A4601352A
:205E00002B4113F0010340F02E81217F62690A44052D935506F17C06EFD1013121774846CC
:205E20009849FFF7A5FA04460028E0D19648FFF7BFFA48B3FF23954C8F4E954D3B7607F1D6
:205E4000180921464846FFF793FAE8B190F820305A07F6D5D6F804C072B690F8202090F802
:205E6000213022F0040180F8201062B6397ECDF800C0284602F00102FFF794FC21464846E0
:205E8000FFF776FA0028E1D18248FFF791FA002800F0DD81FF2307F1170AFB75C7F80CA0EB
:205EA0007D49F868FFF764FA0446002800F0CF81237DDB0740F1CB81E369002B40F3C781C5
:205EC000002207F11805C5E90222BA616A60A369002B00F09B8193461646A31993F83000E5
:205EE000FDF794FFA369B0400136B3424BEA000BF3D8614A5068694AD2E900124FF00009BD
:205F0000914508BF8842804603D210F1FF3849F10009BBF1000FC3D1B8EB010069EB0201BA
:205F20003B6001F0F7FB5E4901F03AFC5D4901F0EBFC01F085FD3B687860002B72D0002616
:205F400006F10803002154F82300FEF76DF8A3690136B342F4D81826002B63D04FF0000A6C
:205F60000AF10803012154F82300FEF75DF8A1690AF1010A5145F3D8002953D005EB810111
:205F80002B461A68520043F8042B9942F9D14FF0000A0AF10803002154F82300FEF744F89D
:205FA000A3690AF1010A5345F3D8A3B1AB464FF0000A04EB0A030AF1010A93F83000FDF72D
:205FC00025FFDBF80020A369002818BF013253454BF8042BEDD8013EBED11BB306F10803FF
:205FE000012154F82300FEF71FF8A2690136B242F4D8BAB105EB820255F8043B1E0248BF70
:2060000043F07F43AA4245F8043CF5D1002505F10803002154F82300FEF706F8A369013571
:20602000AB42F4D8144B1D495A680A607B6A1E4800224A60217B05933B6A0493FB69039335
:20604000BB69CDE90183A38B00933B79FFF7AAFBE369013BE361002B7FF422AF237D23F0E4
:20606000010323751CE72244107BFDF7CFFE031E18BF0123C9E600BF001000E00000002035
:206080009C0100203D57000888010020CD370008687E00084C000020913C0008100400208F
:2060A00000007A44C0E1E44C787E0008637F6569FD6003F0FE0B84F81DB001267C604BFAB9
:2060C00006F313F0010332D1AB670136062E05F17C05F4D1FA687C68D2F86802D2F8F4309C
:2060E000397E1546926F0290D5F8EC010190D5F8700100908E48FFF755FB6269657F0120F6
:20610000773206460021A2F1780303F8011F9A42FBD106FA00F301300628C2F8011025EA6C
:20612000030502F17C02EED16577217759E62C782846012302E00133782B14D010F8012F69
:20614000A24259B2F7D077290DD02C46762014F8778F14F801CDC4454FFA80FE06D1013838
:20616000F7D1A867B1E70020A867AEE7BEF1010F5FFA80FCF7D015F800A0EC5C544500F013
:206180000D83D81C6045EEDAACEB030301338C45C3F38708C0F234830020864601E0144697
:2061A0006A5CA24201F1010118BF013049B2964418BFC0B28C455FFA8EFEF0DAF045D2D8BC
:2061C00003EB4303C3F387037345CCD3431CC3F347037345BEFBF3F0C5D849F27C2303FBCC
:2061E00000F000F033FF534B002200F099FF02460B464DA1D1E9000101F0BCF84E4B0022A3
:2062000000F08EFF01F09EF9A8675EE74B4A50684B4AD2E900124FF00009914508BF8842C7
:206220008046BFF479AE18F1FF3849F10009B8EB010069EB020101F06DFA424901F0B0FAC2
:20624000414901F061FB01F0FBFB7860EAE63F48FFF7AEF8D0B1FF233D4DDFF80C813B7673
:2062600007F1180900260AE0A36F7BB1D4F88030B4F87C20217B4046FFF794FAA6672946D1
:206280004846FFF775F804460028EDD13148FFF78FF8F8B1FF23304C304D3B7607F1180959
:2062A00021464846FFF764F8A0B190F8262090F827309A42F4D172B690F8262090F8273023
:2062C000934200F0608262B621464846FFF750F80028EAD12248FFF76BF8002861D0FF23AB
:2062E000204EFB7507F1170A4FF0000B31465046FFF73EF80446002853D0E37FD807F5D584
:2063000072B6E37FD4F8088023F00103E37762B6A37F032BEAD8DFE813F01E02FE01D30147
:20632000290000BFAFF3008000000000389C9C41507E00080000104000004E40001000E0FE
:206340001004002000007A44C0E1E44C48000020393C00083C0000200D4C0008907E0008C2
:206360001801002049370008807E0008A7F818B0A069FD7D07F1180302220121FEF7BAFD67
:206380003A8B009552BA204602F00603414692B2FEF784FD31465046FEF7EAFF0446002898
:2063A000ABD1AD48FFF704F888B3FF23AB4DDFF8D882FB7507F1170A022629465046FEF749
:2063C000D7FF044618B3237E5907F6D5DA0740F1D681FFF70BFC40F62D0326763B83206957
:2063E00007F1180302220021FEF784FD72B6D8F80420E3681344A3602046FFF71FFC62B67F
:2064000029465046FEF7B4FF04460028DBD19448FEF7CEFF08B3FF23924C934D3B7607F1CF
:20642000180921464846FEF7A3FFB0B1437C1B07F7D572B6437C23F00803437462B6C27C8F
:20644000397E00F12003D2082846FFF7ABF921464846FEF78DFF0028E8D18448FEF7A8FFD0
:2064600020B3FF23824C834D3B7607F1180921464846FEF77DFFC8B190F82030DE07F6D558
:2064800072B690F82010826821F00101D0E9063680F8201062B6397E00962846FFF782F93E
:2064A00021464846FEF764FF0028E5D17248FEF77FFF10B3FF23714C714D3B7607F118095A
:2064C00021464846FEF754FFB8B1037FFF2BF7D172B6837C002B00F07681427F027762B617
:2064E000C27E397E133000902846FFF75BF921464846FEF73DFF0028E7D1624A624B4AF67B
:20650000AA2111605A6872B660490B689B1A002BB8BF0A6062B65E4B1D78EDB2002D58D02E
:206520005C4B1C78E0071DD4042D52D95A4A92F800A0AAF105033B2B0CD8567826F00F033B
:20654000102B07D1554544D3531E13F80A307E2B00F07681BAF17E0F00F06D814D4B44F04F
:2065600001041C704C482A467E2101F089FA002800F05F81484A831A464A04F0FE04147042
:2065800003F1010AA30700F15181424B44F002041C704248FFF706F94FF0FF340020804665
:2065A0003B4B1D78EDB2B5EB0A0640F03281EFF3108272B6364B1B78DBB29D4240F026819B
:2065C000334B1E7082F31088012C02D13348FFF7E9F82D4B324E334D5C68BB6832682968C6
:2065E000DFF8D480E01A02440131B0F5803F3260296080F0EA80D8F800C000FB00F3FF33F5
:206600000CEB1323634538BF4FF0FF33DFF8AC902548D9F800A0C8F800302044A0EB0A0063
:206620000028FFF6BDAB2148FFF7BCF8A24503D91F4A1368013313601E49C9F800400023E9
:20664000C8F8003033602B6091F90830002B7FF4ADABBC60FFF7B8BB380000201D3700083B
:2066600020010020B1490008B87E000844000020D5480008C87E000840000020F136000833
:20668000D07E000800300040001000E01C0100201401002094040020540000203C8D0008D5
:2066A0008C0400209801002000BA3CDC207E000888040020000000209004002084040020D1
:2066C0004FF00109FB7DC7F81890A069FB60494607F118030322FEF70DFC0723BD693B835B
:2066E000A069494607F118030222FEF703FC2DBA7B7EFA6800924FEA152909F00109C5F3D1
:206700000F2523F003032A464146204643EA0903FEF7C4FBEAE50C23BB61A06997F8179089
:2067200007F1180304220121FEF7E4FBBD690F233B83A06907F11803022201212DBAFEF7D6
:20674000D9FB7B7ECDF8009025F07F4241462046FEF7A4FBCAE5C7F818B0A069FD7D07F10F
:20676000180304220121FEF7C5FBBA69009512BA4146204602F00703FEF790FBB6E5F97D03
:20678000FEF774FC19E6013380F826304269038B62B6397E2846FFF705F881E50CF1FF3098
:2067A000C0B200F1010EAE4406E001384FFA80F8B8F1000F7FF7E5AC1EF8018DD045F4D059
:2067C0005FFA80FCDDE462B67AE6B0F5801F07D2D8F800C000F1FF031B0A00FB03C311E72D
:2067E0004FF0FF3312E76649FF230B7262B630BF72B6634B93F90830002BF7D1FFF7DEBABF
:20680000B8F1000F7FF4AFAC4046E6E482F31088C6E65C4B00EB0A011944321A184401F056
:2068200019FA574B304683F80880C0E64FF0FF34B4E6AA46A6E64FF0010A4FF0FF34ADE6AD
:20684000AAF1030841461046FEF75CFA4D498B1E11F8082013F80A3043EA022383428844D2
:206860007FF478AE484A4949137824F00204B3420C707FF48EAE013303F00F0343F0100317
:206880001370434B98456BD9414DC7F80CA02C46E94614F801BB0BF1FF333F2B6CD83D4B00
:2068A0000BEB4B0103EB81014FEA4B0A4B78CA78D1F804E09B00073303F4FF63ADEB030D10
:2068C00006A8561EA2B3A04553D31EF8013B042B05461FD814F8013B03F06001602905F158
:2068E000040C03F07F0208D162F01F0205E014F8013B03F07F0141EAC2121906F7D42A60B5
:20690000B6B1444535D81EF8013B042B06F1FF366546DFD9072B2CD1234613F8012B9C18E7
:20692000A04526D3AC464CF8082B6B60002EEAD1134B5B7A25463BB1164A0AEB0B0302EB82
:2069400083039B78DA070DD5124A0AEB0B0302EB83039B689847CD46444598D3D7F80CA0A5
:2069600001241BE6064B0C48997AFEF71BFFCD46F2E70620FEF772FD0420FEF76FFD00BF70
:206980000000002054000020300000209404002056000020B8890008107E000880B5A64BE0
:2069A000A64A23F0030384B0012127201360FDF7D5FF01211020FDF7D1FFA14BA14AA2491E
:2069C00045F255501860136803F001033BB11368013903F00103F9D1002B40F0D7819B4BF6
:2069E000984A994901201860136803F002033BB11368013903F00203F9D1002B40F0C681C2
:206A000093488F4A9349944B40F6C41505604AF6AA244CF6CC4014601060CA6842F08072FD
:206A2000CA601A68002442F001021A605C60EFF3108172B6894A8A4B202082F823000725CF
:206A40004FF080601D605C609C60506081F31088032210460121FDF789FE012203210220A5
:206A6000FDF784FE7F48804B0168804A804D41F40031016018687F4920F4005018601868A3
:206A800020F48050186018681860106820F440501060106810601A6822F4C0621A601A6878
:206AA0001A604FF482722A601A6822F004021A601A6842F004021A601A6822F008021A603B
:206AC0001A6842F008021A601A6842F400521A6081F8264340224A601A68674842F0200287
:206AE0001A60FEF75FFE72B6644801F06BF910B962B6FFF74DF972B6614B57495A7A4D6887
:206B000002B998725F4B60495D4A604C1C6054489C68524E0B608C6011605360002402218C
:206B20004FF080635172446084607360584B594E1C70FEF7CBFFFF2331460DF107008DF85D
:206B40000730FEF715FCC8B142690477531E846102F26B22194603F1780701F8014F8F4296
:206B6000FBD1C3F879407C339342F3D1447731460DF10700FEF7FCFB0028E5D1FF23464FD5
:206B80008DF8083006460FE094F82C10A06901F01001FDF749FA94F82C30666213F010032D
:206BA00018BF112384F82C30394602A8FEF7E0FB04460028E8D1FF23384E8DF8093004E084
:206BC000C46221463430FDF797FA31460DF10900FEF7CEFB0028F3D1FF23314C8DF80A30B9
:206BE00001E0FEF76BFB21460DF10A00FEF7C0FB0028F6D1FF222B498DF80B20044604E0D8
:206C0000037DC46123F0010303750DF10B00FEF7AFFB0028F4D1FF2323498DF80C30044612
:206C200000E0846703A8FEF7A3FB0028F9D1FF231E4E8DF80D3041E0A30400209001002070
:206C4000003000400C300040FEFF0F000430004008300040F0ED00E0001000E000ED00E0D6
:206C600010E000E01C1002400C440040104400400844004000E100E0087E0008280400208B
:206C8000000000200C00002024000020180000200C0400203D570008D9560008854B000851
:206CA000CD370008913C0008393C00080D4C0008FDF76CF894F82720002A53D131460DF127
:206CC0000D00FEF755FB04460028F1D1FF23314E8DF80E300DF10E0402E0017CCB074DD468
:206CE00031462046FEF744FB0028F6D1FF232646294F8DF80E30044605E00279431D21465A
:206D00000068FEF7F7F839463046FEF731FB0028F3D1FF23214C8DF80F3004E000F11101EB
:206D2000C068FEF70BF821460DF10F00FEF720FB0028F3D1EFF30383C3F3080343B14FF067
:206D400080736FF0060208B401A102B41FB51047134B01225A7262B612489A7A2946FEF763
:206D600021FDC5E66369E16801320B4484F826206361A3602046FEF761FF9FE781F008016F
:206D8000C068C1F3C001FDF74FF9A9E72920FEF765FB00BF054A000885370008B149000810
:206DA00000000020187E000881F0004102E000BF83F0004330B54FEA41044FEA430594EAAA
:206DC000050F08BF90EA020F1FBF54EA000C55EA020C7FEA645C7FEA655C00F0E2804FEAFA
:206DE0005454D4EB5555B8BF6D420CDD2C4480EA020281EA030382EA000083EA010180EADF
:206E0000020281EA0303362D88BF30BD11F0004F4FEA01314FF4801C4CEA113102D0404200
:206E200061EB410113F0004F4FEA03334CEA133302D0524263EB430394EA050F00F0A780E4
:206E4000A4F10104D5F1200E0DDB02FA0EFC22FA05F2801841F1000103FA0EF2801843FA06
:206E600005F359410EE0A5F120050EF1200E012A03FA0EFC28BF4CF0020C43FA05F3C0183A
:206E800051EBE37101F0004507D54FF0000EDCF1000C7EEB00006EEB0101B1F5801F1BD333
:206EA000B1F5001F0CD349085FEA30004FEA3C0C04F101044FEA445212F5800F80F09A80FA
:206EC000BCF1004F08BF5FEA500C50F1000041EB045141EA050130BD5FEA4C0C404141EB1C
:206EE0000101013C28BFB1F5801FE9D291F0000F04BF01460020B1FA81F308BF2033A3F1E5
:206F00000B03B3F120020CDA0C3208DD02F1140CC2F10C0201FA0CF021FA02F10CE002F1DC
:206F20001402D8BFC2F1200C01FA02F120FA0CFCDCBF41EA0C019040E41AA2BF01EB045172
:206F4000294330BD6FEA04041F3C1CDA0C340EDC04F11404C4F1200220FA04F001FA02F31A
:206F600040EA030021FA04F345EA030130BDC4F10C04C4F1200220FA02F001FA04F340EAEE
:206F80000300294630BD21FA04F0294630BD94F0000F83F4801306BF81F480110134013D4C
:206FA0004EE77FEA645C18BF7FEA655C29D094EA050F08BF90EA020F05D054EA000C04BFB3
:206FC0001946104630BD91EA030F1EBF0021002030BD5FEA545C05D14000494128BF41F0C6
:206FE000004130BD14F580043CBF01F5801130BD01F0004545F0FE4141F470014FF00000D8
:2070000030BD7FEA645C1ABF194610467FEA655C1CBF0B46024650EA013406BF52EA033586
:2070200091EA030F41F4002130BD00BF90F0000F04BF0021704730B54FF4806404F1320460
:207040004FF000054FF0000150E700BF90F0000F04BF0021704730B54FF4806404F1320455
:2070600010F0004548BF40424FF000013EE700BF42004FEAE2014FEA31014FEA02701FBFCC
:2070800012F07F4393F07F4F81F06051704732F07F4208BF704793F07F4F04BF41F4002137
:2070A000704730B54FF4607401F0004521F000411CE700BF50EA010208BF704730B54FF0F4
:2070C00000050AE050EA010208BF704730B511F0004502D5404261EB41014FF4806404F1D8
:2070E00032045FEA915C3FF4D8AE4FF003025FEADC0C18BF03325FEADC0C18BF033202EBC0
:20710000DC02C2F1200300FA03FC20FA02F001FA03FE40EA0E0021FA02F11444BDE600BFBA
:2071200070B54FF0FF0C4CF4E06C1CEA11541DBF1CEA135594EA0C0F95EA0C0F00F0DEF8A6
:207140002C4481EA030621EA4C5123EA4C5350EA013518BF52EA033541F4801143F48013AC
:2071600038D0A0FB02CE4FF00005E1FB02E506F00042E0FB03E54FF00006E1FB03569CF094
:20718000000F18BF4EF0010EA4F1FF04B6F5007F64F5407404D25FEA4E0E6D4146EB060687
:2071A00042EAC62141EA55514FEAC52040EA5E504FEACE2EB4F1FD0C88BFBCF5E06F1ED8D5
:2071C000BEF1004F08BF5FEA500E50F1000041EB045170BD06F0004646EA010140EA0200BA
:2071E00081EA0301B4EB5C04C2BFD4EB0C0541EA045170BD41F480114FF0000E013C00F3E0
:20720000AB8014F1360FDEBF002001F0004170BDC4F10004203C35DA0C341BDC04F1140475
:20722000C4F1200500FA05F320FA04F001FA05F240EA020001F0004221F0004110EBD37093
:2072400021FA04F642EB06015EEA430E08BF20EAD37070BDC4F10C04C4F1200500FA04F37B
:2072600020FA05F001FA04F240EA020001F0004110EBD37041F100015EEA430E08BF20EAD5
:20728000D37070BDC4F1200500FA05F24EEA020E20FA04F301FA05F243EA020321FA04F027
:2072A00001F0004121FA04F220EA020000EBD3705EEA430E08BF20EAD37070BD94F0000FE4
:2072C0000FD101F00046400041EB010111F4801F08BF013CF7D041EA060195F0000F18BF1D
:2072E000704703F00046520043EB030313F4801F08BF013DF7D043EA0603704794EA0C0F20
:207300000CEA135518BF95EA0C0F0CD050EA410618BF52EA4306D1D181EA030101F00041A2
:207320004FF0000070BD50EA410606BF1046194652EA430619D094EA0C0F02D150EA01369B
:2073400013D195EA0C0F05D152EA03361CBF104619460AD181EA030101F0004141F0FE41E8
:2073600041F470014FF0000070BD41F0FE4141F4780170BD70B54FF0FF0C4CF4E06C1CEAAF
:2073800011541DBF1CEA135594EA0C0F95EA0C0F00F0A7F8A4EB050481EA030E52EA0335F4
:2073A0004FEA013100F088804FEA03334FF0805545EA131343EA12634FEA022245EA11153E
:2073C00045EA10654FEA00260EF000419D4208BF964244F1FD0404F5407402D25B084FEA9A
:2073E0003202B61A65EB03055B084FEA32024FF480104FF4002CB6EB020E75EB030E22BF1C
:20740000B61A754640EA0C005B084FEA3202B6EB020E75EB030E22BFB61A754640EA5C00C7
:207420005B084FEA3202B6EB020E75EB030E22BFB61A754640EA9C005B084FEA3202B6EBB7
:20744000020E75EB030E22BFB61A754640EADC0055EA060E18D04FEA051545EA16754FEAB8
:2074600006164FEAC30343EA52734FEAC2025FEA1C1CC0D111F4801F0BD141EA00014FF005
:2074800000004FF0004CB6E711F4801F04BF01430020B4F1FD0C88BFBCF5E06F3FF6AFAE72
:2074A000B5EB030C04BFB6EB020C5FEA500C50F1000041EB045170BD0EF0004E4EEA113151
:2074C00014EB5C04C2BFD4EB0C0541EA045170BD41F480114FF0000E013C90E645EA060E46
:2074E0008DE60CEA135594EA0C0F08BF95EA0C0F3FF43BAF94EA0C0F0AD150EA01347FF44E
:2075000034AF95EA0C0F7FF425AF104619462CE795EA0C0F06D152EA03353FF4FDAE1046C6
:20752000194622E750EA410618BF52EA43067FF4C5AE50EA41047FF40DAF52EA43057FF47B
:20754000EBAE12E74A0011D212F5001211D20DD56FF47873B3EB62520ED44FEAC12343F0BC
:20756000004343EA505323FA02F070474FF00000704750EA013002D14FF0FF3070474FF09A
:207580000000704780F0004002E000BF81F0004142001FBF5FEA410392EA030F7FEA226CFF
:2075A0007FEA236C6AD04FEA1262D2EB1363C1BFD218414048404140B8BF5B42192B88BF26
:2075C000704710F0004F40F4000020F07F4018BF404211F0004F41F4000121F07F4118BF1B
:2075E000494292EA030F3FD0A2F1010241FA03FC10EB0C00C3F1200301FA03F100F0004393
:2076000002D5494260EB4000B0F5000F13D3B0F1807F06D340084FEA310102F10102FE2A99
:2076200051D2B1F1004F40EBC25008BF20F0010040EA03007047490040EB0000013A28BFA7
:20764000B0F5000FEDD2B0FA80FCACF1080CB2EB0C0200FA0CF0AABF00EBC25052421843EA
:20766000BCBFD0401843704792F0000F81F4000106BF80F400000132013BB5E74FEA4103A5
:207680007FEA226C18BF7FEA236C21D092EA030F04D092F0000F08BF0846704790EA010FEA
:2076A0001CBF0020704712F07F4F04D1400028BF40F00040704712F100723CBF00F50000C0
:2076C000704700F0004343F0FE4040F4000070477FEA226216BF08467FEA236301464202DA
:2076E00006BF5FEA412390EA010F40F4800070474FF0000304E000BF10F0004348BF404272
:207700005FEA000C08BF704743F0964301464FF000001CE050EA010208BF70474FF000030B
:207720000AE000BF50EA010208BF704711F0004302D5404261EB41015FEA010C02BF8446D9
:207740000146002043F0B64308BFA3F18053A3F50003BCFA8CF2083AA3EBC25310DB01FACE
:2077600002FC634400FA02FCC2F12002BCF1004F20FA02F243EB020008BF20F001007047CE
:2077800002F1200201FA02FCC2F1200250EA4C0021FA02F243EB020008BF20EADC7070476D
:2077A0004FF0FF0C1CEAD0521EBF1CEAD15392EA0C0F93EA0C0F6FD01A4480EA010C4002CB
:2077C00018BF5FEA41211ED04FF0006343EA501043EA5111A0FB01310CF00040B1F5000FBD
:2077E0003EBF490041EAD3715B0040EA010062F17F02FD2A1DD8B3F1004F40EBC25008BF67
:2078000020F00100704790F0000F0CF0004C08BF49024CEA502040EA51207F3AC2BFD2F179
:20782000FF0340EAC250704740F400004FF00003013A5DDC12F1190FDCBF00F000407047BC
:20784000C2F10002410021FA02F1C2F1200200FA02FC5FEA310040F1000053EA4C0308BF59
:2078600020EADC70704792F0000F00F0004C02BF400010F4000F013AF9D040EA0C0093F05D
:20788000000F01F0004C02BF490011F4000F013BF9D041EA0C018FE70CEAD15392EA0C0F1A
:2078A00018BF93EA0C0F0AD030F0004C18BF31F0004CD8D180EA010000F00040704790F054
:2078C000000F17BF90F0004F084691F0000F91F0004F14D092EA0C0F01D142020FD193EA58
:2078E0000C0F03D14B0218BF084608D180EA010000F0004040F0FE4040F40000704740F02A
:20790000FE4040F4400070474FF0FF0C1CEAD0521EBF1CEAD15392EA0C0F93EA0C0F69D01D
:20792000A2EB030280EA010C49024FEA402037D04FF0805343EA111143EA10130CF0004066
:207940008B4238BF5B0042F17D024FF4000C8B4224BF5B1A40EA0C00B3EB510F24BFA3EB3D
:20796000510340EA5C00B3EB910F24BFA3EB910340EA9C00B3EBD10F24BFA3EBD10340EA37
:20798000DC001B0118BF5FEA1C1CE0D1FD2A3FF650AF8B4240EBC25008BF20F001007047F2
:2079A0000CF0004C4CEA50207F32C2BFD2F1FF0340EAC250704740F400004FF00003013A3E
:2079C00037E792F0000F00F0004C02BF400010F4000F013AF9D040EA0C0093F0000F01F0EB
:2079E000004C02BF490011F4000F013BF9D041EA0C0195E70CEAD15392EA0C0F08D1420296
:207A00007FF47DAF93EA0C0F7FF470AF084676E793EA0C0F04D14B023FF44CAF08466EE767
:207A200030F0004C18BF31F0004CCAD130F000427FF45CAF31F000437FF43CAF5FE700BF54
:207A4000D0B5FFF715FB0C4B002206460F46FFF767FBFFF777FD0446FFF7E8FA074B002229
:207A6000FFF75EFB02460B4630463946FFF7A0F9FFF768FD2146D0BD0000F03D0000F041ED
:207A800001F0FF01102A2BDB10F0070F08D010F8013B013A8B422DD010F0070F42B3F6D1AC
:207AA000F0B441EA012141EA014122F007047FF000070023F0E80256083C85EA010586EA59
:207AC000010685FA47F5A3FA87F586FA47F6A5FA87F68EB9EED1F0BC01F0FF0102F0070254
:207AE00032B110F8013B013A83EA010313B1F8D10020704701387047002D06BF35460338B7
:207B0000073815F0010F07D1013015F4807F02BF013015F4C03F0130F0BC0138704700BF7A
:207B2000844641EA000313F003036DD1403A41D351F8043B40F8043B51F8043B40F8043B7A
:207B400051F8043B40F8043B51F8043B40F8043B51F8043B40F8043B51F8043B40F8043B29
:207B600051F8043B40F8043B51F8043B40F8043B51F8043B40F8043B51F8043B40F8043B09
:207B800051F8043B40F8043B51F8043B40F8043B51F8043B40F8043B51F8043B40F8043BE9
:207BA00051F8043B40F8043B51F8043B40F8043B403ABDD2303211D351F8043B40F8043B79
:207BC00051F8043B40F8043B51F8043B40F8043B51F8043B40F8043B103AEDD20C3205D389
:207BE00051F8043B40F8043B043AF9D2043208D0D2071CBF11F8013B00F8013B01D30B88DB
:207C000003806046704700BF082A13D38B078DD010F003038AD0C3F10403D21ADB071CBFFA
:207C200011F8013B00F8013B80D331F8023B20F8023B7BE7043AD9D3013A11F8013B00F8F9
:207C4000013BF9D20B7803704B7843708B788370604670478842F0B40DD98B1883420AD9BF
:207C6000841832B1224613F8014D02F8014D9942F9D1F0BC70470F2A0ED80346541E002A70
:207C8000F7D001340C44013B11F8012B03F8012FA142F9D1F0BC704740EA01039B073BD110
:207CA000A2F110073F0901F1200606EB071601F1100300F1100453F8105C44F8105C53F8F8
:207CC0000C5C44F80C5C53F8085C44F8085C53F8045C44F8045C1033B34204F11004EAD106
:207CE0007B1C1B0112F00C0F194402F00F05034415D0043DAD0803EB850C1C1F0E4656F8D3
:207D0000047B44F8047F6445F9D10135AD002B44294402F00302B1E7541E0346B1E72A46A1
:207D2000ACE700BFF0B4860746D0541E002A3CD0CAB2034602E014F1FF3436D303F8012BF3
:207D40009D07F8D1032C29D9CDB245EA05250F2C45EA054533D9A4F11006360903F12007E8
:207D600007EB061703F1100242E9045542E902551032BA42F8D1721C14F00C0F03EB021232
:207D800004F00F0613D0331F23F003030433134442F8045B9342FBD106F003042CB1C9B26F
:207DA0001C4403F8011B9C42FBD1F0BC704734461346002CF3D1F8E714460346C2E71A46F1
:207DC0002646E0E7EC46A0E8F05F4FF000007047B0E8F05FE546080008BF0120704700BFF9
:207DE000F2000000000000000000000000010203040506071011202122232425FE00000087
:207E0000004002001C7F0008410600000000000042090100D87E0008430E0200DC7E0008D7
:207E200045150300307F000846100200347F0008470B0100387F0008481204003C7F0008E8
:207E40004A400100407F00084B0B0100387F00084C210600447F00084D0D02004C7F00084D
:207E60004E110400E07E00084F110400E47E0008501C0500E87E000851280900F07E000894
:207E800052120300FC7E000853260700007F000854100300087F0008554002000C7F0008D2
:207EA00056140400107F0008571C0700147F000858400300207F0008594002000C7F000838
:207EC0005A0A0200247F00085B170400287F00085C4003002C7F0008020000000002000016
:207EE000040400040404040004000000000000000404040200010101010000000400000050
:207F000004000000000000000400020004070000040000040400000204040200000600002E
:207F200004020700040400000400000004040700000000000000000000000000040004020F
:207F40000700000004000000000000000401000002060000030600000406000005060000EB
:207F600006060000070600000806000000080140000C014000100140001401400018014045
:207F8000001C014000200140440600000000000049100200347F000878DA9D59FB6FDCB87D
:207FA00011FE57880582DEB576AAC73E0DE4878DB3D71A3D3B3EAFD30B1A04822C7177856F
:207FC000E8153DFCC8C1FF7BBFE18814A5DD1645F383572487C399E1372FE68FC9439BA474
:207FE00071F028AB3A29F27A7231D947D185F8C99D5DACCE3DC75D9D7F9F9E3BED439B3739
:20800000ADFBB358BDF5DEBA82E65DC79B899F2A99CAB0963F8B2FEBBBEBBF865576BE3AAF
:208020007FA8C23C3A884A3E26C453788BC56CB5FA2A1E92BC6D92B40677EFAD3F3D9F76BE
:208040005CFFE2FA863F2D4CCE26519165611E439C3F26611C077152FD889A541449FCEEAC
:208060004D24923C96CFF481F9A04CF2776F5A5137B2D4DF349DE4D0A92122B56286930B37
:208080007F71A6981E9E17AE5B1FF18CD26F86675C749FD835C5AE342DA2B09101F6D422EC
:2080A0002A20B4E2B83C83199B06F60BC2E89BE6D8AFCF1D8B208E354159D4EA870F2BDBAE
:2080C000340DDA923778FD86EFADAC5E0C4F08F08DA82B5937419344DF6A1E35307A9D25B8
:2080E0004DA04F1596C6731726C54555417D689BB878CA27171E5939DF257B48F49CFAD3F7
:20810000993EA22E93803F2717338B2A0FD3620F3B1AE93BC34C1D43D389AC297818587676
:20812000F00DA99A94D590D9C006B395218E937DD2846950B4CD68C36398B6522141EEC290
:20814000366D02339185CF41DC566103082A395D9BDF004E3F2C11FDA5A1920060539483E0
:2081600013A381885E4FBC23CCCBFEF2310EF236EB3E9D60B8DBE9E6DDD1BCDBCD7BA37995
:20818000AF9BF747F37E373F1DCD4F9578EED48837C4BA1AD94ACF0C612E8B327996E9C807
:2081A000CE71D884419DFC80690F2D3CB909C8BE16FE6A89A9243753B8BF85610A488DF80F
:2081C00045E4294DF2288343B23F2821A6739BDE20F51896422F0559BD7FF7E6CF881253ED
:2081E00077B0F729690EC04A10698D41D1AB48F1A0ECA1D7070E2B9E68F751C43D559BD662
:20820000D252D1EB9936075965054C5AA6F284C8F672D0BC949285EAF1D364511B5606DE04
:20822000D57370E412A2319374014D924936747FCD4D55BFE49151DA87FBC6F2A1C5B5162B
:20824000E5E462A547E0B25757CAD6731DBD50C910D1A98A6545E7215455EC3A86CF5395EF
:2082600034F28882DC9009710F3293D55EE6D14B40DE032130C59E141C8A4C1E45B23ACCE9
:2082800094513496BAB18963C34807D17B1F67758D8DAB64BF9715295193CF93832EFAC30E
:2082A000551C854C61238D813C606E9720B201D901DB504455A474C1D21EA05672C2C8DD40
:2082C00048D14C2E163C6C4BBA055CE4D9248965DE243B44EADD0ECEA0406E1C0C66D18EB9
:2082E00015D410C808309B592B6D19F7C2717638B4D63DCD20126B310AD9A7B30236B8A3D6
:208300000D4AFDB6F78A996308C6E1FDFFBC9FACBF1FC84E41A21F2145EDB191C2A41D7C9A
:20832000565A86514E301294055C607CBEA5E552331807E1A743121D68962FC1D774C3680B
:208340004857582BE8939410C8D09D72EAFF90812DBD076AF300C104188B2DADA70B75483C
:208360002B4F25377346610754D76CA160D4D72D3019FB9F061C4C0DC7C46F0284039A2AF1
:208380003A03D0FA53ED67608F4FC406F87AD5E6E31C89A18CFA72AAAD4DCD15D191643657
:2083A000A09398DBFA8CB23474981D1105E55316442F9165621AD88A2F79532E9F3BD921DA
:2083C0008D2518BB326E4DE58DDEBD2CD7997A7AB5419552DB11FA8175C98A585D172A0686
:2083E0000EABD369BFA52E76CD5358497B6F96D4BA3AC4E63A3145A355401E335D3153555E
:20840000AEED7AAC5B92921E9CA1020A31080309D5307DCC727B0215D808241CFA0CA2ED69
:20842000B8881DF0F22EBF0CCCA382399D2A18FC1410707AB79BF426D738814B5CB6D3D3F2
:208440003576DE9265517541939D448D8D9BC8E71240B243B4EF1A4E232DEC380EB3717451
