:020000040800F2
:200000000000012091030008A5030008A5030008A5030008A5030008A5030008A503000803
:20002000A5030008A5030008A5030008A5030008A5030008A5030008A5030008A503000840
:2000400008B500F005F800F02BF8002008BD00BF08B5124B4FF000629A6000F067FA00F049
:2000600019FB00F075FB00F0AFFB00F015FB00F0EBF943F6982000F0F3FB013000D008BD09
:2000800000F0DCFB012805D0BDE808404FF0FF3000F0E6BB00F0E2FAF6E700BF00ED00E07A
:2000A0002DE9F04F00238DB07C4A0693CDE90333CDE90733CDE909338DF809308DF80A30E1
:2000C0008DF80B3005930B9302F5006442F8043FA242FBD1724904AB6D2201E011F8012F8F
:2000E00003F8012B07AA9A42F8D1DFF8BC912D2304AA8DF81C30A9EB020902F1180A07AB2A
:2001000019F8032003F8012F9A45F9D1654FDFF89C8103260DF10901002000F0D9FC0028F1
:20012000F8D09DF80930032BF4D8DFE803F00229190F07AB19F8032003F8012F9A45F9D168
:20014000192204A9002000F0F3FBE3E7022301220DF10B0100208DF80B3000F0E9FBD9E729
:2001600000F06CFB0128024679D04FF01F0301220DF10B0100208DF80B3000F0D9FBC9E78C
:20018000752301220DF10B0100208DF80B3000F0CFFB05250DF10A03042203A9002000F0E9
:2001A00005FC034601334FF001020DF10B014FF0000008D14FF01F038DF80B3000F0B8FB99
:2001C000013DE7D1A6E775238DF80B30039B0193002500F0ADFBDDF804B0CDF804900DF175
:2001E0000A034FF400624146002000F0DFFBB0F1FF3F814603D14DE0012E1ED906464A4633
:200200004146384600F096F9012806F1FF30F3D1BBEB090B4FF0030615D0204B4F4443F827
:20022000045FA342FBD1752301220DF10B0100208DF80B3000F07CFBD1E7F8B1BBEB090B83
:200240004FF0FF36E9D12023584601220DF10B01DDF804908DF80B3000F06AFB5AE775230B
:200260000DF10B0100208DF80B3000F061FB4FF47A7000F037F900F0F1F94BE72123012288
:200280000DF10B01DDF804908DF80B30064600F04FFB3FE7DDF8049067E700BF04000020E5
:2002A000802F000800300008F4310008080000202DE9F04700264FF001084FF6FF7E1670F7
:2002C000A1F80280A1F800E0047854B333463746B1464FF0FF0CA4F121052F2D25D8DFE8F5
:2002E00005F04924242424242424242424402424242A2A2A2A2A2A2A2A2A2A242424242454
:20030000242418181818181818181818181818181819A4460133DBB21F46C45C002CDAD10D
:20032000F4B214700020BDE8F087002313704FF0FF30BDE8F0870744303C7D78303DEDB26F
:20034000092DACF14107E4B206F1010A17D9BCF1FF0F04EB0714E8D021F826401FFA8AF665
:20036000D8E701EB86044FF0FF0CA4F8028021F826E0CFE701EB8604A4F80290CAE704EBC7
:20038000840405EB4404013304F0FF04DBB2DEE772B6024B024A9D4610477047000001204D
:2003A000A9030008FEE700BF08B500224FF0FF31930003F1604303F56143C3F88010BFF3D4
:2003C0004F8F0132082AC3F88011F1D1002316481946C2180133F02B82F80013F9D1134B0E
:2003E00004221A60BFF34F8F114A4FF02061002351601946D01801330C2B0176FAD1BFF338
:200400004F8FBFF36F8F62B60A480B4A0B49121A00F0EAFE0A480B4A0021121A00F07EFFD6
:20042000FFF70EFEFEE700BF00E100E010E000E000ED00E00000002008000020A02F000899
:2004400008000020101000200D4B0E481A6822F4803230B41A601A680B4C22F004021A6073
:200460001A686FF07F4522F0020200211A605D60216001601A6822F0010230BC1A607047D3
:2004800010E000E0081000200C100020114A124B12489B68116801F07F4110B4116011682B
:2004A0000468C3F1FF1303F57F4319439C42116003D9116801F180711160094903600968D6
:2004C000126810BC4FF47A70CB08B2FBF3F300FB03F070470C10002010E000E0081000205A
:2004E000040000200E4B0F491A6822F4803270B51A601A680C4D42F001021A606FF07F4690
:2005000000229E6004462A600A60FFF7BFFF001B0028FADB024A136823F00103136070BD33
:2005200010E000E0081000200C100020022000F095BB00BF2DE9F04F044683B04FEA520AEF
:20054000CDE9001000F094FB04F17843C3F34904C4F580691FFA89F9DD0A3D4BD14505F5E7
:20056000803528BF1FFA8AF9C3EBC52503F2FE774FF6FF76374B9A1C50195A19528823F87E
:20058000022FBB42F9D1B9F1000F2BD0304B09F1FF381FFA88F804EB080103EB4404023307
:2005A00003EB4101234601E08B4233D033F8022BB242F9D000F0BEFB00283FD1009B03EB72
:2005C0004808023B33F8022F24F8022B4345F9D11F4C601934F8021B00F042FC70BB1E4BA8
:2005E000A342F6D1CA4505F500652BD0009A02EB4902AAEB090A0092019ABAF5806F534608
:2006000002EB490228BF4FF48063019200241FFA83F9AFE7019B03F10208009B4C46A8EB59
:200620000308A3F1020B01E0013CDBD008EB0B003BF8021F00F014FC0028F5D0002003B033
:20064000BDE8F08F00F03AFB012003B0BDE8F08F08080020060800200810002082B00C4B3A
:20066000019300224FF0FF31930003F1604303F561430132082AC3F88010C3F88011F3D1CF
:20068000019B5B68019A126882F3088802B018470030000800F032BA2DE9F04FA3B0802272
:2006A000002102A800F03AFE002326488DF8073002A90DF10702FFF7FBFD00283ED19DF88E
:2006C00007108046B1B3DFF880A0DFF8809006460346012707E000F08FFC9DF807100136F9
:2006E000F3B2994226D922AA02EB830434F8802C02F00F057F2A07FA05F54FEA121BEED88D
:200700003AF82B0000F07AFC59F82BB02B4658461021012200F01EFC34F87E3C294658468A
:20072000002BD8D000F066FC01369DF80710F3B29942D8D8404623B0BDE8F08F4FF0FF388E
:20074000F8E700BFBC130008D4130008F013000838B540F202601A4D1A4C00F04FFC40F26F
:200760000E6000F04BFC28464FF400730322182100F0F0FB4FF4806303222846042100F0A9
:20078000E9FB2046002100F0FDFC2046002100F0F1FC2046002100F0FDFC20464FF4E13176
:2007A00000F0BEFC2046042100F00CFD2046082100F0FEFC2046BDE8384000F0F3BC00BFB1
:2007C000000801400038014038B540F20260194D194C00F013FC40F2117000F00FFC2846F0
:2007E00004230322182100F0B5FB082303222846042100F0AFFB2046002100F0C3FC2046BB
:20080000002100F0B7FC2046002100F0C3FC20464FF4E13100F084FC2046042100F0D2FC6A
:200820002046082100F0C4FC2046BDE8384000F0B9BC00BF0008014000440040064B1B7821
:200840005F2B01D000207047044B1878A0F15F00B0FA80F0400970470432000808320008FD
:20086000F8B50646013010D0264B27481A68274922F480321A601A6842F001021A606FF0CA
:200880007F4400229C6002600A60214F214C224D711C03D0FFF7FAFDB04230D83B689A06D5
:2008A00003D52368DBB2752B1FD01C4802689306EED52A68D2B2752AEAD11949194C0A68E6
:2008C000012522F400520A602560174D01E055F82300072100F080FC23680028F7D055F88B
:2008E000233075225A600020F8BD104A0D4C1368074823F40053002113602160E5E74FF078
:20090000FF30F8BD10E000E00C1000200810002000380140043801400444004000440040AD
:200920000C38014000000020CC1300080C4400402DE9F843DFF870901A4CD9F800300026E6
:2009400054F823004F1E9046354603E0D9F8003054F82300072100F03FFC0028F6D0D9F805
:20096000002017F8013F54F822000135ADB21E4445454360F6B2EDD3072100F02DFCD9F8FC
:20098000003040B954F82300072100F025FCD9F800300028F6D054F82330C6F1FF065E607E
:2009A000BDE8F883CC130008000000202DE9F04FDFF81481414FD8F80000414C57F82000F3
:2009C000DFF808B185B04FF00009019116460393CDF800904D46CA46052100F0FDFB6FF021
:2009E00020030246002836D0D8F8002057F8220003604368B245DBB227D300932368314AD8
:200A000023F48033236023684FF0010943EA0903CA4423601FFA8AFA6FF07F43A36056458F
:200A20004FF00003CBF800301360D5D2009BC5F1FF05AB423ED1039AB24513702DD30AF104
:200A4000FF3080B205B0BDE8F08F019A1D4402F80A30EDB2D2E70292FFF718FDB0F5FA7F17
:200A600003D9029AB9F1000F04D1D8F8003057F82300B1E7D8F8001057F821106FF0200087
:200A8000BAF1010F08600ED9019B03EB0A0212F8013C0093ED1AEDB2C8E7019B5344002232
:200AA00003F8012CCBE7019B4FF0FF301A7005B0BDE8F08F4FF0FF30C4E700BFCC13000830
:200AC00010E000E008100020000000200C10002030B583B000240DF103030D46012201A952
:200AE0008DF80340ADF80440FFF760FF012806BF9DF804302B70204603B030BD30B4504A1A
:200B0000136843F0010382B0136013689907FCD54C4A1368002143F0800313600191019B09
:200B20004F2B05D8019B01330193019B4F2BF9D9444A1368002143F0900313600191019B81
:200B40004F2B05D8019B01330193019B4F2BF9D93C4A3B4913683C483C4C23F003031360D5
:200B60000B6823F0847323F480334FF41F050B6005600B68002023F480230B60106020604F
:200B80000B6843F480330B604FF6FF7301E0013B02D00A689203FAD5294A13689D034ED560
:200BA0002B4C2C482168274B41F080512160016841F44041016019681960196819601968D7
:200BC00041F480611960196821F440311960196841F440311960196821F0904121F470116D
:200BE0001960196841F0036141F480211960136843F08073136013689C01FCD51549164A5C
:200C00000B6843F480330B601368D803FCD51149114A0B6843F400330B6013689903FCD500
:200C2000084A136823F003031360136843F00203136013681B07FCD502B030BC7047FEE78D
:200C40000010024004100240081002402C1002401C1002400070004004700040034A13687A
:200C600023F0070303431360704700BF002002400B4B1B681A0604D50A4B0B490B4A19607D
:200C80001A600B4B1B88B3F5007F08D9094B1B681B0604D5084B0449044A19601A60704770
:200CA000102002400420024023016745AB89EFCDE0F7FF1F5020024044200240074A0849AD
:200CC0001368098843F08003B1F5007F136003D9136C43F080031364704700BF102002404A
:200CE000E0F7FF1F084B1A68D10709D41A68D20608D41B6813F0040F0CBF002002207047E2
:200D000001207047032070470C200240084B1A68D10709D41A68D20608D41B6813F0040F5A
:200D20000CBF00200220704701207047032070474C20024038B5424B1B88B3F5007F054600
:200D40004FD9404B404C984225D2FFF7CBFF012805D1013C68D0FFF7C5FF0128F9D0B8B932
:200D60003A4B3B491A68384C42F002021A600D601A6842F040021A6001E0013C56D0FFF79D
:200D8000B1FF0128F9D0314A136823F00203136038BD013C48D0FFF7B9FF0128F9D000281E
:200DA000F6D12C4A2C4813682C49274C43F00203136005600B68274A9B0744BF244B1D609A
:200DC000136843F04003136001E0013C35D0FFF79DFF0128F9D01F4A136823F00203136099
:200DE00038BD194C01E0013C1ED0FFF77BFF0128F9D00028CCD1154B15491A68124C42F096
:200E000002021A600D601A6842F040021A6001E0013C0BD0FFF766FF0128F9D00B4A136861
:200E200023F002031360B3E7042038BD074A136823F0020304201360AAE70420CBE700BFD3
:200E4000E0F7FF1FFFFF07080000FF0F102002401420024050200240542002401C200240B4
:200E6000374B1B88B3F5007F70B505460E463ED9344B354C984220D2FFF734FF012805D157
:200E8000013C52D0FFF72EFF0128F9D090B92F4A2D4C136843F0010313602E8001E0013CB2
:200EA00045D0FFF71FFF0128F9D0284A136823F00103136070BD013C37D0FFF727FF0128EA
:200EC000F9D00028F6D1224A1F4C136843F0010313602E8001E0013C30D0FFF717FF01285D
:200EE000F9D01B4A136823F00103136070BD164C01E0013C19D0FFF7F5FE0128F9D0002826
:200F0000D8D1124A104C136843F0010313602E8001E0013C0BD0FFF7E5FE0128F9D00B4A84
:200F2000136823F001031360C4E7042070BD074A136823F0010304201360BBE70420D0E7B9
:200F4000E0F7FF1FFFFF07080000FF0F10200240502002402DE9F041CC0601F00F0602D567
:200F6000042A40D0164300224FF0010E4FF00F0C06E0482908BF046105600132082A11D0E2
:200F80000EFA02F495001C400CFA05F806FA05F5F3D00768282927EA080745EA0705E8D1CE
:200FA0004461E9E74FF0010C0F2706E0482908BF056144600132102A13D094000CFA02F531
:200FC000203C1D4007FA04F806FA04F4F2D0D0F804E028292EEA080E44EA0E04E6D14561D9
:200FE000E7E7BDE8F081C26B1A4346F00306C263B9E700BF0161704741617047830903F1CE
:20100000804303F5043300F01F001968012202FA00F008431860704770B43B4C3B4D064646
:2010200094E80F0089B010340DF1200C0CE90F0094E803006B4683E8030002AB83E80300C1
:201040002B68C3F38103022B34462AD030482F4B19681A681B6808ADC1F303112944C2F30B
:201060000222C3F3C22311F8101C2A442B4412F8202C13F8183C20FA01F1032C41D8DFE8CF
:2010800004F0040C070221FA03F009B070BC704721FA02F009B070BC7047084609B070BCBD
:2010A00070472B68DB0311D41A4A184B186819681B680D01C0F3834015D559001ED540F0EE
:2010C00030003F2813D102FB00F0C0E7124B104819682B68114A11F0804F08BF02469E035D
:2010E000E3D55208E1E75B0003D540F020000130E9E70F2818BF0230E5D1F8E740F010007D
:20110000F5E70020C1E700BF0C1400080410024000127A0000093D002C100240006CDC0254
:2011200038B5124B984204460D4619D010D9104B984215D003F56843984215D10320FFF786
:201140006BFF00EB5503B3FBF5F189B2A16038BDA3F50063984203D003F58063984203D1EC
:201160000220FFF759FFECE70020EAE7004C004000500040C26822F4C062C260C3680B4322
:20118000C3607047C26822F48052C260C3680B43C3607047026922F44052026103690B43BE
:2011A00003617047C36843F40053C360704700BFC36823F00803C360C36801F008011943D9
:2011C000C1607047C36823F00403C360C36801F004011943C16070478B0901F01F01185865
:2011E000C84000F001007047844641EA000313F003036DD1403A41D351F8043B40F8043B73
:2012000051F8043B40F8043B51F8043B40F8043B51F8043B40F8043B51F8043B40F8043BD2
:2012200051F8043B40F8043B51F8043B40F8043B51F8043B40F8043B51F8043B40F8043BB2
:2012400051F8043B40F8043B51F8043B40F8043B51F8043B40F8043B51F8043B40F8043B92
:2012600051F8043B40F8043B51F8043B40F8043B51F8043B40F8043B403ABDD2303211D322
:2012800051F8043B40F8043B51F8043B40F8043B51F8043B40F8043B51F8043B40F8043B52
:2012A000103AEDD20C3205D351F8043B40F8043B043AF9D2043208D0D2071CBF11F8013B00
:2012C00000F8013B01D30B8803806046704700BF082A13D38B078DD010F003038AD0C3F1B9
:2012E0000403D21ADB071CBF11F8013B00F8013B80D331F8023B20F8023B7BE7043AD9D36B
:20130000013A11F8013B00F8013BF9D20B7803704B7843708B78837060467047F0B486075E
:2013200046D0541E002A3CD0CAB2034602E014F1FF3436D303F8012B9D07F8D1032C29D942
:20134000CDB245EA05250F2C45EA054533D9A4F11006360903F1200707EB061703F11002DB
:2013600042E9045542E902551032BA42F8D1721C14F00C0F03EB021204F00F0613D0331F73
:2013800023F003030433134442F8045B9342FBD106F003042CB1C9B21C4403F8011B9C42C2
:2013A000FBD1F0BC704734461346002CF3D1F8E714460346C2E71A462646E0E72150423595
:2013C0002C215042362C2150423700000038014000440040020600000306000004060000CA
:2013E0000506000006060000070600000806000000080140000C014000100140001401407F
:2014000000180140001C01400020014000000000000000000102030406070809000000008D
:201420000102030400000000000000000000000000000000000000000000000000000000A2
:2014400000000000000000000000000000000000000000000000000000000000000000008C
:2014600000000000000000000000000000000000000000000000000000000000000000006C
:2014800000000000000000000000000000000000000000000000000000000000000000004C
:2014A00000000000000000000000000000000000000000000000000000000000000000002C
:202F80006D6375305F3030315F4733320000000000000000000000000000000000000000C1
:082FA000FF000000000E2707EE
:2030000000000120E1330008DD330008DD330008DD330008DD330008DD330008DD330008E3
:20302000DD330008DD330008DD330008DD330008DD330008DD330008DD330008513F000850
:20304000DD330008DD330008DD330008DD330008DD330008DD330008DD330008DD330008B0
:20306000DD330008DD330008DD330008DD330008DD330008DD330008DD330008DD33000890
:20308000DD330008DD330008DD330008DD330008DD330008DD330008DD330008DD33000870
:2030A000DD330008DD330008DD330008DD330008DD330008DD330008DD330008DD33000850
:2030C000DD330008DD330008DD330008DD330008DD330008DD330008213200080000000005
:2030E0000000000000000000000000000000000000000000000000000000000000000000D0
:203100000000000000000000000000000000000000000000000000000000000000000000AF
:2031200000000000000000000000000000000000000000000000000000000000000000008F
:2031400000000000000000000000000000000000000000000000000000000000000000006F
:2031600000000000000000000000000000000000000000000000000000000000000000004F
:2031800000000000000000000000000000000000000000000000000000000000000000002F
:2031A00000000000000000000000000000000000000000000000000000000000000000000F
:2031C0000000000000000000000000000000000000000000000000000000000000000000EF
:2031E0000000000000000000000000000000000000000000000000000000000000000000CF
:203200006D6375305F3030335F303030000000000000000000000000000000000000000058
:203220001A4B1B689A0610B405D4184B1B681B0613D410BC7047164B1B68C3F308037E2BAA
:2032400020D014490A78BF2AEFD8134C501CA3540E4B08701B681B06EBD5104A10491378BA
:203260000978994207D90F480949C05C0133137010BC086070470C4A10BC136823F0800378
:2032800013607047094A00211172DAE70044004004440040D805002018050020E5070020FA
:2032A000E4070020840700200C44004000000020194B1A68D20607D51B6813F0020F14BFA4
:2032C00000204FF416607047144A1368C0B223F01F030343092810B4136018D912280DD820
:2032E00000EB40000E4C1E38226807218140012322EA010203FA00F010432060094A10BC6E
:20330000136843F480034FF4166013607047064C00EB4000E8E700BF00240140342401408C
:203320000C240140082401401024014010B4EFF3108172B6084B020900F00F0053F82220F1
:203340000123D46803FA00F0204214BF5061106181F3108810BC70475C980008BFF34F8FAE
:203360000549064BCA6802F4E0621343CB60BFF34F8F00BFFDE700BF00ED00E00400FA0501
:2033800008B5154B1B689A1E22F00702093B934201D0FFF7E3FF0CA1D1E90001D3E90023B1
:2033A0008B4208BF8242F4D14FF000631A68D31D23F007039A42ECD172B605A1D1E900019D
:2033C000C2E90001FFF7CAFF43616E426F6F74213D24A8A945EC067B04000008FEE700BFA7
:2033E00072B6024B024A9D461047704700000120FD33000808B5202002F06AFD00B5002295
:2034000083B04FF0FF31930003F1604303F56143C3F88010BFF34F8F0132082AC3F88011B8
:20342000F1D100236D481946C2180133F02B82F80013F9D16A4B04221A60BFF34F8F694A7B
:203440004FF02061002351601946D01801330C2B0176FAD1BFF34F8FBFF36F8F62B66248E2
:20346000624A6349121A05F093FF6248624A0021121A06F08FF8614B1A6842F001021A6044
:203480001A689007FCD55E4A1368002143F0800313600191019B4F2B05D8019B01330193EC
:2034A000019B4F2BF9D9564A1368002143F0900313600191019B4F2B05D8019B01330193C6
:2034C000019B4F2BF9D94E494C4B0A684D484E4C22F003020A601A6822F0847222F4803262
:2034E0004FF41F051A6005601A68002022F480221A60086020601A6842F480321A604FF6A1
:20350000FF7201E0013A02D019688903FAD53B4A13689B0361D53D4C3D482168384B41F051
:2035200080512160016841F44041016019681960196841F400511960196841F4806119602F
:20354000196821F440311960196841F440311960196821F0904121F470111960196841F027
:20356000036141F480211960136843F08073136013689D01FCD5264A2649136843F4803356
:2035800013600B68DC03FCD5214A2249136843F4003313600B689803FCD5194B1A6822F090
:2035A00003021A601A6842F002021A601A681207FCD50C4B1849194A9A600B68184A43F0D1
:2035C00001030B60136823F0E06343F080634FF080611360116004F0A5FCFEE700E100E056
:2035E00010E000E000ED00E000000020580000208CAA0008580000201C0B00200010024047
:2036000004100240081002402C1002401C1002400070004004700040181002400030000808
:203620000400014038B514490446007802F02AFD2379C27E1A44C27672B6827C9A4205D8CF
:203640000022FE238274037762B638BDD21A12F0FF050ED000F1140212336C1E52FA84F440
:20366000034400F1130213F8011F02F8011BA242F9D1857462B638BDE136000838B50B49A8
:203680000446007802F0FEFCD4E90132E1681C0409D4048A9D18A54205D812331844BDE8F9
:2036A000384005F075BE242002F012FC1946000810B504460949007802F0E4FC237A032B49
:2036C0000AD8037C13F0060206D143F004030374C0E90022826010BDFFF78CFEA946000805
:2036E00010B50479082C09D80078064904F1200202F000FF044B8477436010BD282002F0B0
:20370000E7FB00BFE1360008F53C000838B5074905464C22007802F0EDFE0446044B28792B
:203720000449636002F0AEFC206138BD0D37000881390008A946000870B5067A032E0FD8A5
:20374000094904462022007802F0D4FE0546074B207907496B6002F095FCAE77A86170BD20
:20376000222002F0B5FB00BF393700089D390008A946000870B50B490446007902F082FCAD
:20378000267A0949054606F10802207802F0B2FE06710560E16832460530BDE8704005F095
:2037A000F7BD00BFA94600087537000800780249142202F09FBE00BFA94600082DE9F041A6
:2037C0001F490546007802F05DFC467C16F0020801D0BDE8F0812F79A9682D7B0A2F2CD81C
:2037E0000A2D2AD804463A46203006F0310605F0CFFD46F00206ED00FB006674E57484F8B3
:20380000128023752FB194F8203003F03F032A2B10D0A2690B4BE261636072B60A4B5B68B1
:2038200003F5BB434033A360204604F0DDFD62B6BDE8F081054B6360EFE7232002F048FB59
:203840005546000805420008001000E09D41000838B50A4C0A4A0B4BA26001222260A06903
:2038600009495D6805F0B4FB05F002FD0544E560201DBDE8384004F0B7BD00BF2800002042
:20388000AD580008001000E0C0E1E44C38B511490546007802F0F6FB044604F07DFD6B68E2
:2038A000A360A968E1602A7C62740023FE2022742077A374E376EB6863771B0606D401B977
:2038C00038BD2046BDE8384004F08EBD262002F0FFFA00BFE136000838B50A49054600781F
:2038E00002F0D0FB044604F057FD6B68A360AA68E260EA682046C4E90423BDE8384004F0B2
:2039000073BD00BF9D45000838B50D490446007802F0B8FB054604F03FFD6368AB60A368C8
:20392000EB6003B938BDE3682B6123696B6163692B7700236B772846BDE8384004F054BD59
:203940003937000838B50C490546007802F09AFB037D6A68C26143F001030375044604F001
:203960001BFD72B6054A236952681344A360204604F03AFD62B638BD213B0008001000E026
:2039800008B5034604481A7E42F004021A7604F0FBFC002008BD00BF5800002010B504465F
:2039A000064804F0F1FCD4E90231E27F42F001020B44E277A360012010BD00BF780700205B
:2039C00010B50446006AFFF773FC20B1A3681844A060012010BD264B26491A6822F002026B
:2039E0001A601A6822F010021A600B6894F8262094F827108A429BB21CD2208B0132D2B2BC
:203A000003449BB29142238384F8262018D8628B9A421BD8A28B9A4218D3002384F8243044
:203A2000154804F0B1FC6369E26813446361A360012010BD01229142238384F82620E6D949
:203A4000A36822691344A360012010BD94F8243094F825200133DBB29A4284F82430DFD8B3
:203A6000064B5B7A002BD8D11F2002F031FA00BF002401404C2401405C000020000000207F
:203A800010B50446054804F07FFCA3682269207D1344A36000F0010010BD00BFEC01002044
:203AA00010B582B000F11A0304460093437E828A044802F00BFEA38A002201336276A38290
:203AC00002B010BDC096000810B50446D4E9043184B022680391E1680293A36800930191A8
:203AE00063680C48D1B202F0F1FD842220780A4902F000FD2368C360636803610022042B96
:203B0000C0E91D2203D8054B436004B010BD1E2002F0DEF998960008C93A00088942000853
:203B200030B51049044683B00078342202F0E2FC2368C36063688361042B0FD800250A4B3F
:203B4000057503612268094963684160CDE900550748114602F0BAFD03B030BD1C2002F017
:203B6000B7F900BF213B0008B0710B00813A00088096000870B542681B498CB0D1F8040326
:203B800091F8E232019001EB82052C462846D5F84C51D4F8C840406C049501EB8205039417
:203BA00002902C462846D4F8D441D0F85061D5F858520093D0F8CC30806C0B9501EB82056C
:203BC0000A942C46D5F85452D4F8D041CDE90836D1F8D832097807900448CDE9054502F068
:203BE00075FD0CB070BD00BFF80100206097000870B54268144C1548236E217804EB820567
:203C000088B02E46AD6F766F079504EB820506962E462D6FF66E059504EB820504962E46B7
:203C2000D5F8FC50D6F8F860039504EB82052C46D5F8F450D4F8F0400094CDE9015602F025
:203C400045FD08B070BD00BFE005002080970008EFF3108272B6084B1968890709D51968FB
:203C6000064821F002011960196821F010011960036882F310887047002401404C24014008
:203C800038B512490546007802F0FCF9044604F083FBFFF7DDFF6B686361A360AB68236173
:203CA0002B7B84F827305A1C84F826202A69E260D5E90501EA6984F825206083A18303B9E3
:203CC00038BD2046BDE8384004F08EBB15450008C0F30312064B53F8223000F00F009A6816
:203CE000012303FA00F0104214BF1846002070475C980008F8B5877F044687B100210F46B2
:203D00000B46012523440131D87FFFF7E1FF6E00CBB200B12F43A27F9A42F5B2F2D8227C4C
:203D2000BA4207D0637C7B40DB43DBB282EA07010B4210D194F91C30257F6774002B04DB67
:203D4000013DEDB2FF2D1ED02577D4E902321344A3600120F8BDA17C22EA03023B401343B0
:203D600007292374E6D862180131A1740848D37404F00AFBFF232377D4E90232677413448E
:203D8000A3600120F8BD024804F0FEFADCE700BFE001002038B58369044690F82100A568B8
:203DA00003F00101FFF794FF814203D0A369E5610133A36163695B1B002B05DBD4E9023227
:203DC0001344A360012038BD94F82020236907481D4442F0010284F82020656104F0D4FAF2
:203DE000D4E902321344A360012038BDE4010020084B094A10B5044618791188FFF768FF21
:203E00000246064802F062FC2046BDE8104002F06DBD00BF70070020E005002088970008C3
:203E200000F00F02012300099340044A52F8202009B9536170471361704700BF5C98000896
:203E40002DE9F04128490646007802F01BF9F36804461BB901234367BDE8F08100250369F2
:203E60004567D6F80480BBB100F114076319043793F85400FFF72CFF57F8041CF86404EB5B
:203E80008503B1EB0801586B18BF0121FFF7C8FF23690135AB42E9D8B06804F02FFC0EA324
:203EA000D3E9002304F0CEFD0DA3D3E9002304F09FFC04F05FFF40082066F3680B4A5B001B
:203EC000C4E9163353681844A0602046BDE8F04104F08ABAAFF300800000000080842E41CC
:203EE00000000000389C9C41C93A0008001000E0084B017910B504461868FFF791FF2046CE
:203F000002F0F4FC044B05481988BDE8104002F0DDBB00BF70070020F80100207097000885
:203F2000074B020900F00F0053F822200123D16803FA00F0014214BF50611061704700BFA0
:203F40005C9800080000000000000000000000002DE9F04772B6424F424D3E68DFF80C81C6
:203F6000DFF80CA14EF660290BE0D8F804105A1AF02A37DC701A00285BDB62B6002A39DC41
:203F800072B62C686368002B4DD1206AFFF7C8FF6369013B39D0D4E90210B4F91020636189
:203FA00002444318C4E902322068D0F808C0A3EB0C02002AD9DB696828608A689A1A31EAD3
:203FC000220128BF0146084609688A689A1A002AF9DA2160D8F80410046063465A1AF02A2E
:203FE0006C60C7DD204B00215A609960596062B6BDE8F087D8F804209A1A002AC0DDD8F8E6
:2040000004209A1A002ABBDDF4E7204601F02AFFA3680028C8D16A682168296094428B6832
:20402000A3D16960A1E720469847A3680028BBD1F1E7524507DB95F90800002809DA01EBD9
:2040400009063E6099E7687A0028F4D12D2001F03FFF01F53B51203139604FF41672C1E709
:204060007C0700200000002010E000E0001000E0402BFEFF2DE9F04F90F800A0444985B016
:20408000504601F0FFFF434B81685A680446C068521A904203D95A68521A9042FBD8D4E946
:2040A00000823C4B218AD3F80490019204F11207002959D09B467B18039317F8016B08234A
:2040C000029333064D462BD5DBF80410A1EB09019529F9D972B64046DBF80490FFF720FF48
:2040E00062B6019BA9EB0505AB4242D97600DBF80410A1EB09014D29F9D972B64046FFF787
:204100000FFF62B6DBF80450DBF80410491B1729FAD9029B013B029323D033064D46D3D420
:20412000DBF80410A1EB09019529F9D972B64046DBF80490FFF7F4FEDBF80410A1EB0901F8
:204140001729F9D94046FFF7EBFE62B6019BA9EB0505AB420DD9029B013B4FEA46060293D0
:20416000DBD1039B9F42A8D10A4B5B68A360012207E040460021FFF753FE064B5B68A36071
:2041800000220548514605B0BDE8F04F02F09EBA19460008001000E0D096000838B504463A
:2041A000C068FFF7BDFEA37C627C14490133DBB282F00102012B49686274A37419D0042BB4
:2041C00005D8A268A3691344A360012038BDA368E2690B4D65601A44891A881CA26948BF52
:2041E000481D02EBA00219441144A160E261012038BDA268891AE161E4E700BF001000E056
:2042000005420008F8B50446C068FFF789FEA37C657C267DE7690133DBB285F00105B3428F
:2042200065742CD204EBD30103F0070291F8201041FA02F205F0010502F0010295423946BA
:2042400007D016E092F82020024102F0010295420FD10133DBB2B34204EBD30203F0070064
:204260003944EFD3A368074A62601944A1600120F8BDA268A3741144A1600120F8BD3946E1
:20428000F0E700BF014A000870B50446254804F07BF823694BB1002504EB85030135586CD4
:2042A000FFF73EFE23699D42F6D3A26D531EA36573B1D90709D5E16D8A4229D01A4A236E26
:2042C00052681344A360012070BD616F0129F2D1204604F061F81449A36D49682269C4F8A7
:2042E00080105B080121C4E91E1372B104F16406002504EB850356F8041B586BC9B2FFF70C
:204300008FFD236901359D42F3D30020606770BD054A5268C4F880205B080122C4E91E23BD
:20432000CCE700BFE8010020001000E0F0B5414B414D0409012653F8243055F824409D0929
:2043400005F1804505F5043503F01F032F6806FA03F300F00F003B432B6006FA00F00029AC
:204360004ED1B2420BBF032507251026142600230F274FF0010C09E0482E03D10CFA03F1CA
:204380000140216122600133082B14D020FA03F19A00C90707FA02FE05FA02F2F3D52168D0
:2043A000282E21EA0E0142EA0102E5D10CFA03F101406161E6E70F274FF0010C09E0482EFD
:2043C00003D10CFA03F10140216162600133102B15D09A0020FA03F1203AC90707FA02FE63
:2043E00005FA02F2F2D56168282E21EA0E0142EA0102E4D10CFA03F101406161E5E7F0BD70
:20440000012908D002290CD0002A0BBF0F250B251C261826ABE73AB1012A08D004252E469E
:20442000A5E700252E46A2E7082528269FE7082548269CE7409800085C98000838B50023C3
:204440002D4A1C4601E012F8013F834205D00134112CF8D12E2001F03BFD28490A68FE2B00
:2044600042F400720A6041D1254B4FF400021A60244B254D1A681A602A68244822F080522A
:20448000016822F44042043342F4004221F000512A60016019681E4A21F4006119601168CE
:2044A00021F470011160116811601A6822F460221A601A6842F460221A601A6842F4801289
:2044C0001A601A6842F001021A601A6842F008021A601A681207FCD41968094A41F0040184
:2044E000196013685B07FCD4204638BD184600220221FFF71BFFBBE75C9600081810024082
:204500000824014004240140041002402C1002402C24014010B504460079FFF78FFF28220A
:204520000346064920781C4601F0E4FF0123044A80F826300462426010BD00BF15450008DF
:20454000C13900086F2838B50CD804460A46EFF3108572B6012152B2FFF7E8FE85F31088A6
:20456000204638BD2A2001F0B3FC00BF10B50A490446007801F086FD2279817F914207D99B
:204580000346217B207A9C18FFF7DCFFE07710BD272001F09DFC00BFE136000810B508492E
:2045A00004462422007801F0A5FF217A034620791C46FFF7C7FF034B84F82100636010BD48
:2045C0009D450008953D0008F8B5012200F00F050E46040902FA05F5EFF3108772B600212A
:2045E000FFF7A4FE054B53F824301EB95D6187F31088F8BD1D6187F31088F8BD5C98000897
:204600006F2810B504D80446FFF7DEFF204610BD2B2001F05DFC00BF70B5044600210079B5
:20462000FFF7EEFFA3681A040FD49EB206F1140205460749207892B201F05CFF0560E368BB
:2046400043602369C360068270BD252001F040FC194600082DE9F04104462C2211490078C9
:2046600001F048FF94F808806768E668B8F10001054618BF0121F8B2FFF764FF0121287422
:20468000F0B2FFF7BDFFE8602369AB61B8F1000F0CBF01231123B74208BF43F020036B7416
:2046A000BDE8F0815546000870B5054614220B49007801F01FFFAE68B6FA86F104464909E7
:2046C0002879FFF79DFF94F91030E060002E14BF092201221343237470BD00BFA94600087B
:2046E000F8B5077C032F22D804461349007801F0C9FC0646102001F0CFFE0121054620794A
:20470000FFF720FF00212870207AFFF779FF6860207B0021FFF774FF2F73A860337C13F07A
:20472000060F06D143F0020333743560F8BDFEF761FEFEF75FFE00BFA94600082DE9F041C1
:20474000D0E90068F7B284B004461E49384601F099FCD4E904230393E36802920546A068FA
:204760000090019339461848324643465FFA88F701F0ACFF032F21D805EB870322695A61D6
:2047800062695A62207A0021FFF7DCFEEB19002183F85400207AFFF733FF07F10C0605EB57
:2047A000860607F110037060217D207B05EB8305FFF726FF686004B0BDE8F0811D2001F006
:2047C00087FB00BFC93A00089896000870B51449044682B0007801F055FC26798369B3421F
:2047E0001BD905460021207AFFF70AFF06F10803002145F82300207BFFF7A4FE2E44D4E9DB
:204800000235226886F83000CDE9003505486368114601F05BFF02B070BD1B2001F058FB26
:20482000213B000880960008F8B5124D43686E8B0446007A56B1063305EB8305FFF7FEFDD9
:2048400068602046BDE8F84002F050B80A33314605EB8307FFF7D4FE78606368207B3146A8
:204860001D44FFF76FFE85F83C002046BDE8F84002F03CB8F80100200F4B026870B51A80F6
:20488000D0E90112044600691A83598304F048FB0A490B4E0B4D04F04FFC00210346207BA1
:2048A000B361FFF7ADFE00212860FFF7B9FA2046BDE8704002F01AB8F80100200050C347FF
:2048C0002800002070070020B1B110B4014404464FF6FF7014F8013B434083EA0313DBB2B5
:2048E000000ADA0040EA03208C4282EA131380EA0300EFD110BC70474FF6FF70704700BF4D
:2049000010B50B789B060C464FF0010108D5FFF75BFE237803F0300343F00103237010BD97
:20492000FFF77EFA237803F0300343F00103237010BD00BF70B50446007CFFF7C9F9A37C30
:2049400004EBD30503F00706012195F82020B14078B10A43D2B285F82020E27C0133DBB2DA
:204960009A4209D9A268E169A3740A44A260012070BD22EA0102EEE7E06804F11101FFF747
:20498000BFFF637C034843F00803637403F0FCFC002070BD8007002038B50446007CFFF792
:2049A00097F9637C68B143F004036374A37C5A1C3F2BA2740FD8A368E2691344A360012091
:2049C00038BD5B07F2D50C4BA07463602046BDE83840FFF7AFBF0025E068E57404F11101D7
:2049E000FFF78EFF637C054843F00803637403F0CBFC284638BD00BF3549000880070020EA
:204A000038B5C57C0446CDB1427C93060AD4E269A3681149616003EB82030022A274A3604C
:204A2000012038BD007CEFF3108572B6012102F01002FFF77BFC85F31088E8E700F11101D0
:204A4000C068FFF75DFF637C044843F00803637403F09AFC284638BD99490008800700201F
:204A600070B582B016461D460A46009304469DF818100F48334601F029FE15B92369B342FF
:204A80000FD9637F227F0133DBB29A42637701D902B070BD074B5B7A3BB10023637702B0B9
:204AA00070BD6369B342F8D2EBE7212001F010FAB0960008000000202DE9F04F077C17F0E3
:204AC000060F83B064D00646B80764D5994633688846197B986801F002011446FFF7A0F95D
:204AE00017F00103019368D104F1FF3A35685FFA8AFA002C4CD009EB0A03009309F1FF3B26
:204B00001BF8014F4FF008094FF0000A19E0A868FEF70CFC04F080016868FFF781F9A868CE
:204B2000FEF704FC4FEA4A022878D1B2FFF7D0F8640041EA0002B9F10109E4B25FFA82FA6A
:204B40001CD0287BC20704F08001E0D46868FFF767F9A868FEF7EAFB4FEA4A022878D1B21C
:204B6000FFF7B6F841EA0002A86864005FFA82FAFEF7DCFBB9F10109E4B2E2D1B8F1000F9A
:204B800001D08BF800A0009B9B45B9D1019B03BB03B0BDE8F08FFB07FAD5C7F3C001F06847
:204BA00007F00807FFF73CF9B7FA87F1F068490903B0BDE8F04FFFF733B9F068C7F3C001A5
:204BC00004F1FF3AFFF72CF95FFA8AFA3568002C91D107F00807E7E7F0B51249124F87B018
:204BE0000546007801F04EFAB9230446ADF8143000697E6805AB02220121FFF75DFFE18AA8
:204C00009DF815207B680948CDE90221627E0192A28A296800929B1B324601F057FD07B0D1
:204C2000F0BD00BF0D370008001000E0B8960008F0B5474B04460D4693E8070085B001AB3F
:204C400003C320691A70012101AB0922FFF734FF627E9DF8061002F11A0311F0F000234466
:204C600017D0F02815D0A118FF221A71DA709A705A708A76637E0533DBB22D2B637603D91A
:204C800029462046FEF70CFF237E9B0743D405B0F0BD9DF8080010F0F00639D19DF80A70D7
:204CA00017F0F00601D0F02EDDD19DF80B60902ED9D19DF80C6026F08006202ED3D84FEA23
:204CC000870C22440CF0600C00F01F004CEA000001F01F019DF805C082F81AC041EA4711EC
:204CE0009DF809209DF807701871D9705F709A70637E0533DBB22D2B63761FD81E2E22D92A
:204D0000E38A0133E382134803F03EFB05B0F0BDF02EA8D1C2E7204603F03EFB237E23F01E
:204D20000403237672B60C4AE36852681344A360204603F059FB62B605B0F0BD29462046FA
:204D4000FEF7AEFEDAE7023E1E2EDCD99CE700BF5096000858000020001000E02DE9F043CF
:204D600007782F49054687B0384601F08BF9AE6804467EB103F010FB6B68A360AB68E3600E
:204D80000022012362612383204603F02DFB07B0BDE8F08303F000FB224D26762D23ADF826
:204DA000143031462069D5F8048005AB0222FFF783FEB926D5F80490212501E0013D14D08A
:204DC00005AB2069ADF8146002220121FFF774FE9DF8153033F0800307D0202BEED83946EC
:204DE0002046FFF725FF013DEAD1637E8BB99DF81520E18A0391CDE90132A38A00930A4851
:204E0000A9EB08034246394601F060FC07B0BDE8F08339462046FEF743FE637EE7E700BF47
:204E20000D370008001000E0B896000810B504460549007801F026F9A36822790021BDE88F
:204E40001040FFF739BE00BFA946000870B5057809490446284601F015F9A6682479334690
:204E600022460121FFF728FE3346224629460348BDE8704001F02ABCA9460008A896000888
:204E800010B5034C201D03F087FA0023236010BD2800002000000000F8B5054601F026FD86
:204EA000394B00211868FEF7BBFF2B69002B59D0364E3368002B52D0354C0021802204F191
:204EC0004400216404F066FB2DA3D3E90023D6E9040103F08DFC03F04DFF04F1400304F159
:204EE000C00243F8040F9A42FBD1238B83B10026284B37468022184643F8047C002104F032
:204F000049FB228B01360346964203F18403F1DBD5E9032369686869A4F8EC22A4F8F8320B
:204F2000A4F8E41203F0FCFF1B4904F005F90346A869C4F8F03203F0F3FF174904F0FCF836
:204F4000EB69C4F8FC322B6AC4F800330023C4E9B533AB68A4F8EE32C4F8F402F8BDFEF7AC
:204F600077FCA9E7094A0A491268A1F8EE32012AF4D1BDE8F840FFF783BF00BFAFF300806F
:204F8000000000000088C3407007002028000020F8010020C002002000007A44F8B5836856
:204FA0003BB31A4E32680446FAB1D6E90467184D6268A5F8DC224FF0000CA5F8E032C5E970
:204FC0000467D5E9022330463946A5F8DEC203F057FA0022002303F07DFE08B9C5E9026782
:204FE0002046BDE8F84001F081BCFEF731FCA368DBE7064A06491268A1F8E032012A00D092
:20500000F8BDBDE8F840FFF73BBF00BF28000020F801002000000000F8B58368002B6CD0EF
:20502000434F3B680546002B64D0424C00263146802204F1F000C4F8EC60A66604F0AAFA33
:205040003146802204F16C0004F0A4FA32A3D3E90023D7E9040103F0CBFB03F08BFE04F1A1
:20506000EC0304F5B67243F8040F9342FBD16868012100F0AFFD291D0EC95B00C4E95D33EE
:20508000A4F870112869A4F8662003F037FB24A3D3E9002303F0D6FC23A3D3E9002303F018
:2050A000A7FB03F067FE4008C4F87C016A69224B22495B68A16051000022C4F880112266BE
:2050C000D5E906178EB206FB000003442E6A1C48A4F86420A4F88411E360A4F88671A4F8AE
:2050E0007221A4F8886103F07FF92846BDE8F84001F0FCBBFEF7ACFB97E70E4B0122A3F809
:20510000722101F0F3FB0A4B1B68012B00D0F8BDBDE8F840FFF7B4BE000000000088C340C4
:205120000000000080842E4100000000389C9C4128000020E0050020001000E0295C000881
:20514000E40500202DE9F04F8022044685B0B648B64E0D46002104F01DFA4FF480720021F9
:20516000B34804F017FAB34B04EB441003EB800306F1040CD3F8C420CDF80CC067010CF1D1
:205180007C0B3146A046D2F1000E0EF01F0E02F01F03A84C58BFCEF10003034404EB830392
:2051A0000132D3F8C83041F8043F5945EBD1DCF80000DCF87C308342444680F2C5809D4BE1
:2051C0009D495A8BA1F1800342B1C0F5805043F8040B8B4207D01868002AF6D1404243F85B
:2051E000040B8B42F7D1DCF80000002A40F0B180002D40F0ED80914BA3F1780500E0286885
:2052000003F08CFA044668688A4603F087FA2AF00047064621F00048894620463246394685
:20522000434603F057FD009418B9344600964746CA46AE68304603F071FA21F00049009AAE
:205240003B46494603F064FD20B12046514603F069FD064645F8046B784B9D42CFD1754EC6
:205260007748D6F8F012DFF8C8A103F065FF03F067FA0446B6F8EE020D4603F055FE0146EC
:20528000704803F059FF01464FF07E5003F054FF03F056FA22462B4603F0F4F802460B46DD
:2052A0002046294603F0CEFB039F04460D4656464FF000084FF000093B46D3E90030C01AAC
:2052C00003F02CFA42464B4603F0DCF822462B4603F08EFA0437804689465F45E6E90289B3
:2052E000EAD1544BDFF868B1D3F8F442204603F027FA804689464FF07E50214603F05EFD92
:2053000003F01EFACDE9000100240025FAE902234046494603F06CFA22462B4606460F4692
:20532000DDE9000103F064FA02460B463046394603F0A8F8D34504460D46CAE90045E5D1D1
:205340003B4805B0BDE8F08F3A4B5A8B002A3FF44FAF002D5AD13C4D039E05F1080405F5AE
:20536000807A01E056F8040F03F0D8F9E5E90201AA45F7D12F4BD3F8F452284603F0E0F9E0
:20538000804689464FF07E50294603F017FD03F0D7F9CDE90001A346DBE902234046494694
:2053A00003F026FADBE9002306460F46DDE9000103F01EFA02460B463046394603F062F8A5
:2053C000EBE90201DA45E7D1194805B0BDE8F08F18491E4B3A1901EB8202C43203F17C01F1
:2053E00001E053F8040B42F8040F8B42F9D111490A8B3B1901EB8303013A0021A242C3F8DE
:20540000C41052D00A4805B0BDE8F08F094A0F4B274402EB8701002501F1C402C1F8C45034
:2054200003F17C0118E000BF600000205C000020E0000020F8010020E0000020D800002037
:2054400084F9223E00007A44D800002064000020D801002053F8040B42F8040F9942F9D1F0
:20546000244B1B8B013BA342CCD1224B1A6CC3F804233046514201F01F0102F01F0358BF3F
:205480004B421C4901EB830301325B6C40F8043F5845EFD1002201F140030A6456F8042F90
:2054A00043F8042F5E45F9D1ACE7124B1A6CC3F804233046514201F01F0102F01F0358BF74
:2054C0004B420C4901EB830301325B6C40F8043F5845EFD101F1400356F8042F43F8042F82
:2054E0005E45F9D1034A04480023136405B0BDE8F08F00BFF8010020E0000020000000005B
:205500002DE9F04F7C4C678B238B83B00546002F40F0A680002B00F0DD803946631893F8CE
:205520003C00FEF7D5FB268B88400131B14247EA0007F3DBDFF8D0A1DFF8D08177B1D8E96D
:205540000023DAE9040102F09BFF67A3D3E9002303F0D4FB10B903B0BDE8F08F002E00F06B
:20556000BD80002604EB86030021D86AFEF758FC238B01369E42F5DB1827002B00F0AE8087
:20558000002604EB86030121D86AFEF749FC218B01368E42F5DB002900F0A08005EB8101A1
:2055A0002B461A68520043F8042B9942F9D1002604EB86030021D86AFEF732FC238B01368E
:2055C0009E42F5DB83B12E1F00216318013193F83C00FEF77DFB56F8042F238B002818BF6A
:2055E000013299423260F0DB013FC6D1002B75D004EB87030121D86AFEF712FC218B013735
:205600008F42F5DB002969D005EB81012B4653F8042B100248BF42F07F428B4243F8042CE6
:20562000F5D1002604EB86030021D86AFEF7F8FB218B01368E42F5DBDAE90423C8E900237A
:2056400051B12E4A05EB81012B6852F8040B1B1A45F8043B8D42F7D1012003B0BDE8F08F32
:20566000002BF9D00FF28809D9E90089031FDFF898A001934FF0000B0BF10605DAE9046715
:2056800004EB850508E0DAE9040102F0F9FE42464B4603F01FFB30B16868FDF709FE3246AE
:2056A0003B460028EFD11649228B0B6823F002030B600B6823F010030B60124B01991B6801
:2056C0009BB241F8043F0BF1010B5A450191D3DC0120C2E7DFF830A0DFF83080DAE9042337
:2056E000C8E90023B8E700BF9A9999999999993FFCA9F1D24D62603FF80100200405002011
:20570000002401404C24014028000020F00100202DE9F04F604F87B0804601F0E7F83B68A6
:205720000BB9FEF795F85D4E748B0023C6E9C433C6F81833C6F80C33002C40F09A80D8F864
:205740000450002D00F09580338B93B1254606F1C8038022184643F8045C002103F01AFFCC
:20576000328B01340346A24203F18403F1DCD8F80450202DA8BF20254FF00008082DB8BFB2
:2057800008254446CDE90244CDE9044402A8FFF7B7FE0028FAD0B6F818C0BCF1000F1DD0E2
:2057A0003E480DF1080E0021D0F8C4305EF8049B5A4202F01F0203F01F0A58BFC2F1000ADE
:2057C00001EB4112524406EB8202013101336145C2F8C89000F184000364E5DB08F10108C3
:2057E0004545CFD1BCF1000F43D02D4CC5EB857804EB85044FEA88084FEA85090CEB4C1B24
:205800004FF0000A04EB08004FF0000E7545C8BF034608DD53F8041F42688A4284BF4160C4
:205820001A60A342F6D10EF1010E754500F10400ECD10AF1210ADA4504F18404E2D1194CEE
:20584000A4F51470043D08F1100804EB8C0C484454F8042B08EB000353F8041F83420A44D4
:20586000FAD192FBF5F2A44500F1840044F8042CEED13B68012B0CD0D6E9C53231880A48F4
:20588000CDE90032D6E9C32300F020FF07B0BDE8F08FFFF7F5FAEFE728000020F801002075
:2058A000BC020020040500206897000870B50C4C0C4BA5690C495E68284603F089FB03F005
:2058C000D7FC0644E660284602F03AFF02460B46D4E9040102F0D6FDC4E90401012070BDAC
:2058E00028000020001000E0C0E1E44C704700BF10B48268D0E90034EFF3108172B6DBB266
:20590000012B07D0022B0BD0D2B2227081F3108810BC704792B2228081F3108810BC704762
:20592000226081F3108810BC704700BF70B40D4A03780D4C126825780133DCB202EBC402BC
:2059400004E052F8084B8C4207D00133DBB29D421646F6D8002070BC70470370706870BCDD
:20596000704700BF8C0A0020880A0020054A0649136810B4013B0C680460086010BC1360B1
:20598000704700BF140B00207C0A002001790078FEF736BE10B5044602F0FEFC04F10C00D5
:2059A00002F0FAFCE36933B100211A461B68C2E90011002BF9D10023238484F82230E3613E
:2059C00010BD00BF10B504468069FEF7A9FA94F82C30A26883F00103D9074CBFE168216984
:2059E00084F82C305B070A4402D4A260012010BD6369D11A0029F8DB024A62601A46A26036
:205A0000012010BD455F000838B50446A0F13405284602F0C1FC237A54F80C2C002144F850
:205A20002C1C44F81C1C54F8201CD8064CBF521AA2EB5102002A03F0140343F00803C8BFF4
:205A400052420021237244F8201C686A44F80C2CFEF7E6F9217ACB0605D409E0036844F895
:205A6000083CFFF783FF54F8080C0028F6D138BD286A01F00401FEF7D3F9F4E770B5044693
:205A8000C06958B10E460025D0E900233146E261C0E900559847E0690028F5D1BDE870405C
:205AA000014802F071BC00BF100B002008B5037DDA0709D523F00503817D417543F004037F
:205AC00003750C38FFF7DAFF002008BD38B50446007BFEF7FDF894F8205088B1ED4305F060
:205AE00001058DB994F82230013B13F0FF0315D0A268616984F822300A44A260012038BD4E
:205B000005F00105002DEDD00F49A26994F8213084F82230C4E90112012038BDE06990F8EB
:205B20002030DA070DD523F0050394F8231080F8211043F0040380F82030FFF79FFF2846CB
:205B400038BD284638BD00BF4D5B000810B50446007BFEF7BDF8A36822691A4494F820307A
:205B600030B1DB4303F0010333B1A260012010BD03F00103002BF8D1034BA26163602046F6
:205B8000BDE81040FFF7A2BFCD5A000810B50446074894F8203043F0040384F8203002F058
:205BA000F3FBA368A2691344A360012010BD00BF100B002010B504460548A368A2691344D6
:205BC000A36002F0E1FB607F00F0010010BD00BFF80700202DE9F041124E338CA3B18046F9
:205BE0000F4606F122050024012F06EB04030DD0297806EB84030134D86BFEF711F9338CBA
:205C0000A34205F10205EFDCBDE8F08193F85C00FEF75EF829892880B1EB080118BF012197
:205C2000E7E700BFE005002070B5874C238C4BB1002504EB85030135D86CFEF771F9238C0B
:205C40009D42F6DBD4F87831226E013BC4F87831002A00F08A803BB1DA0700F19880B4F848
:205C60007231012B40F08A80D4F8EC50774A6B4203F01F0305F01F06D2E9040158BF5E42FF
:205C80006FA3D3E9002302F0B3FD03F073F804EB86060135C6F8F000A36ED4F87821B4F892
:205CA0008861C4F8EC50584200F01F0003F01F0158BF414204EB810102EBD2720133521075
:205CC000012ECA66A3663FD10021D4F87431C4F878310846A4F88811FFF77CFFB4F8700144
:205CE000B0FA80F031464009FFF774FF584AD4F878315268D4F87421D4F88011D21A8A421A
:205D0000C0F28480994240F383801B0293FBF1F3C3F580734F49D4F87C21B4F884014C4DB7
:205D200083F3080302FB00F031F813304A496D6803FB00F381FB0301DB172A44C3EBA113EE
:205D40001344E360012070BD444802F025FB00210846FFF73FFF00230822A4F86420A4F811
:205D60007231C4F87831012070BD3D4B1879FDF7AFFF012854D0D4F878316CE7384B1879E9
:205D8000FDF7A6FF01283FF46FAFD4F87831B4F88621520093FBF2F102FB1132002AA9D181
:205DA000D4F8EC50294A6B4203F01F0305F01F06D2E9040158BF5E4221A3D3E9002302F080
:205DC00017FD02F0D7FF04EB86060135C6F8F000A36ED4F87821C4F8EC50584200F01F0071
:205DE00003F01F0158BF414204EB810102EBD2725210CA665A1CA266D4F87831D4F874216E
:205E0000D4F88011D21A8A42BFF67CAF13027DE70F4AD4F87C3152681344E360012070BDA0
:205E20000A4907A3D3E90023D1E9040102F0E0FC02F0A0FFD4F8783120660CE7AFF3008058
:205E4000000000000088C340E005002028000020001000E08CA80008D34D6210E4050020A3
:205E60007007002038B5C46A034614B94461204638BDB4F90810626890F83C002568DD623B
:205E800019828D18C106DD6010D598686189596102449A60227B12F0010F9A6A12D111440A
:205EA00099622046FFF762FD012038BD61899869024448009A619A605861227B12F0010F40
:205EC0009A6AECD0891A586A9962FEF729F8E8E708B5014672B6014803F0B2FBA00A0020DE
:205EE00038B50446006AFEF71BF8144A63695568E269013B1544DA07636102D5A560012090
:205F000038BD6BB1E168A369B4F910200B440A44591B0029A361E260F0DBA360012038BDDA
:205F20002046FFF79FFF0028EAD0A3685B1BE7D5034A9342E2DA1920FFF7CAFF001000E082
:205F4000402BFEFFF8B5476A002F7AD0BE683B684362351E18BF0125044629468069FDF7AE
:205F60005FFF3846FFF702FDAEB1216AB14212D9E269002A54D1606A94F82C3045F0020500
:205F8000002864D1A268606103F010032B4384F82C30B31832E094F82C30B6FA86F183F02E
:205FA0001002C2F300124909914214D0E26992B1A368616A45F004051A44002937D194F842
:205FC0002C10626101F01001294384F82C10A90723D533440EE0606AC0B1002142686261C6
:205FE00045F0040503F010032B4384F82C30A1B1A3683344991A00290FDA216A154A6260D2
:20600000891BC4E9023621610120F8BD03F010032B4384F82C306061F8BDA2600120F8BD05
:20602000A368616A45F006051A440029C7D04968521A002A08DB0A4694F82C3005F00201D2
:20604000CDE71620FFF744FF1420FFF741FF0221C4E700BFC559000808B50D20FFF738FFE9
:2060600008B5054A537A23B1022B1CBF0023537208BD0220FFF72CFF0000002008B5072077
:20608000FFF726FF08B5084B1B78834209D9074B1B6853F830208A4203EBC00001D1406837
:2060A00008BD0B20FFF714FF880A00208C0A002070B50C4905460078FFF7E4FF72B690F8B9
:2060C0002030DB0701D462B670BD00F10C060446304602F061F96B686361304602F084F9E9
:2060E00062B670BD3965000838B50F4905460078FFF7C8FF044672B6FFF74CFC012384F8A0
:2061000020306B68A360AB68A36123B9EB6884F8223062B638BD204602F066F9EB6884F8B2
:20612000223062B638BD00BF3965000838B5174905460078FFF7A6FF044602F02DF96B68BB
:20614000A360AB6863612B7B84F82130CBB12A69226184F822306B690D4A6260002B14BFA7
:206160000323022384F82030287E0A49FFF78AFFEB6984F82330E0612046BDE8384002F0B7
:2061800033B984F82030E36138BD00BF5D6500084D5B00083965000838B50E490546007828
:2061A000FFF770FF0C4904462879FFF76BFFEFF3108272B6A36B4BB9C369084D04F1340181
:2061C000C4E90D35C16182F3108838BD1A20FFF77FFE00BF8165000839650008095A000841
:2061E00010B504460A490078FFF74CFF626872B643694BB990F83C30826023F0080382610B
:2062000080F83C3062B610BD1720FFF761FE00BF8165000810B5044609490078FFF732FF7C
:206220006368002B14BF0223002372B690F83C2022F00202134380F83C3062B610BD00BF4D
:2062400081650008F8B51D4905460078FFF71AFF044602F0A1F8636A6BBB2E7994F82C50F4
:20626000A069371E18BF01273946FDF7D9FDB6FA86F385F010025B09C2F30012934201D0F7
:20628000E3692BB905F010053D4384F82C50F8BD0B490C4A4968626005F010023A4342F0C4
:2062A00004020B4484F82C206361A3602046BDE8F84002F099B81320FFF70AFE01660008D4
:2062C000001000E0455F000810B5074904460078FFF7D8FE72B6436A1BB96368036262B68E
:2062E00010BD1520FFF7F4FD0166000838B5104905460078FFF7C6FE044602F04DF86B682F
:206300005B00DBB2637783B113F0C00F0DD143F00103084A6377536803F56A436033A3607E
:206320002046BDE8384002F05FB81120FFF7D0FD65660008001000E0F8B5EFF3108572B6CE
:20634000094A106868B10949094C0B682668076817600133B34288BF23600B6085F310885D
:20636000F8BD0E20FFF7B4FD7C0A0020140B0020180B002038B5274904460078FFF782FED6
:206380000546FFF7D9FF6368436023894381002B3DD0E36803810023037372B695F83C3045
:2063A00003F00101C3F34002914205D0027B42F0010283F0010302736A69B2B913F008025F
:2063C00003D0FFF7D3FA62B638BDE96A85F83C300260A9B12B6B186028632846FFF742FDE6
:2063E000284602F001F862B638BDEA6A85F83C30002303603AB12B6B1860286362B638BDE3
:20640000C5E90B00E9E7C5E90B0062B638BD1820FFF75EFD8165000870B51D490546007868
:20642000FFF730FE0446FFF787FF6E684660AB68836072B6636A0022026023B1A36A18602E
:20644000A06262B670BD94F82C305A07C4E9090016D443F004029B07666184F82C200AD4C4
:20646000204601F099FF0B4B2046C4E9013601F0BBFF62B670BDA3689B1B002BF9DBEFE707
:206480006269921B002AE4DA1420FFF721FD00BF01660008455F000838B50A4D0A4B2C684D
:2064A000211899420BD8C31C23F0030302462344002120462B6003F06DF8204638BD102049
:2064C000FFF706FDEC07002000FE002038B5074C236843B90568E8B2C000FFF7DDFF044BE3
:2064E00020601D7038BD0920FFF7F2FC8C0A0020880A002070B50D4B1C788442034611D91B
:2065000010460B4A1DB2126852F8356002EBC30446B9084B1B882BB942F83510FFF7BCFFEB
:20652000606070BD0A20FFF7D3FC00BF880A00208C0A0020780A002008B5242200780449EE
:20654000FFF7D8FF034A044B4260036108BD00BF396500088D5B0008AD5A000810B507498E
:20656000044624220078FFF7C5FF217A034620791C46FDF7E7FF207310BD00BF5D650008B7
:2065800070B505461A4900784022FFF7B3FFEE68002ECCBF0421002180F83C1004462879A2
:2065A000FEF72EF820620021287AFEF729F8114B60624FF040421988A2622A69E2610023E8
:2065C000C4E90B3391B90C4B19780F299CBF1021197042B9002E06DA94F83C3043F010030A
:2065E00084F83C3070BD054B636070BDFFF734FD81650008780A0020800A0020E15E00089E
:206600008168003938B518BF012104460079FDF7F7FF3022054610492078FFF76BFF8561F1
:20662000D4E90232003B18BF012312B143F010035BB20A4A80F82C3023691288C361002388
:20664000C0E9093332B9064B1A780B2A9CBF0C221A7038BDFFF700FD01660008780A002046
:20666000800A002070B50546202200781449FFF741FF6B68134A4260052B1ED80646A3B11B
:206680000124224605EBC20315F832005968003918BF0121FDF756FF6B6832190134E4B254
:2066A00001339C42D0722246ECD30022064BB28349F27C21B161736170BD1220FFF708FCA0
:2066C00065660008B55B0008FC0700200FB42DE9F04FDFF80C8285B098F80030DDF838A08D
:2066E000DBB223B105B0BDE8F04F04B07047DFF8F4B1012288F800209BF800100FACC9B21D
:206700000394DFF8E49199F80060F6B2B14205D389F800301E468BF8003019469AF8015028
:20672000AB19602B2F4640F2CC80591A602907D9002388F8003005B0BDE8F04F04B0704764
:20674000002789F800709BF80010C9B261480090761A3246014402F0B5FE8BF80070F3B240
:206760005D4A89F80030136843F0800313609AF801502F46009B052D03EB060B65D99AF829
:2067800002109AF80030DAF804708BF80230033D5D440BF10303002953D09D42C0F0968056
:2067A0007A180196924630E054F8041B01F120027F2A22D901F58052B2F5804F18D301F586
:2067C0000022B2F5001F0ED301F18062B2F1805F04D30A0F62F07F0203F8012B4A0D62F007
:2067E0007F0203F8012B8A0B62F07F0203F8012BCA0962F07F0203F8012B01F07F0103F829
:20680000011B57451CD09D4260D317F8012B052A3CD0C9D9063A012A58D8A446E91A5CF8CE
:20682000086B8E4228BF0E4603F8016B324661681846644602F0ACFD574503463344E2D180
:20684000019EA3EB0B03DF1CFDB2244B009A1B789555FC1E8BF8013021465846FEF734F8D9
:206860005F442E44020A7E230BF80420F6B207F8020C07F8013C184A89F80060136843F04D
:2068800080031360002388F8003054E754F8040B0278591C6AB18D4202D815E08D420BD047
:2068A00001F8012B10F8012F002AF7D1CA1A013AD2B21A700B46A4E7EA1A013AD2B229464E
:2068C000F7E7044B009355E70022F2E70520FFF7FFFA00BF840700200C440040540000203F
:2068E000680A0020E5070020E407002010B5D0E9044186B003680491C1680394D0E9010478
:2069000040F23312CDE9000402910348D9B2FFF7DDFE06B010BD00BF78960008F8B5144DA6
:20692000436804460021007AEF18FDF70BFE666887F85C000021207AFDF762FE0E3605EBD7
:20694000860670606368217D207B123305EB8306FDF756FE70606368D4E9046205EB4301DF
:2069600020464E85BDE8F8404A86FFF7BFBF00BFE00500200D4B026870B51A8042680C4E74
:206980000C4D0446C0681A8402F0CAFA0A4902F0D3FB01210346207AB361FDF7D3FD28714F
:2069A0002046BDE87040FFF7A1BF00BFE005002028000020700700200050C34770B5067826
:2069C000154982B005463046FFF75CFB044672B690F82030DA070AD523F00503297980F8DA
:2069E000211043F0040380F82030FFF747F8204601F0D2FC04F10C0001F0CEFC002294F8A0
:206A0000213084F8202062B6044800923146FFF75DFE02B070BD00BF396500084897000880
:206A200070B504780B4982B02046FFF72BFB72B690F82050866962B6007BFDF749F933465C
:206A40000090C5F3400204482146FFF73FFE02B070BD00BF5D6500084097000810B504783E
:206A60000D492046FFF70EFB72B690F83C30826A13F0100F436914BFD21AA2EB5302002ABA
:206A8000B8BF524262B60548214602F14042BDE81040FFF71BBE00BF816500083897000862
:206AA000034602485A681978FFF710BE20970008D0E90031EFF3108272B6DBB2012B08D056
:206AC000022B0DD00978C9B282F310880748FFF7FDBD098889B282F310880448FFF7F6BDD6
:206AE000096882F310880148FFF7F0BD28970008D0E9001240F6C93399420DD8D2B25018BC
:206B000040F6CA33984202D9C1F1CA02D2B2054B05480B44FFF7DABD024B034800220B4409
:206B2000FFF7D4BD8898000870960008064A0749074B526809681B680648914294BF194625
:206B4000591CFFF7C3BD00BF001000E0FC0A0020000B002008970008024B03485968FFF754
:206B6000B5BD00BF001000E01097000810B50A4A0A4B11885B7A0A4A0A48126882B0A1F185
:206B80000A04003918BF0121003B009418BF0123FFF79CFD02B010BD780A0020000000201B
:206BA000F007002018970008124B1888E0B1013830B41AD0104A114B15681C7800222B4618
:206BC00019460132234482420B60F9D102FB04540B4B0C4A0C491D6000232360126809685F
:206BE0000A4830BCFFF772BD7047034B1D682C46EEE700BF780A0020840A0020800A0020A8
:206C00007C0A0020180B0020E807002080980008F8B5184E338853BB174A1378032B9CBF0B
:206C2000042313701A46154B19680546144800240B461F461344834212D80134B4F5805F25
:206C4000F7D12746581AFFF727FC0E4A0E4B10601C603780FFF7A8FF0C4B2A681A60F8BD6B
:206C600014B13B46A7B2EDE70F20FFF731F90C20FFF72EF9780A0020800A0020EC070020AA
:206C800000FE0020840A0020E8070020F00700202DE98048B84BBBB00CAF5B687B62B74A5A
:206CA00092F90830002B00F06C84B34B5B683B6172B692F90830002B40F0358562B6AE4B98
:206CC0003A695B689B1A7A6A1A443A62AB49AC48012200230A7287F8383001F04DFB48B3F6
:206CE000FF2387F8383007F13809A6494846FEF71DFE0446F0B1237F772B00F25F8100269E
:206D00003546637F2A4601352B4113F0010340F04D81217F62690A44052D935506F17C06B3
:206D2000EFD10131217748469649FEF7FFFD04460028E0D1944801F01FFB58B3FF23934C55
:206D40008D4E934D87F8383007F1380921464846FEF7ECFDF0B190F820305A07F6D5D6F812
:206D600004C072B690F8202090F8213022F0040180F8201062B697F83810CDF800C02846E5
:206D800002F00102FFF7A2FC21464846FEF7CEFD0028E0D17F4801F0EFFA002800F0E081C2
:206DA000FF2307F1370A87F83730C7F828A07A49B86AFEF7BBFD0446002800F0D181237D25
:206DC000DB0740F1CD81E369002B40F3C981002207F13805C5E90222BA636A60A369002B17
:206DE00000F09D8193461646A31993F83000FCF76FFFA369B0400136B3424BEA000BF3D845
:206E00005D4A5068654AD2E900124FF00009914508BF8842804603D210F1FF3849F10009D2
:206E2000BBF1000FC3D1B8EB010069EB0201FB6102F088F85A4902F0CBF85A4902F07CF9D8
:206E400002F036FAFB697862002B72D0002606F10803002154F82300FCF7E2FFA369013696
:206E6000B342F4D81826002B63D04FF0000A0AF10803012154F82300FCF7D2FFA1690AF10C
:206E8000010A5145F3D8002953D005EB81012B461A68520043F8042B9942F9D14FF0000A2B
:206EA0000AF10803002154F82300FCF7B9FFA3690AF1010A5345F3D8A3B1AB464FF0000A8E
:206EC00004EB0A030AF1010A93F83000FCF700FFDBF80020A369002818BF013253454BF8F7
:206EE000042BEDD8013EBED11BB306F10803012154F82300FCF794FFA2690136B242F4D8E7
:206F0000BAB105EB820255F8043B1E0248BF43F07F43AA4245F8043CF5D1002505F1080395
:206F2000002154F82300FCF77BFFA3690135AB42F4D8114B19495A680A607B6C1A48002204
:206F40004A60217B05933B6C0493FB6B0393BB6BCDE90183A38B009397F82430FFF7B6FB6E
:206F6000E369013BE361002B7FF421AF237D23F0010323751BE700BF001000E000000020B7
:206F8000F807002065660008100B00203965000848970008EC010020213B0008700A00202C
:206FA00000007A44C0E1E44C889600082244107BFCF78EFE031E18BF0123AAE6637F656950
:206FC000BD6203F0FE0B84F81DB001267C624BFA06F313F0010333D1AB670136062E05F18C
:206FE0007C05F4D1D7E90942D2F86802D2F8F43097F838101546926F0290D5F8EC0101900E
:20700000D5F8700100909048FFF760FB6269657F0120773206460021A2F1780303F8011F6A
:207020009A42FBD106FA00F301300628C2F8011025EA030502F17C02EED16577217754E696
:207040002C782846012302E00133782B14D010F8012FA24259B2F7D077290DD02C467620EA
:2070600014F8778F14F801CDC4454FFA80FE06D10138F7D1A867B0E70020A867ADE7BEF164
:20708000010F5FFA80FCF7D015F800A0EC5C544500F02483D81C6045EEDAACEB03030133ED
:2070A0008C45C3F38708C0F25D860020864601E014466A5CA24201F1010118BF013049B25D
:2070C000964418BFC0B28C455FFA8EFEF0DAF045D2D803EB4303C3F387037345CCD3431C04
:2070E000C3F347037345BEFBF3F0C5D849F27C2303FB00F001F012FB544B002201F078FBB4
:2071000002460B464EA1D1E9000101F09BFC504B002201F06DFB01F02DFEA8675DE74D4A88
:2071200050684D4AD2E900124FF00009914508BF88428046BFF477AE18F1FF3849F1000963
:20714000B8EB010069EB020101F0FCFE434901F03FFF434901F0F0FF02F0AAF87862E8E6E6
:20716000404801F009F9D8B1FF233F4DDFF8108187F8383007F1380900260AE0A36F7BB187
:20718000D4F88030B4F87C20217B4046FFF79EFAA66729464846FEF7C9FB04460028EDD188
:2071A000324801F0E9F800B3FF23314C314D87F8383007F1380921464846FEF7B7FBA0B1A6
:2071C00090F8262090F827309A42F4D172B690F8262090F82730934200F0748262B6214652
:2071E0004846FEF7A3FB0028EAD1234801F0C4F8002863D0FF23214E87F8373007F1370A68
:207200004FF0000B31465046FEF790FB0446002854D0E37FD807F5D572B6E37FD4F8088018
:2072200023F00103E37762B6A37F032BEAD8DFE813F02F020E02E101290000BFAFF30080BC
:2072400000000000389C9C41309700080000104000004E40001000E0700A002000007A4488
:20726000C0E1E44CE8010020C93A00085C00002015450008A09600087807002039370008F6
:2072800090960008A7F838B0A06997F8375007F1380302220121FDF70FFC3A8F009552BA38
:2072A000204602F00603414692B2FDF7D9FB31465046FEF73BFB04460028AAD1B34801F0C9
:2072C0005BF890B3FF23B24DDFF8F08287F8373007F1370A022629465046FEF727FB044601
:2072E00018B3237E5907F6D5DA0740F1E68101F053F840F62D0326763B87206907F13803C2
:2073000002220021FDF7D8FB72B6D8F80420E3681344A360204601F067F862B629465046CD
:20732000FEF704FB04460028DBD19A4801F024F818B3FF23984C994D87F8383007F1380975
:2073400021464846FEF7F2FAB8B1437C1B07F7D572B6437C23F00803437462B6C27C97F8A0
:20736000381000F12003D2082846FFF7AFF921464846FEF7DBFA0028E7D1894800F0FCFF70
:2073800030B3FF23874C884D87F8383007F1380921464846FEF7CAFAD0B190F82030DE0734
:2073A000F6D572B690F82010826821F00101D0E9063680F8201062B697F838100096284695
:2073C000FFF784F921464846FEF7B0FA0028E4D1764800F0D1FF20B3FF23754C754D87F854
:2073E000383007F1380921464846FEF79FFAC0B1037FFF2BF7D172B6837C002B00F083813E
:20740000427F027762B6C27E97F83810133000902846FFF75BF921464846FEF787FA0028E5
:20742000E6D1654A654B4AF6AA2111605A6872B663490B689B1A002BB8BF0A6062B6614B2C
:207440001D78EDB2002D58D05F4B1C78E0071DD4042D52D95D4A92F800A0AAF105033B2B57
:207460000CD8567826F00F03102B07D1554544D3531E13F80A307E2B00F0A584BAF17E0FBE
:2074800000F09084504B44F001041C704F482A467E2101F02DFF002800F081844B4A831A76
:2074A000494A04F0FE04147003F1010AA30700F17284454B44F002041C704548FFF706F957
:2074C0004FF0FF34002080463E4B1D78EDB2B5EB0A0640F05284EFF3108272B6394B1B782E
:2074E000DBB29D4240F04584364B1E7082F31088012C02D13648FFF7E9F8304B354D364C37
:207500005B68386A2A682168344E7B62181A02EB000E0131B0F5803FC5F800E0216080F03B
:20752000F480D6F800C000FB00F3FF330CEB1323634538BF4FF0FF33DFF8B48028487A6A8D
:20754000D8F8009033601044A0EB09000028FFF6A6AB72462348FFF7B9F87A6A914503D982
:20756000214A1368013313607A6AC8F800201F4A002333602B60236092F90830002B7FF42C
:2075800094AB7B6A3B62FFF7A1BB00BF580000200D3700088007002055460008C8960008A5
:2075A000E40100209D450008D8960008E0010020E1360008E096000800300040001000E068
:2075C0007C070020D80500200C0B00201805002084A80008040B0020F4070020080B0020E6
:2075E00000BA3CDC00970008000B002000000020FC0A00204FF0010997F83730C7F83890E3
:20760000A069BB62494607F138030322FDF754FA0723BD6B3B87A069494607F13803022218
:20762000FDF74AFA2DBA97F83930BA6A00924FEA152909F00109C5F30F2523F003032A468E
:207640004146204643EA0903FDF70AFADAE50C23BB63A06997F8379007F138030422012126
:20766000FDF72AFABD6B0F233B87A06907F13803022201212DBAFDF71FFA97F83930CDF8A3
:20768000009025F07F4241462046FDF7E9F9B9E5C7F838B0A06997F8375007F13803042204
:2076A0000121FDF709FABA6B009512BA4146204602F00703FDF7D4F9A4E597F83710FDF72E
:2076C000B7FA08E6013380F826304269038B62B697F838102846FEF7F9FF6CE50CF1FF3009
:2076E000C0B200F1010EAE4406E001384FFA80F8B8F1000F7FF7CEAC1EF8018DD045F4D021
:207700005FFA80FCC6E462B66DE6B0F5801F07D2D6F800C000F1FF031B0A00FB03C307E70D
:207720004FF0FF3308E7C04ADFF808B3FF2307F138091372C7F8189062B6BA69BBF8EE62C8
:207740000023C2E90033C2E90233002E00F0F781BBF81A30FBB1B54BD3E90445DBE902231B
:20776000CBE904452046294600F08AFE80463046894601F0D5FBAE4901F0DEFC00F0E0FF62
:2077800002460B464046494601F0A4FA002840F01181CBE90245D7F818804046FDF7B0FE38
:2077A000002800F00781DBF84040A04AFA61634203F01F0304F01F05D2E9040158BF5D4249
:2077C00097A3D3E9002301F013F801F0D3FA0BEB8505BBF8186068640134CBF84040002EB9
:2077E00000F0A482934844460022B446D0F8C43054F8046B594201F01F0103F01F0558BFA1
:207800004D4202EB421129440BEB8101013201336245C1F8C86000F184000364E6DBBBF875
:207820001A30002B00F0F38100239A46BB62ABF8E23200215046FDF785FCDBF8FC523D62AC
:207840000446002D00F0D881DBF8000300F056FFEE00C6F5807626448046894604F58074C2
:20786000002574E9020142464B4601F047FA002818BF0135A642F4D13B6A9D4200F0BC81A5
:20788000BBF8E232BBF81820ABF8E2320AF1010A9245CEDBBBF8F832BA6A934200F38A8026
:2078A000BBF8E232002B00F08580F96900245CA3D3E90023D1E90401ABF8EE4200F098FF64
:2078C00001F058FA5C4BCBF8D80201211868FCF7A7FABBF8183043B120460121FDF732FC52
:2078E000BBF8183001349C42F6DB1024CBF8D442BBF8EC02514E01F013FB4D4901F01CFCBE
:20790000FB69D3E904890546D6E90023C6E902894046494600F0B4FDC7E90A01284600F084
:207920000FFF02460B46D7E90A0101F0D3F9002840D1013CC4F10F020BEBC203CBF8D44248
:207940000BEBC200D3F858429BF80010DBF8D832C6E900890B94D0F8D4010A900BEBC204C0
:207960002046D4F850410994D0F8CC0008900BEBC2042046A46C0794D0F8540206900BEB04
:20798000C2042046D4F8D0410594D0F84C0104900BEBC2042046D4F8C8400394406C0290D1
:2079A000DBF8040301909BF8E202009052002448FEF78CFE234BB3F864A0BAF1000F00F051
:2079C000B6801A4AB3F86600144601F0A9FA184901F0B2FBD4E904450646BE62174A174ED7
:2079E000D2E90023C6E902452046294600F048FD8046B86A894600F0A3FE02460B46404642
:207A0000494601F067F90146002840F090800D4B0A4AD3F8EC60C2E90045002E59D013E0DA
:207A2000000000000088C340000000202800002000007A44F801002070070020900A00202B
:207A400050970008E00500208022B86907F1340401F0A0FD2546324607F1B401504200F09F
:207A60001F0002F01F0358BF4342B74800EB83030132D3F8F03045F8043FA942EED100F18E
:207A8000EC02234653F8040F42F8040F9942F9D1AD480023826EC0F8EC302546504200F076
:207AA0001F0002F01F0358BF4342A74800EB83030132DB6E45F8043FA942EFD100F1680394
:207AC00054F8042F43F8042F8C42F9D19E4A002393660AF1FF339C4D9BB2C3F1070205EB0D
:207AE000021108468C6FA5F8643029782B6E0794406F069005EB02142046246F0594C06E19
:207B0000049005EB02142046D4F8FC400394D0F8F800029005EB02142046D4F8F440019473
:207B2000D0F8F000009092008848FEF7CFFD884B93F90830002B7FF4FFADFFF7BFB8BBF8D9
:207B4000E032002B50D0BBF81A301BB3814BBBF8DC021C4601F0E4F97F4901F0EDFAD4E913
:207B60000445DBE902230646CBE904452046294600F086FC80463046894600F0E1FD024622
:207B80000B464046494601F0A5F800287FF412AFCBE90245B869FDF7B3FC00283FF40AAFC2
:207BA0006C4BFB61D3E9040165A3D3E9002300F01FFE01F0DFF87B6CBC6BBBF800100293CF
:207BC0003B6C0193FB6B0093024623466348FEF77DFDBBF8DE32BBF8E02201339BB29A42D1
:207BE000ABF8DE3200F0E480DBF8D442002C3FF4E1AE584BFB617BE6BBF8E222012303FA6F
:207C00000AF31343BA6A0132BA629BB23AE6BB62ABF8E2323B6207E03A6ABBF81830013207
:207C20009A423A62BFF636AE0021386AFDF78AFADBF80043D0E93E890646204600F05EFD65
:207C400002460B464046494601F062F8B8B1600800F054FD02460B46D6E93C0101F058F843
:207C600068B13F4BA3FB0430400800F047FD02460B46D6E93A0101F04BF8002849D1DBF837
:207C8000C4301F2BC8DDD6E93C454046494622462B46C7E9024501F03BF80028BCD0D6E945
:207CA0003A2320462946C7E9002301F031F80028B2D00023A6F1080A7B61E036FAE9024513
:207CC0004046494622462B4601F022F880B1D7E9020122462B4601F01BF848B1D7E9000120
:207CE00022462B4601F014F810B17B6901337B615645E3D17B691D2B8ED1DBF8FC0200F05E
:207D0000FDFC02460B464046494600F0E3FF002882D13B6ABBF8E222012101FA03F31343AA
:207D2000BA6AABF8E2320A44BA6275E7BBF81A30002B18BF3346ABF8E2323BE6AFF3008030
:207D4000000000000088C340E005002078970008000000202800002000007A44589700085F
:207D6000ABAAAAAAB8F1000F7FF486A94046FFF7BDB982F31088FFF7A7BB634B00EB0A0105
:207D80001944321A184401F09DFB604B304683F80880FFF7A0BB4FF0FF34FFF793BBAA463A
:207DA000FFF784BB4FF0010A4FF0FF34FFF78ABBFB691B680022012BABF8E0227FF414AF87
:207DC000FDF75EF810E7AAF1030841461046FCF77BFD4D498B1E11F8082013F80A3043EA92
:207DE0000223834288447FF449AB494A4949137824F00204B3420C707FF45FAB013303F087
:207E00000F0343F010031370434B98456BD9424DC7F828A02C46E94614F801BB0BF1FF332B
:207E20004B2B6DD83D4B0BEB4B0103EB81014FEA4B0A4B78CA78D1F804E09B00073303F441
:207E4000FF63ADEB030D0CA8561EA2B3A04554D31EF8013B042B05461FD814F8013B03F091
:207E60006001602905F1040C03F07F0208D162F01F0205E014F8013B03F07F0141EAC212B3
:207E80001906F7D42A60B6B1A04536D31EF8013B042B06F1FF366546DFD9072B2DD1234670
:207EA00013F8012B9C18A04527D3AC464CF8082B6B60002EEAD1154B5B7A25463BB1174AEE
:207EC0000AEB0B0302EB83039B78DA070ED5134A0AEB0B0302EB83039B689847CD46444504
:207EE00098D3D7F828A00124FFF7ECBA074B0C48997AFEF7EBFBCD46F1E70620FDF7E8FF3F
:207F00000420FDF7E5FF00BF1805002000000020540000200C0B00201A05002054A400085F
:207F2000F096000880B5A84BA84A23F0030384B0002115201360FCF763FB00211620FCF7E8
:207F40005FFB00211720FCF75BFBA14BA14AA24945F255501860136803F001033BB1136837
:207F6000013903F00103F9D1002B40F0D7819B4B984A994901201860136803F002033BB1B1
:207F80001368013903F00203F9D1002B40F0C68193488F4A9349944B40F6C41505604AF6A5
:207FA000AA244CF6CC4014601060CA6842F08072CA601A68002442F001021A605C60EFF34E
:207FC000108172B6894A8A4B202082F8230007254FF080601D605C609C60506081F3108827
:207FE000032210460121FCF7A1F9012203210220FCF79CF97F48804B0168804A804D41F49F
:208000000031016018687F4920F400501860186820F48050186018681860106820F44050BA
:208020001060106810601A6822F4C0621A601A681A604FF482722A601A6822F004021A60E3
:208040001A6842F004021A601A6822F008021A601A6842F008021A601A6842F400521A6018
:2080600081F8264340224A601A68674842F020021A60FEF72BFB72B6644801F0DBFA10B995
:2080800062B6FEF705FE72B6614B57495A7A4D6802B998725F4B60495D4A604C1C60544850
:2080A0009C68524E0B608C6011605360002402214FF080635172446084607360584B594ED0
:2080C0001C70FEF771FDFF2331460DF107008DF80730FDF72BFCC8B142690477531E846147
:2080E00002F26B22194603F1780701F8014FB942FBD1C3F879407C339342F3D1447731462F
:208100000DF10700FDF712FC0028E5D1FF23464F8DF8083006460FE094F82C10A06901F009
:208120001001FBF77DFE94F82C30666213F0100318BF112384F82C30394602A8FDF7F6FB0A
:2081400004460028E8D1FF23384E8DF8093004E0C46221463430FDF757FC31460DF10900F4
:20816000FDF7E4FB0028F3D1FF23314C8DF80A3001E0FDF70FFC21460DF10A00FDF7D6FBCE
:208180000028F6D1FF222B498DF80B20044604E0037DC46123F0010303750DF10B00FDF74C
:2081A000C5FB0028F4D1FF2323498DF80C30044600E0846703A8FDF7B9FB0028F9D1FF2347
:2081C0001E4E8DF80D3041E01F0B0020EC070020003000400C300040FEFF0F000430004087
:2081E00008300040F0ED00E0001000E000ED00E010E000E01C1002400C440040104400402B
:208200000844004000E100E0E8960008A00A0020000000200C0000204800002018000020D5
:20822000680A002065660008016600088165000839650008213B0008C93A00081545000805
:20824000FBF706FD94F82720002A53D131460DF10D00FDF76BFB04460028F1D1FF23314E57
:208260008DF80E300DF10E0402E0017CCB074DD431462046FDF75AFB0028F6D1FF23264636
:20828000294F8DF80E30044605E00279431D21460068FCF711FC39463046FDF747FB002877
:2082A000F3D1FF23214C8DF80F3004E000F11101C068FCF725FB21460DF10F00FDF736FBEC
:2082C0000028F3D1EFF30383C3F3080343B14FF080736FF0060208B401A102B41FB51047BD
:2082E000134B01225A7262B612489A7A2946FEF7EDF9C5E66369E16801320B4484F826205D
:208300006361A360204600F06FF89FE781F00801C068C1F3C001FBF783FDA9E72920FDF7FD
:20832000D7FD00BFA9460008753700085546000800000020F8960008002070470849094B2A
:20834000886830B400F53702074D084C034402F5D85200202072AB60012030BC8A607047A0
:208360000C000020001BB780180000200000002008B50320FDF7ACFD03780246D8B210B19C
:208380000023137001207047024B00221A720123037070470000002030B4EFF3108472B674
:2083A0000E490B68834202D111E083420CD01A461B68002BF9D14B68834204BF084B4B60B8
:2083C00084F3108830BC704703681360F3E7054B026885689D601A600B60ECE700000020B7
:2083E0000C00002048000020F0B48168EFF3108572B61B4C23689A688A1A002A0BDB1C46B3
:208400001B689A688A1A002AF9DA0360206085F31088F0BC7047134E72688A1A002A1ADBE2
:208420000027114A114EDFF84CC0934208BF1B680360106000234FF08060226091607360FE
