:020000040800F2
:200000000080002091030008A5030008A5030008A5030008A5030008A5030008A503000884
:20002000A5030008A5030008A5030008A5030008A5030008A5030008A5030008A503000840
:2000400008B500F005F800F02BF8002008BD00BF08B5124B4FF000629A6000F067FA00F049
:2000600019FB00F075FB00F0AFFB00F015FB00F0EBF943F6982000F0F3FB013000D008BD09
:2000800000F0DCFB012805D0BDE808404FF0FF3000F0E6BB00F0E2FAF6E700BF00ED00E07A
:2000A0002DE9F04F00238DB07C4A0693CDE90333CDE90733CDE909338DF809308DF80A30E1
:2000C0008DF80B3005930B9302F5006442F8043FA242FBD1724904AB6E2201E011F8012F8E
:2000E00003F8012B07AA9A42F8D1DFF8BC912D2304AA8DF81C30A9EB020902F1180A07AB2A
:2001000019F8032003F8012F9A45F9D1654FDFF89C8103260DF10901002000F0D9FC0028F1
:20012000F8D09DF80930032BF4D8DFE803F00229190F07AB19F8032003F8012F9A45F9D168
:20014000192204A9002000F0F3FBE3E7022301220DF10B0100208DF80B3000F0E9FBD9E729
:2001600000F06CFB0128024679D04FF01F0301220DF10B0100208DF80B3000F0D9FBC9E78C
:20018000752301220DF10B0100208DF80B3000F0CFFB05250DF10A03042203A9002000F0E9
:2001A00005FC034601334FF001020DF10B014FF0000008D14FF01F038DF80B3000F0B8FB99
:2001C000013DE7D1A6E775238DF80B30039B0193002500F0ADFBDDF804B0CDF804900DF175
:2001E0000A034FF400624146002000F0DFFBB0F1FF3F814603D14DE0012E1ED906464A4633
:200200004146384600F096F9012806F1FF30F3D1BBEB090B4FF0030615D0204B4F4443F827
:20022000045FA342FBD1752301220DF10B0100208DF80B3000F07CFBD1E7F8B1BBEB090B83
:200240004FF0FF36E9D12023584601220DF10B01DDF804908DF80B3000F06AFB5AE775230B
:200260000DF10B0100208DF80B3000F061FB4FF47A7000F037F900F0F1F94BE72123012288
:200280000DF10B01DDF804908DF80B30064600F04FFB3FE7DDF8049067E700BF04000020E5
:2002A000802F000800300008F4310008080000202DE9F04700264FF001084FF6FF7E1670F7
:2002C000A1F80280A1F800E0047854B333463746B1464FF0FF0CA4F121052F2D25D8DFE8F5
:2002E00005F04924242424242424242424402424242A2A2A2A2A2A2A2A2A2A242424242454
:20030000242418181818181818181818181818181819A4460133DBB21F46C45C002CDAD10D
:20032000F4B214700020BDE8F087002313704FF0FF30BDE8F0870744303C7D78303DEDB26F
:20034000092DACF14107E4B206F1010A17D9BCF1FF0F04EB0714E8D021F826401FFA8AF665
:20036000D8E701EB86044FF0FF0CA4F8028021F826E0CFE701EB8604A4F80290CAE704EBC7
:20038000840405EB4404013304F0FF04DBB2DEE772B6024B024A9D461047704700800020CE
:2003A000A9030008FEE700BF08B500224FF0FF31930003F1604303F56143C3F88010BFF3D4
:2003C0004F8F0132082AC3F88011F1D1002316481946C2180133F02B82F80013F9D1134B0E
:2003E00004221A60BFF34F8F114A4FF02061002351601946D01801330C2B0176FAD1BFF338
:200400004F8FBFF36F8F62B60A480B4A0B49121A00F0EAFE0A480B4A0021121A00F07EFFD6
:20042000FFF70EFEFEE700BF00E100E010E000E000ED00E00000002008000020A02F000899
:2004400008000020101000200D4B0E481A6822F4803230B41A601A680B4C22F004021A6073
:200460001A686FF07F4522F0020200211A605D60216001601A6822F0010230BC1A607047D3
:2004800010E000E0081000200C100020114A124B12489B68116801F07F4110B4116011682B
:2004A0000468C3F1FF1303F57F4319439C42116003D9116801F180711160094903600968D6
:2004C000126810BC4FF47A70CB08B2FBF3F300FB03F070470C10002010E000E0081000205A
:2004E000040000200E4B0F491A6822F4803270B51A601A680C4D42F001021A606FF07F4690
:2005000000229E6004462A600A60FFF7BFFF001B0028FADB024A136823F00103136070BD33
:2005200010E000E0081000200C100020022000F095BB00BF2DE9F04F044683B04FEA520AEF
:20054000CDE9001000F094FB04F17843C3F34904C4F580691FFA89F9DD0A3D4BD14505F5E7
:20056000803528BF1FFA8AF9C3EBC52503F2FE774FF6FF76374B9A1C50195A19528823F87E
:20058000022FBB42F9D1B9F1000F2BD0304B09F1FF381FFA88F804EB080103EB4404023307
:2005A00003EB4101234601E08B4233D033F8022BB242F9D000F0BEFB00283FD1009B03EB72
:2005C0004808023B33F8022F24F8022B4345F9D11F4C601934F8021B00F042FC70BB1E4BA8
:2005E000A342F6D1CA4505F500652BD0009A02EB4902AAEB090A0092019ABAF5806F534608
:2006000002EB490228BF4FF48063019200241FFA83F9AFE7019B03F10208009B4C46A8EB59
:200620000308A3F1020B01E0013CDBD008EB0B003BF8021F00F014FC0028F5D0002003B033
:20064000BDE8F08F00F03AFB012003B0BDE8F08F08080020060800200810002082B00C4B3A
:20066000019300224FF0FF31930003F1604303F561430132082AC3F88010C3F88011F3D1CF
:20068000019B5B68019A126882F3088802B018470030000800F032BA2DE9F04FA3B0802272
:2006A000002102A800F03AFE002326488DF8073002A90DF10702FFF7FBFD00283ED19DF88E
:2006C00007108046B1B3DFF880A0DFF8809006460346012707E000F08FFC9DF807100136F9
:2006E000F3B2994226D922AA02EB830434F8802C02F00F057F2A07FA05F54FEA121BEED88D
:200700003AF82B0000F07AFC59F82BB02B4658461021012200F01EFC34F87E3C294658468A
:20072000002BD8D000F066FC01369DF80710F3B29942D8D8404623B0BDE8F08F4FF0FF388E
:20074000F8E700BFBC130008D4130008F013000838B540F202601A4D1A4C00F04FFC40F26F
:200760000E6000F04BFC28464FF400730322182100F0F0FB4FF4806303222846042100F0A9
:20078000E9FB2046002100F0FDFC2046002100F0F1FC2046002100F0FDFC20464FF4E13176
:2007A00000F0BEFC2046042100F00CFD2046082100F0FEFC2046BDE8384000F0F3BC00BFB1
:2007C000000801400038014038B540F20260194D194C00F013FC40F2117000F00FFC2846F0
:2007E00004230322182100F0B5FB082303222846042100F0AFFB2046002100F0C3FC2046BB
:20080000002100F0B7FC2046002100F0C3FC20464FF4E13100F084FC2046042100F0D2FC6A
:200820002046082100F0C4FC2046BDE8384000F0B9BC00BF0008014000440040064B1B7821
:200840005F2B01D000207047044B1878A0F15F00B0FA80F0400970470432000808320008FD
:20086000F8B50646013010D0264B27481A68274922F480321A601A6842F001021A606FF0CA
:200880007F4400229C6002600A60214F214C224D711C03D0FFF7FAFDB04230D83B689A06D5
:2008A00003D52368DBB2752B1FD01C4802689306EED52A68D2B2752AEAD11949194C0A68E6
:2008C000012522F400520A602560174D01E055F82300072100F080FC23680028F7D055F88B
:2008E000233075225A600020F8BD104A0D4C1368074823F40053002113602160E5E74FF078
:20090000FF30F8BD10E000E00C1000200810002000380140043801400444004000440040AD
:200920000C38014000000020CC1300080C4400402DE9F843DFF870901A4CD9F800300026E6
:2009400054F823004F1E9046354603E0D9F8003054F82300072100F03FFC0028F6D0D9F805
:20096000002017F8013F54F822000135ADB21E4445454360F6B2EDD3072100F02DFCD9F8FC
:20098000003040B954F82300072100F025FCD9F800300028F6D054F82330C6F1FF065E607E
:2009A000BDE8F883CC130008000000202DE9F04FDFF81481414FD8F80000414C57F82000F3
:2009C000DFF808B185B04FF00009019116460393CDF800904D46CA46052100F0FDFB6FF021
:2009E00020030246002836D0D8F8002057F8220003604368B245DBB227D300932368314AD8
:200A000023F48033236023684FF0010943EA0903CA4423601FFA8AFA6FF07F43A36056458F
:200A20004FF00003CBF800301360D5D2009BC5F1FF05AB423ED1039AB24513702DD30AF104
:200A4000FF3080B205B0BDE8F08F019A1D4402F80A30EDB2D2E70292FFF718FDB0F5FA7F17
:200A600003D9029AB9F1000F04D1D8F8003057F82300B1E7D8F8001057F821106FF0200087
:200A8000BAF1010F08600ED9019B03EB0A0212F8013C0093ED1AEDB2C8E7019B5344002232
:200AA00003F8012CCBE7019B4FF0FF301A7005B0BDE8F08F4FF0FF30C4E700BFCC13000830
:200AC00010E000E008100020000000200C10002030B583B000240DF103030D46012201A952
:200AE0008DF80340ADF80440FFF760FF012806BF9DF804302B70204603B030BD30B4504A1A
:200B0000136843F0010382B0136013689907FCD54C4A1368002143F0800313600191019B09
:200B20004F2B05D8019B01330193019B4F2BF9D9444A1368002143F0900313600191019B81
:200B40004F2B05D8019B01330193019B4F2BF9D93C4A3B4913683C483C4C23F003031360D5
:200B60000B6823F0847323F480334FF41F050B6005600B68002023F480230B60106020604F
:200B80000B6843F480330B604FF6FF7301E0013B02D00A689203FAD5294A13689D034ED560
:200BA0002B4C2C482168274B41F080512160016841F44041016019681960196819601968D7
:200BC00041F480611960196821F440311960196841F440311960196821F0904121F470116D
:200BE0001960196841F0036141F480211960136843F08073136013689C01FCD51549164A5C
:200C00000B6843F480330B601368D803FCD51149114A0B6843F400330B6013689903FCD500
:200C2000084A136823F003031360136843F00203136013681B07FCD502B030BC7047FEE78D
:200C40000010024004100240081002402C1002401C1002400070004004700040034A13687A
:200C600023F0070303431360704700BF002002400B4B1B681A0604D50A4B0B490B4A19607D
:200C80001A600B4B1B88B3F5007F08D9094B1B681B0604D5084B0449044A19601A60704770
:200CA000102002400420024023016745AB89EFCDE0F7FF1F5020024044200240074A0849AD
:200CC0001368098843F08003B1F5007F136003D9136C43F080031364704700BF102002404A
:200CE000E0F7FF1F084B1A68D10709D41A68D20608D41B6813F0040F0CBF002002207047E2
:200D000001207047032070470C200240084B1A68D10709D41A68D20608D41B6813F0040F5A
:200D20000CBF00200220704701207047032070474C20024038B5424B1B88B3F5007F054600
:200D40004FD9404B404C984225D2FFF7CBFF012805D1013C68D0FFF7C5FF0128F9D0B8B932
:200D60003A4B3B491A68384C42F002021A600D601A6842F040021A6001E0013C56D0FFF79D
:200D8000B1FF0128F9D0314A136823F00203136038BD013C48D0FFF7B9FF0128F9D000281E
:200DA000F6D12C4A2C4813682C49274C43F00203136005600B68274A9B0744BF244B1D609A
:200DC000136843F04003136001E0013C35D0FFF79DFF0128F9D01F4A136823F00203136099
:200DE00038BD194C01E0013C1ED0FFF77BFF0128F9D00028CCD1154B15491A68124C42F096
:200E000002021A600D601A6842F040021A6001E0013C0BD0FFF766FF0128F9D00B4A136861
:200E200023F002031360B3E7042038BD074A136823F0020304201360AAE70420CBE700BFD3
:200E4000E0F7FF1FFFFF07080000FF0F102002401420024050200240542002401C200240B4
:200E6000374B1B88B3F5007F70B505460E463ED9344B354C984220D2FFF734FF012805D157
:200E8000013C52D0FFF72EFF0128F9D090B92F4A2D4C136843F0010313602E8001E0013CB2
:200EA00045D0FFF71FFF0128F9D0284A136823F00103136070BD013C37D0FFF727FF0128EA
:200EC000F9D00028F6D1224A1F4C136843F0010313602E8001E0013C30D0FFF717FF01285D
:200EE000F9D01B4A136823F00103136070BD164C01E0013C19D0FFF7F5FE0128F9D0002826
:200F0000D8D1124A104C136843F0010313602E8001E0013C0BD0FFF7E5FE0128F9D00B4A84
:200F2000136823F001031360C4E7042070BD074A136823F0010304201360BBE70420D0E7B9
:200F4000E0F7FF1FFFFF07080000FF0F10200240502002402DE9F041CC0601F00F0602D567
:200F6000042A40D0164300224FF0010E4FF00F0C06E0482908BF046105600132082A11D0E2
:200F80000EFA02F495001C400CFA05F806FA05F5F3D00768282927EA080745EA0705E8D1CE
:200FA0004461E9E74FF0010C0F2706E0482908BF056144600132102A13D094000CFA02F531
:200FC000203C1D4007FA04F806FA04F4F2D0D0F804E028292EEA080E44EA0E04E6D14561D9
:200FE000E7E7BDE8F081C26B1A4346F00306C263B9E700BF0161704741617047830903F1CE
:20100000804303F5043300F01F001968012202FA00F008431860704770B43B4C3B4D064646
:2010200094E80F0089B010340DF1200C0CE90F0094E803006B4683E8030002AB83E80300C1
:201040002B68C3F38103022B34462AD030482F4B19681A681B6808ADC1F303112944C2F30B
:201060000222C3F3C22311F8101C2A442B4412F8202C13F8183C20FA01F1032C41D8DFE8CF
:2010800004F0040C070221FA03F009B070BC704721FA02F009B070BC7047084609B070BCBD
:2010A00070472B68DB0311D41A4A184B186819681B680D01C0F3834015D559001ED540F0EE
:2010C00030003F2813D102FB00F0C0E7124B104819682B68114A11F0804F08BF02469E035D
:2010E000E3D55208E1E75B0003D540F020000130E9E70F2818BF0230E5D1F8E740F010007D
:20110000F5E70020C1E700BF0C1400080410024000127A0000093D002C100240006CDC0254
:2011200038B5124B984204460D4619D010D9104B984215D003F56843984215D10320FFF786
:201140006BFF00EB5503B3FBF5F189B2A16038BDA3F50063984203D003F58063984203D1EC
:201160000220FFF759FFECE70020EAE7004C004000500040C26822F4C062C260C3680B4322
:20118000C3607047C26822F48052C260C3680B43C3607047026922F44052026103690B43BE
:2011A00003617047C36843F40053C360704700BFC36823F00803C360C36801F008011943D9
:2011C000C1607047C36823F00403C360C36801F004011943C16070478B0901F01F01185865
:2011E000C84000F001007047844641EA000313F003036DD1403A41D351F8043B40F8043B73
:2012000051F8043B40F8043B51F8043B40F8043B51F8043B40F8043B51F8043B40F8043BD2
:2012200051F8043B40F8043B51F8043B40F8043B51F8043B40F8043B51F8043B40F8043BB2
:2012400051F8043B40F8043B51F8043B40F8043B51F8043B40F8043B51F8043B40F8043B92
:2012600051F8043B40F8043B51F8043B40F8043B51F8043B40F8043B403ABDD2303211D322
:2012800051F8043B40F8043B51F8043B40F8043B51F8043B40F8043B51F8043B40F8043B52
:2012A000103AEDD20C3205D351F8043B40F8043B043AF9D2043208D0D2071CBF11F8013B00
:2012C00000F8013B01D30B8803806046704700BF082A13D38B078DD010F003038AD0C3F1B9
:2012E0000403D21ADB071CBF11F8013B00F8013B80D331F8023B20F8023B7BE7043AD9D36B
:20130000013A11F8013B00F8013BF9D20B7803704B7843708B78837060467047F0B486075E
:2013200046D0541E002A3CD0CAB2034602E014F1FF3436D303F8012B9D07F8D1032C29D942
:20134000CDB245EA05250F2C45EA054533D9A4F11006360903F1200707EB061703F11002DB
:2013600042E9045542E902551032BA42F8D1721C14F00C0F03EB021204F00F0613D0331F73
:2013800023F003030433134442F8045B9342FBD106F003042CB1C9B21C4403F8011B9C42C2
:2013A000FBD1F0BC704734461346002CF3D1F8E714460346C2E71A462646E0E72150423595
:2013C0002C215042362C2150423700000038014000440040020600000306000004060000CA
:2013E0000506000006060000070600000806000000080140000C014000100140001401407F
:2014000000180140001C01400020014000000000000000000102030406070809000000008D
:201420000102030400000000000000000000000000000000000000000000000000000000A2
:2014400000000000000000000000000000000000000000000000000000000000000000008C
:2014600000000000000000000000000000000000000000000000000000000000000000006C
:2014800000000000000000000000000000000000000000000000000000000000000000004C
:2014A00000000000000000000000000000000000000000000000000000000000000000002C
:202F80006E6F7A305F3030315F4733300000000000000000000000000000000000000000B1
:082FA000FF000000000E2707EE
:2030000000800020E1330008DD330008DD330008DD330008DD330008DD330008DD33000864
:20302000DD330008DD330008DD330008DD330008DD330008DD330008DD330008414100085E
:20304000DD330008DD330008DD330008DD330008DD330008DD330008DD330008DD330008B0
:20306000DD330008DD330008DD330008DD330008DD330008DD330008DD330008DD33000890
:20308000DD330008DD330008DD330008DD330008DD330008DD330008DD330008DD33000870
:2030A000DD330008DD330008DD330008DD330008DD330008DD330008DD330008DD33000850
:2030C000DD330008DD330008DD330008DD330008DD330008DD330008213200080000000005
:2030E0000000000000000000000000000000000000000000000000000000000000000000D0
:203100000000000000000000000000000000000000000000000000000000000000000000AF
:2031200000000000000000000000000000000000000000000000000000000000000000008F
:2031400000000000000000000000000000000000000000000000000000000000000000006F
:2031600000000000000000000000000000000000000000000000000000000000000000004F
:2031800000000000000000000000000000000000000000000000000000000000000000002F
:2031A00000000000000000000000000000000000000000000000000000000000000000000F
:2031C0000000000000000000000000000000000000000000000000000000000000000000EF
:2031E0000000000000000000000000000000000000000000000000000000000000000000CF
:203200006E6F7A305F3030315F303030000000000000000000000000000000000000000048
:203220001A4B1B689A0610B405D4184B1B681B0613D410BC7047164B1B68C3F308037E2BAA
:2032400020D014490A78BF2AEFD8134C501CA3540E4B08701B681B06EBD5104A10491378BA
:203260000978994207D90F480949C05C0133137010BC086070470C4A10BC136823F0800378
:2032800013607047094A00211172DAE70044004004440040B0050020F0040020BD07002073
:2032A000BC0700205C0700200C44004000000020194B1A68D20607D51B6813F0020F14BFF4
:2032C00000204FF416607047144A1368C0B223F01F030343092810B4136018D912280DD820
:2032E00000EB40000E4C1E38226807218140012322EA010203FA00F010432060094A10BC6E
:20330000136843F480034FF4166013607047064C00EB4000E8E700BF00240140342401408C
:203320000C240140082401401024014010B4EFF3108172B6084B020900F00F0053F82220F1
:203340000123D46803FA00F0204214BF5061106181F3108810BC704754970008BFF34F8FB7
:203360000549064BCA6802F4E0621343CB60BFF34F8F00BFFDE700BF00ED00E00400FA0501
:2033800008B5154B1B689A1E22F00702093B934201D0FFF7E3FF0CA1D1E90001D3E90023B1
:2033A0008B4208BF8242F4D14FF000631A68D31D23F007039A42ECD172B605A1D1E900019D
:2033C000C2E90001FFF7CAFF43616E426F6F74213D24A8A945EC067B04000008FEE700BFA7
:2033E00072B6024B024A9D461047704700800020FD33000808B5202002F086FD00B50022FA
:2034000083B04FF0FF31930003F1604303F56143C3F88010BFF34F8F0132082AC3F88011B8
:20342000F1D100236D481946C2180133F02B82F80013F9D16A4B04221A60BFF34F8F694A7B
:203440004FF02061002351601946D01801330C2B0176FAD1BFF34F8FBFF36F8F62B66248E2
:20346000624A6349121A05F01BFF6248624A0021121A06F017F8614B1A6842F001021A6034
:203480001A689007FCD55E4A1368002143F0800313600191019B4F2B05D8019B01330193EC
:2034A000019B4F2BF9D9564A1368002143F0900313600191019B4F2B05D8019B01330193C6
:2034C000019B4F2BF9D94E494C4B0A684D484E4C22F003020A601A6822F0847222F4803262
:2034E0004FF41F051A6005601A68002022F480221A60086020601A6842F480321A604FF6A1
:20350000FF7201E0013A02D019688903FAD53B4A13689B0361D53D4C3D482168384B41F051
:2035200080512160016841F44041016019681960196841F400511960196841F4806119602F
:20354000196821F440311960196841F440311960196821F0904121F470111960196841F027
:20356000036141F480211960136843F08073136013689D01FCD5264A2649136843F4803356
:2035800013600B68DC03FCD5214A2249136843F4003313600B689803FCD5194B1A6822F090
:2035A00003021A601A6842F002021A601A681207FCD50C4B1849194A9A600B68184A43F0D1
:2035C00001030B60136823F0E06343F080634FF080611360116004F04BFCFEE700E100E0B0
:2035E00010E000E000ED00E0000000203400002018A9000838000020040B00200010024018
:2036000004100240081002402C1002401C1002400070004004700040181002400030000808
:203620000400014038B514490446007802F046FD2379C27E1A44C27672B6827C9A4205D8B3
:203640000022FE238274037762B638BDD21A12F0FF050ED000F1140212336C1E52FA84F440
:20366000034400F1130213F8011F02F8011BA242F9D1857462B638BDE136000838B50B49A8
:203680000446007802F01AFDD4E90132E1681C0409D4048A9D18A54205D812331844BDE8DC
:2036A000384005F0FDBD242002F02EFCA94A000810B504460949007802F000FD237A032BF5
:2036C0000AD8037C13F0060206D143F004030374C0E90022826010BDFFF78CFE394B000870
:2036E00010B50479082C09D80078064904F1200202F01CFF044B8477436010BD282002F094
:2037000003FC00BFE1360008513C000838B5074905464C22007802F009FF0446044B287995
:203720000449636002F0CAFC206138BD0D37000845390008394B000870B5067A032E0FD830
:20374000094904462022007802F0F0FE0546074B207907496B6002F0B1FCAE77A86170BDE8
:20376000222002F0D1FB00BF3937000861390008394B000870B50B490446007902F09EFC1C
:20378000267A0949054606F10802207802F0CEFE06710560E16832460530BDE8704005F079
:2037A0007FBD00BF394B00087537000800780249142202F0BBBE00BF394B00082DE9F041D8
:2037C0001F490546007802F079FC467C16F0020801D0BDE8F0812F79A9682D7B0A2F2CD800
:2037E0000A2D2AD804463A46203006F0310605F057FD46F00206ED00FB006674E57484F82B
:20380000128023752FB194F8203003F03F032A2B10D0A2690B4BE261636072B60A4B5B68B1
:2038200003F5BB434033A360204604F083FD62B6BDE8F081054B6360EFE7232002F064FB97
:20384000E54A0008F5430008001000E08D43000838B511490546007802F030FC044604F0C3
:2038600041FD6B68A360A968E1602A7C62740023FE2022742077A374E376EB6863771B063A
:2038800006D401B938BD2046BDE8384004F052BD262002F039FB00BFE136000838B50A498F
:2038A0000546007802F00AFC044604F01BFD6B68A360AA68E260EA682046C4E90423BDE89C
:2038C000384004F037BD00BF014A000838B50D490446007802F0F2FB054604F003FD636888
:2038E000AB60A368EB6003B938BDE3682B6123696B6163692B7700236B772846BDE8384089
:2039000004F018BD3937000838B50C490546007802F0D4FB037D6A68C26143F0010303757C
:20392000044604F0DFFC72B6054A236952681344A360204604F0FEFC62B638BDE53A0008CF
:20394000001000E008B5034604481A7E42F004021A7604F0BFFC002008BD00BF380000201A
:2039600010B50446064804F0B5FCD4E90231E27F42F001020B44E277A360012010BD00BF67
:203980005007002010B50446006AFFF791FC20B1A3681844A060012010BD264B26491A682C
:2039A00022F002021A601A6822F010021A600B6894F8262094F827108A429BB21CD2208B9D
:2039C0000132D2B203449BB29142238384F8262018D8628B9A421BD8A28B9A4218D300239E
:2039E00084F82430154804F075FC6369E26813446361A360012010BD01229142238384F8FB
:203A00002620E6D9A36822691344A360012010BD94F8243094F825200133DBB29A4284F8F9
:203A20002430DFD8064B5B7A002BD8D11F2002F06BFA00BF002401404C2401403C000020BA
:203A40000000002010B50446054804F043FCA3682269207D1344A36000F0010010BD00BFAD
:203A6000CC01002010B582B000F11A0304460093437E828A044802F045FEA38A00220133A6
:203A80006276A38202B010BDB095000810B50446D4E9043184B022680391E1680293A36821
:203AA0000093019163680C48D1B202F02BFE842220780A4902F03AFD2368C360636803618D
:203AC0000022042BC0E91D2203D8054B436004B010BD1E2002F018FA889500088D3A000828
:203AE0007944000830B51049044683B00078342202F01CFD2368C36063688361042B0FD8FA
:203B000000250A4B057503612268094963684160CDE900550748114602F0F4FD03B030BDD1
:203B20001C2002F0F1F900BFE53A0008B0710B00453A00087896000810B50346D3E90441AF
:203B400084B01A680391D96802949C680094019103485B68D1B202F0D5FD04B010BD00BF85
:203B600070960008F8B5D0E901320F4CA4F8DC320023A4F8E022A4F8DE32054602F04CF9AA
:203B800006460F46D4E90223C4E9046704F01EFC0022002305F044F808B9C4E902672846C1
:203BA000BDE8F840FFF7C8BFD8010020EFF3108272B6084B1968890709D51968064821F0F4
:203BC00002011960196821F010011960036882F310887047002401404C24014038B51249C0
:203BE0000546007802F06AFA044604F07BFBFFF7DDFF6B686361A360AB6823612B7B84F8D3
:203C000027305A1C84F826202A69E260D5E90501EA6984F825206083A18303B938BD20464A
:203C2000BDE8384004F086BB79490008C0F30312064B53F8223000F00F009A68012303FA90
:203C400000F0104214BF18460020704754970008F8B5877F044687B100210F460B46012505
:203C600023440131D87FFFF7E1FF6E00CBB200B12F43A27F9A42F5B2F2D8227CBA4207D091
:203C8000637C7B40DB43DBB282EA07010B4210D194F91C30257F6774002B04DB013DEDB2FE
:203CA000FF2D1ED02577D4E902321344A3600120F8BDA17C22EA03023B4013430729237467
:203CC000E6D862180131A1740848D37404F002FBFF232377D4E9023267741344A3600120DA
:203CE000F8BD024804F0F6FADCE700BFC001002038B58369044690F82100A56803F00101B0
:203D0000FFF794FF814203D0A369E5610133A36163695B1B002B05DBD4E902321344A36062
:203D2000012038BD94F82020236907481D4442F0010284F82020656104F0CCFAD4E9023203
:203D40001344A360012038BDC4010020084B094A10B5044618791188FFF768FF024606483C
:203D600002F0D0FC2046BDE81040FFF7E5BE00BF48070020B80500206896000800F00F027F
:203D8000012300099340044A52F8202009B9536170471361704700BF549700080000000041
:203DA0002DE9F04128490646007802F087F9F36804461BB901234367BDE8F0810025036927
:203DC0004567D6F80480BBB100F114076319043793F85400FFF72AFF57F8041CF86404EBFE
:203DE0008503B1EB0801586B18BF0121FFF7C6FF23690135AB42E9D8B06804F025FC0EA3D1
:203E0000D3E9002304F0C4FD0DA3D3E9002304F095FC04F055FF40082066F3680B4A5B00D9
:203E2000C4E9163353681844A0602046BDE8F04104F080BAAFF300800000000080842E4176
:203E400000000000389C9C418D3A0008001000E02DE9F8438146FFF76FFE3F4B002118684C
:203E6000FFF78CFFD9F81030002B6AD0D9F80430DFF8F080002B0CBF00231F2308F1440067
:203E800080220021C8F8403031A7D7E9006705F009FB08F1400408F1C00501F0BDFF324617
:203EA0003B4604F04BFC04F00BFF44F8040FA542F3D1B8F81830B3B1284B0024D9F8042066
:203EC000002A0CBF00251F258022184643F8045C002105F0E7FAB8F81820013403469442B6
:203EE00003F18403EADBD9E90323D9F80410D9F81400A8F8EC22A8F8F832A8F8E41204F0CE
:203F0000B5FF174905F0BEF80346D9F81800C8F8F03204F0ABFF124905F0B4F8D9F81C3017
:203F2000C8F8FC32D9F82030C8F800330023C8E9B533D9F80830A8F8EE32C8F8F402BDE89F
:203F4000F883084AA2F8EE32BDE8F883AFF30080000000000088C34048070020A0020020DC
:203F600000007A44D8010020084B017910B504461868FFF703FF2046FFF7DEFD044B054863
:203F80001988BDE8104002F0BDBB00BF48070020D8010020589600082DE9F041124E338C9E
:203FA000A3B180460F4606F122050024012F06EB04030DD0297806EB84030134D86BFFF7C4
:203FC000DDFE338CA34205F10205EFDCBDE8F08193F85C00FFF72AFE29892880B1EB080180
:203FE00018BF0121E7E700BFB8050020000000002DE9F8438368002B71D0DFF81881002422
:2040000021468022814608F1F000C8F8EC40C8F8684005F047FA214608F16C00802205F0FA
:2040200041FA33A7D7E9006708F1EC0408F5B67501F0F2FE32463B4604F080FB04F040FEB8
:2040400044F8040FAC42F3D1D9F804000121FFF7A3FF09F104010EC95B00C8E95D33A8F8BE
:204060007011D9F81000A8F8662004F0EDFA22A3D3E9002304F08CFC21A3D3E9002304F026
:204080005DFB04F01DFE4008C8F87C01D9F814201D4B1E495B68C8F8081051000022C8F892
:2040A0008011C8F86020D9E906158CB204FB00000344D9F820401648A8F86420A8F88411E6
:2040C000C8F80C30A8F88651A8F87221A8F8884104F030F94846BDE8F843FFF72DBD0D4B0E
:2040E0000122A3F87221BDE8F843FFF725BD00BF000000000088C3400000000080842E41FA
:2041000000000000389C9C41001000E021450008BC050020B8050020074B020900F00F0076
:2041200053F822200123D16803FA00F0014214BF50611061704700BF549700080000000007
:204140002DE9F04772B6424F424D3E68DFF80C81DFF80CA14EF660290BE0D8F804105A1A2C
:20416000F02A37DC701A00285BDB62B6002A39DC72B62C686368002B4DD1206AFFF7CCFFB8
:204180006369013B39D0D4E90210B4F91020636102444318C4E902322068D0F808C0A3EB76
:2041A0000C02002AD9DB696828608A689A1A31EA220128BF0146084609688A689A1A002A19
:2041C000F9DA2160D8F80410046063465A1AF02A6C60C7DD204B00215A609960596062B68C
:2041E000BDE8F087D8F804209A1A002AC0DDD8F804209A1A002ABBDDF4E7204601F04EFE4C
:20420000A3680028C8D16A682168296094428B68A3D16960A1E720469847A3680028BBD15C
:20422000F1E7524507DB95F90800002809DA01EB09063E6099E7687A0028F4D12D2001F066
:2042400063FE01F53B51203139604FF41672C1E7540700200000002010E000E0001000E0C3
:20426000402BFEFF2DE9F04F90F800A0444985B0504601F023FF434B81685A680446C06843
:20428000521A904203D95A68521A9042FBD8D4E900823C4B218AD3F80490019204F11207C0
:2042A000002959D09B467B18039317F8016B0823029333064D462BD5DBF80410A1EB09011E
:2042C0009529F9D972B64046DBF80490FFF724FF62B6019BA9EB0505AB4242D97600DBF87D
:2042E0000410A1EB09014D29F9D972B64046FFF713FF62B6DBF80450DBF80410491B17294C
:20430000FAD9029B013B029323D033064D46D3D4DBF80410A1EB09019529F9D972B640463B
:20432000DBF80490FFF7F8FEDBF80410A1EB09011729F9D94046FFF7EFFE62B6019BA9EBEA
:204340000505AB420DD9029B013B4FEA46060293DBD1039B9F42A8D10A4B5B68A3600122AB
:2043600007E040460021FFF709FD064B5B68A36000220548514605B0BDE8F04F02F0C2B990
:20438000A94A0008001000E0C095000838B50446C068FFF7C1FEA37C627C14490133DBB2A6
:2043A00082F00102012B49686274A37419D0042B05D8A268A3691344A360012038BDA36838
:2043C000E2690B4D65601A44891A881CA26948BF481D02EBA00219441144A160E2610120B3
:2043E00038BDA268891AE161E4E700BF001000E0F5430008F8B50446C068FFF78DFEA37C60
:20440000657C267DE7690133DBB285F00105B34265742CD204EBD30103F0070291F8201048
:2044200041FA02F205F0010502F001029542394607D016E092F82020024102F00102954261
:204440000FD10133DBB2B34204EBD30203F007003944EFD3A368074A62601944A16001202C
:20446000F8BDA268A3741144A1600120F8BD3946F0E700BFD14E000870B50446254803F02F
:2044800029FF23694BB1002504EB85030135586CFFF742FE23699D42F6D3A26D531EA365E4
:2044A00073B1D90709D5E16D8A4229D01A4A236E52681344A360012070BD616F0129F2D1F3
:2044C000204603F00FFF1449A36D49682269C4F880105B080121C4E91E1372B104F164069B
:2044E000002504EB850356F8041B586BC9B2FFF745FC236901359D42F3D30020606770BDC3
:20450000054A5268C4F880205B080122C4E91E23CCE700BFC8010020001000E00000000077
:2045200070B5954C238C4BB1002504EB85030135D86CFFF7F1FD238C9D42F6DBD4F87831FC
:20454000226E013BC4F87831002A00F0A780002B39D0DA0732D5B4F88621520093FBF2F1B7
:2045600002FB1132002A00F0C580D4F87421D4F88011D21A8A4272DB994240F3A9801B0285
:2045800093FBF1F3C3F5807383F308037B4AD4F87C1132F81320B4F88451794B79485E6836
:2045A00001FB05F302FB03F380FB0302DB173144C3EBA2130B44E360012070BDB4F872319B
:2045C000012B40F08D8001F027FCD4F8EC506B4203F01F0305F01F0658BF5E4264A3D3E900
:2045E000002304F0ABF804F06BFB04EB86060135C6F8F000A36ED4F87821B4F88861C4F881
:20460000EC50584200F01F0003F01F0158BF414204EB810102EBD27201335210012ECA6671
:20462000A36644D10021D4F87431C4F878310846A4F88811FFF7B0FCB4F87001B0FA80F009
:2046400031464009FFF7A8FC4D4AD4F878315268D4F87421D4F88011D21A8A428CDA130249
:2046600093FBF1F3C3F580734449D4F87C21B4F88401434D83F3080302FB00F031F813308C
:2046800040496D6803FB00F381FB0301DB172A44C3EBA1131344E360012070BD3A4B18798B
:2046A000FFF7C4FA012853D0D4F878314FE7374803F018FE00210846FFF76EFC00230822AB
:2046C000A4F86420A4F87231C4F87831012070BD2B4AD4F87C3152681344E360012070BD38
:2046E000294B1879FFF7A2FA01283FF46CAFD4F8783130E701F090FBD4F8EC506B4203F0FC
:204700001F0305F01F0658BF5E4219A3D3E9002304F014F804F0D4FA04EB86060135C6F8DA
:20472000F000A36ED4F87821C4F8EC50584200F01F0003F01F0158BF414204EB810102EB67
:20474000D2725210CA665A1CA266D4F878310CE701F062FB06A3D3E9002303F0EFFF04F0F2
:20476000AFFAD4F878312066F1E600BFAFF30080000000000088C340B80500207097000866
:20478000001000E0D34D621048070020BC050020F0B5414B414D0409012653F8243055F868
:2047A00024409D0905F1804505F5043503F01F032F6806FA03F300F00F003B432B6006FA57
:2047C00000F000294ED1B2420BBF032507251026142600230F274FF0010C09E0482E03D147
:2047E0000CFA03F10140216122600133082B14D020FA03F19A00C90707FA02FE05FA02F2C3
:20480000F3D52168282E21EA0E0142EA0102E5D10CFA03F101406161E6E70F274FF0010CA6
:2048200009E0482E03D10CFA03F10140216162600133102B15D09A0020FA03F1203AC907A0
:2048400007FA02FE05FA02F2F2D56168282E21EA0E0142EA0102E4D10CFA03F10140616183
:20486000E5E7F0BD012908D002290CD0002A0BBF0F250B251C261826ABE73AB1012A08D05E
:2048800004252E46A5E700252E46A2E7082528269FE7082548269CE73897000854970008E4
:2048A00038B500232D4A1C4601E012F8013F834205D00134112CF8D12E2001F025FB28493F
:2048C0000A68FE2B42F400720A6041D1254B4FF400021A60244B254D1A681A602A6824480F
:2048E00022F08052016822F44042043342F4004221F000512A60016019681E4A21F4006178
:204900001960116821F470011160116811601A6822F460221A601A6842F460221A601A68FA
:2049200042F480121A601A6842F001021A601A6842F008021A601A681207FCD41968094A8D
:2049400041F00401196013685B07FCD4204638BD184600220221FFF71BFFBBE76C95000842
:20496000181002400824014004240140041002402C1002402C24014010B504460079FFF714
:204980008FFF28220346064920781C4601F0CEFD0123044A80F826300462426010BD00BF1D
:2049A00079490008853900086F2838B50CD804460A46EFF3108572B6012152B2FFF7E8FEC4
:2049C00085F31088204638BD2A2001F09DFA00BF10B50A490446007801F070FB2279817F0A
:2049E000914207D90346217B207A9C18FFF7DCFFE07710BD272001F087FA00BFE136000845
:204A000010B5084904462422007801F08FFD217A034620791C46FFF7C7FF034B84F8210075
:204A2000636010BD014A0008F13C0008D0E90012074B10B504461980007A1A840121FFF769
:204A4000B3FF044B18712046BDE81040FFF774B8B805002048070020F8B5012200F00F052F
:204A60000E46040902FA05F5EFF3108772B60021FFF78EFE054B53F824301EB95D6187F39D
:204A80001088F8BD1D6187F31088F8BD549700086F2810B504D80446FFF7DEFF204610BD09
:204AA0002B2001F031FA00BF70B5044600210079FFF7EEFFA3681A040FD49EB206F114027B
:204AC00005460749207892B201F030FD0560E36843602369C360068270BD252001F014FA46
:204AE000A94A00082DE9F04104462C221149007801F01CFD94F808806768E668B8F1000125
:204B0000054618BF0121F8B2FFF74EFF01212874F0B2FFF7BDFFE8602369AB61B8F1000FBA
:204B20000CBF01231123B74208BF43F020036B74BDE8F081E54A000870B5054614220B4916
:204B4000007801F0F3FCAE68B6FA86F1044649092879FFF79DFF94F91030E060002E14BFE3
:204B6000092201221343237470BD00BF394B0008F8B5077C032F22D804461349007801F017
:204B80009DFA0646102001F0A3FC012105462079FFF70AFF00212870207AFFF779FF6860E4
:204BA000207B0021FFF774FF2F73A860337C13F0060F06D143F0020333743560F8BDFEF76A
:204BC00019FCFEF717FC00BF394B00082DE9F041D0E90068F7B284B004461E49384601F008
:204BE0006DFAD4E904230393E36802920546A0680090019339461848324643465FFA88F7C6
:204C000001F080FD032F21D805EB870322695A6162695A62207A0021FFF7C6FEEB1900211A
:204C200083F85400207AFFF733FF07F10C0605EB860607F110037060217D207B05EB8305D1
:204C4000FFF726FF686004B0BDE8F0811D2001F05BF900BF8D3A00088895000870B51449F0
:204C6000044682B0007801F029FA26798369B3421BD905460021207AFFF70AFF06F10803B1
:204C8000002145F82300207BFFF78EFE2E44D4E90235226886F83000CDE9003505486368D5
:204CA000114601F02FFD02B070BD1B2001F02CF9E53A000878960008F8B5124D43686E8B63
:204CC0000446007A56B1063305EB8305FFF7E8FD68602046BDE8F840FEF72EBF0A333146DC
:204CE00005EB8307FFF7D4FE78606368207B31461D44FFF759FE85F83C002046BDE8F84013
:204D0000FEF71ABFD801002038B5D0E900150A4B8268198004460021007B5D831A83FFF7E0
:204D2000B7FE064B00211860FFF728F82046BDE83840FEF701BF00BFD8010020480700205F
:204D4000F8B5144D436804460021007AEF18FFF72BFE666887F85C000021207AFFF798FE9F
:204D60000E3605EB860670606368217D207B123305EB8306FFF78CFE70606368D4E90462A3
:204D800005EB430120464E85BDE8F8404A86FEF7D3BE00BFB8050020B1B110B40144044622
:204DA0004FF6FF7014F8013B434083EA0313DBB2000ADA0040EA03208C4282EA131380EA69
:204DC0000300EFD110BC70474FF6FF70704700BF10B50B789B060C464FF0010108D5FFF714
:204DE0003BFE237803F0300343F00103237010BDFEF7C4FF237803F0300343F001032370DF
:204E000010BD00BF70B50446007CFEF70FFFA37C04EBD30503F00706012195F82020B14052
:204E200078B10A43D2B285F82020E27C0133DBB29A4209D9A268E169A3740A44A260012002
:204E400070BD22EA0102EEE7E06804F11101FFF7BFFF637C034843F00803637403F03AFAD8
:204E6000002070BD5807002038B50446007CFEF7DDFE637C68B143F004036374A37C5A1C45
:204E80003F2BA2740FD8A368E2691344A360012038BD5B07F2D50C4BA07463602046BDE883
:204EA0003840FFF7AFBF0025E068E57404F11101FFF78EFF637C054843F00803637403F092
:204EC00009FA284638BD00BF054E00085807002038B5C57C0446CDB1427C93060AD4E2695D
:204EE000A3681149616003EB82030022A274A360012038BD007CEFF3108572B6012102F099
:204F00001002FFF745FC85F31088E8E700F11101C068FFF75DFF637C044843F008036374AC
:204F200003F0D8F9284638BD694E00085807002070B582B016461D460A46009304469DF834
:204F400018100F48334601F0DDFB15B92369B3420FD9637F227F0133DBB29A42637701D985
:204F600002B070BD074B5B7A3BB10023637702B070BD6369B342F8D2EBE7212000F0C4FF12
:204F8000A0950008000000202DE9F04F077C17F0060F83B064D00646B80764D5994633689B
:204FA0008846197B986801F002011446FEF7E6FE17F00103019368D104F1FF3A35685FFA6C
:204FC0008AFA002C4CD009EB0A03009309F1FF3B1BF8014F4FF008094FF0000A19E0A86838
:204FE000FEF7A4F904F080016868FEF7C7FEA868FEF79CF94FEA4A022878D1B2FEF716FED5
:20500000640041EA0002B9F10109E4B25FFA82FA1CD0287BC20704F08001E0D46868FEF79A
:20502000ADFEA868FEF782F94FEA4A022878D1B2FEF7FCFD41EA0002A86864005FFA82FA39
:20504000FEF774F9B9F10109E4B2E2D1B8F1000F01D08BF800A0009B9B45B9D1019B03BBE6
:2050600003B0BDE8F08FFB07FAD5C7F3C001F06807F00807FEF782FEB7FA87F1F068490967
:2050800003B0BDE8F04FFEF779BEF068C7F3C00104F1FF3AFEF772FE5FFA8AFA3568002C41
:2050A00091D107F00807E7E7F0B51249124F87B00546007801F002F8B9230446ADF8143065
:2050C00000697E6805AB02220121FFF75DFFE18A9DF815207B680948CDE90221627E019284
:2050E000A28A296800929B1B324601F00BFB07B0F0BD00BF0D370008001000E0A895000898
:20510000F0B5474B04460D4693E8070085B001AB03C320691A70012101AB0922FFF734FF5D
:20512000627E9DF8061002F11A0311F0F000234417D0F02815D0A118FF221A71DA709A70DF
:205140005A708A76637E0533DBB22D2B637603D929462046FEF786FC237E9B0743D405B077
:20516000F0BD9DF8080010F0F00639D19DF80A7017F0F00601D0F02EDDD19DF80B60902E7E
:20518000D9D19DF80C6026F08006202ED3D84FEA870C22440CF0600C00F01F004CEA0000F0
:2051A00001F01F019DF805C082F81AC041EA47119DF809209DF807701871D9705F709A7038
:2051C000637E0533DBB22D2B63761FD81E2E22D9E38A0133E382134803F07CF805B0F0BD90
:2051E000F02EA8D1C2E7204603F07CF8237E23F00403237672B60C4AE36852681344A36071
:20520000204603F097F862B605B0F0BD29462046FEF728FCDAE7023E1E2EDCD99CE700BFFA
:205220006095000838000020001000E02DE9F04307782F49054687B0384600F03FFFAE68A5
:2052400004467EB103F04EF86B68A360AB68E3600022012362612383204603F06BF807B04E
:20526000BDE8F08303F03EF8224D26762D23ADF8143031462069D5F8048005AB0222FFF78E
:2052800083FEB926D5F80490212501E0013D14D005AB2069ADF8146002220121FFF774FE04
:2052A0009DF8153033F0800307D0202BEED839462046FFF725FF013DEAD1637E8BB99DF8D4
:2052C0001520E18A0391CDE90132A38A00930A48A9EB08034246394601F014FA07B0BDE89E
:2052E000F08339462046FEF7BDFB637EE7E700BF0D370008001000E0A895000810B50446AB
:205300000549007800F0DAFEA36822790021BDE81040FFF739BE00BF394B000870B5057869
:2053200009490446284600F0C9FEA6682479334622460121FFF728FE334622462946034847
:20534000BDE8704001F0DEB9394B0008989500082DE9F04F0446B14889B00B46051F8022C7
:205360000021CDE90343069504F09CF84FF480720021AB4804F096F8AA4B214604EB44147F
:2053800003EB84032846D3F8C4204B0105932B1D0093514201F01F0102F01F0358BF4B4260
:2053A000A049234401EB83030132D3F8C83040F8043F9D4B9842ECD14B8B002B40F0008189
:2053C0009A4BA3F17805286803F04EF9044655F8040F0E4603F048F926F0004A804621F0A4
:2053E00000490F462046424651464B4603F018FCA34618B9C346CA463E4644466F683846BC
:2054000003F032F921F000495A465346494603F025FC20B12046314603F02AFC0746834B56
:2054200045F8047C9D42CED17E4E8148D6F8F01203F028FE03F02AF90446B6F8EE020D4662
:2054400003F018FD01467B4803F01CFE01464FF07E5003F017FE03F019F922462B4602F001
:20546000B7FF0B4602462946204603F091FA6C4B009C029306460F464FF0000A4FF0000B6E
:205480001D462346D3E90030C01A03F0EDF852465B46804689463046394603F04FF90B4653
:2054A00002464946404602F093FF5F4B043482468B469C42E5E902ABE3D15A4BDFF88091F6
:2054C000D3F8F442204603F0E1F802460B464FF07E502146CDE9002303F016FC03F0D6F8ED
:2054E000A9F1F80882468B4600240025F8E90223DDE9000103F022F922462B4606460F46DB
:205500005046594603F01AF902460B463046394602F05EFFC84504460D46C8E90045E5D11D
:20552000404BB3F81880B8F1000F24D03C4BDDF808A000252C462F4603F5807604E00137D7
:20554000474518D0DAE90054DAE93E012A46234603F084FB0028F2D1314B224601E0D3E907
:20556000005202F10042C3E900520833B342F6D101374745E6D1049B012B1DD1059B039A3E
:205580002D4C9D18274B03EB8505C435F4E9020103F06EFB4C4545F8040FF7D10399059BD9
:2055A000204A0B4402EB830308F1FF3800228845C3F8C42000F0C980194809B0BDE8F08F8A
:2055C0001D4B069C07931D4654F8040F03F04CF8154B9C42E5E90201F6D1124B1B8B0293C0
:2055E000002B00F0D7800E4B144FD3E900454FF0000A00269B4604E0029B0AF1010A9A45C6
:2056000033D0DBE93E0122462B4603F027FB0028F2D1DFF80C8008F5807915E040000020FD
:20562000C0000020D8010020BC000020B800002084F9223E00007A44B80000200000B0407A
:20564000B8010020D8E9004522462B463046394602F0BCFEE8E80201C145F3D1029B0AF1BC
:20566000010A9A45DBE90045CBD14C4BDFF83481D3F8F462304603F009F802460B464FF015
:205680007E503146CDE9002303F03EFB02F0FEFF08F1F80982468B46F8E90223DDE9000171
:2056A00003F04CF822462B4606460F465046594603F044F802460B463046394602F088FECF
:2056C000C14504460D46C8E90045E5D1049B002B3FF472AF039A059B3049079D134401EBC0
:2056E0008302002102F1C404C2F8C410F5E9020103F0E6FAA94544F8040FF7D1029B039AC8
:20570000013B93427FF458AF244B06981A6C514201F01F0102F01F0358BF4B421F4901EBBB
:20572000830301325B6C40F8043F1D4B9842EED100220A64069A01F1400352F8041F43F860
:20574000041F17498A42F8D136E7144B06981A6C514201F01F0102F01F0358BF4B420F49DD
:2057600001EB830301325B6C40F8043F0C4B9842EED1069A01F1400352F8041F43F8041FB2
:2057800007498A42F8D1054A06480023136409B0BDE8F08F034BD3E9004566E7D80100207B
:2057A000BC000020C00000202DE9F04F7A4C668B238B83B00546002E40F0A180002B00F05B
:2057C000DD803146631893F83C00FEF72FFA238B88400131994246EA0006F3DBDFF8C481F2
:2057E0007EB100F019FBD8E9002302F0EFFD66A3D3E9002303F028FA10B903B0BDE8F08F17
:20580000238B0026002B65D004EB86030021D86AFEF7B4FA238B01369E42F5DB1827002BD7
:2058200058D0002604EB86030121D86AFEF7A6FA218B01368E42F5DB00294BD005EB810170
:205840002B461A68520043F8042B9942F9D1002604EB86030021D86AFEF790FA238B01368F
:205860009E42F5DB83B12E1F00216318013193F83C00FEF7DBF956F8042F238B002818BF6B
:20588000013299423260F0DB013FC8D113B304EB87030121D86AFEF771FA218B01378F420C
:2058A000F5DBB9B105EB81012B4653F8042B100248BF42F07F428B4243F8042CF5D1002621
:2058C00004EB86030021D86AFEF758FA238B01369E42F5DB00F0A0FA238BC8E9000153B123
:2058E0002E4A05EB83002B6852F8041B5B1A45F8043BA842F7D1012003B0BDE8F08F002BFB
:20590000F9D00FF28C09D9E90089031FDFF898B001934FF0000A00F07FFA0AF10605064604
:205920000F4604EB85050AE000F076FA32463B4602F04CFD42464B4603F072F920B1686803
:20594000FDF7B6FC0028EFD1DBF80030228B019923F00203CBF80030DBF8003023F010033B
:20596000CBF800300E4B1B689BB241F8043F0AF1010A52450191CEDC0120BDE7DFF8248076
:20598000A8E700BFAFF300809A9999999999993FFCA9F1D24D62603FD8010020E004002075
:2059A0004C240140D0010020002401402DE9F0475B4E86B00546FEF7BFF8748B0021C6E9EE
:2059C000C311C6F81413C6F80813002C40F09C806B68002B00F09780328B8AB1274606F15C
:2059E000C8038022184643F8047C002103F05AFD328B01340346A24203F18403F1DC6B687C
:205A0000202BA8BF2023082B4FF00007B8BF08231D463C46CDE90244CDE9044402A8FFF7F7
:205A2000C3FE0028FAD0B6F818C0BCF1000F1DD03B480DF1080E0021D0F8C4305EF8048B2B
:205A40005A4202F01F0203F01F0958BFC2F1000901EB41124A4406EB82020131013361455B
:205A6000C2F8C88000F184000364E5DB0137BD42D0D1BCF1000F41D02A4CC5EB857804EBD1
:205A800085044FEA88084FEA85090CEB4C1A4FF0000E04EB08000027BD42C8BF034608DD71
:205AA00053F8041F42688A4284BF41601A60A342F6D10137BD4200F10400EDD10EF1210EE0
:205AC000D64504F18404E4D1174CA4F51370043D08F1100804EB8C0C484454F8042B08EB27
:205AE000000353F8041F83420A44FAD192FBF5F2644503F1840044F8042CEED1D6E9C223F3
:205B0000D6E9C40103E0194608460B460A46CDE900013188054800F0F5FD06B0BDE8F0875F
:205B2000D80100209C020020E004002050960008704700BF10B48268D0E90034EFF3108138
:205B400072B6DBB2012B07D0022B0BD0D2B2227081F3108810BC704792B2228081F31088EE
:205B600010BC7047226081F3108810BC704700BF70B40D4A03780D4C126825780133DCB2AA
:205B800002EBC40204E052F8084B8C4207D00133DBB29D421646F6D8002070BC70470370EC
:205BA000706870BC704700BF740A0020700A0020054A0649136810B4013B0C6804600860DA
:205BC00010BC1360704700BFFC0A0020640A002070B50446C06958B10E460025D0E9002366
:205BE0003146E261C0E900559847E0690028F5D1BDE87040014802F06DBB00BFF80A00203E
:205C000008B5037DDA0709D523F00503817D417543F0040303750C38FFF7DAFF002008BD0F
:205C200010B50446074894F8203043F0040384F8203002F04FFBA368A2691344A360012057
:205C400010BD00BFF80A002010B504460548A368A2691344A36002F03DFB607F00F00100D0
:205C600010BD00BFD807002010B5044602F03AFB04F10C0002F036FBE36933B100211A468E
:205C80001B68C2E90011002BF9D10023238484F82230E36110BD00BF38B50446007BFDF7C2
:205CA000C5FF94F8205088B1ED4305F001058DB994F82230013B13F0FF0315D0A2686169A2
:205CC00084F822300A44A260012038BD05F00105002DEDD00F49A26994F8213084F822309D
:205CE000C4E90112012038BDE06990F82030DA070DD523F0050394F8231080F8211043F034
:205D0000040380F82030FFF763FF284638BD284638BD00BF195D000810B50446007BFDF7DB
:205D200085FFA36822691A4494F8203030B1DB4303F0010333B1A260012010BD03F001034E
:205D4000002BF8D1034BA26163602046BDE81040FFF7A2BF995C000801790078FEF798BE4F
:205D600038B50446A0F13405284602F0BBFA237A54F80C2C002144F82C1C44F81C1C54F887
:205D8000201CD8064CBF521AA2EB5102002A03F0140343F00803C8BF52420021237244F813
:205DA000201C686A44F80C2CFDF7E8FF217ACB0605D409E0036844F8083CFFF7F9FE54F834
:205DC000080C0028F6D138BD286A01F00401FDF7D5FFF4E710B504468069FEF79DF994F891
:205DE0002C30A26883F00103D9074CBFE168216984F82C305B070A4402D4A260012010BDBA
:205E00006369D11A0029F8DB024A62601A46A260012010BD7D5F00082DE9F8431C4E1D4B6A
:205E2000D6E9004554EA05015A684FF000030DD11949D1E90001C6E9002302F049FC12A35D
:205E4000D3E9002302F0A4FDBDE8F883AB4208BFA242114F27BF4FF00009C8464FF0FF3905
:205E60004FF00008101B3C6863EB050100197C6844EB010110EB090041EB0801C7E90001A0
:205E8000D9E700BFAFF3008000000000389C9C41500A0020001000E0C007002038B5C46A44
:205EA000034614B94461204638BDB4F90810626890F83C002568DD6219828D18C106DD6069
:205EC00010D598686189596102449A60227B12F0010F9A6A12D1114499622046FFF768FE51
:205EE000012038BD61899869024448009A619A605861227B12F0010F9A6AECD0891A586A91
:205F00009962FEF709F9E8E708B5014672B6014803F01EFB880A002038B50446006AFEF7F7
:205F2000FBF8144A63695568E269013B1544DA07636102D5A560012038BD6BB1E168A3699F
:205F4000B4F910200B440A44591B0029A361E260F0DBA360012038BD2046FFF79FFF0028DE
:205F6000EAD0A3685B1BE7D5034A9342E2DA1920FFF7CAFF001000E0402BFEFFF8B5476A9E
:205F8000002F7AD0BE683B684362351E18BF0125044629468069FDF7F1FE3846FFF708FECB
:205FA000AEB1216AB14212D9E269002A54D1606A94F82C3045F00205002864D1A268606169
:205FC00003F010032B4384F82C30B31832E094F82C30B6FA86F183F01002C2F300124909EB
:205FE000914214D0E26992B1A368616A45F004051A44002937D194F82C10626101F010012C
:20600000294384F82C10A90723D533440EE0606AC0B100214268626145F0040503F0100342
:206020002B4384F82C30A1B1A3683344991A00290FDA216A154A6260891BC4E902362161CA
:206040000120F8BD03F010032B4384F82C306061F8BDA2600120F8BDA368616A45F00605BA
:206060001A440029C7D04968521A002A08DB0A4694F82C3005F00201CDE71620FFF744FF85
:206080001420FFF741FF0221C4E700BFD55D000808B50D20FFF738FF08B5054A537A23B10B
:2060A000022B1CBF0023537208BD0220FFF72CFF0000002008B50720FFF726FF08B5084BB9
:2060C0001B78834209D9074B1B6853F830208A4203EBC00001D1406808BD0B20FFF714FF29
:2060E000700A0020740A002070B50C4905460078FFF7E4FF72B690F82030DB0701D462B683
:2061000070BD00F10C060446304602F0EBF86B686361304602F00EF962B670BD7165000891
:2061200038B50F4905460078FFF7C8FF044672B6FFF79AFD012384F820306B68A360AB68C2
:20614000A36123B9EB6884F8223062B638BD204602F0F0F8EB6884F8223062B638BD00BF04
:206160007165000838B5174905460078FFF7A6FF044602F0B7F86B68A360AB6863612B7B58
:2061800084F82130CBB12A69226184F822306B690D4A6260002B14BF0323022384F82030D0
:2061A000287E0A49FFF78AFFEB6984F82330E0612046BDE8384002F0BDB884F82030E36109
:2061C00038BD00BF95650008195D00087165000838B50E4905460078FFF770FF0C490446A2
:2061E0002879FFF76BFFEFF3108272B6A36B4BB9C369084D04F13401C4E90D35C16182F3BF
:20620000108838BD1A20FFF77FFE00BFB965000871650008615D000810B504460A490078E1
:20622000FFF74CFF626872B643694BB990F83C30826023F00803826180F83C3062B610BDDB
:206240001720FFF761FE00BFB965000810B5044609490078FFF732FF6368002B14BF0223DF
:20626000002372B690F83C2022F00202134380F83C3062B610BD00BFB9650008F8B51D49C2
:2062800005460078FFF71AFF044602F02BF8636A6BBB2E7994F82C50A069371E18BF0127CE
:2062A0003946FDF76BFDB6FA86F385F010025B09C2F30012934201D0E3692BB905F0100548
:2062C0003D4384F82C50F8BD0B490C4A4968626005F010023A4342F004020B4484F82C20A1
:2062E0006361A3602046BDE8F84002F023B81320FFF70AFE39660008001000E07D5F00081B
:2063000010B5074904460078FFF7D8FE72B6436A1BB96368036262B610BD1520FFF7F4FD00
:206320003966000838B5104905460078FFF7C6FE044601F0D7FF6B685B00DBB2637783B119
:2063400013F0C00F0DD143F00103084A6377536803F56A436033A3602046BDE8384001F0C0
:20636000E9BF1120FFF7D0FD9D660008001000E0F8B5EFF3108572B6094A106868B1094904
:20638000094C0B682668076817600133B34288BF23600B6085F31088F8BD0E20FFF7B4FDC9
:2063A000640A0020FC0A0020000B002038B5274904460078FFF782FE0546FFF7D9FF636885
:2063C000436023894381002B3DD0E36803810023037372B695F83C3003F00101C3F34002FC
:2063E000914205D0027B42F0010283F0010302736A69B2B913F0080203D0FFF7D9FB62B657
:2064000038BDE96A85F83C300260A9B12B6B186028632846FFF742FD284601F08BFF62B652
:2064200038BDEA6A85F83C30002303603AB12B6B1860286362B638BDC5E90B00E9E7C5E9DC
:206440000B0062B638BD1820FFF75EFDB965000870B51D4905460078FFF730FE0446FFF7C3
:2064600087FF6E684660AB68836072B6636A0022026023B1A36A1860A06262B670BD94F87F
:206480002C305A07C4E9090016D443F004029B07666184F82C200AD4204601F023FF0B4B88
:2064A0002046C4E9013601F045FF62B670BDA3689B1B002BF9DBEFE76269921B002AE4DA22
:2064C0001420FFF721FD00BF396600087D5F000838B50A4D0A4B2C68211899420BD8C31C27
:2064E00023F0030302462344002120462B6002F0D9FF204638BD1020FFF706FDCC07002081
:20650000007E002038B5074C236843B90568E8B2C000FFF7DDFF044B20601D7038BD092003
:20652000FFF7F2FC740A0020700A002070B50D4B1C788442034611D910460B4A1DB2126841
:2065400052F8356002EBC30446B9084B1B882BB942F83510FFF7BCFF606070BD0A20FFF792
:20656000D3FC00BF700A0020740A0020600A002008B5242200780449FFF7D8FF034A044B9A
:206580004260036108BD00BF71650008215C0008015C000810B50749044624220078FFF796
:2065A000C5FF217A034620791C46FEF7FDF9207310BD00BF9565000870B505461A490078E1
:2065C0004022FFF7B3FFEE68002ECCBF0421002180F83C1004462879FEF75AFA20620021C1
:2065E000287AFEF755FA114B60624FF040421988A2622A69E2610023C4E90B3391B90C4BAC
:2066000019780F299CBF1021197042B9002E06DA94F83C3043F0100384F83C3070BD054BF0
:20662000636070BDFFF734FDB9650008600A0020680A0020195F00088168003938B518BF9B
:20664000012104460079FEF723FA3022054610492078FFF76BFF8561D4E90232003B18BF6C
:20666000012312B143F010035BB20A4A80F82C3023691288C3610023C0E9093332B9064B2A
:206680001A780B2A9CBF0C221A7038BDFFF700FD39660008600A0020680A002070B5054605
:2066A000202200781449FFF741FF6B68134A4260052B1ED80646A3B10124224605EBC203B3
:2066C00015F832005968003918BF0121FEF76CF96B6832190134E4B201339C42D072224689
:2066E000ECD30022064BB28349F27C21B161736170BD1220FFF708FC9D660008495C000864
:20670000DC0700200FB42DE9F04FDFF80C8285B098F80030DDF838A0DBB223B105B0BDE89C
:20672000F04F04B07047DFF8F4B1012288F800209BF800100FACC9B20394DFF8E49199F823
:206740000060F6B2B14205D389F800301E468BF8003019469AF80150AB19602B2F4640F266
:20676000CC80591A602907D9002388F8003005B0BDE8F04F04B07047002789F800709BF86F
:206780000010C9B261480090761A3246014402F021FE8BF80070F3B25D4A89F8003013686C
:2067A00043F0800313609AF801502F46009B052D03EB060B65D99AF802109AF80030DAF816
:2067C00004708BF80230033D5D440BF10303002953D09D42C0F096807A180196924630E0AB
:2067E00054F8041B01F120027F2A22D901F58052B2F5804F18D301F50022B2F5001F0ED38E
:2068000001F18062B2F1805F04D30A0F62F07F0203F8012B4A0D62F07F0203F8012B8A0B52
:2068200062F07F0203F8012BCA0962F07F0203F8012B01F07F0103F8011B57451CD09D42A2
:2068400060D317F8012B052A3CD0C9D9063A012A58D8A446E91A5CF8086B8E4228BF0E4693
:2068600003F8016B324661681846644602F018FD574503463344E2D1019EA3EB0B03DF1C1C
:20688000FDB2244B009A1B789555FC1E8BF8013021465846FEF780FA5F442E44020A7E23BF
:2068A0000BF80420F6B207F8020C07F8013C184A89F80060136843F080031360002388F836
:2068C000003054E754F8040B0278591C6AB18D4202D815E08D420BD001F8012B10F8012F43
:2068E000002AF7D1CA1A013AD2B21A700B46A4E7EA1A013AD2B22946F7E7044B009355E76F
:206900000022F2E70520FFF7FFFA00BF5C0700200C44004030000020480A0020BD070020F0
:20692000BC07002070B50678154982B005463046FFF7C4FB044672B690F82030DA070AD5C1
:2069400023F00503297980F8211043F0040380F82030FFF73DF9204601F0C4FC04F10C008B
:2069600001F0C0FC002294F8213084F8202062B6044800923146FFF7C5FE02B070BD00BFEB
:20698000716500083896000870B504780B4982B02046FFF793FB72B690F82050866962B60B
:2069A000007BFDF743F933460090C5F3400204482146FFF7A7FE02B070BD00BF956500083B
:2069C0003096000810B504780D492046FFF776FB72B690F83C30826A13F0100F436914BFDC
:2069E000D21AA2EB5302002AB8BF524262B60548214602F14042BDE81040FFF783BE00BF68
:206A0000B965000828960008034602485A681978FFF778BE10960008D0E90031EFF310826C
:206A200072B6DBB2012B08D0022B0DD00978C9B282F310880748FFF765BE098889B282F3E1
:206A400010880448FFF75EBE096882F310880148FFF758BE18960008D0E9001240F67B3308
:206A600099420DD8D2B2501840F67C33984202D9C1F17C02D2B2054B05480B44FFF742BE3A
:206A8000024B034800220B44FFF73CBE8099000880950008064A0749074B526809681B681F
:206AA0000648914294BF1946591CFFF72BBE00BF001000E0E40A0020E80A0020F89500084B
:206AC000024B03485968FFF71DBE00BF001000E00096000810B50A4A0A4B11885B7A0A4A0F
:206AE0000A48126882B0A1F10A04003918BF0121003B009418BF0123FFF704FE02B010BD85
:206B0000600A002000000020D007002008960008124B1888E0B1013830B41AD0104A114BE3
:206B200015681C7800222B4619460132234482420B60F9D102FB04540B4B0C4A0C491D60EC
:206B400000232360126809680A4830BCFFF7DABD7047034B1D682C46EEE700BF600A0020BF
:206B60006C0A0020680A0020640A0020000B0020C807002078990008F8B5184E338853BB50
:206B8000174A1378032B9CBF042313701A46154B19680546144800240B461F4613448342F8
:206BA00012D80134B4F5805FF7D12746581AFFF78FFC0E4A0E4B10601C603780FFF7A8FF15
:206BC0000C4B2A681A60F8BD14B13B46A7B2EDE70F20FFF799F90C20FFF796F9600A002038
:206BE000680A0020CC070020007E00206C0A0020C8070020D00700202DE98048B84BBDB0A8
:206C00000CAF5B683B63B74A92F90830002B00F06E84B34B5B687B6172B692F90830002BD4
:206C200040F0398562B6AE4B7A695B689B1A3A6B1A44BA62AB49AC48012200230A7287F8B2
:206C4000403001F03FFB48B3FF2387F8403007F14009A6494846FEF78BFF0446F0B1237FC3
:206C6000772B00F25F8100263546637F2A4601352B4113F0010340F04D81217F62690A444D
:206C8000052D935506F17C06EFD10131217748469649FEF76DFF04460028E0D1944801F019
:206CA00011FB58B3FF23934C8D4E934D87F8403007F1400921464846FEF75AFFF0B190F865
:206CC00020305A07F6D5D6F804C072B690F8202090F8213022F0040180F8201062B697F877
:206CE0004010CDF800C0284602F00102FFF70AFD21464846FEF73CFF0028E0D17F4801F0A9
:206D0000E1FA002800F0E081FF2307F13F0A87F83F30C7F834A07A49786BFEF729FF04462E
:206D2000002800F0D181237DDB0740F1CD81E369002B40F3C981002207F14005C5E90222C3
:206D40003A646A60A369002B00F09D8193461646A31993F83000FCF769FFA369B04001364C
:206D6000B3424BEA000BF3D85D4A5068654AD2E900124FF00009914508BF8842804603D2EE
:206D800010F1FF3849F10009BBF1000FC3D1B8EB010069EB02017B6202F07AF85A4902F058
:206DA000BDF85A4902F06EF902F008FA7B6A3863002B72D0002606F10803002154F8230089
:206DC000FCF7DCFFA3690136B342F4D81826002B63D04FF0000A0AF10803012154F8230065
:206DE000FCF7CCFFA1690AF1010A5145F3D8002953D005EB81012B461A68520043F8042BF7
:206E00009942F9D14FF0000A0AF10803002154F82300FCF7B3FFA3690AF1010A5345F3D8D4
:206E2000A3B1AB464FF0000A04EB0A030AF1010A93F83000FCF7FAFEDBF80020A3690028F5
:206E400018BF013253454BF8042BEDD8013EBED11BB306F10803012154F82300FCF78EFFAA
:206E6000A2690136B242F4D8BAB105EB820255F8043B1E0248BF43F07F43AA4245F8043C20
:206E8000F5D1002505F10803002154F82300FCF775FFA3690135AB42F4D8114B19495A6894
:206EA0000A60FB6C1A4800224A60217B0593BB6C04937B6C03933B6CCDE90183A38B0093C2
:206EC00097F83030FFF71EFCE369013BE361002B7FF421AF237D23F0010323751BE700BF69
:206EE000001000E000000020D80700209D660008F80A00207165000838960008CC010020B5
:206F0000E53A0008580A002000007A44C0E1E44C809600082244107BFCF788FE031E18BFB9
:206F20000123AAE6637F65697D6303F0FE0B84F81DB001263C634BFA06F313F0010333D1B9
:206F4000AB670136062E05F17C05F4D1D7E90C42D2F86802D2F8F43097F840101546926F0D
:206F60000290D5F8EC010190D5F8700100909048FFF7C8FB6269657F0120773206460021EF
:206F8000A2F1780303F8011F9A42FBD106FA00F301300628C2F8011025EA030502F17C027B
:206FA000EED16577217754E62C782846012302E00133782B14D010F8012FA24259B2F7D0A3
:206FC00077290DD02C46762014F8778F14F801CDC4454FFA80FE06D10138F7D1A867B0E7F2
:206FE0000020A867ADE7BEF1010F5FFA80FCF7D015F800A0EC5C544500F02883D81C6045B1
:20700000EEDAACEB030301338C45C3F38708C0F252860020864601E014466A5CA24201F174
:20702000010118BF013049B2964418BFC0B28C455FFA8EFEF0DAF045D2D803EB4303C3F3DF
:2070400087037345CCD3431CC3F347037345BEFBF3F0C5D849F27C2303FB00F001F004FB47
:20706000544B002201F06AFB02460B464EA1D1E9000101F08DFC504B002201F05FFB01F043
:207080001FFEA8675DE74D4A50684D4AD2E900124FF00009914508BF88428046BFF477AE80
:2070A00018F1FF3849F10009B8EB010069EB020101F0EEFE434901F031FF434901F0E2FF6A
:2070C00002F07CF83863E8E6404801F0FBF8D8B1FF233F4DDFF8108187F8403007F14009A6
:2070E00000260AE0A36F7BB1D4F88030B4F87C20217B4046FFF706FBA66729464846FEF766
:2071000037FD04460028EDD1324801F0DBF800B3FF23314C314D87F8403007F14009214666
:207120004846FEF725FDA0B190F8262090F827309A42F4D172B690F8262090F82730934261
:2071400000F0788262B621464846FEF711FD0028EAD1234801F0B6F8002864D0FF23214E5B
:2071600087F83F3007F13F0A4FF0000B31465046FEF7FEFC0446002855D0E37FD807F5D5F8
:2071800072B6E37FD4F8088023F00103E37762B6A37F032BEAD8DFE813F033021102E30180
:2071A000290000BFAFF3008000000000389C9C41209600080000104000004E40001000E088
:2071C000580A002000007A44C0E1E44CC80100208D3A00083C000020794900089095000893
:2071E000500700203937000888960008A7F840B0A06997F83F5007F1400302220121FDF74F
:20720000C3FEB7F84020009552BA204602F00603414692B2FDF78CFE31465046FEF7A8FCAD
:2072200004460028A9D1B44801F04CF898B3FF23B24DDFF8F48287F83F3007F13F0A022621
:2072400029465046FEF794FC044620B3237E5907F6D5DA0740F1E98101F044F840F62D03AC
:207260002676A7F84030206907F1400302220021FDF78AFE72B6D8F80420E3681344A3601D
:20728000204601F057F862B629465046FEF770FC04460028DAD19A4801F014F818B3FF23E1
:2072A000984C994D87F8403007F1400921464846FEF75EFCB8B1437C1B07F7D572B6437C93
:2072C00023F00803437462B6C27C97F8401000F12003D2082846FFF715FA21464846FEF759
:2072E00047FC0028E7D1894800F0ECFF30B3FF23874C884D87F8403007F1400921464846ED
:20730000FEF736FCD0B190F82030DE07F6D572B690F82010826821F00101D0E9063680F8F3
:20732000201062B697F8401000962846FFF7EAF921464846FEF71CFC0028E4D1764800F0BC
:20734000C1FF20B3FF23754C754D87F8403007F1400921464846FEF70BFCC0B1037FFF2BB7
:20736000F7D172B6837C002B00F08581427F027762B6C27E97F84010133000902846FFF755
:20738000C1F921464846FEF7F3FB0028E6D1654A654B4AF6AA2111605A6872B663490B6898
:2073A0009B1A002BB8BF0A6062B6614B1D78EDB2002D58D05F4B1C78E0071DD4042D52D94D
:2073C0005D4A92F800A0AAF105033B2B0CD8567826F00F03102B07D1554544D3531E13F8B9
:2073E0000A307E2B00F09684BAF17E0F00F07184504B44F001041C704F482A467E2101F08C
:20740000FFFE002800F062844B4A831A494A04F0FE04147003F1010AA30700F14884454B3C
:2074200044F002041C704548FFF76CF94FF0FF34002080463E4B1D78EDB2B5EB0A0640F0A9
:207440002884EFF3108272B6394B1B78DBB29D4240F03884364B1E7082F31088012C02D159
:207460003648FFF74FF9304B354D364C5B68B86A2A682168344E3B63181A02EB000E013152
:20748000B0F5803FC5F800E0216080F0F680D6F800C000FB00F3FF330CEB1323634538BF0A
:2074A0004FF0FF33DFF8B48028483A6BD8F8009033601044A0EB09000028FFF6A4AB72463C
:2074C0002348FFF71FF93A6B914503D9214A1368013313603A6BC8F800201F4A00233360AB
:2074E0002B60236092F90830002B7FF492AB3B6BBB62FFF79FBB00BF380000200D3700086A
:2075000058070020E54A0008B8950008C4010020014A0008C8950008C0010020E1360008C3
:20752000D095000800300040001000E054070020B0050020F40A0020F004002010A900083B
:20754000EC0A0020D4070020F00A002000BA3CDCF0950008E80A002000000020E40A002061
:207560004FF0010997F83F30C7F84090A0697B63494607F140030322FDF706FD07233D6C95
:20758000A7F84030A069494607F140030222FDF7FBFC2DBA97F841307A6B00924FEA152925
:2075A00009F00109C5F30F2523F003032A464146204643EA0903FDF7BBFCD7E50C233B64F8
:2075C000A06997F83F9007F1400304220121FDF7DBFC3D6C0F23A7F84030A06907F14003C8
:2075E000022201212DBAFDF7CFFC97F84130CDF8009025F07F4241462046FDF799FCB5E564
:20760000C7F840B0A06997F83F5007F1400304220121FDF7B9FC3A6C009512BA4146204674
:2076200002F00703FDF784FCA0E597F83F10FDF767FD05E6013380F826304269038B62B6E1
:2076400097F840102846FFF75DF868E50CF1FF30C0B200F1010EAE4406E001384FFA80F8D5
:20766000B8F1000F7FF7CAAC1EF8018DD045F4D05FFA80FCC2E462B66BE6B0F5801F07D2E8
:20768000D6F800C000F1FF031B0A00FB03C305E74FF0FF3306E7CA4ADFF82CB3DFF83C83D9
:2076A000FF2307F140091372C7F8249062B67A6ABBF8EE520023C2E90033C2E90233002D72
:2076C00000F0E781BBF81A30FBB1FEF7A5FB81468A46DBE90223CBE9049A00F077FE024695
:2076E000284614460D4601F0C1FBB64901F0CAFC00F0CCFF02460B462046294601F090FA68
:20770000002840F00D81CBE9029AD7F824904846FEF74AF8002800F00381FEF77DFBDBF80F
:207720004040634203F01F0304F01F0558BF5D42A1A3D3E9002301F001F801F0C1FA0BEB92
:207740008505BBF8186068640134CBF84040002E00F0C5829C484C460022B446D0F8C4307D
:2077600054F8046B594201F01F0103F01F0558BF4D4202EB421129440BEB81010132013359
:207780006245C1F8C86000F184000364E6DBBBF81A30002B00F0E28100237B63ABF8E23291
:2077A000BB62B86A0021FDF7D3FDDBF8FC523D620446002D00F0C681DBF8000300F044FF2E
:2077C0004FEAC50ACAF5807AA24405460E4604F580744FF0000974E902012A46334601F0F4
:2077E00033FA002818BF09F10109A245F3D13B6A994500F0A781BBF8E232ABF8E232BB6A70
:20780000BBF8182001339342BB62CADBBBF8F8327A6B934200F38480BBF8E232002B7FD0E3
:207820000024ABF8EE42FEF7F7FA63A3D3E9002300F084FF01F044FA644BCBF8D802012176
:207840001868FCF79BFABBF8183043B120460121FDF77EFDBBF8183001349C42F6DB102328
:20786000CBF8D432BBF8EC0201F000FB554901F009FC0646FEF7D0FA554B81461C468A467A
:20788000D3E90023C4E9029A00F0A0FD044630460D4600F0FBFE02460B462046294601F0D8
:2078A000BFF900283CD1DBE9B503494C9BF800100138C0F10F02C4E9009A0BEBC204CBF866
:2078C000D402D4F858020A902046D4F8D4410994D0F8500108900BEBC2042046D4F8CC4083
:2078E0000794806C06900BEBC2042046D4F854420594D0F8D00104900BEBC2042046D4F833
:207900004C410394D0F8C80002900BEBC2005200406C01909BF8E20200902E48FEF7F2FE78
:20792000B8F86430002B00F0AC80B8F8660001F09DFA244901F0A6FB0646FEF76DFA244B08
:2079400081461C468A46D3E90023C4E9029A00F03DFD044630460D4600F098FE02460B46AA
:207960002046294601F05CF90146002840F08980174BD8F8EC40C3E9009A002C55D08022AD
:20798000786A07F13C0501F08DFD224607F1BC012C46504200F01F0002F01F0358BF434271
:2079A00008EB83030132D3F8F03044F8043FA142EFD1094A2B4613E0000000000088C340CC
:2079C0000000002000007A44D801002048070020780A002040960008A4060020B80500203A
:2079E00053F8040F42F8040F9942F9D10023D8F86820C8F8EC302C46504200F01F0002F0DB
:207A00001F0358BF434208EB83030132DB6E44F8043FA142F0D1B84B55F8042F43F8042F9F
:207A2000A942F9D10023C8F86830B8F86440D8F8603098F80010B148013CA4B2C4F1070278
:207A400008EB0215A8F86440AC6F07946C6F06942C6F05942C46ED6E0495D4F8FC40039474
:207A600008EB02152C46D5F8F8500295D4F8F440019408EB02149200D4F8F0400094FEF729
:207A800041FE9F4B93F90830002B7FF40FAEFFF7C9B8BBF8E032002B4ED0BBF81A300BB35E
:207AA000BBF8DC0201F0E2F9964901F0EBFA0646FEF7B2F981468A46DBE90223CBE9049AF6
:207AC00000F084FC044630460D4600F0DFFD02460B462046294601F0A3F800287FF420AFF3
:207AE000CBE9029A786AFDF75FFE00283FF418AFBBF80040FEF790F97DA3D3E9002300F081
:207B00001DFE01F0DDF8F96C3B6C0291B96C0191796C0091024621467B48FEF7F3FDBBF8AE
:207B2000DE32BBF8E02201339BB29A42ABF8DE3204BF0023ABF8E032DBF8D432002B3FF49E
:207B4000EFAE8FE6BB6ABBF8E222012101FA03F313437A6B0A447A639BB24EE67B63ABF8BC
:207B6000E2329A4606E0BBF818300AF1010A9A45BFF64CAE00215046FDF7EAFBDBF80053E6
:207B8000D0E93E2304462846C7E90A2300F05CFD02460B46D7E90A0101F060F8B8B1680867
:207BA00000F052FD02460B46D4E93C0101F056F868B1564BA3FB0530400800F045FD024665
:207BC0000B46D4E93A0101F049F8002855D1DBF8C4301F2BC7DDD4E93C56D7E90A012A469D
:207BE0003346C7E9065601F039F80028BBD0D4E93A2328463146C7E9022301F02FF8002817
:207C0000B1D0C7F810A0C7F804B0D7E90AABA4F108090023E0343B622646F9E902455046E7
:207C2000594622462B4601F019F880B1D7E9060122462B4601F012F848B1D7E902012246DA
:207C40002B4601F00BF810B13B6A01333B624E45E3D13B6AD7F810A0D7F804B01D2B82D1FF
:207C6000DBF8FC0200F0F0FC02460B46D7E90A0100F0D6FF00287FF476AFBBF8E222012393
:207C800003FA0AF313437A6BABF8E23201327A6369E71F4B00EB0A011944321A184401F042
:207CA00099FB174B304683F80880FFF7CABB4FF0FF34FFF7BDBBB8F1000F7FF491A940460F
:207CC000FFF7C8B982F31088FFF7B4BBAA46FFF7A3BB4FF0010A4FF0FF34FFF7A9BBBBF8AE
:207CE0001A30002B18BF3346ABF8E23218E600BF000000000088C34020060020609600087C
:207D00000000002000007A4448960008ABAAAAAAF0040020AAF1030841461046FDF73CF837
:207D20004C498B1E11F8082013F80A3043EA0223834288447FF458AB474A4849137824F075
:207D40000204B3420C707FF46EAB013303F00F0343F010031370424B98456BD9404DC7F824
:207D600034A02C46E94614F801BB0BF1FF33492B6DD83C4B0BEB4B0103EB81014FEA4B0A18
:207D80004B78CA78D1F804E09B00073303F4FF63ADEB030D0CA8561EA2B3A04554D31EF8BC
:207DA000013B042B05461FD814F8013B03F06001602905F1040C03F07F0208D162F01F022B
:207DC00005E014F8013B03F07F0141EAC2121906F7D42A60B6B1A04536D31EF8013B042BBA
:207DE00006F1FF366546DFD9072B2DD1234613F8012B9C18A04527D3AC464CF8082B6B605D
:207E0000002EEAD1184B5B7A25463BB1154A0AEB0B0302EB83039B78DA070ED5114A0AEBEE
:207E20000B0302EB83039B689847CD46444598D3D7F834A00124FFF7FBBA0B4B0B48997AA9
:207E4000FEF760FCCD46F1E70620FEF75DF80420FEF75AF8F004002030000020F40A002089
:207E6000F2040020FCA4000800000020E095000880B5A84BA84A23F0030384B000211520EA
:207E80001360FCF705FE00211620FCF701FE00211720FCF7FDFDA14BA14AA24945F255504D
:207EA0001860136803F001033BB11368013903F00103F9D1002B40F0D7819B4B984A994919
:207EC00001201860136803F002033BB11368013903F00203F9D1002B40F0C68193488F4ADD
:207EE0009349944B40F6C41505604AF6AA244CF6CC4014601060CA6842F08072CA601A6811
:207F0000002442F001021A605C60EFF3108172B6894A8A4B202082F8230007254FF0806067
:207F20001D605C609C60506081F31088032210460121FCF72DFC012203210220FCF728FC17
:207F40007F48804B0168804A804D41F40031016018687F4920F400501860186820F4805040
:207F6000186018681860106820F440501060106810601A6822F4C0621A601A681A604FF4AA
:207F800082722A601A6822F004021A601A6842F004021A601A6822F008021A601A6842F04F
:207FA00008021A601A6842F400521A6081F8264340224A601A68674842F020021A60FEF7D7
:207FC000A1FB72B6644801F0BDFA10B962B6FEF713FE72B6614B57495A7A4D6802B99872E0
:207FE0005F4B60495D4A604C1C6054489C68524E0B608C6011605360002402214FF080633B
:208000005172446084607360584B594E1C70FEF77FFDFF2331460DF107008DF80730FDF7AD
:20802000A7FDC8B142690477531E846102F26B22194603F1780701F8014FB942FBD1C3F889
:2080400079407C339342F3D1447731460DF10700FDF78EFD0028E5D1FF23464F8DF8083017
:2080600006460FE094F82C10A06901F01001FBF785FE94F82C30666213F0100318BF1123AC
:2080800084F82C30394602A8FDF772FD04460028E8D1FF23384E8DF8093004E0C46221467A
:2080A0003430FDF75DFE31460DF10900FDF760FD0028F3D1FF23314C8DF80A3001E0FDF71F
:2080C000D3FD21460DF10A00FDF752FD0028F6D1FF222B498DF80B20044604E0037DC46117
:2080E00023F0010303750DF10B00FDF741FD0028F4D1FF2323498DF80C30044600E0846765
:2081000003A8FDF735FD0028F9D1FF231E4E8DF80D3041E0070B0020CC0700200030004096
:208120000C300040FEFF0F000430004008300040F0ED00E0001000E000ED00E010E000E081
:208140001C1002400C440040104400400844004000E100E0D8950008880A002000000020F9
:208160000C0000202400002018000020480A00209D66000839660008B9650008716500082F
:20818000E53A00088D3A000879490008FBF70EFD94F82720002A53D131460DF10D00FDF78B
:2081A000E7FC04460028F1D1FF23314E8DF80E300DF10E0402E0017CCB074DD43146204605
:2081C000FDF7D6FC0028F6D1FF232646294F8DF80E30044605E00279431D21460068FCF755
:2081E000D3FE39463046FDF7C3FC0028F3D1FF23214C8DF80F3004E000F11101C068FCF7C5
:20820000E7FD21460DF10F00FDF7B2FC0028F3D1EFF30383C3F3080343B14FF080736FF0CA
:20822000060208B401A102B41FB51047134B01225A7262B612489A7A2946FEF763FAC5E6B8
:208240006369E16801320B4484F826206361A360204600F06FF89FE781F00801C068C1F365
:20826000C001FBF78BFDA9E72920FDF74DFE00BF394B000875370008E54A00080000002055
:20828000E8950008002070470849094B886830B400F53702074D084C034402F5D8520020AB
:2082A0002072AB60012030BC8A6070470C000020001BB780180000200000002008B50320BD
:2082C000FDF722FE03780246D8B210B10023137001207047024B00221A72012303707047B5
:2082E0000000002030B4EFF3108472B60E490B68834202D111E083420CD01A461B68002BDA
:20830000F9D14B68834204BF084B4B6084F3108830BC704703681360F3E7054B0268856849
:208320009D601A600B60ECE7000000200C00002024000020F0B48168EFF3108572B61B4C65
:2083400023689A688A1A002A0BDB1C461B689A688A1A002AF9DA0360206085F31088F0BCB5
:208360007047134E72688A1A002A1ADB0027114A114EDFF84CC0934208BF1B680360106092
:2083800000234FF08060226091607360B360CCF8040085F31088002FE1D0F0BC0748FEF79A
:2083A000B1B97168F03181600127E0E700000020001000E02400002010E000E07099000854
:2083C00000ED00E081F0004102E000BF83F0004330B54FEA41044FEA430594EA050F08BF8A
:2083E00090EA020F1FBF54EA000C55EA020C7FEA645C7FEA655C00F0E2804FEA5454D4EB38
:208400005555B8BF6D420CDD2C4480EA020281EA030382EA000083EA010180EA020281EAA0
:208420000303362D88BF30BD11F0004F4FEA01314FF4801C4CEA113102D0404261EB4101AB
